:020000040800F2
:1000000000000220C1420108A5240008AD24000818
:10001000B5240008BD240008C52400080000000025
:10002000000000000000000000000000CD240008D7
:10003000DB24000800000000E9240008F724000881
:10004000114301081143010811430108114301083C
:10005000114301081143010811430108114301082C
:100060001143010811430108114301080525000847
:10007000192500082D2500084125000855250008F0
:10008000692500087D250008114301089125000815
:10009000A525000811430108114301081143010877
:1000A00011430108114301081143010811430108DC
:1000B00011430108114301081143010811430108CC
:1000C00011430108114301081143010811430108BC
:1000D00011430108B9250008DD25000801260008A4
:1000E00011430108114301080000000011430108F9
:1000F00011430108152600081143010829260008AC
:10010000114301081143010811430108114301087B
:100110003D2600086126000811430108114301082B
:100120008526000899260008AD260008C12600088B
:10013000D5260008114301081143010811430108A5
:1001400000000000000000000000000000000000AF
:10015000E9260008FD2600081127000825270008C9
:10016000114301081143010811430108114301081B
:10017000114301081143010811430108114301080B
:100180001143010811430108492700086D270008A1
:1001900011430108114301081143010811430108EB
:1001A00011430108114301081143010811430108DB
:1001B00011430108114301081143010811430108CB
:1001C00011430108114301081143010811430108BB
:1001D00011430108114301081143010811430108AB
:1001E000114301081143010811430108114301089B
:1001F000114301081143010811430108114301088B
:10020000114301081143010811430108114301087A
:10021000114301081143010811430108114301086A
:1002200011430108114301081143010800000000B7
:1002300011430108114301080000000011430108A7
:10024000114301081143010811430108114301083A
:10025000114301081143010811430108114301082A
:10026000114301081143010811430108114301081A
:100270001143010811430108114301080000000067
:100280001143010811430108114301080000000057
:08029000000000001143010809
:1002A00010B5054C237833B9044B13B10448AFF3B0
:1002B00000800123237010BDDC0700240000000033
:1002C0002C53010808B5034B1BB103490348AFF396
:1002D000008008BD00000000E00700242C53010846
:1002E00001F0FF01102A2BDB10F0070F08D010F8E7
:1002F000013B013A8B422DD010F0070F42B3F6D1EB
:10030000F0B441EA012141EA014122F007047FF003
:1003100000070023F0E80256083C85EA010586EA5A
:10032000010685FA47F5A3FA87F586FA47F6A5FA96
:1003300087F68EB9EED1F0BC01F0FF0102F00702A2
:1003400032B110F8013B013A83EA010313B1F8D14D
:100350000020704701387047002D06BF354603382E
:10036000073815F0010F07D1013015F4807F02BF67
:10037000013015F4C03F0130F0BC0138704700BFB8
:1003800053B94AB9002908BF00281CBF4FF0FF31FC
:100390004FF0FF3000F088B9ADF1080C6DE904CEE4
:1003A00000F006F8DDF804E0DDE9022304B0704750
:1003B0002DE9F047089D0F4604468C46002B48D196
:1003C0008A42164661D9B2FA82F34BB1C3F12002D8
:1003D00001FA03FC20FA02F29E4042EA0C0C9C4017
:1003E0004FEA164EB7B2BCFBFEF1220C0EFB11CC4D
:1003F00042EA0C4201FB07F0904209D9B21801F120
:10040000FF3C80F0EE80904240F2EB8002393244B3
:10041000121AA4B2B2FBFEF00EFB102244EA024410
:1004200000FB07F7A74209D9341900F1FF3280F029
:10043000DA80A74240F2D7803444023840EA0140D3
:10044000E41B00211DB1DC400023C5E90043BDE8E9
:10045000F0878B4206D90DB1C5E90001002108469D
:10046000BDE8F087B3FA83F1002948D1BB4202D33B
:10047000824200F20781841A67EB0302012094464E
:10048000002DE4D0C5E9004CE1E7002A00F092809D
:10049000B2FA82F3002B40F0A8808A1A4FEA164E77
:1004A0001FFA86FC0121200CB2FBFEF70EFB17227F
:1004B00040EA02420CFB07F0904207D9B21807F15C
:1004C000FF3802D2904200F2E2804746121AA4B2EC
:1004D000B2FBFEF00EFB102244EA02440CFB00FCCF
:1004E000A44507D9341900F1FF3202D2A44500F225
:1004F000CB801046A4EB0C0440EA0740A2E7C1F110
:1005000020068B4022FA06FC4CEA030C07FA01F4A1
:1005100020FA06F3F7404FEA1C49234300FA01F89A
:100520001FFA8CFEB7FBF9F01C0C09FB107744EAAC
:10053000074400FB0EF7A74202FA01F20AD91CEBAE
:10054000040400F1FF3A80F09B80A74240F29880BB
:1005500002386444E41B9FB2B4FBF9F309FB134473
:1005600047EA044403FB0EFEA64509D91CEB04042C
:1005700003F1FF3780F08280A6457FD9023B6444B7
:1005800043EA0040A4EB0E04A0FB02E7BC42734622
:10059000B94663D360D05DB1B8EB030264EB0904E4
:1005A00004FA06F622FA01F31E43CC40C5E90064C2
:1005B00000214CE76208480842EAC1710B0C43EA8B
:1005C00000438AB242EA0342B3FBF6F1E407B446C1
:1005D0003746B6461F23B0FBF6F0D21B41EA004176
:1005E00061E7614614E7104628E7C3F1200120FACD
:1005F00001F29E4027FA01F19F403A434FEA164E1E
:100600001FFA86FCB1FBFEF70EFB1710110C41EA36
:10061000004107FB0CF8884504FA03F43AD9711835
:1006200007F1FF3001D288451FD8A1EB0801B1FBCB
:10063000FEF808FB0CF70EFB181192B242EA0142D9
:10064000BA422FD2B21808F1FF31C6D2BA42C4D290
:10065000A8F102013244C0E7F0459CD2BEEB020390
:1006600067EB0C070138B94695E7A6EB080841444B
:10067000B81EB1FBFEF808FB0CF7DCE73B467FE752
:10068000504667E70846FBE63444023832E7023F4B
:1006900032441BE7A1EB08013846B1FBFEF808FB2A
:1006A0000CF7C8E7414698E7704700BF80B500AF38
:1006B00010F0F0FA00F022F800F0D4F800F08CF915
:1006C00000F0CEFE00F030FA00F092FA00F084FC68
:1006D00000F016FF00F060FF00F092FD00F0DCFD7E
:1006E00000F0A6FF00F024FE00F06EFE00F0C6FB56
:1006F00000F01EFC09F0BEF800BFFDE780B59EB01B
:1007000000AF07F12C034C220021184613F03EFEE7
:1007100007F10C0320220021184613F037FE0220B7
:1007200010F07EFA0023BB60484BDB6A474A23F097
:100730000103D362454BDB6A03F00103BB60444B0A
:100740009B69434A43F440439361414B9B6903F4E3
:100750004043BB60BB6800BF3D4B9B6903F4005343
:10076000B3F5005FF8D13B4BD3F8F430394A43F08E
:100770000203C2F8F430374BD3F8F43003F002032D
:100780007B607B6800233B60314B9B69304A43F4BC
:10079000404393612E4B9B6903F440433B602B4BDA
:1007A000DB6A2A4A43F00103D362284BDB6A03F079
:1007B00001033B603B6800BF254B9B6903F400537A
:1007C000B3F5005FF8D10123FB624FF480333B6344
:1007D00002233B6502237B650123BB657823FB6510
:1007E00002233B6618237B660223BB660C23FB6651
:1007F00000233B6700237B6707F12C0318460AF0B0
:10080000D3FB0346002B01D000F026F83F23FB600A
:1008100003233B6100237B610823BB614023FB6111
:1008200040233B624FF480637B624023BB6207F14D
:100830000C03042118460BF011F80346002B01D0DD
:1008400000F00AF800BF7837BD4680BD00040058AC
:10085000004802580044025880B400AF72B600BF8E
:1008600000BFFDE780B58CB000AF07F11C0300228C
:100870001A605A609A60DA601A61534BD3F8E0301C
:10088000514A43F08003C2F8E0304F4BD3F8E030D8
:1008900003F08003BB61BB694B4BD3F8E0304A4A9D
:1008A00043F00103C2F8E030474BD3F8E03003F0E7
:1008B00001037B617B69444BD3F8E030424A43F04B
:1008C0000203C2F8E030404BD3F8E03003F00203FB
:1008D0003B613B693C4BD3F8E0303B4A43F01003AB
:1008E000C2F8E030384BD3F8E03003F01003FB607F
:1008F000FB68354BD3F8E030334A43F00803C2F8C5
:10090000E030314BD3F8E03003F00803BB60BB6844
:100910002D4BD3F8E0302C4A43F00403C2F8E0300A
:10092000294BD3F8E03003F004037B607B6800229E
:100930004FF47C4125480DF011FB0223FB6100239D
:100940003B6202237B6207F11C03194620480DF02D
:100950003DF94FF40073FB6100233B6202237B628D
:1009600007F11C03194619480DF030F94FF47C4388
:10097000FB6101233B6200237B620023BB6207F122
:100980001C03194611480DF021F94FF46053FB6127
:1009900000233B6200237B6207F11C0319460D48CC
:1009A0000DF014F94FF48043FB6100233B620223F6
:1009B0007B6207F11C03194606480DF007F900BFDA
:1009C0003037BD4680BD00BF0044025800100258B9
:1009D00000040258000C025880B582B000AF514BA1
:1009E000D3F8D8304F4A43F00103C2F8D8304D4B0A
:1009F000D3F8D83003F001037B607B68494BD3F810
:100A0000D830484A43F00203C2F8D830454BD3F8F7
:100A1000D83003F002033B603B68002201210B2029
:100A200009F0BFF80B2009F0D6F8002200210C20B5
:100A300009F0B7F80C2009F0CEF8002200210D20B3
:100A400009F0AFF80D2009F0C6F8002200210E20B1
:100A500009F0A7F80E2009F0BEF8002200210F20AF
:100A600009F09FF80F2009F0B6F8002200211020AD
:100A700009F097F8102009F0AEF8002200211120AB
:100A800009F08FF8112009F0A6F8002200212F208C
:100A900009F087F82F2009F09EF800220021382065
:100AA00009F07FF8382009F096F80022002139205B
:100AB00009F077F8392009F08EF8002200213A2059
:100AC00009F06FF83A2009F086F8002200213B2057
:100AD00009F067F83B2009F07EF8002200213C2055
:100AE00009F05FF83C2009F076F80022002144204C
:100AF00009F057F8442009F06EF800220021452043
:100B000009F04FF8452009F066F800220021462040
:100B100009F047F8462009F05EF800BF0837BD46E7
:100B200080BD00BF0044025880B500AF2E4B2F4A55
:100B30001A602D4B00229A602B4B0022DA602A4B60
:100B400000221A74284B00225A74274B00229A74F0
:100B5000254B01225A61244B08229A61224B1F2205
:100B6000DA61214B08221A621F4B01225A621E4B86
:100B700001229A621C4B0122DA621B4B01221A638A
:100B8000194B00225A63184B00229A63164B00221D
:100B9000DA63154B20221A64134B04225A64124B59
:100BA00000229A64104B0422DA640F4B00221A656B
:100BB0000D4B04225A650C4B00229A650A4B002209
:100BC000DA65094B0A221A66074B00225A66064B61
:100BD00004229A66044809F019F80346002B01D054
:100BE000FFF73AFE00BF80BDF807002400A00040D8
:100BF00080B500AF2F4B304A1A602E4B00229A600E
:100C00002C4B0022DA602B4B00221A74294B002255
:100C10005A74284B00229A74264B01225A61254BA4
:100C200008229A61234B1F22DA61224B08221A62A2
:100C3000204B01225A621F4B01229A621D4B012256
:100C4000DA621C4B01221A631A4B4FF4A0625A63FA
:100C5000184B00229A63174B0022DA63154B2022AF
:100C60001A64144B04225A64124B00229A64114BEA
:100C70000422DA640F4B00221A650E4B04225A65D7
:100C80000C4B00229A650B4B0022DA65094B0A22B5
:100C90001A66084B00225A66064B04229A660548DB
:100CA00008F0B4FF0346002B01D0FFF7D5FD00BFCD
:100CB00080BD00BF9808002400A4004080B5BCB0EF
:100CC00000AF786007F1DC0300221A605A609A6076
:100CD000DA601A6107F11803C0220021184613F0E8
:100CE00055FB7B681B685F4A934259D14FF4004221
:100CF0004FF00003C7E906234FF08053C7F8883050
:100D000007F1180318460BF035F90346002B01D004
:100D1000FFF7A2FD544B1B680133534A1360524B3B
:100D20001B68012B0ED1514BD3F8EC304F4A43F4E2
:100D30008073C2F8EC304D4BD3F8EC3003F4807381
:100D40007B617B69494BD3F8E030484A43F00103AB
:100D5000C2F8E030454BD3F8E03003F001033B61CB
:100D60003B694FF4C053C7F8DC300223C7F8E030CA
:100D70000023C7F8E4300023C7F8E8300923C7F898
:100D8000EC3007F1DC03194639480CF01FFF002254
:100D90000221132008F005FF132008F01CFF5CE07F
:100DA0007B681B68334A934257D14FF400424FF09F
:100DB0000003C7E906234FF08053C7F8883007F1D6
:100DC000180318460BF0D6F80346002B01D0FFF7A6
:100DD00043FD254B1B680133234A1360224B1B68DC
:100DE000012B0ED1214BD3F8EC30204A43F4807311
:100DF000C2F8EC301D4BD3F8EC3003F48073FB6089
:100E0000FB681A4BD3F8E030184A43F00203C2F8EB
:100E1000E030164BD3F8E03003F00203BB60BB6850
:100E20006023C7F8DC300223C7F8E0300023C7F89E
:100E3000E4300023C7F8E8300923C7F8EC3007F1A5
:100E4000DC0319460C480CF0C1FE002201211420DD
:100E500008F0A7FE142008F0BEFE00BFF037BD4624
:100E600080BD00BF00A000403809002400440258A3
:100E70000000025800A400400004025880B58AB067
:100E800000AF07F11C0300221A605A609A603B46CB
:100E900000221A605A609A60DA601A615A619A6197
:100EA000214B224A1A60204BEF225A601E4B00222F
:100EB0009A601D4B44F62062DA601B4B00221A61D7
:100EC000194B00229A61184810F052F80346002B83
:100ED00001D0FFF7C1FC0023FB6100237B6207F117
:100EE0001C031946104811F077F80346002B01D077
:100EF000FFF7B2FC60233B6000237B600023BB60F4
:100F000000233B613B460C221946074810F082FA49
:100F10000346002B01D0FFF79FFC034800F014F9B3
:100F200000BF2837BD4680BD3C09002400040040B6
:100F300080B588B000AF07F1140300221A605A6030
:100F40009A603B1D00221A605A609A60DA60204B5A
:100F5000204A1A601E4B6B225A601D4B00229A6079
:100F60001B4B4FF6FF72DA60194B00221A61184BC7
:100F700000229A61164810F052F80346002B01D067
:100F8000FFF76AFC00237B610023FB6107F1140378
:100F900019460F4811F020F80346002B01D0FFF747
:100FA0005BFC00237B600123BB600023FB6000230C
:100FB0003B613B1D0C221946054810F08EF9034693
:100FC000002B01D0FFF748FC00BF2037BD4680BD95
:100FD000880900240008004080B500AF0E4B0F4A7E
:100FE0001A600D4BEF225A600B4B00229A600A4B9D
:100FF00040F2E732DA60084B00221A61064B002209
:101000009A6105480FF0E4FE0346002B01D0FFF77C
:1010100023FC00BF80BD00BFD40900240020004095
:1010200080B485B000AF78607B681B680B4A934240
:101030000ED10B4BD3F8E830094A43F00203C2F853
:10104000E830074BD3F8E83003F00203FB60FB689D
:1010500000BF1437BD465DF8047B704700040040B4
:101060000044025880B58AB000AF786007F11403DD
:1010700000221A605A609A60DA601A617B681B6805
:101080001A4A93422ED11A4BD3F8E830184A43F04B
:101090000403C2F8E830164BD3F8E83003F0040339
:1010A0003B613B69124BD3F8E030114A43F008032F
:1010B000C2F8E0300E4BD3F8E03003F00803FB60D9
:1010C000FB684FF400437B610223BB610023FB619B
:1010D00000233B6202237B6207F114031946054893
:1010E0000CF074FD00BF2837BD4680BD00080040ED
:1010F00000440258000C025880B584B000AF7860FC
:101100007B681B680E4A934216D10E4BD3F8E83029
:101110000C4A43F48073C2F8E8300A4BD3F8E83045
:1011200003F48073FB60FB68002201212D2008F08E
:1011300038FD2D2008F04FFD00BF1037BD4680BDA3
:10114000002000400044025880B588B000AF7860AD
:1011500007F10C0300221A605A609A60DA601A6183
:101160007B681B68134A93421FD1134BD3F8E030BE
:10117000114A43F00403C2F8E0300F4BD3F8E030DB
:1011800003F00403BB60BB684FF40073FB600223F1
:101190003B6100237B610023BB610223FB6107F1FC
:1011A0000C03194605480CF011FD00BF2037BD4661
:1011B00080BD00BF000400400044025800080258EF
:1011C0000FB480B582B000AF07F114033B603B68F9
:1011D0003A698121084813F0CBF80346FB80FB886D
:1011E0001A460549054810F0F3FF00BF0837BD4611
:1011F000BDE8804004B07047200A00245C0C002445
:1012000080B500AF224B234A1A60214B4FF4E132E4
:101210005A601F4B00229A601D4B0022DA601C4B63
:1012200000221A611A4B0C225A61194B00229A6152
:10123000174B0022DA61164B00221A62144B00226F
:101240005A62134B00229A62114810F071FF034654
:10125000002B01D0FFF700FB00210D4812F066FFC4
:101260000346002B01D0FFF7F7FA0021084812F0DF
:101270009BFF0346002B01D0FFF7EEFA044812F063
:101280001CFF0346002B01D0FFF7E6FA00BF80BD2C
:10129000A00A0024004C004080B500AF224B234A36
:1012A0001A60214B4FF4E1325A601F4B00229A60C2
:1012B0001D4B0022DA601C4B00221A611A4B0C22D3
:1012C0005A61194B00229A61174B0022DA61164BC2
:1012D00000221A62144B00225A62134B00229A62B7
:1012E000114810F025FF0346002B01D0FFF7B4FA98
:1012F00000210D4812F01AFF0346002B01D0FFF722
:10130000ABFA0021084812F04FFF0346002B01D032
:10131000FFF7A2FA044812F0D0FE0346002B01D0DA
:10132000FFF79AFA00BF80BD340B00240050004044
:1013300080B500AF224B234A1A60214B4FF4E132B3
:101340005A601F4B00229A601D4B0022DA601C4B32
:1013500000221A611A4B0C225A61194B00229A6121
:10136000174B0022DA61164B00221A62144B00223E
:101370005A62134B00229A62114810F0D9FE0346BC
:10138000002B01D0FFF768FA00210D4812F0CEFEC5
:101390000346002B01D0FFF75FFA0021084812F046
:1013A00003FF0346002B01D0FFF756FA044812F062
:1013B00084FE0346002B01D0FFF74EFA00BF80BD2C
:1013C000C80B00240078004080B500AF224B234AB0
:1013D0001A60214B4FF4E1325A601F4B00229A6091
:1013E0001D4B0022DA601C4B00221A611A4B0C22A2
:1013F0005A61194B00229A61174B0022DA61164B91
:1014000000221A62144B00225A62134B00229A6285
:10141000114810F08DFE0346002B01D0FFF71CFA97
:1014200000210D4812F082FE0346002B01D0FFF789
:1014300013FA0021084812F0B7FE0346002B01D032
:10144000FFF70AFA044812F038FE0346002B01D0D9
:10145000FFF702FA00BF80BD5C0C0024007C004056
:1014600080B500AF234B244A1A60224B234A5A60AE
:10147000204B4FF480529A601E4B0022DA601D4BC5
:101480004FF480621A611B4B0C225A61194B0022E7
:101490009A61184B0022DA61164B00221A62154B32
:1014A00000225A62134B00229A62124810F040FE4A
:1014B0000346002B01D0FFF7CFF900210D4812F0B1
:1014C00035FE0346002B01D0FFF7C6F9002109487D
:1014D00012F06AFE0346002B01D0FFF7BDF9054864
:1014E00012F0EBFD0346002B01D0FFF7B5F900BF6A
:1014F00080BD00BFF00C002400100140A086010058
:1015000080B500AF224B234A1A60214B4FF4612271
:101510005A601F4B00229A601D4B0022DA601C4B60
:1015200000221A611A4B0C225A61194B00229A614F
:10153000174B0022DA61164B00221A62144B00226C
:101540005A62134B00229A62114810F0F1FD0346D3
:10155000002B01D0FFF780F900210D4812F0E6FDC5
:101560000346002B01D0FFF777F90021084812F05D
:101570001BFE0346002B01D0FFF76EF9044812F062
:101580009CFD0346002B01D0FFF766F900BF80BD2C
:10159000840D00240044004080B500AF224B234A54
:1015A0001A60214B4FF4E1325A601F4B00229A60BF
:1015B0001D4B0022DA601C4B00221A611A4B0C22D0
:1015C0005A61194B00229A61174B0022DA61164BBF
:1015D00000221A62144B00225A62134B00229A62B4
:1015E000114810F0A5FD0346002B01D0FFF734F998
:1015F00000210D4812F09AFD0346002B01D0FFF7A1
:101600002BF90021084812F0CFFD0346002B01D032
:10161000FFF722F9044812F050FD0346002B01D0D9
:10162000FFF71AF900BF80BD180E002400480040E3
:1016300080B500AF224B234A1A60214B4FF4E132B0
:101640005A601F4B00229A601D4B0022DA601C4B2F
:1016500000221A611A4B0C225A61194B00229A611E
:10166000174B0022DA61164B00221A62144B00223B
:101670005A62134B00229A62114810F059FD03463A
:10168000002B01D0FFF7E8F800210D4812F04EFDC5
:101690000346002B01D0FFF7DFF80021084812F0C5
:1016A00083FD0346002B01D0FFF7D6F8044812F063
:1016B00004FD0346002B01D0FFF7CEF800BF80BD2C
:1016C000AC0E00240014014080B5C8B000AF07F58F
:1016D0009073A3F58E73186007F5867300221A6065
:1016E0005A609A60DA601A6107F14803C02200214B
:1016F000184612F04BFE07F59073A3F58E731B6826
:101700001B685F4A934240F0C9804FF002024FF0DD
:101710000003C7E912230023C7F8C03007F14803CC
:1017200018460AF027FC0346002B01D0FFF794F877
:10173000544BD3F8E830534A43F40023C2F8E8305E
:10174000504BD3F8E83003F400237B647B6C4D4BA3
:10175000D3F8E0304B4A43F00103C2F8E030494B84
:10176000D3F8E03003F001033B643B6C0323C7F87C
:101770000C310223C7F810310023C7F814310023BD
:10178000C7F818310823C7F81C3107F586731946C6
:101790003D480CF01BFA3D4B3D4A1A603B4B3F2243
:1017A0005A603A4B00229A60384B0022DA60374B7D
:1017B0004FF480621A61354B00225A61334B00228C
:1017C0009A61324B0022DA61304B00221A622F4BB1
:1017D00000225A622D480CF0DBFB0346002B01D09F
:1017E000FFF73AF807F59073A3F58E731B68274A45
:1017F000C3F88020254A07F59073A3F58E731B6804
:101800009363244B244A1A60224B40225A60214B96
:1018100040229A601F4B0022DA601E4B4FF4806218
:101820001A611C4B00225A611A4B00229A61194B13
:101830000022DA61174B00221A62164B00225A620C
:1018400014480CF0A5FB0346002B01D0FFF704F869
:1018500007F59073A3F58E731B680E4ADA670D4A7D
:1018600007F59073A3F58E731B6893630022002124
:10187000342008F096F9342008F0ADF900F0FFBDEF
:10188000004C00400044025800000258400F002461
:1018900010040240B80F00242804024007F590739A
:1018A000A3F58E731B681B685F4A934240F0CA80A1
:1018B0004FF002024FF00003C7E912230023C7F8DC
:1018C000C03007F1480318460AF054FB0346002BCA
:1018D00001D0FEF7C1FF554BD3F8E830534A43F42B
:1018E0008013C2F8E830514BD3F8E83003F480138A
:1018F000FB63FB6B4D4BD3F8E0304C4A43F00203E3
:10190000C2F8E030494BD3F8E03003F00203BB6388
:10191000BB6B4FF44053C7F80C310223C7F81031AA
:101920000023C7F814310023C7F818310E23C7F875
:101930001C3107F5867319463D480CF047F93D4BBD
:101940003D4A1A603B4B41225A603A4B00229A6052
:10195000384B0022DA60374B4FF480621A61354B06
:1019600000225A61334B00229A61324B0022DA6125
:10197000304B00221A622F4B00225A622D480CF085
:1019800007FB0346002B01D0FEF766FF07F59073B7
:10199000A3F58E731B68274AC3F88020254A07F5F4
:1019A0009073A3F58E731B689363244B244A1A60CB
:1019B000224B42225A60214B40229A601F4B002248
:1019C000DA601E4B4FF480621A611C4B00225A6190
:1019D0001A4B00229A61194B0022DA61174B002240
:1019E0001A62164B00225A6214480CF0D1FA0346D0
:1019F000002B01D0FEF730FF07F59073A3F58E732F
:101A00001B680E4ADA670D4A07F59073A3F58E73CB
:101A10001B68936300220021352008F0C2F83520AE
:101A200008F0D9F800F02BBD0050004000440258E7
:101A3000000402583010002458040240A81000246A
:101A40007004024007F59073A3F58E731B681B6842
:101A50005F4A934240F0CA804FF002024FF0000309
:101A6000C7E912230023C7F8C03007F1480318461E
:101A70000AF080FA0346002B01D0FEF7EDFE554B2D
:101A8000D3F8E830534A43F08043C2F8E830514B72
:101A9000D3F8E83003F080437B637B6B4D4BD3F886
:101AA000E0304C4A43F01003C2F8E030494BD3F821
:101AB000E03003F010033B633B6B4FF4C073C7F897
:101AC0000C310223C7F810310023C7F8143100236A
:101AD000C7F818310723C7F81C3107F58673194674
:101AE0003D480CF073F83D4B3D4A1A603B4B4F228A
:101AF0005A603A4B00229A60384B0022DA60374B2A
:101B00004FF480621A61354B00225A61334B002238
:101B10009A61324B0022DA61304B00221A622F4B5D
:101B200000225A622D480CF033FA0346002B01D0F4
:101B3000FEF792FE07F59073A3F58E731B68274A94
:101B4000C3F88020254A07F59073A3F58E731B68B0
:101B50009363244B244A1A60224B50225A60214B33
:101B600040229A601F4B0022DA601E4B4FF48062C5
:101B70001A611C4B00225A611A4B00229A61194BC0
:101B80000022DA61174B00221A62164B00225A62B9
:101B900014480CF0FDF90346002B01D0FEF75CFE63
:101BA00007F59073A3F58E731B680E4ADA670D4A2A
:101BB00007F59073A3F58E731B68936300220121D0
:101BC000522007F0EEFF522008F005F800F057BC55
:101BD00000780040004402580010025820110024F0
:101BE000A0040240981100244004024007F59073BD
:101BF000A3F58E731B681B685E4A934240F0C88051
:101C00004FF002024FF00003C7E912230023C7F888
:101C1000C03007F1480318460AF0ACF90346002B20
:101C200001D0FEF719FE544BD3F8E830524A43F086
:101C30000043C2F8E830504BD3F8E83003F00043DB
:101C4000FB62FB6A4C4BD3F8E0304B4A43F0100385
:101C5000C2F8E030484BD3F8E03003F01003BB6229
:101C6000BB6A0323C7F80C310223C7F810310023E5
:101C7000C7F814310023C7F818310823C7F81C31FE
:101C800007F5867319463D480BF0A0FF3C4B3D4AD3
:101C90001A603B4B51225A60394B00229A60384BF4
:101CA0000022DA60364B4FF480621A61344B002216
:101CB0005A61334B00229A61314B0022DA61304B7A
:101CC00000221A622E4B00225A622D480CF060F955
:101CD0000346002B01D0FEF7BFFD07F59073A3F577
:101CE0008E731B68264AC3F88020254A07F5907337
:101CF000A3F58E731B689363234B244A1A60224B0F
:101D000052225A60204B40229A601F4B0022DA6018
:101D10001D4B4FF480621A611B4B00225A611A4B13
:101D200000229A61184B0022DA61174B00221A62D6
:101D3000154B00225A6214480CF02AF90346002B76
:101D400001D0FEF789FD07F59073A3F58E731B682C
:101D50000D4ADA670C4A07F59073A3F58E731B687A
:101D6000936300220121532007F01BFF532007F04B
:101D700032FF84E3007C0040004402580010025807
:101D800010120024880002408812002488040240B7
:101D900007F59073A3F58E731B681B68644A934222
:101DA00040F0D4804FF001024FF00003C7E9122346
:101DB0000023C7F8C43007F1480318460AF0DAF8E0
:101DC0000346002B01D0FEF747FD5A4BD3F8F03005
:101DD000584A43F01003C2F8F030564BD3F8F030B5
:101DE00003F010037B627B6A524BD3F8E030514A18
:101DF00043F00103C2F8E0304E4BD3F8E03003F07B
:101E0000010207F59073A3F580731A6007F59073CC
:101E1000A3F580731B684FF4C063C7F80C3102232D
:101E2000C7F810310123C7F814310023C7F818315F
:101E30000723C7F81C3107F5867319463E480BF097
:101E4000C5FE3E4B3E4A1A603C4B29225A603B4B32
:101E500000229A60394B0022DA60384B4FF48062DE
:101E60001A61364B00225A61344B00229A61334B7F
:101E70004FF48072DA61314B4FF400321A622F4B0B
:101E800000225A622D480CF083F80346002B01D043
:101E9000FEF7E2FC07F59073A3F58E731B68274AE3
:101EA000C3F88020254A07F59073A3F58E731B684D
:101EB0009363244B244A1A60224B2A225A60214BF6
:101EC00040229A601F4B0022DA601E4B4FF4806262
:101ED0001A611C4B00225A611A4B00229A61194B5D
:101EE0000022DA61174B4FF400321A62154B0022C0
:101EF0005A6214480CF04CF80346002B01D0FEF750
:101F0000ABFC07F59073A3F58E731B680D4ADA6777
:101F10000C4A07F59073A3F58E731B689363002238
:101F20000021252007F03DFE252007F054FEA6E203
:101F30000010014000440258000002580013002421
:101F40001000024078130024A000024007F59073AF
:101F5000A3F58E731B681B68664A934240F0D880D5
:101F60004FF002024FF00003C7E912230023C7F825
:101F7000C03007F14803184609F0FCFF0346002B68
:101F800001D0FEF769FC5C4BD3F8E8305A4A43F4C1
:101F90000033C2F8E830584BD3F8E83003F400328D
:101FA00007F59073A3F582731A6007F59073A3F594
:101FB00082731B68504BD3F8E0304F4A43F0010363
:101FC000C2F8E0304C4BD3F8E03003F0010207F5E3
:101FD0009073A3F584731A6007F59073A3F5847367
:101FE0001B680C23C7F80C310223C7F810310023FB
:101FF000C7F814310023C7F818310723C7F81C317C
:1020000007F5867319463D480BF0E0FD3C4B3D4A11
:102010001A603B4B2B225A60394B00229A60384B96
:102020000022DA60364B4FF480621A61344B002292
:102030005A61334B00229A61314B0022DA61304BF6
:1020400000221A622E4B00225A622D480BF0A0FF8C
:102050000346002B01D0FEF7FFFB07F59073A3F5B5
:102060008E731B68264AC3F88020254A07F59073B3
:10207000A3F58E731B689363234B244A1A60224B8B
:102080002C225A60204B40229A601F4B0022DA60BB
:102090001D4B4FF480621A611B4B00225A611A4B90
:1020A00000229A61184B0022DA61174B00221A6253
:1020B000154B00225A6214480BF06AFF0346002BAE
:1020C00001D0FEF7C9FB07F59073A3F58E731B686B
:1020D0000D4ADA670C4A07F59073A3F58E731B68F7
:1020E000936300220021262007F05BFD262007F0E5
:1020F00072FDC4E100440040004402580000025850
:10210000F0130024700002406814002458000240BC
:1021100007F59073A3F58E731B681B68674A93429B
:1021200040F0DA804FF002024FF00003C7E91223BB
:102130000023C7F8C03007F14803184609F01AFF1A
:102140000346002B01D0FEF787FB5D4BD3F8E83048
:102150005B4A43F48023C2F8E830594BD3F8E830A7
:1021600003F4802207F59073A3F586731A6007F5D0
:102170009073A3F586731B68514BD3F8E030504A37
:1021800043F00803C2F8E0304D4BD3F8E03003F0E1
:10219000080207F59073A3F588731A6007F590732A
:1021A000A3F588731B684FF44073C7F80C31022302
:1021B000C7F810310023C7F814310023C7F81831CD
:1021C0000723C7F81C3107F5867319463D480BF005
:1021D000FDFC3D4B3D4A1A603B4B2D225A603A4B69
:1021E00000229A60384B0022DA60374B4FF480624D
:1021F0001A61354B00225A61334B00229A61324BEF
:102200000022DA61304B00221A622F4B00225A6200
:102210002D480BF0BDFE0346002B01D0FEF71CFB42
:1022200007F59073A3F58E731B68274AC3F88020C7
:10223000254A07F59073A3F58E731B689363244BAF
:10224000244A1A60224B2E225A60214B40229A6067
:102250001F4B0022DA601E4B4FF480621A611C4B48
:1022600000225A611A4B00229A61194B0022DA614E
:10227000174B00221A62164B00225A6214480BF0C8
:1022800087FE0346002B01D0FEF7E6FA07F59073B0
:10229000A3F58E731B680E4ADA670D4A07F5907333
:1022A000A3F58E731B68936300220021272007F09B
:1022B00078FC272007F08FFCE1E000BF00480040D9
:1022C00000440258000C0258E01400242800024088
:1022D000581500244000024007F59073A3F58E7353
:1022E0001B681B68684A934240F0C9804FF00102A6
:1022F0004FF00003C7E912230023C7F8C43007F1E9
:102300004803184609F036FE0346002B01D0FEF7BD
:10231000A3FA5E4BD3F8F0305C4A43F02003C2F8D6
:10232000F0305A4BD3F8F03003F0200207F59073E9
:10233000A3F58A731A6007F59073A3F58A731B6877
:10234000524BD3F8E030514A43F00403C2F8E03076
:102350004E4BD3F8E03003F0040207F59073A3F579
:102360008C731A6007F59073A3F58C731B68C023F8
:10237000C7F80C310223C7F810310023C7F8143115
:102380000023C7F818310723C7F81C3107F58673F7
:1023900019463F480BF01AFC3E4B3F4A1A603D4B32
:1023A00048225A603B4B40229A603A4B0022DA6046
:1023B000384B4FF480621A61364B00225A61354B1C
:1023C00000229A61334B0022DA61324B00221A62FA
:1023D000304B00225A622F480BF0DAFD0346002BE7
:1023E00001D0FEF739FA07F59073A3F58E731B68D9
:1023F000284ADA67274A07F59073A3F58E731B689E
:102400009363264B264A1A60244B47225A60234B7B
:1024100000229A60214B0022DA60204B4FF4806248
:102420001A611E4B00225A611C4B00229A611B4B01
:102430000022DA61194B00221A62184B00225A62FC
:1024400016480BF0A5FD0346002B01D0FEF704FA59
:1024500007F59073A3F58E731B68104AC3F88020AC
:102460000E4A07F59073A3F58E731B6893630022E1
:102470000021472007F095FB472007F0ACFB00BF89
:1024800007F59077BD4680BD001401400044025816
:1024900000080258D0150024B80002404816002455
:1024A000B804024080B400AF00BFFDE780B400AFC5
:1024B00000BFFDE780B400AF00BFFDE780B400AF10
:1024C00000BFFDE780B400AF00BFFDE780B400AF00
:1024D00000BFBD465DF8047B704780B400AF00BF0D
:1024E000BD465DF8047B704780B400AF00BFBD46B9
:1024F0005DF8047B704780B500AF0EF03DFC00BF77
:1025000080BD000080B500AF02480DF06BF800BF41
:1025100080BD00BF0013002480B500AF02480DF05D
:1025200061F800BF80BD00BFE014002480B500AF9B
:1025300002480DF057F800BF80BD00BF58150024B9
:1025400080B500AF02480DF04DF800BF80BD00BF60
:102550006814002480B500AF02480DF043F800BFB6
:1025600080BD00BFF013002480B500AF02480DF01D
:1025700039F800BF80BD00BF1012002480B500AF45
:1025800002480DF02FF800BF80BD00BF7813002473
:1025900080B500AF024807F0F9FF00BF80BD00BF63
:1025A000F807002480B500AF024807F0EFFF00BF36
:1025B00080BD00BF9808002480B500AF04490548DD
:1025C00004F09BF904480FF065FF00BF80BD00BF19
:1025D00008000024C4190024F00C002480B500AFCA
:1025E0000449054804F089F904480FF053FF00BF7F
:1025F00080BD00BF24010024CC190024840D0024D8
:1026000080B500AF02480FF045FF00BF80BD00BF9E
:10261000180E002480B500AF02480EF057FD00BF31
:1026200080BD00BFD409002480B500AF02480CF083
:10263000D9FF00BF80BD00BFD015002480B500AF1A
:102640000449054804F059F904480FF023FF00BF7E
:1026500080BD00BF6C010024DC190024A00A002406
:1026600080B500AF0449054804F047F904480FF06D
:1026700011FF00BF80BD00BF7C010024E4190024CD
:10268000340B002480B500AF02480CF0ABFF00BF54
:1026900080BD00BF400F002480B500AF02480CF0A1
:1026A000A1FF00BF80BD00BFB80F002480B500AF00
:1026B00002480CF097FF00BF80BD00BF98110024B6
:1026C00080B500AF02480CF08DFF00BF80BD00BF99
:1026D0003010002480B500AF02480CF083FF00BF2B
:1026E00080BD00BFA810002480B500AF02480CF0E8
:1026F00079FF00BF80BD00BF8812002480B500AF05
:1027000002480CF06FFF00BF80BD00BF2011002405
:1027100080B500AF02480CF065FF00BF80BD00BF70
:102720004816002480B500AF0449054804F0E5F8D8
:1027300004480FF0AFFE00BF80BD00BF840100243D
:10274000EC190024AC0E002480B500AF0449054804
:1027500004F0D3F804480FF09DFE00BF80BD00BF19
:1027600074010024F4190024C80B002480B500AFC4
:102770000449054804F0C1F804480FF08BFE00BF7F
:1027800080BD00BF8C010024FC1900245C0C0024D7
:1027900080B483B000AF0A4BD3F8F430084A43F05A
:1027A0000203C2F8F430064BD3F8F43003F002030E
:1027B0007B607B6800BF0C37BD465DF8047B7047CB
:1027C0000044025880B400AF294BD3F88830284A1F
:1027D00043F47003C2F88830264B1B68254A43F047
:1027E00001031360234B00221A61224B1A6821490E
:1027F000214B13400B601F4B00229A611D4B00229E
:10280000DA611C4B00221A621A4B00229A62194BA1
:102810000022DA62174B00221A63164B00225A6319
:10282000144B00229A63134B0022DA63114B0022EF
:102830001A64104B00225A640E4B1B680D4A23F495
:10284000802313600B4B00221A660C4B1A680C4B4A
:102850001340B3F1005F02D20A4B01221A60044B0D
:102860004FF000629A6000BFBD465DF8047B704780
:1028700000ED00E0004402587FEDF6EA0010005C35
:102880000000FFFF0881005180B483B000AF786082
:102890007B684FF480625A807B684FF480629A8034
:1028A0007B684FF48062DA807B684FF480621A8123
:1028B0007B6803229A727B680322DA727B684FF48A
:1028C00080621A807B680022DA817B6800221A828B
:1028D0007B6800225A827B680022A3F8E8207B688C
:1028E000002283F832207B68002283F833207B6843
:1028F000002283F838207B68002283F835207B682B
:10290000002283F836207B68002283F83A207B6817
:10291000002283F83B207B68002283F837207B6805
:10292000002283F834207B68002283F839207B68FA
:102930004FF00002C3F8F0207B684FF00002C3F8AC
:10294000F4207B68092283F8FC207B68002283F84E
:10295000FE2000BF0C37BD465DF8047B70470000C9
:1029600080B582B000AF78600B467B807B881A46CA
:102970007968074800F010F8054800F0B7FA054BF1
:1029800000221A80002318460837BD4680BD00BFCC
:10299000C01600241818002480B586B000AFF86077
:1029A000B9601346FB800023FB75BB681B781A4691
:1029B000BB6801331B781B021343C3F30A0340F2C5
:1029C000946293420FDCBB681B781A46BB680133E4
:1029D0001B781B021343C3F30A03B3F5B67F02DB74
:1029E000FB7D0133FB75BB6801331B78DB08DBB271
:1029F0001A46BB6802331B785B011343C3F30A0317
:102A000040F29462934212DCBB6801331B78DB080E
:102A1000DBB21A46BB6802331B785B011343C3F376
:102A20000A03B3F5B67F02DBFB7D0133FB75BB68A0
:102A300002331B789B09DBB21A46BB6803331B7851
:102A40009B001A43BB6804331B789B021343C3F3F8
:102A50000A0340F29462934217DCBB6802331B788E
:102A60009B09DBB21A46BB6803331B789B001A43F1
:102A7000BB6804331B789B021343C3F30A03B3F50B
:102A8000B67F02DBFB7D0133FB75BB6804331B782B
:102A90005B08DBB21A46BB6805331B78DB011343C6
:102AA000C3F30A0340F29462934212DCBB6804331E
:102AB0001B785B08DBB21A46BB6805331B78DB0169
:102AC0001343C3F30A03B3F5B67F02DBFB7D013387
:102AD000FB75BB6805331B781B09DBB203F00C03E5
:102AE000042B11D0BB6805331B781B09DBB203F044
:102AF0000C03082B08D0BB6805331B781B09DBB21D
:102B000003F00C030C2B02D1FB7D0133FB75BB687A
:102B100005331B781B09DBB203F00303012B11D033
:102B2000BB6805331B781B09DBB203F00303022BE0
:102B300008D0BB6805331B781B09DBB203F0030325
:102B4000032B02D1FB7D0133FB75FB7D062B40F08F
:102B5000C781BB681B781AB2BB6801331B781BB2F4
:102B60001B021BB213431BB29BB2C3F30A039AB2FC
:102B7000FB685A80BB6801331B78DB08DBB21AB2F2
:102B8000BB6802331B781BB25B011BB213431BB241
:102B90009BB2C3F30A039AB2FB689A80BB68023304
:102BA0001B789B09DBB21AB2BB6803331B781BB2DC
:102BB0009B001BB213431AB2BB6804331B781BB2D1
:102BC0009B021BB213431BB29BB2C3F30A039AB21C
:102BD000FB68DA80BB6804331B785B08DBB21AB28F
:102BE000BB6805331B781BB2DB011BB213431BB25E
:102BF0009BB2C3F30A039AB2FB681A81BB68053320
:102C00001B781B09DBB29B10DBB203F00303DAB2C3
:102C1000FB689A72BB6805331B781B09DBB203F0B3
:102C20000303DAB2FB68DA72BB6810331B781AB29E
:102C3000BB6811331B781BB21B021BB213431BB2C0
:102C40009BB2C3F30A039AB2FB681A80FB685B88E5
:102C5000B3F57F7F09D9FB685B8840F2034293425A
:102C600003D8FB684FF480625A80FB689B88B3F5F9
:102C70007F7F09D9FB689B8840F20342934203D8C7
:102C8000FB684FF480629A80FB68DB88B3F57F7F36
:102C900009D9FB68DB8840F20342934203D8FB6802
:102CA0004FF48062DA80FB681B89B3F57F7F09D916
:102CB000FB681B8940F20342934203D8FB684FF440
:102CC00080621A81BB6806331B781AB2BB6807336F
:102CD0001B781BB21B021BB213431AB2FB68DA81CA
:102CE000BB6808331B781AB2BB6809331B781BB268
:102CF0001B021BB213431AB2FB681A82BB680A3369
:102D00001B781AB2BB680B331B781BB21B021BB2B9
:102D100013431AB2FB685A82BB681A7BFB681A75A8
:102D2000BB685A7BFB685A75FB68B3F90E3046F2F4
:102D3000A812934203DDFB6846F2A812DA81FB6811
:102D4000B3F90E30684A934203DAFB6849F65862D9
:102D5000DA81FB68B3F9103046F2A812934203DD22
:102D6000FB6846F2A8121A82FB68B3F910305E4A7B
:102D7000934203DAFB6849F658621A82BB680E3345
:102D80001B781AB2BB680F331B781BB21B021BB235
:102D900013431BB29AB2FB681A83BB680E331B78CD
:102DA00003F00103DAB2FB689A76BB680E331B7836
:102DB0005B08DBB203F00103DAB2FB681A77BB6889
:102DC0000E331B789B08DBB203F00103DAB2FB6819
:102DD000DA76BB680E331B78DB08DBB203F0010345
:102DE000DAB2FB685A77BB680F331B78DB09DAB2BB
:102DF000FB6883F82720BB680F331B789B09DBB285
:102E000003F00103DAB2FB6883F82220BB680F33BA
:102E10001B785B09DBB203F00103DAB2FB6883F8CD
:102E20002520BB680F331B781B09DBB203F00103BD
:102E3000DAB2FB6883F82920BB680F331B78DB0804
:102E4000DBB203F00103DAB2FB6883F82820BB6829
:102E50000F331B789B08DBB203F00103DAB2FB6887
:102E600083F82420BB680F331B785B08DBB203F0C8
:102E70000103DAB2FB6883F82320BB680F331B78A9
:102E800003F00103DAB2FB6883F82620BB680E3337
:102E90001B78DB09DAB2FB6883F82120BB680E33AC
:102EA0001B789B09DBB203F00103DAB2FB6883F8FD
:102EB0002020BB680E331B785B09DBB203F00103F3
:102EC000DAB2FB68DA77BB680E331B781B09DBB21A
:102ED00003F00103DAB2FB689A77F86800F082F930
:102EE00000BF1837BD4680BD589EFFFF80B483B039
:102EF00000AF78607B685B8840F22C52934203D924
:102F00007B6801225A770DE07B685B8840F22C5287
:102F1000934207D87B685B88B3F5806F02D97B68E2
:102F200000225A777B685B88B3F5357F03D27B68D4
:102F30000122DA760CE07B685B88B3F5357F07D336
:102F40007B685B88B3F5806F02D27B680022DA76FB
:102F50007B689B8840F22C52934203D97B68012204
:102F60009A760DE07B689B8840F22C52934207D8FA
:102F70007B689B88B3F5806F02D97B6800229A76C4
:102F80007B689B88B3F5357F03D27B6801221A7773
:102F90000CE07B685B88B3F5357F07D37B685B8883
:102FA000B3F5806F02D27B6800221A777B689A7E25
:102FB0007B681B7F9A423ED17B68D3ED3C7AF5EE6D
:102FC000C07AF1EE10FA16DB7B68D3ED3C7AB0EEF6
:102FD000007A77EEC77A7B68C3ED3C7A7B68D3EDE5
:102FE0003C7AF5EEC07AF1EE10FA04D57B684FF02A
:102FF0000002C3F8F0207B68D3ED3C7AF5EEC07A8E
:10300000F1EE10FA46D57B68D3ED3C7AB0EE007A4B
:1030100077EE877A7B68C3ED3C7A7B68D3ED3C7AA8
:10302000F5EEC07AF1EE10FA34DD7B684FF0000265
:10303000C3F8F0202EE07B6893ED3C7A7B689B7EA2
:103040001A467B681B7FD31A5B0007EE903AF8EEB6
:10305000E77A77EE277A7B68C3ED3C7A7B68D3ED1D
:103060003C7A9FED5A7AF4EEC77AF1EE10FA03DD5E
:103070007B68574AC3F8F0207B68D3ED3C7A9FED1C
:10308000557AF4EEC77AF1EE10FA03D57B68524A0E
:10309000C3F8F0207B68DA7E7B685B7F9A423ED182
:1030A0007B68D3ED3D7AF5EEC07AF1EE10FA16DBCF
:1030B0007B68D3ED3D7AB0EE007A77EEC77A7B6815
:1030C000C3ED3D7A7B68D3ED3D7AF5EEC07AF1EE43
:1030D00010FA04D57B684FF00002C3F8F4207B6837
:1030E000D3ED3D7AF5EEC07AF1EE10FA46D57B6865
:1030F000D3ED3D7AB0EE007A77EE877A7B68C3ED48
:103100003D7A7B68D3ED3D7AF5EEC07AF1EE10FAA8
:1031100034DD7B684FF00002C3F8F4202EE07B68BA
:1031200093ED3D7A7B685B7F1A467B68DB7ED31A22
:103130005B0007EE903AF8EEE77A77EE277A7B6845
:10314000C3ED3D7A7B68D3ED3D7A9FED207AF4EEB6
:10315000C77AF1EE10FA03DD7B681D4AC3F8F4204C
:103160007B68D3ED3D7A9FED1B7AF4EEC77AF1EEE2
:1031700010FA03D57B68184AC3F8F4207B681B88D3
:10318000B3F5AF6F03D97B68144AC3F8F8207B68A6
:103190001B88B3F5487F03D27B68114AC3F8F82037
:1031A0007B681B88B3F5487F09D37B681B88B3F520
:1031B000AF6F04D87B684FF00002C3F8F82000BF5F
:1031C0000C37BD465DF8047B704700BF0000C84265
:1031D0000000C8420000C8C20000C8C2000096C477
:1031E0000000964480B483B000AF78607B689B7E1B
:1031F000012B0ED1994B1B8801339AB2974B1A8041
:10320000964B1B88042B0BD17B68012283F82C2062
:1032100006E07B68002283F82C20904B00221A8065
:103220007B68DB7E012B0ED18D4B1B8801339AB25C
:103230008B4B1A808A4B1B88042B0BD17B68012295
:1032400083F82D2006E0864B00221A807B6800223E
:1032500083F82D207B681B7F012B0ED1814B1B88AF
:1032600001339AB27F4B1A807E4B1B88042B0BD103
:103270007B68012283F82E2006E07A4B00221A8018
:103280007B68002283F82E207B685B7F012B0ED1A8
:10329000754B1B8801339AB2734B1A80724B1B8893
:1032A000042B0BD17B68012283F82F2006E06E4BA4
:1032B00000221A807B68002283F82F207B6893F815
:1032C0002730012B1ED1694B1B8801339AB2674B03
:1032D0001A80664B1B88042B1BD17B68012283F864
:1032E00039207B6893F857300133DAB27B6883F872
:1032F00057207B6893F85A300133DAB27B6883F841
:103300005A2006E0594B00221A807B68002283F87D
:1033100039207B6893F82530012B16D1544B1B883C
:1033200001339AB2524B1A80514B1B88032B13D195
:103330007B68012283F837207B6893F8553001338E
:10334000DAB27B6883F8552006E0494B00221A80E8
:103350007B68002283F837207B6893F82630012BA6
:1033600016D1444B1B8801339AB2424B1A80414B11
:103370001B88042B13D17B6893F838300133DAB201
:103380007B6883F838207B68012283F8562006E0AA
:10339000384B00221A807B68002283F856207B6815
:1033A00093F82330012B0ED1334B1B8801339AB293
:1033B000314B1A80304B1B88042B0BD17B680122C8
:1033C00083F8352006E02C4B00221A807B6800220F
:1033D00083F835207B6893F82930012B16D1274BD1
:1033E0001B8801339AB2254B1A80244B1B88042B6F
:1033F00013D17B68012283F83B207B6893F8593016
:103400000133DAB27B6883F8592006E01B4B0022B7
:103410001A807B68002283F83B207B6893F8243075
:10342000012B2FD1164B1B8801339AB2144B1A80F3
:10343000134B1B88042B28D17B6893F8363001335B
:10344000DAB27B6883F836207B6893F85430013316
:10345000DAB27B6883F8542017E000BFD617002447
:10346000D8170024DA170024DC170024DE17002404
:10347000E0170024E2170024E4170024E6170024D4
:10348000E8170024964B00221A807B6893F82030BE
:10349000012B12D1934B1B8801339AB2914B1A80A6
:1034A000904B1B88042B0BD17B6893F8323001338F
:1034B000DAB27B6883F8322002E08A4B00221A805D
:1034C0007B6893F82130012B12D1874B1B88013385
:1034D0009AB2854B1A80844B1B88042B0BD17B68D6
:1034E00093F833300133DAB27B6883F8332002E09B
:1034F0007D4B00221A807B6893F82830012B16D16F
:103500007A4B1B8801339AB2784B1A80774B1B8811
:10351000042B13D17B68012283F83A207B6893F84F
:1035200058300133DAB27B6883F8582006E06F4BDD
:1035300000221A807B68002283F83A207B6893F887
:103540002230012B16D16A4B1B8801339AB2684B8B
:103550001A80674B1B88042B13D17B68012283F8E8
:1035600034207B6893F852300133DAB27B6883F8F9
:10357000522006E05E4B00221A807B68002283F80E
:1035800034207B68DB7F012B11D15A4B1B88013320
:103590009AB2584B1A80574B1B88042B0BD17B686F
:1035A000012283F83120534B00221A8003E07B680C
:1035B000002283F831207B689B7F012B19D14E4B71
:1035C0001B8801339AB24C4B1A804B4B1B88042B3F
:1035D00013D17B68012283F830207B6893F85B303D
:1035E0000133DAB27B6883F85B20434B00221A80F8
:1035F00003E07B68002283F830207B681B7D012B71
:103600000DD13E4B1B8801339AB23C4B1A803B4B89
:103610001B88042B09D17B6801229A7505E0374B82
:1036200000221A807B6800229A757B685B7D012BE3
:1036300010D1334B1B8801339AB2314B1A80304B77
:103640001B88042B09D17B68DB7D0133DAB27B68F0
:10365000DA7502E02A4B00221A807B68DB7F012B9F
:103660001BD17B689B7F012B17D17B6893F8283097
:10367000012B12D1234B1B8801339AB2214B1A80A4
:10368000204B1B88042B0BD17B6893F83C30013313
:10369000DAB27B6883F83C2002E01A4B00221A80E1
:1036A0007B68DB7F012B31D17B689B7F012B2DD188
:1036B0007B6893F82930012B28D1134B1B880133E9
:1036C0009AB2114B1A80104B1B88042B21D17B68B6
:1036D00093F83D300133DAB27B6883F83D2018E07F
:1036E000E8170024EA170024EC170024EE17002442
:1036F000F0170024F2170024F4170024F617002412
:10370000F8170024FA170024FC170024774B002236
:103710001A807B68DB7F012B1BD17B689B7F012B91
:1037200017D17B6893F82230012B12D1704B1B8884
:1037300001339AB26E4B1A806D4B1B88042B0BD150
:103740007B6893F83E300133DAB27B6883F83E2021
:1037500002E0674B00221A807B689B7F012B17D108
:103760007B6893F82530012B12D1624B1B88013303
:103770009AB2604B1A805F4B1B88042B0BD17B687D
:1037800093F83F300133DAB27B6883F83F2002E0E0
:10379000584B00221A807B68DB7F012B1BD17B6892
:1037A0009B7F012B17D17B6893F82630012B12D118
:1037B000514B1B8801339AB24F4B1A804E4B1B88DA
:1037C000042B0BD17B6893F840300133DAB27B686D
:1037D00083F8402002E0484B00221A807B689B7FE0
:1037E000012B17D17B6893F82230012B12D1434B68
:1037F0001B8801339AB2414B1A80404B1B88042B23
:103800000BD17B6893F841300133DAB27B6883F8DF
:10381000412002E0394B00221A807B689B7F012BFC
:1038200017D17B6893F82730012B12D1344B1B88BA
:1038300001339AB2324B1A80314B1B88042B0BD1C7
:103840007B6893F842300133DAB27B6883F8422018
:1038500002E02B4B00221A807B689B7F012B1BD13F
:103860007B6893F82730012B16D17B68DB7F012B17
:1038700012D1244B1B8801339AB2224B1A80214B60
:103880001B88042B0BD17B6893F843300133DAB2E9
:103890007B6883F8432002E01A4B00221A807B6881
:1038A0009B7F012B17D17B6893F82030012B12D11D
:1038B000154B1B8801339AB2134B1A80124B1B888D
:1038C000042B0CD17B6893F844300133DAB27B6867
:1038D00083F8442003E00C4B00221A8000BF00BF95
:1038E0000C37BD465DF8047B704700BFFC17002411
:1038F000FE170024001800240218002404180024D5
:1039000006180024081800240A18002480B483B084
:1039100000AF78607B68B3F8EA207B68B3F8EC30DE
:103920005B089BB29A421CD27B68B3F900301A46FE
:103930007B68B3F8EA3019467B68B3F8EC305B0873
:103940009BB20B449A4228DD7B68B3F900309AB2EF
:103950007B68B3F8EC30D31A9BB21AB27B681A803A
:103960001BE07B68B3F900301A467B68B3F8EA3095
:1039700019467B68B3F8EC305B089BB2CB1A9A42CD
:103980000BDA7B68B3F900309AB27B68B3F8EC309D
:1039900013449BB21AB27B681A807B68B3F900307B
:1039A0001A467B68B3F8EA30D31A07EE903AF8EE7D
:1039B000E77A9FED067A67EE877A7B68C3ED047A33
:1039C00000BF0C37BD465DF8047B7047ACFF333D4C
:1039D00080B483B000AF78607B68B3F8EA207B687E
:1039E000B3F8EC305B089BB29A421DD27B68B3F906
:1039F000D0301A467B68B3F8EA3019467B68B3F8D2
:103A0000EC305B089BB20B449A422ADD7B68B3F929
:103A1000D0309AB27B68B3F8EC30D31A9BB21AB2AA
:103A20007B68A3F8D0201CE07B68B3F9D0301A463D
:103A30007B68B3F8EA3019467B68B3F8EC305B0872
:103A40009BB2CB1A9A420CDA7B68B3F9D0309AB2A7
:103A50007B68B3F8EC3013449BB21AB27B68A3F8CE
:103A6000D0207B68B3F9D0301A467B68B3F8EA30CF
:103A7000D31A07EE903AF8EEE77A9FED067A67EEF2
:103A8000877A7B68C3ED337A00BF0C37BD465DF89B
:103A9000047B7047ACFF333D84B090B484B000AF7A
:103AA000044607F11C0080E80E002346FB8000233B
:103AB000BB600023FB603B6AFB600DE0FB68F03BF2
:103AC000BB60BB68B3F8E630FA889A4201D1BB68A4
:103AD00008E0FB681B68FB607B6A1B68FA689A4217
:103AE000ECD1002318461037BD4690BC04B0704797
:103AF000F0B595B00AAF07F1080484E80F00002381
:103B00003B623B6CFB61FB6998B27B69009307F1F8
:103B100008030ECBFFF7C0FF38623B6A002B00F0B2
:103B200096803B6AD3F8F8603B6A7B606D4607F18C
:103B30004C040FCC0FC50FCC0FC523682B6007F1C9
:103B400040020ECA7868B0473B6AB3F90020424B86
:103B50001B6807EE902AF8EEE77A3A6A0A339B0070
:103B600013440433C3ED007A3B6AB3F902203A4BA5
:103B70001B6807EE902AF8EEE77A3A6A1E339B003C
:103B800013440433C3ED007A334B1B680133324ACC
:103B90001360314B1B68142B02D12F4B00221A608B
:103BA00000237B6224E02C4B1B683A6A0A339B009B
:103BB0001344043393ED007A284BD3ED007A77EE6B
:103BC000277A264BC3ED007A234B1B683A6A1E33D3
:103BD0009B001344043393ED007A214BD3ED007A1C
:103BE00077EE277A1E4BC3ED007A7B6A01337B6246
:103BF0007B6A132BD7DD1A4B93ED007AF3EE046A40
:103C0000C7EE267AFDEEE77A17EE903A1AB23B6AD3
:103C1000A3F8D220114B93ED007AF3EE046AC7EEBD
:103C2000267AFDEEE77A17EE903A1AB23B6AA3F8CD
:103C3000D0200B4B4FF000021A60084B4FF00002EF
:103C40001A60386AFFF762FE386AFFF7C1FE00BFEC
:103C50002C37BD46F0BD00BF0C18002410180024FE
:103C60001418002480B483B000AF78607B681B8890
:103C700001339AB27B681A807B685B8801339AB201
:103C80007B685A807B689B8801339AB27B689A80F4
:103C90007B68DB8801339AB27B68DA807B681B889B
:103CA000642B02D97B6864221A807B685B8840F6AB
:103CB000B832934203D97B6840F6B8325A807B68A9
:103CC000DB88B3F5FA6F03D97B684FF4FA62DA80C8
:103CD00000BF0C37BD465DF8047B704780B584B0EB
:103CE00000AF78600023FB815A4B00221A70594BB9
:103CF0001B785A1CD1B2574A11701A46564BFF21F5
:103D00009954544B1B785A1CD1B2524A11701A461E
:103D1000514BFF2199544F4B1B785A1CD1B24D4A3D
:103D200011701A467B6819784B4B9954494B1B7894
:103D30005A1CD1B2474A11701A46474B092199546F
:103D4000444B1B785A1CD1B2424A11701A46424B5E
:103D5000032199543F4B1B785A1CD1B23D4A117034
:103D60001A463D4B2A2199547B685988394B1B7858
:103D70005A1CD0B2374A10701A46C9B2364B995401
:103D80007B685B881B0A99B2324B1B785A1CD0B2F5
:103D9000304A10701A46C9B22F4B99542D4B1B78DC
:103DA0005A1CD1B22B4A11701A462B4B0021995440
:103DB000284B1B785A1CD1B2264A11701A46264B42
:103DC000002199547B689988224B1B785A1CD0B2E9
:103DD000204A10701A46C9B21F4B99547B689B88C1
:103DE0001B0A99B21B4B1B785A1CD0B2194A10708F
:103DF0001A46C9B2184B99540223BB600AE0164A0E
:103E0000BB6813441B781A46FB891344FB81BB68CB
:103E10000133BB60BB680B2BF1DDFB89FF2B02D9A3
:103E2000FB89DBB2FB81FB89DB43FB81094B1B7800
:103E30005A1CD1B2074A11701A46FB89D9B2064BF7
:103E400099540D22044905480EF0C2F900BF1037FD
:103E5000BD4680BD3118002424180024340B0024F2
:103E600080B582B000AF786039602B4B5A682B4B1D
:103E700083FB021313449911D317C91A0B461B0174
:103E80005B1ADB00D11A002903D17B681846FFF7C3
:103E900025FF214B5A68214B83FB021313449911D0
:103EA000D317C91A0B461B015B1ADB00D11A1E2956
:103EB00004D17B6806331846FFF710FF164B5A688B
:103EC000164B83FB021313449911D317C91A0B46DF
:103ED0001B015B1ADB00D11A3C2903D13B68184651
:103EE000FFF7FCFE0C4B5A680C4B83FB0213134488
:103EF0009911D317C91A0B461B015B1ADB00D11AA3
:103F00005A2904D13B6806331846FFF7E7FE00BF85
:103F10000837BD4680BD00BF041A00248988888800
:103F200080B485B000AF78600023BB810223FB73AF
:103F30000AE0FB7B7A6813441B781A46BB8913445A
:103F4000BB81FB7B0133FB737B6803331B785A1CFB
:103F5000FB7B9A42EDDABB89DB43BB81BB89FB73F8
:103F6000FB7B18461437BD465DF8047B70470000A4
:103F700080B582B000AF0346FB800B46BB80134682
:103F80007B801B4B55225A70194B5A78184B1A706C
:103F9000FB88DAB2164B9A70154B0722DA70144B75
:103FA00001221A717B88DAB2114B5A71B7F90230CB
:103FB0001B121BB2DAB20E4B9A71BB88DAB20C4BF1
:103FC000DA71BB881B0A9BB2DAB2094B1A72084835
:103FD000FFF7A6FF03461A46054B5A720A22044908
:103FE00004480EF0F5F800BF0837BD4680BD00BF9D
:103FF00034180024C80B002480B483B000AF0346FB
:10400000FB800B46BB8013467B80B7F90620B7F9CF
:1040100004309A4202DABB88FB8007E0B7F9062039
:10402000B7F902309A4201DD7B88FB80B7F9063090
:1040300018460C37BD465DF8047B704780B582B0EA
:1040400000AF786039607A68284B83FB0213134411
:104050009911D317C91A0B461B015B1ADB00D11A41
:1040600000290AD13B681B7818463B6899883B6851
:10407000B3F902301A46FFF77BFF7A681B4B83FBCC
:10408000021313449911D317C91A0B461B015B1A6B
:10409000DB00D11A28290AD13B681B7C18463B68F3
:1040A000998A3B68B3F912301A46FFF761FF7A68C4
:1040B0000E4B83FB021313449911D317C91A0B46F5
:1040C0001B015B1ADB00D11A50290BD13B6893F816
:1040D000203018463B68998C3B68B3F922301A4669
:1040E000FFF746FF00BF0837BD4680BD8988888836
:1040F00080B483B000AF78607B685A687B68C3F88F
:10410000E0207B68D3F8E0207B68C3F8E4207B687C
:10411000D3ED017A9FED587A67EE877A7B68C3ED1D
:104120003B7A7B68D3ED017A9FED537A67EE877A0D
:104130007B68C3ED3D7A7B68DA697B68C3F8302120
:104140007B68D3F830217B68C3F834217B68D3EDDA
:10415000077A9FED497A67EE877A7B68C3ED4F7ADD
:104160007B68D3ED077A9FED447A67EE877A7B68A8
:10417000C3ED517A7B685A6B7B68C3F880217B68FA
:10418000D3F880217B68C3F884217B68D3ED0D7A56
:104190009FED397A67EE877A7B68C3ED637A7B6837
:1041A000D3ED0D7A9FED347A67EE877A7B68C3EDA5
:1041B000657A7B68DA6C7B68C3F8D0217B68D3F8BA
:1041C000D0217B68C3F8D4217B68D3ED137A9FEDAF
:1041D0002A7A67EE877A7B68C3ED777A7B68D3EDBE
:1041E000137A9FED257A67EE877A7B68C3ED797A3B
:1041F0007B685A6E7B68C3F820227B68D3F8202244
:104200007B68C3F824227B68D3ED197A9FED1A7A74
:1042100067EE877A7B68C3ED8B7A7B68D3ED197A7A
:104220009FED157A67EE877A7B68C3ED8D7A7B68A0
:10423000DA6F7B68C3F870227B68D3F870227B68E2
:10424000C3F874227B68D3ED1F7A9FED0B7A67EE7B
:10425000877A7B68C3ED9F7A7B68D3ED1F7A9FEDE9
:10426000067A67EE877A7B68C3EDA17A00BF0C37C8
:10427000BD465DF8047B7047302F654280B584B041
:1042800000AFF860B9607A60B9683B4B83FB0132DC
:10429000CB17D21A13465B0013445B00CA1A002ADC
:1042A00004D1FB681946786800F060F9B968324BB0
:1042B00083FB0132CB17D21A13465B0013445B0019
:1042C000CA1A012A05D1FB6818331946786800F02C
:1042D0004DF9B968284B83FB0132CB17D21A13462C
:1042E0005B0013445B00CA1A022A05D1FB68303315
:1042F0001946786800F03AF9B9681F4B83FB013220
:10430000CB17D21A13465B0013445B00CA1A032A68
:1043100005D1FB6848331946786800F027F9B96879
:10432000154B83FB0132CB17D21A13465B001344A3
:104330005B00CA1A042A05D1FB6860331946786805
:1043400000F014F9B9680C4B83FB0132CB17D21A79
:1043500013465B0013445B00CA1A052A05D1FB68AB
:1043600078331946786800F001F9F868FFF7C0FE65
:1043700000BF1037BD4680BDABAAAA2A80B487B063
:1043800000AF87ED030AC7ED020A87ED011A386016
:1043900097ED017AD7ED027A77EE677AC7ED057A65
:1043A000BB683B6197ED037AD7ED047A37EE677A05
:1043B00001223B6802FA03F3013B07EE903AF8EE64
:1043C000E77A67EE276A97ED057AC6EE877AFDEE03
:1043D000E77A17EE903A18461C37BD465DF8047B25
:1043E000704780B487B000AFF86087ED020AC7ED70
:1043F000010A396097ED017AD7ED027A77EE677A94
:10440000C7ED057ABB683B61FB6807EE903AB8EEF2
:10441000E77AD7ED057A67EE276A01223B6802FA50
:1044200003F3013B07EE903AF8EEE77A86EEA77ABF
:10443000D7ED047A77EE277AB0EE670A1C37BD46CF
:104440005DF8047B7047000080B58CB000AFF86168
:10445000B96187ED050AC7ED040A87ED031AC7EDB8
:10446000021A87ED012A1020B2EE091AFAEE090AA3
:1044700097ED050AFFF782FF0346FB850C20B3EE9C
:104480000E1AFBEE0E0A97ED040AFFF777FF0346BC
:10449000BB850C209FED321ADFED320A97ED030A3F
:1044A000FFF76CFF03467B850C20B1EE041ADFEDAD
:1044B0002D0A97ED020AFFF761FF03463B850C20AA
:1044C000B2EE041AFAEE040A97ED010AFFF756FF5E
:1044D0000346FB84BB691B781A46234B1A60FB8D8D
:1044E0001B0A9BB2DAB2204B1A71FB8DDAB21E4B5B
:1044F0005A71BB8D1B099BB2DAB21B4B9A71BB8DF3
:104500005BB21B015AB27B8D1B0A9BB25BB2134399
:104510005BB2DAB2144BDA717B8DDAB2124B1A72DB
:104520003B8D1B099BB2DAB20F4B5A723B8D5BB2CB
:104530001B015AB2FB8C1B0A9BB25BB213435BB2EA
:10454000DAB2094B9A72FB8CDAB2074BDA7206497F
:10455000F86902F063FA00BF3037BD4680BD00BF86
:104560000000FA43000000004018002480B582B02B
:1045700000AF786039603B681B781A46104B1A60B0
:104580000F4BFF221A710E4BFF225A710C4BFF2268
:104590009A710B4BFF22DA71094BFF221A72084BFA
:1045A000FF225A72064BFF229A72054BFC22DA72E6
:1045B0000349786802F032FA00BF0837BD4680BD73
:1045C0004C18002480B584B000AF786039603B6837
:1045D0001B7803F00F03DAB27B685A703B681B78D4
:1045E0001B09DAB27B689A703B6802331B781AB2F7
:1045F0003B6801331B781BB21B021BB213431BB277
:10460000FB81FB891021F2EE090ABAEE090A18466D
:10461000FFF7E7FEF0EE407A7B68C3ED017A3B6876
:1046200004331B781A463B6803331B781B02134381
:104630001B11BB81BB890C21F3EE0E0ABBEE0E0AE7
:104640001846FFF7CEFEF0EE407A7B68C3ED027AA3
:104650003B6805331B781AB23B6804331B781BB2E6
:104660001B021BB203F470631BB213431BB27B81AA
:104670007B890C21F2EE040ABAEE040A1846FFF711
:10468000B0FEF0EE407A7B68C3ED037A3B680633F8
:104690001B785AB27B681A743B6807331B785AB28E
:1046A0007B685A7400BF1037BD4680BD84B0B0B57A
:1046B00084B000AF786007F1240080E80E007B6BC7
:1046C000FB60FB68013B152B00F2908001A252F8C1
:1046D00023F000BF2D4700083D4700084D47000864
:1046E0005D4700086D4700087D470008ED4700085A
:1046F000ED470008ED470008ED470008ED470008CA
:10470000ED470008ED470008ED470008ED470008B9
:10471000ED4700088D4700089D470008AD47000899
:10472000BD470008CD470008DD47000807F1340306
:10473000283319463748FFF745FF57E007F13403A0
:10474000283319463448FFF73DFF4FE007F13403A3
:10475000283319463148FFF735FF47E007F13403A6
:10476000283319462E48FFF72DFF3FE007F13403A9
:10477000283319462B48FFF725FF37E007F13403AC
:10478000283319462848FFF71DFF2FE007F13403AF
:10479000283319462548FFF715FF27E007F13403B2
:1047A000283319462248FFF70DFF1FE007F13403B5
:1047B000283319461F48FFF705FF17E007F13403B8
:1047C000283319461C48FFF7FDFE0FE007F13403BC
:1047D000283319461948FFF7F5FE07E007F13403BF
:1047E000283319461648FFF7EDFE00BF7B681D46CB
:1047F00007F134040FCC0FC50FCC0FC594E80F00A0
:1048000085E80F0078681037BD46BDE8B04004B0B9
:10481000704700BFF4010024DC0100240C020024D6
:10482000240200243C02002454020024B00400248A
:10483000C8040024E004002410050024F804002427
:104840002805002480B584B000AF786039607B68AB
:104850001B781BB21B021AB27B6801331B781BB298
:1048600013431BB2FB81FB894AF65312934240F07B
:10487000A0813B689B6C5A1C3B689A647B6802333E
:104880001B781AB27B6803331B781BB21B021BB266
:1048900013431BB29BB2C3F30A039AB23B681A805C
:1048A0007B6803331B78DB08DBB21AB27B68043306
:1048B0001B781BB25B011BB213431BB29BB2C3F349
:1048C0000A039AB23B685A807B6804331B789B09C1
:1048D000DBB21AB27B6805331B781BB29B001BB29C
:1048E00013431AB27B6806331B781BB29B021BB2C0
:1048F00013431BB29BB2C3F30A039AB23B689A807C
:104900007B6806331B785B08DBB21AB27B6807331F
:104910001B781BB2DB011BB213431BB29BB2C3F368
:104920000A039AB23B68DA807B6807331B781B095D
:10493000DBB203F00303DAB23B689A723B689B7AFE
:10494000012B02D93B6801229A727B6807331B78DE
:104950009B09DBB203F00103DAB23B68DA727B68D1
:1049600007331B78DB09DAB23B681A737B680833BC
:104970001B7803F00103DAB23B685A737B68083393
:104980001B785B08DBB21AB27B6809331B781BB259
:10499000DB011BB213431BB29BB2C3F30A039AB2EF
:1049A0003B681A817B6809331B781B09DBB203F073
:1049B0000303DAB23B689A737B680A331B781AB236
:1049C0007B680B331B781BB21B021BB213431AB25A
:1049D0003B681A827B680C331B781AB27B680D33F4
:1049E0001B781BB21B021BB213431AB23B685A82DC
:1049F0007B680E331B781AB27B680F331B781BB2AF
:104A00001B021BB213431AB23B689A827B681033B5
:104A10001B7803F00303DAB23B689A757B681033A6
:104A20001B789B08DBB203F00303DAB23B681A760B
:104A30007B6810331B781B09DBB203F00303DAB287
:104A40003B68DA757B685A7C3B681A777B689A7C8E
:104A50003B685A777B6811331B7803F00103DAB2A5
:104A60003B6883F820207B6811331B785B08DBB23E
:104A700003F00103DAB23B6883F822207B6811332C
:104A80001B789B08DBB203F00103DAB23B6883F8C2
:104A900021207B6811331B78DB08DBB203F00103B4
:104AA000DAB23B6883F823207B6811331B781B093B
:104AB000DBB203F00103DAB23B6883F824207B68A1
:104AC00011331B785B09DBB203F00103DAB23B68F8
:104AD00083F825207B6811331B789B09DBB203F038
:104AE0000103DAB23B6883F826207B6811331B7818
:104AF000DB09DAB23B6883F827207B6812331B7826
:104B0000DB09DAB23B6883F82D207B6812331B780F
:104B10009B09DBB203F00103DAB23B6883F828207B
:104B20007B6812331B785B09DBB203F00103DAB256
:104B30003B6883F82B207B6812331B781B09DBB2A0
:104B400003F00103DAB23B6883F82F207B6812334D
:104B50001B78DB08DBB203F00103DAB23B6883F8B1
:104B60002E207B6812331B789B08DBB203F0010315
:104B7000DAB23B6883F82A207B6812331B785B0823
:104B8000DBB203F00103DAB23B6883F829207B68CB
:104B900012331B7803F00103DAB23B6883F82C2050
:104BA000064800F05FF8054800F07EFA044B00224A
:104BB0001A8000BF1037BD4680BD00BF58180024C2
:104BC0001818002480B483B000AF78607B684FF47D
:104BD00080621A807B684FF480625A807B684FF451
:104BE00080629A807B684FF48062DA807B684FF441
:104BF00080621A817B6800221A827B6800225A82B6
:104C00007B6800229A827B68002283F838207B68C8
:104C1000002283F839207B68002283F83E207B68DD
:104C2000002283F83B207B68002283F83C207B68CD
:104C3000002283F840207B68002283F841207B68B3
:104C4000002283F83D207B68002283F83A207B68AD
:104C5000002283F83F2000BF0C37BD465DF8047B7F
:104C60007047000080B483B000AF78607B689B7AA7
:104C7000002B00F002827B6893F82030012B0ED1CC
:104C8000904B1B8801339AB28E4B1A808D4B1B8838
:104C9000022B0BD17B68012283F8322006E07B686F
:104CA000002283F83220874B00221A807B6893F819
:104CB0002130012B0ED1844B1B8801339AB2824BD9
:104CC0001A80814B1B88022B0BD17B68012283F851
:104CD000332006E07C4B00221A807B68002283F898
:104CE00033207B6893F82230012B0ED1774B1B8841
:104CF00001339AB2754B1A80744B1B88022B0BD16F
:104D00007B68012283F8342006E0704B00221A8071
:104D10007B68002283F834207B6893F82330012BD2
:104D20000ED16B4B1B8801339AB2694B1A80684BCA
:104D30001B88022B0BD17B68012283F8352006E00B
:104D4000634B00221A807B68002283F835207B6841
:104D500093F82D30012B0ED15E4B1B8801339AB294
:104D60005C4B1A805B4B1B88022B0BD17B680122AA
:104D700083F83F2006E0574B00221A807B68002210
:104D800083F83F207B6893F82B30012B0ED1524BD8
:104D90001B8801339AB2504B1A804F4B1B88022B51
:104DA0000BD17B68012283F83D2006E04A4B0022AC
:104DB0001A807B68002283F83D207B6893F82C30B2
:104DC000012B12D1454B1B8801339AB2434B1A80F9
:104DD000424B1B88022B0BD17B6893F83E3001338A
:104DE000DAB27B6883F83E2002E03C4B00221A8056
:104DF0007B6893F82930012B0ED1394B1B88013386
:104E00009AB2374B1A80364B1B88022B0BD17B682A
:104E1000012283F83B2006E0314B00221A807B6898
:104E2000002283F83B207B6893F82F30012B0ED1B2
:104E30002C4B1B8801339AB22A4B1A80294B1B88B2
:104E4000022B0BD17B68012283F8412006E0254B21
:104E500000221A807B68002283F841207B6893F847
:104E60002A30012B12D1204B1B8801339AB21E4BE2
:104E70001A801D4B1B88022B0BD17B6893F83C30AA
:104E80000133DAB27B6883F83C2002E0164B002243
:104E90001A807B6893F82630012B29D1134B1B888D
:104EA00001339AB2114B1A80104B1B88022B26D16A
:104EB0007B6893F838300133DAB27B6883F83820A6
:104EC0001DE000BFB0180024B2180024B41800245C
:104ED000B6180024B8180024BA180024BC180024FE
:104EE000BE180024C0180024C2180024C4180024CE
:104EF000654B00221A807B68002283F838207B688B
:104F000093F82730012B12D1604B1B8801339AB2E2
:104F10005E4B1A805D4B1B88022B0FD17B6893F888
:104F200039300133DAB27B6883F8392006E0574B19
:104F300000221A807B68002283F839207B6893F86E
:104F40002E30012B0ED1524B1B8801339AB2504B9D
:104F50001A804F4B1B88022B0BD17B68012283F8F0
:104F6000402006E04A4B00221A807B68002283F82A
:104F700040207B6893F82830012B0ED1454B1B88CD
:104F800001339AB2434B1A80424B1B88022B0BD140
:104F90007B68012283F83A2006E03E4B00221A800B
:104FA0007B68002283F83A207B6893F82530012B38
:104FB00011D1394B1B8801339AB2374B1A80364BCB
:104FC0001B88022B0BD17B68012283F83720324BE0
:104FD00000221A8003E07B68002283F837207B6878
:104FE00093F82430012B11D12C4B1B8801339AB23A
:104FF0002A4B1A80294B1B88022B0BD17B6801227C
:1050000083F83620254B00221A8003E07B680022BB
:1050100083F836207B689B7D012B0DD1204B1B88AC
:1050200001339AB21E4B1A801D4B1B88022B09D1EB
:105030007B6801225A7605E0194B00221A807B68B2
:1050400000225A767B681B7E012B10D1154B1B88E2
:1050500001339AB2134B1A80124B1B88022B0CD1CE
:105060007B68DB7E0133DAB27B68DA7605E07B6849
:105070000022DA760B4B00221A8000BF0C37BD46A7
:105080005DF8047B704700BFC4180024C6180024D4
:10509000C8180024CA180024CC180024CE180024F4
:1050A000D0180024D218002480B483B000AF7860F8
:1050B0007B689B7A002B00F05D817B681B8840F247
:1050C0002C52934204D97B68012283F823200EE0FE
:1050D0007B681B8840F22C52934208D87B681B885F
:1050E000B3F5806F03D97B68002283F823207B68A7
:1050F0001B88B3F5357F04D27B68012283F8212019
:105100000DE07B681B88B3F5357F08D37B681B886F
:10511000B3F5806F03D27B68002283F821207B687F
:105120005B8840F22C52934204D97B68012283F8B9
:1051300020200EE07B685B8840F22C52934208D816
:105140007B685B88B3F5806F03D97B68002283F8A6
:1051500020207B685B88B3F5357F04D27B68012211
:1051600083F822200DE07B681B88B3F5357F08D3D8
:105170007B681B88B3F5806F03D27B68002283F8BD
:1051800022207B6893F820207B6893F822309A4293
:105190003ED17B68D3ED147AF5EEC07AF1EE10FAC9
:1051A00016DB7B6893ED147A754BD3ED007A77EEBE
:1051B000677A7B68C3ED147A7B68D3ED147AF5EED9
:1051C000C07AF1EE10FA03D57B684FF000021A6541
:1051D0007B68D3ED147AF5EEC07AF1EE10FA4BD578
:1051E0007B6893ED147A664BD3ED007A77EE277ADD
:1051F0007B68C3ED147A7B68D3ED147AF5EEC07A40
:10520000F1EE10FA38DD7B684FF000021A6533E0EA
:105210007B6893ED147A7B6893F820301A467B689C
:1052200093F82230D31A5B0007EE903AF8EEE76A63
:10523000534BD3ED007A66EEA77A77EE277A7B6838
:10524000C3ED147A7B68D3ED147A9FED4E7AF4EEB9
:10525000C77AF1EE10FA02DD7B684B4A1A657B686B
:10526000D3ED147A9FED497AF4EEC77AF1EE10FA95
:1052700002D57B68464A1A657B6893F821207B68D3
:1052800093F823309A4240D17B68D3ED157AF5EE3E
:10529000C07AF1EE10FA16DB7B6893ED157A384B85
:1052A000D3ED007A77EE677A7B68C3ED157A7B6879
:1052B000D3ED157AF5EEC07AF1EE10FA03D57B68DE
:1052C0004FF000025A657B68D3ED157AF5EEC07A8F
:1052D000F1EE10FA00D44DE07B6893ED157A284B7F
:1052E000D3ED007A77EE277A7B68C3ED157A7B6879
:1052F000D3ED157AF5EEC07AF1EE10FA00DC39E064
:105300007B684FF000025A6534E07B6893ED157AB4
:105310007B6893F823301A467B6893F82130D31AC0
:105320005B0007EE903AF8EEE76A154BD3ED007A92
:1053300066EEA77A77EE277A7B68C3ED157A7B68ED
:10534000D3ED157A9FED0F7AF4EEC77AF1EE10FAED
:1053500002DD7B680C4A5A657B68D3ED157A9FEDB8
:105360000B7AF4EEC77AF1EE10FA00D402E07B6813
:10537000074A5A6500BF0C37BD465DF8047B70478D
:10538000400000240000C8420000C8420000C8C21B
:105390000000C8C280B483B000AF87ED010A386056
:1053A0003B687A68DA603B6893ED007A3B68D3ED3E
:1053B000037A27EE277A3B68D3ED007AF7EE006A8E
:1053C00076EEE76A3B68D3ED017A66EEA77A77EE70
:1053D000277A3B68C3ED027A3B6893ED027A3B681B
:1053E000D3ED017A77EE677AF0EEE77AB2EE047ADF
:1053F000F4EEC77AF1EE10FA03DD3B685A683B68B9
:105400009A603B689A683B685A603B689B6807EE05
:10541000903AB0EE670A0C37BD465DF8047B7047E2
:1054200080B485B000AF786039607B6806331B7844
:105430001BB21B021AB27B6805331B781BB21343E5
:105440001BB27B817B8940F20232934240F0D281D1
:10545000684B0022DA807B6807331B781AB27B68BE
:1054600008331B781BB21B021BB213431AB2624BE8
:105470001A807B6809331B781AB27B680A331B7861
:105480001BB21B021BB213431AB25C4B1A807B681F
:105490000B331B781AB27B680C331B781BB21B02D0
:1054A0001BB213431AB2564B1A807B680D331B781C
:1054B0001AB27B680E331B781BB21B021BB213435C
:1054C0001AB2504B1A807B680F331B781AB27B6874
:1054D00010331B781BB21B021BB213431AB24A4B88
:1054E0001A807B6811331B781AB27B6812331B78E1
:1054F0001BB21B021BB213431AB2444B1A807B68C7
:1055000013331B781AB27B6814331B781BB21B024F
:105510001BB213431AB23E4B1A807B6815331B78BB
:105520001AB27B6816331B781BB21B021BB21343E3
:105530001AB2384B1A807B6817331B781AB27B6813
:1055400018331B781BB21B021BB213431AB2324B27
:105550001A807B6819331B781AB27B681A331B7860
:105560001BB21B021BB213431AB22C4B1A807B686E
:105570001B331B781AB27B681C331B781BB21B02CF
:105580001BB213431AB2264B1A807B681D331B785B
:105590001AB27B681E331B781BB21B021BB213436B
:1055A0001AB2204B1A807B681F331B781AB27B68B3
:1055B00020331B781BB21B021BB213431AB21A4BC7
:1055C0001A807B6821331B781AB27B6822331B78E0
:1055D0001BB21B021BB213431AB2144B1A807B6816
:1055E00093F823307B727B6893F824303B7200235E
:1055F000FB602EE0181800243E1900243C190024FA
:105600004019002442190024481900244619002496
:10561000441900244C1900244A190024501900246C
:105620004E1900245619002454190024521900243C
:105630007A7AFB6842FA03F3DBB203F00103D9B2D2
:105640003A68FB68134461330A461A70FB680133F9
:10565000FB60FB68032BEBDD7B6820331B7803F0DA
:105660000103DAB23B6883F86520654BB3F900307B
:1056700007EE903AF8EEE77A9FED627AC7EE876A16
:105680003B6816EE902ADA625F4BB3F9003007EE02
:10569000903AF8EEE77A9FED5B7AC7EE876A3B684F
:1056A00016EE902A1A63594BB3F9003007EE903A80
:1056B000F8EEE77A9FED537AC7EE876A3B6816EEFD
:1056C000902A5A63524BB3F9003007EE903AF8EE45
:1056D000E77A9FED4C7AC7EE876A3B6816EE902A10
:1056E0009A634C4BB3F9003007EE903AF8EEE77A44
:1056F0009FED447AC7EE876A3B6816EE902ADA631C
:10570000454BB3F9003007EE903AF8EEE77A9FED9B
:105710003D7AC7EE876A3B6816EE902A1A643F4BC3
:10572000B3F900305AB23B6883F844203C4BB3F9DC
:10573000003007EE903AF8EEE77A9FED327AC7EE46
:10574000876A3B6816EE902A9A64364BB3F90030AC
:1057500007EE903AF8EEE77A9FED2A7AC7EE876A6D
:105760003B6816EE902ADA642F4BB3F9003007EE4F
:10577000903AF8EEE77A9FED237AC7EE876A3B68A6
:1057800016EE902A1A65294BB3F9003007EE903ACD
:10579000F8EEE77A9FED1B7AC7EE876A3B6816EE54
:1057A000902A5A65224BB3F9003007EE903AF8EE92
:1057B000E77A9FED147AC7EE876A3B6816EE902A67
:1057C0009A651C4BB3F9003007EE903AF8EEE77A91
:1057D0009FED0C7AC7EE876A3B6816EE902ADA6571
:1057E000154BB3F900305AB23B6883F86020134B75
:1057F00000221A8000BF1437BD465DF8047B704755
:105800003C190024000048423E190024401900249D
:105810004219002444190024461900244819002480
:105820004A1900244C1900244E1900245019002450
:10583000521900245419002456190024D81A00249F
:1058400080B582B000AF78600B467B8007497868EE
:10585000FFF7E6FD06497868FEF7F4FF054B0022E6
:105860005A81002318460837BD4680BDD41800244D
:10587000581800241818002480B584B000AFF860D0
:10588000B9607A603B60F969564B83FB01239A103B
:10589000CB17D21A13469B0013445B00CA1A002A86
:1058A00004D17A68B968F86800F09EF8F9694D4B40
:1058B00083FB01239A10CB17D21A13469B00134483
:1058C0005B00CA1A012A05D17B683A68B968F86892
:1058D00000F000F9F969434B83FB01239A10CB17C1
:1058E000D21A13469B0013445B00CA1A022A03D142
:1058F0007968386800F0A8F9F9693A4B83FB01230D
:105900009A10CB17D21A13469B0013445B00CA1A95
:10591000032A03D17968386800F03EFAF969314BFF
:1059200083FB01239A10CB17D21A13469B00134412
:105930005B00CA1A042A05D1BB697A68B968F8689D
:1059400000F09EFAF969274B83FB01239A10CB17CD
:10595000D21A13469B0013445B00CA1A052A02D1CF
:10596000786800F063FBF9691E4B83FB01239A10F2
:10597000CB17D21A13469B0013445B00CA1A062A9F
:1059800005D1BB697A68B968F86800F0ABFBF969C2
:10599000144B83FB01239A10CB17D21A13469B009A
:1059A00013445B00CA1A072A04D17A68B968F868F8
:1059B00000F092FCF9690B4B83FB01239A10CB1783
:1059C000D21A13469B0013445B00CA1A082A04D15A
:1059D0007A68B968F86800F08DFE00BF1037BD46E0
:1059E00080BD00BF6766666680B584B000AFF860B2
:1059F000B9607A60344B1A787B685A727B681B787E
:105A0000002B10D1314B93F83A30012B04D0304B9E
:105A100093F83430012B53D17B6801221A707B68D4
:105A200000225A604CE07B681B78012B48D17B68D0
:105A30005B6840F2DB52934207D87B6801221A72FE
:105A40007B68012283F8302025E07B685B6840F2A8
:105A5000DC52934210D97B685B6840F6B7329342C0
:105A60000AD87B685B7A012B06D1F86800F056FDF6
:105A7000B86800F053FD0EE07B685B6840F6B83212
:105A8000934208D97B685B6841F29312934202D833
:105A90007B6802221A727B685B685A1C7B685A60BA
:105AA0007B685B6841F27072934209D17B68002287
:105AB0001A707B6800221A727B68002283F83020FB
:105AC00000BF1037BD4680BD201A0024581800249E
:105AD000C016002480B584B000AFF860B9607A6069
