:020000040800F2
:1000000000000220CD730108BD230008C5230008AD
:10001000CD230008D5230008DD23000800000000E0
:10002000000000000000000000000000E5230008C0
:10003000F323000800000000012400080F2400083A
:100040001D7401081D7401081D7401081D74010848
:100050001D7401081D7401081D7401081D74010838
:100060001D7401081D7401081D7401081D24000879
:100070003124000845240008592400086D24000894
:1000800081240008952400081D740108A924000893
:10009000BD2400081D7401081D7401081D740108A9
:1000A0001D7401081D7401081D7401081D740108E8
:1000B0001D7401081D7401081D7401081D740108D8
:1000C0001D7401081D7401081D7401081D740108C8
:1000D0001D740108D1240008F52400081925000822
:1000E0001D7401081D740108000000001D74010842
:1000F0001D7401082D2500081D7401084125000804
:100100001D7401081D7401081D7401081D74010887
:1001100055250008792500081D7401081D74010883
:100120009D250008B1250008C5250008D92500082F
:10013000ED2500081D7401081D7401081D740108D7
:1001400000000000000000000000000000000000AF
:100150000126000815260008292600083D2600086B
:100160001D7401081D7401081D7401081D74010827
:100170001D7401081D7401081D7401081D74010817
:100180001D7401081D7401086126000885260008F9
:100190001D7401081D7401081D7401081D740108F7
:1001A0001D7401081D7401081D7401081D740108E7
:1001B0001D7401081D7401081D7401081D740108D7
:1001C0001D7401081D7401081D7401081D740108C7
:1001D0001D7401081D7401081D7401081D740108B7
:1001E0001D7401081D7401081D7401081D740108A7
:1001F0001D7401081D7401081D7401081D74010897
:100200001D7401081D7401081D7401081D74010886
:100210001D7401081D7401081D7401081D74010876
:100220001D7401081D7401081D7401080000000000
:100230001D7401081D740108000000001D740108F0
:100240001D7401081D7401081D7401081D74010846
:100250001D7401081D7401081D7401081D74010836
:100260001D7401081D7401081D7401081D74010826
:100270001D7401081D7401081D74010800000000B0
:100280001D7401081D7401081D74010800000000A0
:08029000000000001D740108CC
:1002980010B5054C237833B9044B13B10448AFF3B8
:1002A80000800123237010BD700C002400000000A2
:1002B800187B010808B5034B1BB103490348AFF38A
:1002C800008008BD00000000740C0024187B0108A1
:1002D80053B94AB9002908BF00281CBF4FF0FF31A5
:1002E8004FF0FF3000F088B9ADF1080C6DE904CE8D
:1002F80000F006F8DDF804E0DDE9022304B07047F9
:100308002DE9F047089D0F4604468C46002B48D13E
:100318008A42164661D9B2FA82F34BB1C3F1200280
:1003280001FA03FC20FA02F29E4042EA0C0C9C40BF
:100338004FEA164EB7B2BCFBFEF1220C0EFB11CCF5
:1003480042EA0C4201FB07F0904209D9B21801F1C8
:10035800FF3C80F0EE80904240F2EB80023932445C
:10036800121AA4B2B2FBFEF00EFB102244EA0244B9
:1003780000FB07F7A74209D9341900F1FF3280F0D2
:10038800DA80A74240F2D7803444023840EA01407C
:10039800E41B00211DB1DC400023C5E90043BDE892
:1003A800F0878B4206D90DB1C5E900010021084646
:1003B800BDE8F087B3FA83F1002948D1BB4202D3E4
:1003C800824200F20781841A67EB030201209446F7
:1003D800002DE4D0C5E9004CE1E7002A00F0928046
:1003E800B2FA82F3002B40F0A8808A1A4FEA164E20
:1003F8001FFA86FC0121200CB2FBFEF70EFB172228
:1004080040EA02420CFB07F0904207D9B21807F104
:10041800FF3802D2904200F2E2804746121AA4B294
:10042800B2FBFEF00EFB102244EA02440CFB00FC77
:10043800A44507D9341900F1FF3202D2A44500F2CD
:10044800CB801046A4EB0C0440EA0740A2E7C1F1B8
:1004580020068B4022FA06FC4CEA030C07FA01F44A
:1004680020FA06F3F7404FEA1C49234300FA01F843
:100478001FFA8CFEB7FBF9F01C0C09FB107744EA55
:10048800074400FB0EF7A74202FA01F20AD91CEB57
:10049800040400F1FF3A80F09B80A74240F2988064
:1004A80002386444E41B9FB2B4FBF9F309FB13441C
:1004B80047EA044403FB0EFEA64509D91CEB0404D5
:1004C80003F1FF3780F08280A6457FD9023B644460
:1004D80043EA0040A4EB0E04A0FB02E7BC427346CB
:1004E800B94663D360D05DB1B8EB030264EB09048D
:1004F80004FA06F622FA01F31E43CC40C5E900646B
:1005080000214CE76208480842EAC1710B0C43EA33
:1005180000438AB242EA0342B3FBF6F1E407B44669
:100528003746B6461F23B0FBF6F0D21B41EA00411E
:1005380061E7614614E7104628E7C3F1200120FA75
:1005480001F29E4027FA01F19F403A434FEA164EC6
:100558001FFA86FCB1FBFEF70EFB1710110C41EADF
:10056800004107FB0CF8884504FA03F43AD97118DE
:1005780007F1FF3001D288451FD8A1EB0801B1FB74
:10058800FEF808FB0CF70EFB181192B242EA014282
:10059800BA422FD2B21808F1FF31C6D2BA42C4D239
:1005A800A8F102013244C0E7F0459CD2BEEB020339
:1005B80067EB0C070138B94695E7A6EB08084144F4
:1005C800B81EB1FBFEF808FB0CF7DCE73B467FE7FB
:1005D800504667E70846FBE63444023832E7023FF4
:1005E80032441BE7A1EB08013846B1FBFEF808FBD3
:1005F8000CF7C8E7414698E7704700BF80B500AFE1
:1006080013F0CAFB00F022F800F0D4F800F08CF9DF
:1006180000F0AEFE00F030FA00F092FA00F084FC30
:1006280000F0F6FE00F040FF00F072FD00F0BCFDA7
:1006380000F086FF00F004FE00F04EFE00F0C6FB5E
:1006480000F01EFC0CF098F900BFFDE780B59EB0E5
:1006580000AF07F12C034C220021184616F0DBFEF0
:1006680007F10C0320220021184616F0D4FE0220C0
:1006780013F058FB0023BB60484BDB6A474A23F062
:100688000103D362454BDB6A03F00103BB60444BB3
:100698009B69434A43F440439361414B9B6903F48C
:1006A8004043BB60BB6800BF3D4B9B6903F40053EC
:1006B800B3F5005FF8D13B4BD3F8F430394A43F037
:1006C8000203C2F8F430374BD3F8F43003F00203D6
:1006D8007B607B6800233B60314B9B69304A43F465
:1006E800404393612E4B9B6903F440433B602B4B83
:1006F800DB6A2A4A43F00103D362284BDB6A03F022
:1007080001033B603B6800BF254B9B6903F4005322
:10071800B3F5005FF8D10123FB624FF480333B63EC
:1007280002233B6502237B650123BB657823FB65B8
:1007380002233B6618237B660223BB660C23FB66F9
:1007480000233B6700237B6707F12C0318460DF055
:10075800ADFC0346002B01D000F026F83F23FB60D8
:1007680003233B6100237B610823BB614023FB61BA
:1007780040233B624FF480637B624023BB6207F1F6
:100788000C03042118460EF0EBF80346002B01D0A9
:1007980000F00AF800BF7837BD4680BD0004005855
:1007A800004802580044025880B400AF72B600BF37
:1007B80000BFFDE780B58CB000AF07F11C03002235
:1007C8001A605A609A60DA601A61534BD3F8E030C5
:1007D800514A43F08003C2F8E0304F4BD3F8E03081
:1007E80003F08003BB61BB694B4BD3F8E0304A4A46
:1007F80043F00103C2F8E030474BD3F8E03003F090
:1008080001037B617B69444BD3F8E030424A43F0F3
:100818000203C2F8E030404BD3F8E03003F00203A3
:100828003B613B693C4BD3F8E0303B4A43F0100353
:10083800C2F8E030384BD3F8E03003F01003FB6027
:10084800FB68354BD3F8E030334A43F00803C2F86D
:10085800E030314BD3F8E03003F00803BB60BB68ED
:100868002D4BD3F8E0302C4A43F00403C2F8E030B3
:10087800294BD3F8E03003F004037B607B68002247
:100888004FF47C41254810F0EBFB0223FB61002369
:100898003B6202237B6207F11C031946204810F0D3
:1008A80017FA4FF40073FB6100233B6202237B625B
:1008B80007F11C031946194810F00AFA4FF47C4353
:1008C800FB6101233B6200237B620023BB6207F1CB
:1008D8001C031946114810F0FBF94FF46053FB61F3
:1008E80000233B6200237B6207F11C0319460D4875
:1008F80010F0EEF94FF48043FB6100233B620223C2
:100908007B6207F11C031946064810F0E1F900BFA5
:100918003037BD4680BD00BF004402580010025861
:1009280000040258000C025880B582B000AF514B49
:10093800D3F8D8304F4A43F00103C2F8D8304D4BB2
:10094800D3F8D83003F001037B607B68494BD3F8B8
:10095800D830484A43F00203C2F8D830454BD3F8A0
:10096800D83003F002033B603B68002201210B20D2
:100978000CF099F90B200CF0B0F9002200210C20A2
:100988000CF091F90C200CF0A8F9002200210D20A0
:100998000CF089F90D200CF0A0F9002200210E209E
:1009A8000CF081F90E200CF098F9002200210F209C
:1009B8000CF079F90F200CF090F90022002110209A
:1009C8000CF071F910200CF088F900220021112098
:1009D8000CF069F911200CF080F9002200212F2079
:1009E8000CF061F92F200CF078F900220121382051
:1009F8000CF059F938200CF070F900220121392047
:100A08000CF051F939200CF068F9002200213A2045
:100A18000CF049F93A200CF060F9002200213B2043
:100A28000CF041F93B200CF058F9002200213C2041
:100A38000CF039F93C200CF050F900220021442038
:100A48000CF031F944200CF048F90022012145202E
:100A58000CF029F945200CF040F90022012146202C
:100A68000CF021F946200CF038F900BF0837BD46D4
:100A780080BD00BF0044025880B500AF2E4B2F4AFE
:100A88001A602D4B00229A602B4B0022DA602A4B09
:100A980000221A74284B00225A74274B00229A7499
:100AA800254B01225A61244B08229A61224B1F22AE
:100AB800DA61214B08221A621F4B01225A621E4B2F
:100AC80001229A621C4B0122DA621B4B01221A6333
:100AD800194B00225A63184B00229A63164B0022C6
:100AE800DA63154B20221A64134B04225A64124B02
:100AF80000229A64104B0422DA640F4B00221A6514
:100B08000D4B04225A650C4B00229A650A4B0022B1
:100B1800DA65094B0A221A66074B00225A66064B09
:100B280004229A6604480CF0F3F80346002B01D01F
:100B3800FFF73AFE00BF80BD8C0C002400A00040E7
:100B480080B500AF2F4B304A1A602E4B00229A60B6
:100B58002C4B0022DA602B4B00221A74294B0022FE
:100B68005A74284B00229A74264B01225A61254B4D
:100B780008229A61234B1F22DA61224B08221A624B
:100B8800204B01225A621F4B01229A621D4B0122FF
:100B9800DA621C4B01221A631A4B4FF4A0625A63A3
:100BA800184B00229A63174B0022DA63154B202258
:100BB8001A64144B04225A64124B00229A64114B93
:100BC8000422DA640F4B00221A650E4B04225A6580
:100BD8000C4B00229A650B4B0022DA65094B0A225E
:100BE8001A66084B00225A66064B04229A66054884
:100BF8000CF08EF80346002B01D0FFF7D5FD00BF9F
:100C080080BD00BF2C0D002400A4004080B5BCB0FE
:100C180000AF786007F1DC0300221A605A609A601E
:100C2800DA601A6107F11803C0220021184616F08D
:100C3800F2FB7B681B685F4A934259D14FF400422C
:100C48004FF00003C7E906234FF08053C7F88830F8
:100C580007F1180318460EF00FFA0346002B01D0CF
:100C6800FFF7A2FD544B1B680133534A1360524BE4
:100C78001B68012B0ED1514BD3F8EC304F4A43F48B
:100C88008073C2F8EC304D4BD3F8EC3003F480732A
:100C98007B617B69494BD3F8E030484A43F0010354
:100CA800C2F8E030454BD3F8E03003F001033B6174
:100CB8003B694FF4C053C7F8DC300223C7F8E03073
:100CC8000023C7F8E4300023C7F8E8300923C7F841
:100CD800EC3007F1DC03194639480FF0F9FF002220
:100CE800002113200BF0DFFF13200BF0F6FF5CE070
:100CF8007B681B68334A934257D14FF400424FF048
:100D08000003C7E906234FF08053C7F8883007F17E
:100D1800180318460EF0B0F90346002B01D0FFF770
:100D280043FD254B1B680133234A1360224B1B6884
:100D3800012B0ED1214BD3F8EC30204A43F48073B9
:100D4800C2F8EC301D4BD3F8EC3003F48073FB6031
:100D5800FB681A4BD3F8E030184A43F00203C2F894
:100D6800E030164BD3F8E03003F00203BB60BB68F9
:100D78006023C7F8DC300223C7F8E0300023C7F847
:100D8800E4300023C7F8E8300923C7F8EC3007F14E
:100D9800DC0319460C480FF09BFF002200211420A9
:100DA8000BF081FF14200BF098FF00BFF037BD4611
:100DB80080BD00BF00A00040CC0D002400440258B4
:100DC8000000025800A400400004025880B58AB010
:100DD80000AF07F11C0300221A605A609A603B4674
:100DE80000221A605A609A60DA601A615A619A6140
:100DF800214B224A1A60204BEF225A601E4B0022D8
:100E08009A601D4B44F62062DA601B4B00221A617F
:100E1800194B00229A61184813F02CF90346002B4D
:100E280001D0FFF7C1FC0023FB6100237B6207F1BF
:100E38001C031946104814F051F90346002B01D041
:100E4800FFF7B2FC60233B6000237B600023BB609C
:100E580000233B613B460C221946074813F05CFB14
:100E68000346002B01D0FFF79FFC034800F014F95C
:100E780000BF2837BD4680BDD00D002400040040C7
:100E880080B588B000AF07F1140300221A605A60D9
:100E98009A603B1D00221A605A609A60DA60204B03
:100EA800204A1A601E4B6B225A601D4B00229A6022
:100EB8001B4B4FF6FF72DA60194B00221A61184B70
:100EC80000229A61164813F02CF90346002B01D032
:100ED800FFF76AFC00237B610023FB6107F1140321
:100EE80019460F4814F0FAF80346002B01D0FFF713
:100EF8005BFC00237B600123BB600023FB600023B5
:100F08003B613B1D0C221946054813F068FA03465D
:100F1800002B01D0FFF748FC00BF2037BD4680BD3D
:100F28001C0E00240008004080B500AF0E4B0F4A8D
:100F38001A600D4BEF225A600B4B00229A600A4B45
:100F480040F2E732DA60084B00221A61064B0022B1
:100F58009A61054812F0BEFF0346002B01D0FFF747
:100F680023FC00BF80BD00BF680E002400200040A5
:100F780080B485B000AF78607B681B680B4A9342E9
:100F88000ED10B4BD3F8E830094A43F00203C2F8FC
:100F9800E830074BD3F8E83003F00203FB60FB6846
:100FA80000BF1437BD465DF8047B7047000400405D
:100FB8000044025880B58AB000AF786007F1140386
:100FC80000221A605A609A60DA601A617B681B68AE
:100FD8001A4A93422ED11A4BD3F8E830184A43F0F4
:100FE8000403C2F8E830164BD3F8E83003F00403E2
:100FF8003B613B69124BD3F8E030114A43F00803D8
:10100800C2F8E0300E4BD3F8E03003F00803FB6081
:10101800FB684FF400437B610223BB610023FB6143
:1010280000233B6202237B6207F11403194605483B
:101038000FF04EFE00BF2837BD4680BD00080040B7
:1010480000440258000C025880B584B000AF7860A4
:101058007B681B680E4A934216D10E4BD3F8E830D2
:101068000C4A43F48073C2F8E8300A4BD3F8E830EE
:1010780003F48073FB60FB68002201212D200BF034
:1010880012FE2D200BF029FE00BF1037BD4680BD93
:10109800002000400044025880B588B000AF786056
:1010A80007F10C0300221A605A609A60DA601A612C
:1010B8007B681B68134A93421FD1134BD3F8E03067
:1010C800114A43F00403C2F8E0300F4BD3F8E03084
:1010D80003F00403BB60BB684FF40073FB6002239A
:1010E8003B6100237B610023BB610223FB6107F1A5
:1010F8000C03194605480FF0EBFD00BF2037BD462D
:1011080080BD00BF00040040004402580008025897
:1011180080B500AF224B234A1A60214B4FF4E132CD
:101128005A601F4B00229A601D4B0022DA601C4B4C
:1011380000221A611A4B0C225A61194B00229A613B
:10114800174B0022DA61164B00221A62144B002258
:101158005A62134B00229A62114814F06BF8034646
:10116800002B01D0FFF720FB00210D4816F060F896
:101178000346002B01D0FFF717FB0021084816F0A3
:1011880095F80346002B01D0FFF70EFB044816F034
:1011980016F80346002B01D0FFF706FB00BF80BD01
:1011A800B40E0024004C004080B500AF224B234A07
:1011B8001A60214B4FF4E1325A601F4B00229A60AB
:1011C8001D4B0022DA601C4B00221A611A4B0C22BC
:1011D8005A61194B00229A61174B0022DA61164BAB
:1011E80000221A62144B00225A62134B00229A62A0
:1011F800114814F01FF80346002B01D0FFF7D4FA6A
:1012080000210D4816F014F80346002B01D0FFF713
:10121800CBFA0021084816F049F80346002B01D004
:10122800FFF7C2FA044815F0CAFF0346002B01D0A5
:10123800FFF7BAFA00BF80BD480F002400500040F5
:1012480080B500AF224B234A1A60214B4FF4E1329C
:101258005A601F4B00229A601D4B0022DA601C4B1B
:1012680000221A611A4B0C225A61194B00229A610A
:10127800174B0022DA61164B00221A62144B002227
:101288005A62134B00229A62114813F0D3FF0346A7
:10129800002B01D0FFF788FA00210D4815F0C8FF90
:1012A8000346002B01D0FFF77FFA0021084815F00C
:1012B800FDFF0346002B01D0FFF776FA044815F02E
:1012C8007EFF0346002B01D0FFF76EFA00BF80BDFA
:1012D800DC0F00240078004080B500AF224B234A81
:1012E8001A60214B4FF4E1325A601F4B00229A607A
:1012F8001D4B0022DA601C4B00221A611A4B0C228B
:101308005A61194B00229A61174B0022DA61164B79
:1013180000221A62144B00225A62134B00229A626E
:10132800114813F087FF0346002B01D0FFF73CFA62
:1013380000210D4815F07CFF0346002B01D0FFF774
:1013480033FA0021084815F0B1FF0346002B01D0FD
:10135800FFF72AFA044815F032FF0346002B01D0A4
:10136800FFF722FA00BF80BD70100024007C004007
:1013780080B500AF234B244A1A60224B234A5A6097
:10138800204B4FF480529A601E4B0022DA601D4BAE
:101398004FF480621A611B4B0C225A61194B0022D0
:1013A8009A61184B0022DA61164B00221A62154B1B
:1013B80000225A62134B00229A62124813F03AFF35
:1013C8000346002B01D0FFF7EFF900210D4815F077
:1013D8002FFF0346002B01D0FFF7E6F9002109484B
:1013E80015F064FF0346002B01D0FFF7DDF905482F
:1013F80015F0E5FE0346002B01D0FFF7D5F900BF35
:1014080080BD00BF0411002400100140A086010027
:1014180080B500AF224B234A1A60214B4FF461225A
:101428005A601F4B00229A601D4B0022DA601C4B49
:1014380000221A611A4B0C225A61194B00229A6138
:10144800174B0022DA61164B00221A62144B002255
:101458005A62134B00229A62114813F0EBFE0346BE
:10146800002B01D0FFF7A0F900210D4815F0E0FE90
:101478000346002B01D0FFF797F90021084815F023
:1014880015FF0346002B01D0FFF78EF9044815F02D
:1014980096FE0346002B01D0FFF786F900BF80BDFA
:1014A800981100240044004080B500AF224B234A25
:1014B8001A60214B4FF4E1325A601F4B00229A60A8
:1014C8001D4B0022DA601C4B00221A611A4B0C22B9
:1014D8005A61194B00229A61174B0022DA61164BA8
:1014E80000221A62144B00225A62134B00229A629D
:1014F800114813F09FFE0346002B01D0FFF754F963
:1015080000210D4815F094FE0346002B01D0FFF78B
:101518004BF90021084815F0C9FE0346002B01D0FD
:10152800FFF742F9044815F04AFE0346002B01D0A4
:10153800FFF73AF900BF80BD2C1200240048004094
:1015480080B500AF224B234A1A60214B4FF4E13299
:101558005A601F4B00229A601D4B0022DA601C4B18
:1015680000221A611A4B0C225A61194B00229A6107
:10157800174B0022DA61164B00221A62144B002224
:101588005A62134B00229A62114813F053FE034625
:10159800002B01D0FFF708F900210D4815F048FE8F
:1015A8000346002B01D0FFF7FFF80021084815F08B
:1015B8007DFE0346002B01D0FFF7F6F8044815F02E
:1015C800FEFD0346002B01D0FFF7EEF800BF80BDFB
:1015D800C01200240014014080B5C8B000AF07F560
:1015E8009073A3F58E73186007F5867300221A604E
:1015F8005A609A60DA601A6107F14803C022002134
:10160800184615F008FF07F59073A3F58E731B684D
:101618001B685F4A934240F0C9804FF002024FF0C6
:101628000003C7E912230023C7F8C03007F14803B5
:1016380018460DF021FD0346002B01D0FFF7B4F842
:10164800544BD3F8E830534A43F40023C2F8E83047
:10165800504BD3F8E83003F400237B647B6C4D4B8C
:10166800D3F8E0304B4A43F00103C2F8E030494B6D
:10167800D3F8E03003F001033B643B6C0323C7F865
:101688000C310223C7F810310023C7F814310023A6
:10169800C7F818310823C7F81C3107F586731946AF
:1016A8003D480FF015FB3D4B3D4A1A603B4B3F222E
:1016B8005A603A4B00229A60384B0022DA60374B66
:1016C8004FF480621A61354B00225A61334B002275
:1016D8009A61324B0022DA61304B00221A622F4B9A
:1016E80000225A622D480FF0D5FC0346002B01D08A
:1016F800FFF75AF807F59073A3F58E731B68274A0E
:10170800C3F88020254A07F59073A3F58E731B68EC
:101718009363244B244A1A60224B40225A60214B7F
:1017280040229A601F4B0022DA601E4B4FF4806201
:101738001A611C4B00225A611A4B00229A61194BFC
:101748000022DA61174B00221A62164B00225A62F5
:1017580014480FF09FFC0346002B01D0FFF724F834
:1017680007F59073A3F58E731B680E4ADA670D4A66
:1017780007F59073A3F58E731B689363002200210D
:1017880034200BF090FA34200BF0A7FA00F0FFBDDC
:10179800004C004000440258000002585413002432
:1017A80010040240CC1300242804024007F590736B
:1017B800A3F58E731B681B685F4A934240F0CA808A
:1017C8004FF002024FF00003C7E912230023C7F8C5
:1017D800C03007F1480318460DF04EFC0346002BB5
:1017E80001D0FEF7E1FF554BD3F8E830534A43F4F4
:1017F8008013C2F8E830514BD3F8E83003F4801373
:10180800FB63FB6B4D4BD3F8E0304C4A43F00203CB
:10181800C2F8E030494BD3F8E03003F00203BB6371
:10182800BB6B4FF44053C7F80C310223C7F8103193
:101838000023C7F814310023C7F818310E23C7F85E
:101848001C3107F5867319463D480FF041FA3D4BA8
:101858003D4A1A603B4B41225A603A4B00229A603B
:10186800384B0022DA60374B4FF480621A61354BEF
:1018780000225A61334B00229A61324B0022DA610E
:10188800304B00221A622F4B00225A622D480FF06B
:1018980001FC0346002B01D0FEF786FF07F5907385
:1018A800A3F58E731B68274AC3F88020254A07F5DD
:1018B8009073A3F58E731B689363244B244A1A60B4
:1018C800224B42225A60214B40229A601F4B002231
:1018D800DA601E4B4FF480621A611C4B00225A6179
:1018E8001A4B00229A61194B0022DA61174B002229
:1018F8001A62164B00225A6214480FF0CBFB0346BB
:10190800002B01D0FEF750FF07F59073A3F58E73F7
:101918001B680E4ADA670D4A07F59073A3F58E73B4
:101928001B6893630022002135200BF0BCF9352099
:101938000BF0D3F900F02BBD0050004000440258D2
:10194800000402584414002458040240BC14002423
:101958007004024007F59073A3F58E731B681B682B
:101968005F4A934240F0CA804FF002024FF00003F2
:10197800C7E912230023C7F8C03007F14803184607
:101988000DF07AFB0346002B01D0FEF70DFF554BF7
:10199800D3F8E830534A43F08043C2F8E830514B5B
:1019A800D3F8E83003F080437B637B6B4D4BD3F86F
:1019B800E0304C4A43F01003C2F8E030494BD3F80A
:1019C800E03003F010033B633B6B4FF4C073C7F880
:1019D8000C310223C7F810310023C7F81431002353
:1019E800C7F818310723C7F81C3107F5867319465D
:1019F8003D480FF06DF93D4B3D4A1A603B4B4F2275
:101A08005A603A4B00229A60384B0022DA60374B12
:101A18004FF480621A61354B00225A61334B002221
:101A28009A61324B0022DA61304B00221A622F4B46
:101A380000225A622D480FF02DFB0346002B01D0DF
:101A4800FEF7B2FE07F59073A3F58E731B68274A5D
:101A5800C3F88020254A07F59073A3F58E731B6899
:101A68009363244B244A1A60224B50225A60214B1C
:101A780040229A601F4B0022DA601E4B4FF48062AE
:101A88001A611C4B00225A611A4B00229A61194BA9
:101A98000022DA61174B00221A62164B00225A62A2
:101AA80014480FF0F7FA0346002B01D0FEF77CFE2E
:101AB80007F59073A3F58E731B680E4ADA670D4A13
:101AC80007F59073A3F58E731B68936300220121B9
:101AD80052200BF0E8F852200BF0FFF800F057BC4A
:101AE80000780040004402580010025834150024C1
:101AF800A0040240AC1500244004024007F590738E
:101B0800A3F58E731B681B685E4A934240F0C88039
:101B18004FF002024FF00003C7E912230023C7F871
:101B2800C03007F1480318460DF0A6FA0346002B0B
:101B380001D0FEF739FE544BD3F8E830524A43F04F
:101B48000043C2F8E830504BD3F8E83003F00043C4
:101B5800FB62FB6A4C4BD3F8E0304B4A43F010036E
:101B6800C2F8E030484BD3F8E03003F01003BB6212
:101B7800BB6A0323C7F80C310223C7F810310023CE
:101B8800C7F814310023C7F818310823C7F81C31E7
:101B980007F5867319463D480FF09AF83C4B3D4AC5
:101BA8001A603B4B51225A60394B00229A60384BDD
:101BB8000022DA60364B4FF480621A61344B0022FF
:101BC8005A61334B00229A61314B0022DA61304B63
:101BD80000221A622E4B00225A622D480FF05AFA40
:101BE8000346002B01D0FEF7DFFD07F59073A3F540
:101BF8008E731B68264AC3F88020254A07F5907320
:101C0800A3F58E731B689363234B244A1A60224BF7
:101C180052225A60204B40229A601F4B0022DA6001
:101C28001D4B4FF480621A611B4B00225A611A4BFC
:101C380000229A61184B0022DA61174B00221A62BF
:101C4800154B00225A6214480FF024FA0346002B61
:101C580001D0FEF7A9FD07F59073A3F58E731B68F5
:101C68000D4ADA670C4A07F59073A3F58E731B6863
:101C780093630022012153200BF015F853200BF039
:101C88002CF884E3007C00400044025800100258FD
:101C980024160024880002409C1600248804024070
:101CA80007F59073A3F58E731B681B68644A93420B
:101CB80040F0D4804FF001024FF00003C7E912232F
:101CC8000023C7F8C43007F1480318460DF0D4F9CB
:101CD8000346002B01D0FEF767FD5A4BD3F8F030CE
:101CE800584A43F01003C2F8F030564BD3F8F0309E
:101CF80003F010037B627B6A524BD3F8E030514A01
:101D080043F00103C2F8E0304E4BD3F8E03003F063
:101D1800010207F59073A3F580731A6007F59073B5
:101D2800A3F580731B684FF4C063C7F80C31022316
:101D3800C7F810310123C7F814310023C7F8183148
:101D48000723C7F81C3107F5867319463E480EF07D
:101D5800BFFF3E4B3E4A1A603C4B29225A603B4B20
:101D680000229A60394B0022DA60384B4FF48062C7
:101D78001A61364B00225A61344B00229A61334B68
:101D88004FF48072DA61314B4FF400321A622F4BF4
:101D980000225A622D480FF07DF90346002B01D02E
:101DA800FEF702FD07F59073A3F58E731B68274AAB
:101DB800C3F88020254A07F59073A3F58E731B6836
:101DC8009363244B244A1A60224B2A225A60214BDF
:101DD80040229A601F4B0022DA601E4B4FF480624B
:101DE8001A611C4B00225A611A4B00229A61194B46
:101DF8000022DA61174B4FF400321A62154B0022A9
:101E08005A6214480FF046F90346002B01D0FEF73A
:101E1800CBFC07F59073A3F58E731B680D4ADA6740
:101E28000C4A07F59073A3F58E731B689363002221
:101E3800002125200AF037FF25200AF04EFFA6E2F0
:101E480000100140004402580000025814170024F2
:101E5800100002408C170024A000024007F5907380
:101E6800A3F58E731B681B68664A934240F0D880BE
:101E78004FF002024FF00003C7E912230023C7F80E
:101E8800C03007F1480318460DF0F6F80346002B5A
:101E980001D0FEF789FC5C4BD3F8E8305A4A43F48A
:101EA8000033C2F8E830584BD3F8E83003F4003276
:101EB80007F59073A3F582731A6007F59073A3F57D
:101EC80082731B68504BD3F8E0304F4A43F001034C
:101ED800C2F8E0304C4BD3F8E03003F0010207F5CC
:101EE8009073A3F584731A6007F59073A3F5847350
:101EF8001B680C23C7F80C310223C7F810310023E4
:101F0800C7F814310023C7F818310723C7F81C3164
:101F180007F5867319463D480EF0DAFE3C4B3D4AFC
:101F28001A603B4B2B225A60394B00229A60384B7F
:101F38000022DA60364B4FF480621A61344B00227B
:101F48005A61334B00229A61314B0022DA61304BDF
:101F580000221A622E4B00225A622D480FF09AF87E
:101F68000346002B01D0FEF71FFC07F59073A3F57D
:101F78008E731B68264AC3F88020254A07F590739C
:101F8800A3F58E731B689363234B244A1A60224B74
:101F98002C225A60204B40229A601F4B0022DA60A4
:101FA8001D4B4FF480621A611B4B00225A611A4B79
:101FB80000229A61184B0022DA61174B00221A623C
:101FC800154B00225A6214480FF064F80346002BA0
:101FD80001D0FEF7E9FB07F59073A3F58E731B6834
:101FE8000D4ADA670C4A07F59073A3F58E731B68E0
:101FF80093630022002126200AF055FE26200AF0CD
:102008006CFEC4E10044004000440258000002583D
:1020180004180024700002407C1800245800024074
:1020280007F59073A3F58E731B681B68674A934284
:1020380040F0DA804FF002024FF00003C7E91223A4
:102048000023C7F8C03007F1480318460DF014F80C
:102058000346002B01D0FEF7A7FB5D4BD3F8E83011
:102068005B4A43F48023C2F8E830594BD3F8E83090
:1020780003F4802207F59073A3F586731A6007F5B9
:102088009073A3F586731B68514BD3F8E030504A20
:1020980043F00803C2F8E0304D4BD3F8E03003F0CA
:1020A800080207F59073A3F588731A6007F5907313
:1020B800A3F588731B684FF44073C7F80C310223EB
:1020C800C7F810310023C7F814310023C7F81831B6
:1020D8000723C7F81C3107F5867319463D480EF0EB
:1020E800F7FD3D4B3D4A1A603B4B2D225A603A4B57
:1020F80000229A60384B0022DA60374B4FF4806236
:102108001A61354B00225A61334B00229A61324BD7
:102118000022DA61304B00221A622F4B00225A62E9
:102128002D480EF0B7FF0346002B01D0FEF73CFB0D
:1021380007F59073A3F58E731B68274AC3F88020B0
:10214800254A07F59073A3F58E731B689363244B98
:10215800244A1A60224B2E225A60214B40229A6050
:102168001F4B0022DA601E4B4FF480621A611C4B31
:1021780000225A611A4B00229A61194B0022DA6137
:10218800174B00221A62164B00225A6214480EF0AE
:1021980081FF0346002B01D0FEF706FB07F590737D
:1021A800A3F58E731B680E4ADA670D4A07F590731C
:1021B800A3F58E731B6893630022002127200AF081
:1021C80072FD27200AF089FDE1E000BF00480040C9
:1021D80000440258000C0258F41800242800024059
:1021E8006C1900244000024007F59073A3F58E7324
:1021F8001B681B68684A934240F0C9804FF001028F
:102208004FF00003C7E912230023C7F8C43007F1D1
:10221800480318460CF030FF0346002B01D0FEF7A8
:10222800C3FA5E4BD3F8F0305C4A43F02003C2F89F
:10223800F0305A4BD3F8F03003F0200207F59073D2
:10224800A3F58A731A6007F59073A3F58A731B6860
:10225800524BD3F8E030514A43F00403C2F8E0305F
:102268004E4BD3F8E03003F0040207F59073A3F562
:102278008C731A6007F59073A3F58C731B68C023E1
:10228800C7F80C310223C7F810310023C7F81431FE
:102298000023C7F818310723C7F81C3107F58673E0
:1022A80019463F480EF014FD3E4B3F4A1A603D4B1D
:1022B80048225A603B4B40229A603A4B0022DA602F
:1022C800384B4FF480621A61364B00225A61354B05
:1022D80000229A61334B0022DA61324B00221A62E3
:1022E800304B00225A622F480EF0D4FE0346002BD2
:1022F80001D0FEF759FA07F59073A3F58E731B68A2
:10230800284ADA67274A07F59073A3F58E731B6886
:102318009363264B264A1A60244B47225A60234B64
:1023280000229A60214B0022DA60204B4FF4806231
:102338001A611E4B00225A611C4B00229A611B4BEA
:102348000022DA61194B00221A62184B00225A62E5
:1023580016480EF09FFE0346002B01D0FEF724FA24
:1023680007F59073A3F58E731B68104AC3F8802095
:102378000E4A07F59073A3F58E731B6893630022CA
:10238800002147200AF08FFC47200AF0A6FC00BF76
:1023980007F59077BD4680BD0014014000440258FF
:1023A80000080258E4190024B80002405C1A00240E
:1023B800B804024080B400AF00BFFDE780B400AFAE
:1023C80000BFFDE780B400AF00BFFDE780B400AFF9
:1023D80000BFFDE780B400AF00BFFDE780B400AFE9
:1023E80000BFBD465DF8047B704780B400AF00BFF6
:1023F800BD465DF8047B704780B400AF00BFBD46A2
:102408005DF8047B704780B500AF11F037FD00BF61
:1024180080BD000080B500AF024810F065F900BF2C
:1024280080BD00BF1417002480B500AF024810F02B
:102438005BF900BF80BD00BFF418002480B500AF71
:10244800024810F051F900BF80BD00BF6C1900248C
:1024580080B500AF024810F047F900BF80BD00BF4B
:102468007C18002480B500AF024810F03DF900BF89
:1024780080BD00BF0418002480B500AF024810F0EA
:1024880033F900BF80BD00BF2416002480B500AF1B
:10249800024810F029F900BF80BD00BF8C17002446
:1024A80080B500AF02480BF0F3F800BF80BD00BF55
:1024B8008C0C002480B500AF02480BF0E9F800BF8F
:1024C80080BD00BF2C0D002480B500AF044905482D
:1024D80007F0ABF9044813F05FF800BF80BD00BFF8
:1024E80008000024EC1D00240411002480B500AF6E
:1024F8000449054807F099F9044813F04DF800BF5E
:1025080080BD00BF24010024F41D0024981100247C
:1025180080B500AF024813F03FF800BF80BD00BF90
:102528002C12002480B500AF024811F051FE00BF04
:1025380080BD00BF680E002480B500AF024810F0CF
:10254800D3F800BF80BD00BFE419002480B500AFF8
:102558000449054807F069F9044813F01DF800BF5D
:1025680080BD00BF68010024041E0024B40E0024AE
:1025780080B500AF0449054807F057F9044813F03F
:102588000BF800BF80BD00BF780100240C1E00249A
:10259800480F002480B500AF024810F0A5F800BF2E
:1025A80080BD00BF5413002480B500AF024810F06E
:1025B8009BF800BF80BD00BFCC13002480B500AFDE
:1025C800024810F091F800BF80BD00BFAC15002490
:1025D80080B500AF024810F087F800BF80BD00BF8B
:1025E8004414002480B500AF024810F07DF800BF05
:1025F80080BD00BFBC14002480B500AF024810F0B5
:1026080073F800BF80BD00BF9C16002480B500AFE2
:10261800024810F069F800BF80BD00BF34150024DF
:1026280080B500AF024810F05FF800BF80BD00BF62
:102638005C1A002480B500AF0449054807F0F5F896
:10264800044812F0A9FF00BF80BD00BF800100242C
:10265800141E0024C012002480B500AF04490548A8
:1026680007F0E3F8044812F097FF00BF80BD00BFF1
:10267800700100241C1E0024DC0F002480B500AF6C
:102688000449054807F0D1F8044812F085FF00BF57
:1026980080BD00BF88010024241E0024701000247F
:1026A80080B483B000AF0A4BD3F8F430084A43F043
:1026B8000203C2F8F430064BD3F8F43003F00203F7
:1026C8007B607B6800BF0C37BD465DF8047B7047B4
:1026D8000044025880B400AF294BD3F88830284A08
:1026E80043F47003C2F88830264B1B68254A43F030
:1026F80001031360234B00221A61224B1A682149F7
:10270800214B13400B601F4B00229A611D4B002286
:10271800DA611C4B00221A621A4B00229A62194B8A
:102728000022DA62174B00221A63164B00225A6302
:10273800144B00229A63134B0022DA63114B0022D8
:102748001A64104B00225A640E4B1B680D4A23F47E
:10275800802313600B4B00221A660C4B1A680C4B33
:102768001340B3F1005F02D20A4B01221A60044BF6
:102778004FF000629A6000BFBD465DF8047B704769
:1027880000ED00E0004402587FEDF6EA0010005C1E
:102798000000FFFF0881005180B483B000AF78606B
:1027A8007B684FF480625A807B684FF480629A801D
:1027B8007B684FF48062DA807B684FF480621A810C
:1027C8007B6803229A727B680322DA727B684FF473
:1027D80080621A807B680022DA817B6800221A8274
:1027E8007B6800225A827B680022A3F8E8207B6875
:1027F800002283F832207B68002283F833207B682C
:10280800002283F838207B68002283F835207B6813
:10281800002283F836207B68002283F83A207B6800
:10282800002283F83B207B68002283F837207B68EE
:10283800002283F834207B68002283F839207B68E3
:102848004FF00002C3F8F0207B684FF00002C3F895
:10285800F4207B68092283F8FC207B68002283F837
:10286800FE2000BF0C37BD465DF8047B70470000B2
:1028780080B582B000AF78600B467B807B881A46B3
:102888007968074800F010F8054800F0B7FA054BDA
:1028980000221A80002318460837BD4680BD00BFB5
:1028A800D41A00242C1C002480B586B000AFF86030
:1028B800B9601346FB800023FB75BB681B781A467A
:1028C800BB6801331B781B021343C3F30A0340F2AE
:1028D800946293420FDCBB681B781A46BB680133CD
:1028E8001B781B021343C3F30A03B3F5B67F02DB5D
:1028F800FB7D0133FB75BB6801331B78DB08DBB25A
:102908001A46BB6802331B785B011343C3F30A03FF
:1029180040F29462934212DCBB6801331B78DB08F7
:10292800DBB21A46BB6802331B785B011343C3F35F
:102938000A03B3F5B67F02DBFB7D0133FB75BB6889
:1029480002331B789B09DBB21A46BB6803331B783A
:102958009B001A43BB6804331B789B021343C3F3E1
:102968000A0340F29462934217DCBB6802331B7877
:102978009B09DBB21A46BB6803331B789B001A43DA
:10298800BB6804331B789B021343C3F30A03B3F5F4
:10299800B67F02DBFB7D0133FB75BB6804331B7814
:1029A8005B08DBB21A46BB6805331B78DB011343AF
:1029B800C3F30A0340F29462934212DCBB68043307
:1029C8001B785B08DBB21A46BB6805331B78DB0152
:1029D8001343C3F30A03B3F5B67F02DBFB7D013370
:1029E800FB75BB6805331B781B09DBB203F00C03CE
:1029F800042B11D0BB6805331B781B09DBB203F02D
:102A08000C03082B08D0BB6805331B781B09DBB205
:102A180003F00C030C2B02D1FB7D0133FB75BB6863
:102A280005331B781B09DBB203F00303012B11D01C
:102A3800BB6805331B781B09DBB203F00303022BC9
:102A480008D0BB6805331B781B09DBB203F003030E
:102A5800032B02D1FB7D0133FB75FB7D062B40F078
:102A6800C781BB681B781AB2BB6801331B781BB2DD
:102A78001B021BB213431BB29BB2C3F30A039AB2E5
:102A8800FB685A80BB6801331B78DB08DBB21AB2DB
:102A9800BB6802331B781BB25B011BB213431BB22A
:102AA8009BB2C3F30A039AB2FB689A80BB680233ED
:102AB8001B789B09DBB21AB2BB6803331B781BB2C5
:102AC8009B001BB213431AB2BB6804331B781BB2BA
:102AD8009B021BB213431BB29BB2C3F30A039AB205
:102AE800FB68DA80BB6804331B785B08DBB21AB278
:102AF800BB6805331B781BB2DB011BB213431BB247
:102B08009BB2C3F30A039AB2FB681A81BB68053308
:102B18001B781B09DBB29B10DBB203F00303DAB2AC
:102B2800FB689A72BB6805331B781B09DBB203F09C
:102B38000303DAB2FB68DA72BB6810331B781AB287
:102B4800BB6811331B781BB21B021BB213431BB2A9
:102B58009BB2C3F30A039AB2FB681A80FB685B88CE
:102B6800B3F57F7F09D9FB685B8840F20342934243
:102B780003D8FB684FF480625A80FB689B88B3F5E2
:102B88007F7F09D9FB689B8840F20342934203D8B0
:102B9800FB684FF480629A80FB68DB88B3F57F7F1F
:102BA80009D9FB68DB8840F20342934203D8FB68EB
:102BB8004FF48062DA80FB681B89B3F57F7F09D9FF
:102BC800FB681B8940F20342934203D8FB684FF429
:102BD80080621A81BB6806331B781AB2BB68073358
:102BE8001B781BB21B021BB213431AB2FB68DA81B3
:102BF800BB6808331B781AB2BB6809331B781BB251
:102C08001B021BB213431AB2FB681A82BB680A3351
:102C18001B781AB2BB680B331B781BB21B021BB2A2
:102C280013431AB2FB685A82BB681A7BFB681A7591
:102C3800BB685A7BFB685A75FB68B3F90E3046F2DD
:102C4800A812934203DDFB6846F2A812DA81FB68FA
:102C5800B3F90E30684A934203DAFB6849F65862C2
:102C6800DA81FB68B3F9103046F2A812934203DD0B
:102C7800FB6846F2A8121A82FB68B3F910305E4A64
:102C8800934203DAFB6849F658621A82BB680E332E
:102C98001B781AB2BB680F331B781BB21B021BB21E
:102CA80013431BB29AB2FB681A83BB680E331B78B6
:102CB80003F00103DAB2FB689A76BB680E331B781F
:102CC8005B08DBB203F00103DAB2FB681A77BB6872
:102CD8000E331B789B08DBB203F00103DAB2FB6802
:102CE800DA76BB680E331B78DB08DBB203F001032E
:102CF800DAB2FB685A77BB680F331B78DB09DAB2A4
:102D0800FB6883F82720BB680F331B789B09DBB26D
:102D180003F00103DAB2FB6883F82220BB680F33A3
:102D28001B785B09DBB203F00103DAB2FB6883F8B6
:102D38002520BB680F331B781B09DBB203F00103A6
:102D4800DAB2FB6883F82920BB680F331B78DB08ED
:102D5800DBB203F00103DAB2FB6883F82820BB6812
:102D68000F331B789B08DBB203F00103DAB2FB6870
:102D780083F82420BB680F331B785B08DBB203F0B1
:102D88000103DAB2FB6883F82320BB680F331B7892
:102D980003F00103DAB2FB6883F82620BB680E3320
:102DA8001B78DB09DAB2FB6883F82120BB680E3395
:102DB8001B789B09DBB203F00103DAB2FB6883F8E6
:102DC8002020BB680E331B785B09DBB203F00103DC
:102DD800DAB2FB68DA77BB680E331B781B09DBB203
:102DE80003F00103DAB2FB689A77F86800F082F919
:102DF80000BF1837BD4680BD589EFFFF80B483B022
:102E080000AF78607B685B8840F22C52934203D90C
:102E18007B6801225A770DE07B685B8840F22C5270
:102E2800934207D87B685B88B3F5806F02D97B68CB
:102E380000225A777B685B88B3F5357F03D27B68BD
:102E48000122DA760CE07B685B88B3F5357F07D31F
:102E58007B685B88B3F5806F02D27B680022DA76E4
:102E68007B689B8840F22C52934203D97B680122ED
:102E78009A760DE07B689B8840F22C52934207D8E3
:102E88007B689B88B3F5806F02D97B6800229A76AD
:102E98007B689B88B3F5357F03D27B6801221A775C
:102EA8000CE07B685B88B3F5357F07D37B685B886C
:102EB800B3F5806F02D27B6800221A777B689A7E0E
:102EC8007B681B7F9A423ED17B68D3ED3C7AF5EE56
:102ED800C07AF1EE10FA16DB7B68D3ED3C7AB0EEDF
:102EE800007A77EEC77A7B68C3ED3C7A7B68D3EDCE
:102EF8003C7AF5EEC07AF1EE10FA04D57B684FF013
:102F08000002C3F8F0207B68D3ED3C7AF5EEC07A76
:102F1800F1EE10FA46D57B68D3ED3C7AB0EE007A34
:102F280077EE877A7B68C3ED3C7A7B68D3ED3C7A91
:102F3800F5EEC07AF1EE10FA34DD7B684FF000024E
:102F4800C3F8F0202EE07B6893ED3C7A7B689B7E8B
:102F58001A467B681B7FD31A5B0007EE903AF8EE9F
:102F6800E77A77EE277A7B68C3ED3C7A7B68D3ED06
:102F78003C7A9FED5A7AF4EEC77AF1EE10FA03DD47
:102F88007B68574AC3F8F0207B68D3ED3C7A9FED05
:102F9800557AF4EEC77AF1EE10FA03D57B68524AF7
:102FA800C3F8F0207B68DA7E7B685B7F9A423ED16B
:102FB8007B68D3ED3D7AF5EEC07AF1EE10FA16DBB8
:102FC8007B68D3ED3D7AB0EE007A77EEC77A7B68FE
:102FD800C3ED3D7A7B68D3ED3D7AF5EEC07AF1EE2C
:102FE80010FA04D57B684FF00002C3F8F4207B6820
:102FF800D3ED3D7AF5EEC07AF1EE10FA46D57B684E
:10300800D3ED3D7AB0EE007A77EE877A7B68C3ED30
:103018003D7A7B68D3ED3D7AF5EEC07AF1EE10FA91
:1030280034DD7B684FF00002C3F8F4202EE07B68A3
:1030380093ED3D7A7B685B7F1A467B68DB7ED31A0B
:103048005B0007EE903AF8EEE77A77EE277A7B682E
:10305800C3ED3D7A7B68D3ED3D7A9FED207AF4EE9F
:10306800C77AF1EE10FA03DD7B681D4AC3F8F42035
:103078007B68D3ED3D7A9FED1B7AF4EEC77AF1EECB
:1030880010FA03D57B68184AC3F8F4207B681B88BC
:10309800B3F5AF6F03D97B68144AC3F8F8207B688F
:1030A8001B88B3F5487F03D27B68114AC3F8F82020
:1030B8007B681B88B3F5487F09D37B681B88B3F509
:1030C800AF6F04D87B684FF00002C3F8F82000BF48
:1030D8000C37BD465DF8047B704700BF0000C8424E
:1030E8000000C8420000C8C20000C8C2000096C460
:1030F8000000964480B483B000AF78607B689B7E04
:10310800012B0ED1994B1B8801339AB2974B1A8029
:10311800964B1B88052B0BD17B68012283F82C204A
:1031280006E07B68002283F82C20904B00221A804E
:103138007B68DB7E012B0ED18D4B1B8801339AB245
:103148008B4B1A808A4B1B88052B0BD17B6801227D
:1031580083F82D2006E0864B00221A807B68002227
:1031680083F82D207B681B7F012B0ED1814B1B8898
:1031780001339AB27F4B1A807E4B1B88052B0BD1EB
:103188007B68012283F82E2006E07A4B00221A8001
:103198007B68002283F82E207B685B7F012B0ED191
:1031A800754B1B8801339AB2734B1A80724B1B887C
:1031B800052B0BD17B68012283F82F2006E06E4B8C
:1031C80000221A807B68002283F82F207B6893F8FE
:1031D8002730012B1ED1694B1B8801339AB2674BEC
:1031E8001A80664B1B88052B1BD17B68012283F84C
:1031F80039207B6893F857300133DAB27B6883F85B
:1032080057207B6893F85A300133DAB27B6883F829
:103218005A2006E0594B00221A807B68002283F866
:1032280039207B6893F82530012B16D1544B1B8825
:1032380001339AB2524B1A80514B1B88032B13D17E
:103248007B68012283F837207B6893F85530013377
:10325800DAB27B6883F8552006E0494B00221A80D1
:103268007B68002283F837207B6893F82630012B8F
:1032780016D1444B1B8801339AB2424B1A80414BFA
:103288001B88052B13D17B6893F838300133DAB2E9
:103298007B6883F838207B68012283F8562006E093
:1032A800384B00221A807B68002283F856207B68FE
:1032B80093F82330012B0ED1334B1B8801339AB27C
:1032C800314B1A80304B1B88052B0BD17B680122B0
:1032D80083F8352006E02C4B00221A807B680022F8
:1032E80083F835207B6893F82930012B16D1274BBA
:1032F8001B8801339AB2254B1A80244B1B88052B57
:1033080013D17B68012283F83B207B6893F85930FE
:103318000133DAB27B6883F8592006E01B4B0022A0
:103328001A807B68002283F83B207B6893F824305E
:10333800012B2FD1164B1B8801339AB2144B1A80DC
:10334800134B1B88052B28D17B6893F83630013343
:10335800DAB27B6883F836207B6893F854300133FF
:10336800DAB27B6883F8542017E000BFEA1B002418
:10337800EC1B0024EE1B0024F01B0024F21B00248D
:10338800F41B0024F61B0024F81B0024FA1B00245D
:10339800FC1B0024964B00221A807B6893F820308F
:1033A800012B12D1934B1B8801339AB2914B1A808F
:1033B800904B1B88052B0BD17B6893F83230013377
:1033C800DAB27B6883F8322002E08A4B00221A8046
:1033D8007B6893F82130012B12D1874B1B8801336E
:1033E8009AB2854B1A80844B1B88052B0BD17B68BE
:1033F80093F833300133DAB27B6883F8332002E084
:103408007D4B00221A807B6893F82830012B16D157
:103418007A4B1B8801339AB2784B1A80774B1B88FA
:10342800052B13D17B68012283F83A207B6893F837
:1034380058300133DAB27B6883F8582006E06F4BC6
:1034480000221A807B68002283F83A207B6893F870
:103458002230012B16D16A4B1B8801339AB2684B74
:103468001A80674B1B88052B13D17B68012283F8D0
:1034780034207B6893F852300133DAB27B6883F8E2
:10348800522006E05E4B00221A807B68002283F8F7
:1034980034207B68DB7F012B11D15A4B1B88013309
:1034A8009AB2584B1A80574B1B88052B0BD17B6857
:1034B800012283F83120534B00221A8003E07B68F5
:1034C800002283F831207B689B7F012B19D14E4B5A
:1034D8001B8801339AB24C4B1A804B4B1B88052B27
:1034E80013D17B68012283F830207B6893F85B3026
:1034F8000133DAB27B6883F85B20434B00221A80E1
:1035080003E07B68002283F830207B681B7D012B59
:103518000DD13E4B1B8801339AB23C4B1A803B4B72
:103528001B88052B09D17B6801229A7505E0374B6A
:1035380000221A807B6800229A757B685B7D012BCC
:1035480010D1334B1B8801339AB2314B1A80304B60
:103558001B88052B09D17B68DB7D0133DAB27B68D8
:10356800DA7502E02A4B00221A807B68DB7F012B88
:103578001BD17B689B7F012B17D17B6893F8283080
:10358800012B12D1234B1B8801339AB2214B1A808D
:10359800204B1B88052B0BD17B6893F83C300133FB
:1035A800DAB27B6883F83C2002E01A4B00221A80CA
:1035B8007B68DB7F012B31D17B689B7F012B2DD171
:1035C8007B6893F82930012B28D1134B1B880133D2
:1035D8009AB2114B1A80104B1B88052B21D17B689E
:1035E80093F83D300133DAB27B6883F83D2018E068
:1035F800FC1B0024FE1B0024001C0024021C0024C9
:10360800041C0024061C0024081C00240A1C002496
:103618000C1C00240E1C0024101C0024774B0022D4
:103628001A807B68DB7F012B1BD17B689B7F012B7A
:1036380017D17B6893F82230012B12D1704B1B886D
:1036480001339AB26E4B1A806D4B1B88052B0BD138
:103658007B6893F83E300133DAB27B6883F83E200A
:1036680002E0674B00221A807B689B7F012B17D1F1
:103678007B6893F82530012B12D1624B1B880133EC
:103688009AB2604B1A805F4B1B88052B0BD17B6865
:1036980093F83F300133DAB27B6883F83F2002E0C9
:1036A800584B00221A807B68DB7F012B1BD17B687B
:1036B8009B7F012B17D17B6893F82630012B12D101
:1036C800514B1B8801339AB24F4B1A804E4B1B88C3
:1036D800052B0BD17B6893F840300133DAB27B6855
:1036E80083F8402002E0484B00221A807B689B7FC9
:1036F800012B17D17B6893F82230012B12D1434B51
:103708001B8801339AB2414B1A80404B1B88052B0A
:103718000BD17B6893F841300133DAB27B6883F8C8
:10372800412002E0394B00221A807B689B7F012BE5
:1037380017D17B6893F82730012B12D1344B1B88A3
:1037480001339AB2324B1A80314B1B88052B0BD1AF
:103758007B6893F842300133DAB27B6883F8422001
:1037680002E02B4B00221A807B689B7F012B1BD128
:103778007B6893F82730012B16D17B68DB7F012B00
:1037880012D1244B1B8801339AB2224B1A80214B49
:103798001B88052B0BD17B6893F843300133DAB2D1
:1037A8007B6883F8432002E01A4B00221A807B686A
:1037B8009B7F012B17D17B6893F82030012B12D106
:1037C800154B1B8801339AB2134B1A80124B1B8876
:1037D800052B0CD17B6893F844300133DAB27B684F
:1037E80083F8442003E00C4B00221A8000BF00BF7E
:1037F8000C37BD465DF8047B704700BF101C0024E1
:10380800121C0024141C0024161C0024181C00245C
:103818001A1C00241C1C00241E1C002480B483B025
:1038280000AF78607B68B3F8EA207B68B3F8EC30C7
:103838005B089BB29A421CD27B68B3F900301A46E7
:103848007B68B3F8EA3019467B68B3F8EC305B085C
:103858009BB20B449A4228DD7B68B3F900309AB2D8
:103868007B68B3F8EC30D31A9BB21AB27B681A8023
:103878001BE07B68B3F900301A467B68B3F8EA307E
:1038880019467B68B3F8EC305B089BB2CB1A9A42B6
:103898000BDA7B68B3F900309AB27B68B3F8EC3086
:1038A80013449BB21AB27B681A807B68B3F9003064
:1038B8001A467B68B3F8EA30D31A07EE903AF8EE66
:1038C800E77A9FED067A67EE877A7B68C3ED047A1C
:1038D80000BF0C37BD465DF8047B7047ACFF333D35
:1038E80080B483B000AF78607B68B3F8EA207B6867
:1038F800B3F8EC305B089BB29A421DD27B68B3F9EF
:10390800D0301A467B68B3F8EA3019467B68B3F8BA
:10391800EC305B089BB20B449A422ADD7B68B3F912
:10392800D0309AB27B68B3F8EC30D31A9BB21AB293
:103938007B68A3F8D0201CE07B68B3F9D0301A4626
:103948007B68B3F8EA3019467B68B3F8EC305B085B
:103958009BB2CB1A9A420CDA7B68B3F9D0309AB290
:103968007B68B3F8EC3013449BB21AB27B68A3F8B7
:10397800D0207B68B3F9D0301A467B68B3F8EA30B8
:10398800D31A07EE903AF8EEE77A9FED067A67EEDB
:10399800877A7B68C3ED337A00BF0C37BD465DF884
:1039A800047B7047ACFF333D84B090B484B000AF63
:1039B800044607F11C0080E80E002346FB80002324
:1039C800BB600023FB603B6AFB600DE0FB68F03BDB
:1039D800BB60BB68B3F8E630FA889A4201D1BB688D
:1039E80008E0FB681B68FB607B6A1B68FA689A4200
:1039F800ECD1002318461037BD4690BC04B0704780
:103A0800F0B595B00AAF07F1080484E80F00002369
:103A18003B623B6CFB61FB6998B27B69009307F1E1
:103A280008030ECBFFF7C0FF38623B6A002B00F09B
:103A380096803B6AD3F8F8603B6A7B606D4607F175
:103A48004C040FCC0FC50FCC0FC523682B6007F1B2
:103A580040020ECA7868B0473B6AB3F90020424B6F
:103A68001B6807EE902AF8EEE77A3A6A0A339B0059
:103A780013440433C3ED007A3B6AB3F902203A4B8E
:103A88001B6807EE902AF8EEE77A3A6A1E339B0025
:103A980013440433C3ED007A334B1B680133324AB5
:103AA8001360314B1B68142B02D12F4B00221A6074
:103AB80000237B6224E02C4B1B683A6A0A339B0084
:103AC8001344043393ED007A284BD3ED007A77EE54
:103AD800277A264BC3ED007A234B1B683A6A1E33BC
:103AE8009B001344043393ED007A214BD3ED007A05
:103AF80077EE277A1E4BC3ED007A7B6A01337B622F
:103B08007B6A132BD7DD1A4B93ED007AF3EE046A28
:103B1800C7EE267AFDEEE77A17EE903A1AB23B6ABC
:103B2800A3F8D220114B93ED007AF3EE046AC7EEA6
:103B3800267AFDEEE77A17EE903A1AB23B6AA3F8B6
:103B4800D0200B4B4FF000021A60084B4FF00002D8
:103B58001A60386AFFF762FE386AFFF7C1FE00BFD5
:103B68002C37BD46F0BD00BF201C0024241C0024B7
:103B7800281C002480B483B000AF78607B681B8861
:103B880001339AB27B681A807B685B8801339AB2EA
:103B98007B685A807B689B8801339AB27B689A80DD
:103BA8007B68DB8801339AB27B68DA807B681B8884
:103BB800642B02D97B6864221A807B685B8840F694
:103BC800B832934203D97B6840F6B8325A807B6892
:103BD800DB88B3F5FA6F03D97B684FF4FA62DA80B1
:103BE80000BF0C37BD465DF8047B704780B584B0D4
:103BF80000AF78600023FB815A4B00221A70594BA2
:103C08001B785A1CD1B2574A11701A46564BFF21DD
:103C18009954544B1B785A1CD1B2524A11701A4607
:103C2800514BFF2199544F4B1B785A1CD1B24D4A26
:103C380011701A467B6819784B4B9954494B1B787D
:103C48005A1CD1B2474A11701A46474B0921995458
:103C5800444B1B785A1CD1B2424A11701A46424B47
:103C6800032199543F4B1B785A1CD1B23D4A11701D
:103C78001A463D4B2A2199547B685988394B1B7841
:103C88005A1CD0B2374A10701A46C9B2364B9954EA
:103C98007B685B881B0A99B2324B1B785A1CD0B2DE
:103CA800304A10701A46C9B22F4B99542D4B1B78C5
:103CB8005A1CD1B22B4A11701A462B4B0021995429
:103CC800284B1B785A1CD1B2264A11701A46264B2B
:103CD800002199547B689988224B1B785A1CD0B2D2
:103CE800204A10701A46C9B21F4B99547B689B88AA
:103CF8001B0A99B21B4B1B785A1CD0B2194A107078
:103D08001A46C9B2184B99540223BB600AE0164AF6
:103D1800BB6813441B781A46FB891344FB81BB68B4
:103D28000133BB60BB680B2BF1DDFB89FF2B02D98C
:103D3800FB89DBB2FB81FB89DB43FB81094B1B78E9
:103D48005A1CD1B2074A11701A46FB89D9B2064BE0
:103D580099540D220449054811F0BCFA00BF1037E8
:103D6800BD4680BD451C0024381C0024480F002493
:103D780080B582B000AF786039602B4B5A682B4B06
:103D880083FB021313449911D317C91A0B461B015D
:103D98005B1ADB00D11A002903D17B681846FFF7AC
:103DA80025FF214B5A68214B83FB021313449911B9
:103DB800D317C91A0B461B015B1ADB00D11A1E293F
:103DC80004D17B6806331846FFF710FF164B5A6874
:103DD800164B83FB021313449911D317C91A0B46C8
:103DE8001B015B1ADB00D11A3C2903D13B6818463A
:103DF800FFF7FCFE0C4B5A680C4B83FB0213134471
:103E08009911D317C91A0B461B015B1ADB00D11A8B
:103E18005A2904D13B6806331846FFF7E7FE00BF6E
:103E28000837BD4680BD00BF2C1E002489888888BD
:103E380080B485B000AF78600023BB810223FB7398
:103E48000AE0FB7B7A6813441B781A46BB89134443
:103E5800BB81FB7B0133FB737B6803331B785A1CE4
:103E6800FB7B9A42EDDABB89DB43BB81BB89FB73E1
:103E7800FB7B18461437BD465DF8047B704700008D
:103E880080B582B000AF0346FB800B46BB8013466B
:103E98007B801B4B55225A70194B5A78184B1A7055
:103EA800FB88DAB2164B9A70154B0722DA70144B5E
:103EB80001221A717B88DAB2114B5A71B7F90230B4
:103EC8001B121BB2DAB20E4B9A71BB88DAB20C4BDA
:103ED800DA71BB881B0A9BB2DAB2094B1A7208481E
:103EE800FFF7A6FF03461A46054B5A720A220449F1
:103EF800044811F0EFF900BF0837BD4680BD00BF88
:103F0800481C0024DC0F002480B483B000AF0346B3
:103F1800FB800B46BB8013467B80B7F90620B7F9B8
:103F280004309A4202DABB88FB8007E0B7F9062022
:103F3800B7F902309A4201DD7B88FB80B7F9063079
:103F480018460C37BD465DF8047B704780B582B0D3
:103F580000AF786039607A681B4B83FB0213134407
:103F68009911D317C91A0B461B015B1ADB00D11A2A
:103F780000290AD13B681B7818463B6899883B683A
:103F8800B3F902301A46FFF77BFF7A680E4B83FBC2
:103F9800021313449911D317C91A0B461B015B1A54
:103FA800DB00D11A3C290AD13B681B7C18463B68C8
:103FB800998A3B68B3F912301A46FFF761FF00BFD0
:103FC8000837BD4680BD00BF8988888880B483B023
:103FD80000AF78607B685A687B68C3F834217B68D7
:103FE800D3F834217B68C3F838217B68D3ED017A94
:103FF8009FED5C7A67EE877A7B68C3ED507A7B68C1
:10400800D3ED017A9FED577A67EE877A7B68C3ED27
:10401800527A7B68DA697B68C3F8D8217B68D3F861
:10402800D8217B68C3F8DC217B68D3ED077A9FED44
:104038004D7A67EE877A7B68C3ED797A7B68D3ED32
:10404800077A9FED487A67EE877A7B68C3ED7B7ABB
:104058007B685A6B7B68C3F87C227B68D3F87C2228
:104068007B68C3F880227B68D3ED0D7A9FED3D7A9B
:1040780067EE877A7B68C3EDA27A7B68D3ED0D7A09
:104088009FED387A67EE877A7B68C3EDA47A7B6800
:10409800DA6C7B68C3F820237B68D3F820237B681D
:1040A800C3F824237B68D3ED137A9FED2E7A67EE4D
:1040B800877A7B68C3EDCB7A7B68D3ED137A9FED63
:1040C800297A67EE877A7B68C3EDCD7A7B685A6E6A
:1040D8007B68C3F8C4237B68D3F8C4237B68C3F820
:1040E800C8237B68D3ED197A9FED1E7A67EE877A2D
:1040F8007B68C3EDF47A7B68D3ED197A9FED197A62
:1041080067EE877A7B68C3EDF67A7B68DA6F7B683F
:1041180003F58D631A607B6803F58D631A687B6805
:1041280003F26C431A607B68D3ED1F7A9FED0D7A1A
:1041380067EE877A7B6803F27443C3ED007A7B6885
:10414800D3ED1F7A9FED077A67EE877A7B6803F2D3
:104158007C43C3ED007A00BF0C37BD465DF8047B95
:10416800704700BF302F654280B584B000AFF8605B
:10417800B9607A60B9683B4B83FB0132CB17D21A1E
:1041880013465B0013445B00CA1A002A04D1FB687B
:104198001946786800F060F9B968324B83FB013240
:1041A800CB17D21A13465B0013445B00CA1A012AC4
:1041B80005D1FB6818331946786800F04DF9B968DD
:1041C800284B83FB0132CB17D21A13465B001344EA
:1041D8005B00CA1A022A05D1FB6830331946786891
:1041E80000F03AF9B9681F4B83FB0132CB17D21A9A
:1041F80013465B0013445B00CA1A032A05D1FB6807
:1042080048331946786800F027F9B968154B83FBDD
:104218000132CB17D21A13465B0013445B00CA1A4B
:10422800042A05D1FB6860331946786800F014F950
:10423800B9680C4B83FB0132CB17D21A13465B00CB
:1042480013445B00CA1A052A05D1FB68783319465E
:10425800786800F001F9F868FFF7B8FE00BF10377A
:10426800BD4680BDABAAAA2A80B487B000AF87ED4F
:10427800030AC7ED020A87ED011A386097ED017A43
:10428800D7ED027A77EE677AC7ED057ABB683B61AE
:1042980097ED037AD7ED047A37EE677A01223B6807
:1042A80002FA03F3013B07EE903AF8EEE77A67EE7D
:1042B800276A97ED057AC6EE877AFDEEE77A17EE5C
:1042C800903A18461C37BD465DF8047B704780B4A9
:1042D80087B000AFF86087ED020AC7ED010A3960C0
:1042E80097ED017AD7ED027A77EE677AC7ED057A0E
:1042F800BB683B61FB6807EE903AB8EEE77AD7ED0A
:10430800057A67EE276A01223B6802FA03F3013B4C
:1043180007EE903AF8EEE77A86EEA77AD7ED047AB8
:1043280077EE277AB0EE670A1C37BD465DF8047B46
:104338007047000080B58CB000AFF861B96187EDB7
:10434800050AC7ED040A87ED031AC7ED021A87EDBF
:10435800012A1020B2EE091AFAEE090A97ED050AA9
:10436800FFF782FF0346FB850C20B3EE0E1AFBEE27
:104378000E0A97ED040AFFF777FF0346BB850C206A
:104388009FED321ADFED320A97ED030AFFF76CFF53
:1043980003467B850C20B1EE041ADFED2D0A97ED5C
:1043A800020AFFF761FF03463B850C20B2EE041AB0
:1043B800FAEE040A97ED010AFFF756FF0346FB845D
:1043C800BB691B781A46234B1A60FB8D1B0A9BB2EC
:1043D800DAB2204B1A71FB8DDAB21E4B5A71BB8DC3
:1043E8001B099BB2DAB21B4B9A71BB8D5BB21B01E6
:1043F8005AB27B8D1B0A9BB25BB213435BB2DAB233
:10440800144BDA717B8DDAB2124B1A723B8D1B0991
:104418009BB2DAB20F4B5A723B8D5BB21B015AB298
:10442800FB8C1B0A9BB25BB213435BB2DAB2094B3B
:104438009A72FB8CDAB2074BDA720649F86905F012
:1044480085FA00BF3037BD4680BD00BF0000FA4383
:1044580000000000541C002480B582B000AF7860D2
:1044680039603B681B781A46104B1A600F4BFF22C5
:104478001A710E4BFF225A710C4BFF229A710B4B8B
:10448800FF22DA71094BFF221A72084BFF225A7277
:10449800064BFF229A72054BFC22DA7203497868B0
:1044A80005F054FA00BF0837BD4680BD601C0024E3
:1044B80080B584B000AF786039603B681B7803F042
:1044C8000F03DAB27B685A703B681B781B09DAB2B3
:1044D8007B689A703B6802331B781AB23B680133D9
:1044E8001B781BB21B021BB213431BB2FB81FB8957
:1044F8001021F2EE090ABAEE090A1846FFF7E7FE9C
:10450800F0EE407A7B68C3ED017A3B6804331B7890
:104518001A463B6803331B781B0213431B11BB81EC
:10452800BB890C21F3EE0E0ABBEE0E0A1846FFF704
:10453800CEFEF0EE407A7B68C3ED027A3B68053325
:104548001B781AB23B6804331B781BB21B021BB2E0
:1045580003F470631BB213431BB27B817B890C216C
:10456800F2EE040ABAEE040A1846FFF7B0FEF0EEBF
:10457800407A7B68C3ED037A3B6806331B785AB2EE
:104588007B681A743B6807331B785AB27B685A7485
:1045980000BF1037BD4680BD84B0B0B584B000AF51
:1045A800786007F1240080E80E007B6BFB60FB68F5
:1045B800013B152B00F2908001A252F823F000BFB6
:1045C80021460008314600084146000851460008C7
:1045D8006146000871460008E1460008E146000807
:1045E800E1460008E1460008E1460008E146000807
:1045F800E1460008E1460008E1460008E1460008F7
:104608008146000891460008A1460008B146000806
:10461800C1460008D146000807F13403283319467B
:104628003748FFF745FF57E007F1340328331946A9
:104638003448FFF73DFF4FE007F1340328331946AC
:104648003148FFF735FF47E007F1340328331946AF
:104658002E48FFF72DFF3FE007F1340328331946B2
:104668002B48FFF725FF37E007F1340328331946B5
:104678002848FFF71DFF2FE007F1340328331946B8
:104688002548FFF715FF27E007F1340328331946BB
:104698002248FFF70DFF1FE007F1340328331946BE
:1046A8001F48FFF705FF17E007F1340328331946C1
:1046B8001C48FFF7FDFE0FE007F1340328331946C5
:1046C8001948FFF7F5FE07E007F1340328331946C8
:1046D8001648FFF7EDFE00BF7B681D4607F134045E
:1046E8000FCC0FC50FCC0FC594E80F0085E80F005D
:1046F80078681037BD46BDE8B04004B0704700BFC9
:10470800F0010024D801002408020024200200241B
:104718003802002450020024F80600241007002460
:1047280028070024400700245807002470070024A5
:1047380080B584B000AF786039607B681B781BB2A5
:104748001B021AB27B6801331B781BB213431BB2DE
:10475800FB81FB894AF65312934240F09D813B68E6
:104768009B6C5A1C3B689A647B6802331B781AB2AC
:104778007B6803331B781BB21B021BB213431BB2AB
:104788009BB2C3F30A039AB23B681A807B6803336F
:104798001B78DB08DBB21AB27B6804331B781BB2C8
:1047A8005B011BB213431BB29BB2C3F30A039AB259
:1047B8003B685A807B6804331B789B09DBB21AB2CA
:1047C8007B6805331B781BB29B001BB213431AB2DC
:1047D8007B6806331B781BB29B021BB213431BB2C8
:1047E8009BB2C3F30A039AB23B689A807B6806338C
:1047F8001B785B08DBB21AB27B6807331B781BB2E5
:10480800DB011BB213431BB29BB2C3F30A039AB278
:104818003B68DA807B6807331B781B09DBB203F03F
:104828000303DAB23B689A723B689B7A012B02D980
:104838003B6801229A727B6807331B789B09DBB2BD
:1048480003F00103DAB23B68DA727B6807331B783E
:10485800DB09DAB23B681A737B6808331B7803F00C
:104868000103DAB23B685A737B6808331B785B082C
:10487800DBB21AB27B6809331B781BB2DB011BB2AF
:1048880013431BB29BB2C3F30A039AB23B681A8163
:104898007B6809331B781B09DBB203F00303DAB228
:1048A8003B689A737B680A331B781AB27B680B33B0
:1048B8001B781BB21B021BB213431AB23B681A8245
:1048C8007B680C331B781AB27B680D331B781BB2DC
:1048D8001B021BB213431AB23B685A827B680E3321
:1048E8001B781AB27B680F331B781BB21B021BB2F2
:1048F80013431AB23B689A827B6810331B7803F023
:104908000303DAB23B689A757B6810331B789B08FF
:10491800DBB203F00303DAB23B681A767B68103324
:104928001B781B09DBB203F00303DAB23B68DA75C4
:104938007B685A7C3B681A777B689A7C3B685A7715
:104948007B6811331B7803F00103DAB23B6883F804
:1049580020207B6811331B785B08DBB203F001036E
:10496800DAB23B6883F822207B6811331B789B08F6
:10497800DBB203F00103DAB23B6883F821207B68DD
:1049880011331B78DB08DBB203F00103DAB23B68B2
:1049980083F823207B6811331B781B09DBB203F0F3
:1049A8000103DAB23B6883F824207B6811331B7853
:1049B8005B09DBB203F00103DAB23B6883F8252018
:1049C8007B6811331B789B09DBB203F00103DAB271
:1049D8003B6883F826207B6811331B78DB09DAB241
:1049E8003B6883F827207B6812331B78DB09DAB22F
:1049F8003B6883F82D207B6812331B789B09DBB258
:104A080003F00103DAB23B6883F828207B6812338D
:104A18001B785B09DBB203F00103DAB23B6883F869
:104A28002B207B6812331B781B09DBB203F00103D0
:104A3800DAB23B6883F82F207B6812331B78DB08D7
:104A4800DBB203F00103DAB23B6883F82E207B68FF
:104A580012331B789B08DBB203F00103DAB23B6820
:104A680083F82A207B6812331B785B08DBB203F0DB
:104A78000103DAB23B6883F829207B6812331B787C
:104A880003F00103DAB23B6883F82C20044800F0F5
:104A980071F8034800F098FA00BF1037BD4680BD92
:104AA8006C1C002480B483B000AF78607B684FF43E
:104AB80080621A807B684FF480625A807B684FF46A
:104AC80080629A807B684FF48062DA807B684FF45A
:104AD80080621A817B6800221A827B6800225A82CF
:104AE8007B6800229A827B68002283F838207B68E2
:104AF800002283F839207B68002283F83E207B68F7
:104B0800002283F83B207B68002283F83C207B68E6
:104B1800002283F840207B68002283F841207B68CC
:104B2800002283F83D207B68002283F83A207B68C6
:104B3800002283F83F207B684FF000025A657B68AB
:104B48004FF000021A657B68002283F821207B68F9
:104B5800002283F823207B68002283F820207B68CA
:104B6800002283F8222000BF0C37BD465DF8047B85
:104B78007047000080B483B000AF78607B689B7A90
:104B8800002B00F00A827B6893F82030012B0ED1AD
:104B9800944B1B8801339AB2924B1A80914B1B8815
:104BA800052B0BD17B68012283F8322006E07B6855
:104BB800002283F832208B4B00221A807B6893F8FE
:104BC8002130012B0ED1884B1B8801339AB2864BBA
:104BD8001A80854B1B88052B0BD17B68012283F833
:104BE800332006E0804B00221A807B68002283F87D
:104BF80033207B6893F82230012B0ED17B4B1B8826
:104C080001339AB2794B1A80784B1B88052B0BD14C
:104C18007B68012283F8342006E0744B00221A8056
:104C28007B68002283F834207B6893F82330012BBB
:104C38000ED16F4B1B8801339AB26D4B1A806C4BA7
:104C48001B88052B0BD17B68012283F8352006E0F1
:104C5800674B00221A807B68002283F835207B6826
:104C680093F82D30012B0ED1624B1B8801339AB279
:104C7800604B1A805F4B1B88052B0BD17B68012288
:104C880083F83F2006E05B4B00221A807B680022F5
:104C980083F83F207B6893F82B30012B0ED1564BBD
:104CA8001B8801339AB2544B1A80534B1B88052B2F
:104CB8000BD17B68012283F83D2006E04E4B002291
:104CC8001A807B68002283F83D207B6893F82C309B
:104CD800012B12D1494B1B8801339AB2474B1A80DA
:104CE800464B1B88052B0FD17B6893F83E30013368
:104CF800DAB27B6883F83E2006E07B68002283F8FE
:104D08003E203E4B00221A807B6893F82930012B05
:104D18000ED13B4B1B8801339AB2394B1A80384B62
:104D28001B88052B0BD17B68012283F83B2006E00A
:104D3800334B00221A807B68002283F83B207B6873
:104D480093F82F30012B0ED12E4B1B8801339AB2CA
:104D58002C4B1A802B4B1B88052B0BD17B6801220F
:104D680083F8412006E0274B00221A807B68002246
:104D780083F841207B6893F82A30012B12D1224B0B
:104D88001B8801339AB2204B1A801F4B1B88052BB6
:104D98000FD17B6893F83C300133DAB27B6883F833
:104DA8003C2006E0184B00221A807B68002283F81A
:104DB8003C207B6893F82630012B29D1134B1B88A4
:104DC80001339AB2114B1A80104B1B88052B26D140
:104DD8007B6893F838300133DAB27B6883F838207F
:104DE8001DE000BFC41C0024C61C0024C81C0024ED
:104DF800CA1C0024CC1C0024CE1C0024D01C002477
:104E0800D21C0024D41C0024D61C0024D81C002446
:104E1800654B00221A807B68002283F838207B6863
:104E280093F82730012B12D1604B1B8801339AB2BB
:104E38005E4B1A805D4B1B88052B0FD17B6893F85E
:104E480039300133DAB27B6883F8392006E0574BF2
:104E580000221A807B68002283F839207B6893F847
:104E68002E30012B0ED1524B1B8801339AB2504B76
:104E78001A804F4B1B88052B0BD17B68012283F8C6
:104E8800402006E04A4B00221A807B68002283F803
:104E980040207B6893F82830012B0ED1454B1B88A6
:104EA80001339AB2434B1A80424B1B88052B0BD116
:104EB8007B68012283F83A2006E03E4B00221A80E4
:104EC8007B68002283F83A207B6893F82530012B11
:104ED80011D1394B1B8801339AB2374B1A80364BA4
:104EE8001B88052B0BD17B68012283F83720324BB6
:104EF80000221A8003E07B68002283F837207B6851
:104F080093F82430012B11D12C4B1B8801339AB212
:104F18002A4B1A80294B1B88052B0BD17B68012251
:104F280083F83620254B00221A8003E07B68002294
:104F380083F836207B689B7D012B0DD1204B1B8885
:104F480001339AB21E4B1A801D4B1B88052B09D1C1
:104F58007B6801225A7605E0194B00221A807B688B
:104F680000225A767B681B7E012B10D1154B1B88BB
:104F780001339AB2134B1A80124B1B88052B0CD1A4
:104F88007B68DB7E0133DAB27B68DA7605E07B6822
:104F98000022DA760B4B00221A8000BF0C37BD4680
:104FA8005DF8047B704700BFD81C0024DA1C00247D
:104FB800DC1C0024DE1C0024E01C0024E21C00246D
:104FC800E41C0024E61C002480B483B000AF7860A1
:104FD8007B689B7A002B0FD17B68002283F8222004
:104FE8007B68002283F820207B68002283F8212038
:104FF8007B68002283F823207B6893F820207B6855
:1050080093F822309A423ED17B68D3ED147AF5EEBC
:10501800C07AF1EE10FA16DB7B6893ED147A764BC2
:10502800D3ED007A77EE677A7B68C3ED147A7B68F4
:10503800D3ED147AF5EEC07AF1EE10FA03D57B6859
:105048004FF000021A657B68D3ED147AF5EEC07A4A
:10505800F1EE10FA4BD57B6893ED147A664BD3EDDD
:10506800007A77EE277A7B68C3ED147A7B68D3EDF4
:10507800147AF5EEC07AF1EE10FA38DD7B684FF05D
:1050880000021A6533E07B6893ED147A7B6893F825
:1050980020301A467B6893F82230D31A5B0007EE5B
:1050A800903AF8EEE76A544BD3ED007A66EEA77AA9
:1050B80077EE277A7B68C3ED147A7B68D3ED147A90
:1050C8009FED4E7AF4EEC77AF1EE10FA02DD7B68B6
:1050D8004B4A1A657B68D3ED147A9FED4A7AF4EE51
:1050E800C77AF1EE10FA02D57B68474A1A657B68E1
:1050F80093F821207B6893F823309A4240D17B684B
:10510800D3ED157AF5EEC07AF1EE10FA16DB7B686E
:1051180093ED157A384BD3ED007A77EE677A7B6892
:10512800C3ED157A7B68D3ED157AF5EEC07AF1EE0A
:1051380010FA03D57B684FF000025A657B68D3EDFF
:10514800157AF5EEC07AF1EE10FA00D44DE07B68DE
:1051580093ED157A284BD3ED007A77EE277A7B68A2
:10516800C3ED157A7B68D3ED157AF5EEC07AF1EECA
:1051780010FA00DC39E07B684FF000025A6534E031
:105188007B6893ED157A7B6893F823301A467B6821
:1051980093F82130D31A5B0007EE903AF8EEE76AED
:1051A800154BD3ED007A66EEA77A77EE277A7B68FF
:1051B800C3ED157A7B68D3ED157A9FED107AF4EE7E
:1051C800C77AF1EE10FA02DD7B680D4A5A657B68F2
:1051D800D3ED157A9FED0B7AF4EEC77AF1EE10FA5B
:1051E80000D402E07B68084A5A6500BF0C37BD4608
:1051F8005DF8047B704700BF400000240000C842EF
:105208000000C8420000C8C20000C8C280B483B011
:1052180000AF87ED010A38603B687A68DA603B685E
:1052280093ED007A3B68D3ED037A27EE277A3B6843
:10523800D3ED007AF7EE006A76EEE76A3B68D3EDC5
:10524800017A66EEA77A77EE277A3B68C3ED027A91
:105258003B689A683B685A603B689B6807EE903ADF
:10526800B0EE670A0C37BD465DF8047B7047000056
:1052780080B485B000AF786039607B6806331B78EE
:105288001BB21B021AB27B6805331B781BB213438F
:105298001BB27B817B8940F20232934240F0D2817B
:1052A800684B0022DA807B6807331B781AB27B6868
:1052B80008331B781BB21B021BB213431AB2624B92
:1052C8001A807B6809331B781AB27B680A331B780B
:1052D8001BB21B021BB213431AB25C4B1A807B68C9
:1052E8000B331B781AB27B680C331B781BB21B027A
:1052F8001BB213431AB2564B1A807B680D331B78C6
:105308001AB27B680E331B781BB21B021BB2134305
:105318001AB2504B1A807B680F331B781AB27B681D
:1053280010331B781BB21B021BB213431AB24A4B31
:105338001A807B6811331B781AB27B6812331B788A
:105348001BB21B021BB213431AB2444B1A807B6870
:1053580013331B781AB27B6814331B781BB21B02F9
:105368001BB213431AB23E4B1A807B6815331B7865
:105378001AB27B6816331B781BB21B021BB213438D
:105388001AB2384B1A807B6817331B781AB27B68BD
:1053980018331B781BB21B021BB213431AB2324BD1
:1053A8001A807B6819331B781AB27B681A331B780A
:1053B8001BB21B021BB213431AB22C4B1A807B6818
:1053C8001B331B781AB27B681C331B781BB21B0279
:1053D8001BB213431AB2264B1A807B681D331B7805
:1053E8001AB27B681E331B781BB21B021BB2134315
:1053F8001AB2204B1A807B681F331B781AB27B685D
:1054080020331B781BB21B021BB213431AB21A4B70
:105418001A807B6821331B781AB27B6822331B7889
:105428001BB21B021BB213431AB2144B1A807B68BF
:1054380093F823307B727B6893F824303B72002307
:10544800FB602EE02C1C0024521D0024501D00245B
:10545800541D0024561D00245C1D00245A1D0024E0
:10546800581D0024601D00245E1D0024641D0024B6
:10547800621D00246A1D0024681D0024661D002486
:105488007A7AFB6842FA03F3DBB203F00103D9B27C
:105498003A68FB68134461330A461A70FB680133A3
:1054A800FB60FB68032BEBDD7B6820331B7803F084
:1054B8000103DAB23B6883F86520654BB3F9003025
:1054C80007EE903AF8EEE77A9FED627AC7EE876AC0
:1054D8003B6816EE902ADA625F4BB3F9003007EEAC
:1054E800903AF8EEE77A9FED5B7AC7EE876A3B68F9
:1054F80016EE902A1A63594BB3F9003007EE903A2A
:10550800F8EEE77A9FED537AC7EE876A3B6816EEA6
:10551800902A5A63524BB3F9003007EE903AF8EEEE
:10552800E77A9FED4C7AC7EE876A3B6816EE902AB9
:105538009A634C4BB3F9003007EE903AF8EEE77AED
:105548009FED447AC7EE876A3B6816EE902ADA63C5
:10555800454BB3F9003007EE903AF8EEE77A9FED45
:105568003D7AC7EE876A3B6816EE902A1A643F4B6D
:10557800B3F900305AB23B6883F844203C4BB3F986
:10558800003007EE903AF8EEE77A9FED327AC7EEF0
:10559800876A3B6816EE902A9A64364BB3F9003056
:1055A80007EE903AF8EEE77A9FED2A7AC7EE876A17
:1055B8003B6816EE902ADA642F4BB3F9003007EEF9
:1055C800903AF8EEE77A9FED237AC7EE876A3B6850
:1055D80016EE902A1A65294BB3F9003007EE903A77
:1055E800F8EEE77A9FED1B7AC7EE876A3B6816EEFE
:1055F800902A5A65224BB3F9003007EE903AF8EE3C
:10560800E77A9FED147AC7EE876A3B6816EE902A10
:105618009A651C4BB3F9003007EE903AF8EEE77A3A
:105628009FED0C7AC7EE876A3B6816EE902ADA651A
:10563800154BB3F900305AB23B6883F86020134B1E
:1056480000221A8000BF1437BD465DF8047B7047FE
:10565800501D002400004842521D0024541D0024FF
:10566800561D0024581D00245A1D00245C1D0024CA
:105678005E1D0024601D0024621D0024641D00249A
:10568800661D0024681D00246A1D0024101F0024C4
:1056980080B582B000AF78600B467B800749786898
:1056A800FFF7E6FD06497868FFF742F8054B002248
:1056B8005A81002318460837BD4680BDE81C0024DF
:1056C8006C1C00242C1C002480B584B000AFF8604A
:1056D800B9607A603B607A68B968F86800F022F8C7
:1056E8007B683A68B968F86800F0BEF87968386885
:1056F80000F072F9BB697A68B968F86800F014FAC2
:10570800786800F0E7FABB697A68B968F86800F069
:1057180007FB7A68B968F86800F03EFE00BF1037EA
:10572800BD4680BD80B584B000AFF860B9607A60CE
:105738007B681B78002B36D14A4B93F83730002B07
:1057480040F08B80474B93F83630002B40F0858033
:10575800444B93F83F30012B7FD17B681B7F002B94
:1057680006D17B6801221A707B6800225A6074E0B7
:105778007B681B7F012B70D17B6800221A777B68BE
:1057880001221A707B68012283F834207B6840F27A
:10579800DD525A60FB68002283F80C25BB680022A2
:1057A80083F80C2559E07B681B78012B55D17B6861
:1057B8005B6840F2DB52934207D87B6801221A7279
:1057C8007B68012283F8342035E07B685B6840F20F
:1057D800DC52934216D97B685B6840F6B732934235
:1057E80010D8B7EE080AF86800F0B0FDB7EE080A5E
:1057F800B86800F0ABFDF86800F0ACFCB86800F0E1
:10580800A9FC18E07B685B6840F6B832934212D96D
:105818007B685B6841F2931293420CD87B68022242
:105828001A72B7EE000AF86800F090FDB7EE000AA9
:10583800B86800F08BFD7B685B685A1C7B685A600F
:105848007B685B6841F27072934206D17B680022E4
:105858001A707B68002283F8342000BF1037BD46D9
:1058680080BD00BF6C1C002480B584B000AFF86018
:10587800B9607A603B603B6893F90C30002B2DD1FE
:10588800544B93F90130012B10D13B6801221A7354
:105898003B680022DA817B684FF000029A613B681E
:1058A8000122DA723B6800221A748FE0494B93F99F
:1058B8000130B3F1FF3F40F089803B68FF221A7343
:1058C8003B680022DA817B684FF000029A613B68EE
:1058D8000022DA723B6800221A7477E03B6893F979
:1058E8000C30012B3ED13B68DB89B3F57A7F0AD8AF
:1058F8007B684FF407725A82F86800F0A9FCB86810
:1059080000F0A6FC27E03B68DB89B3F57A7F09D96C
:105918003B68DB8940F6B832934203D87B6864223F
:105928005A8018E03B68DB8940F6B832934209D9BF
:105938003B68DB89B3F57A6F04D87B684FF4CD7286
:105948005A8208E03B68DB8941F28832934202D1EF
:105958003B6800221A733B68DB8901339AB23B68C3
:10596800DA8133E03B6893F90C30B3F1FF3F2DD176
:105978003B68DB89B3F57A7F0AD87B684FF40772F6
:105988005A82F86800F0E6FBB86800F0E3FB17E01D
:105998003B68DB89B3F57A7F0AD93B68DB8940F637
:1059A800B832934204D87B6840F261325A8007E0EB
:1059B8003B68DB89B3F57A6F02D13B6800221A7322
:1059C8003B68DB8901339AB23B68DA8100BF103744
:1059D800BD4680BD481E002480B582B000AF786007
:1059E80039603B6893F90C30002B40F08D803B68A0
:1059F80093F90B30002B40F08780474B93F83830F1
:105A0800012B04D0454B93F83230012B25D1424B62
:105A180093F83730002B20D1404B93F83130002BCE
:105A28001BD13D4B93F83630002B16D13B4B93F8E6
:105A38003030002B11D13B6800221A747B68D3EDFB
:105A4800067AB7EEE77A9FED326B37EE067BF7EE14
:105A5800C77B7B68C3ED067A2EE02F4B93F839306D
:105A6800012B04D02D4B93F83330012B24D12A4B32
:105A780093F83730002B1FD1284B93F83130002B87
:105A88001AD1254B93F83630002B15D1234B93F8B8
:105A98003030002B10D13B6800221A747B68D3ED9C
:105AA800067AB7EEE77A9FED1A6B37EE467BF7EE8C
:105AB800C77B7B68C3ED067A7B68D3ED067A9FEDDA
:105AC800181ADFED180AB0EE670A04F077FCF0EE5A
