:020000040800F2
:10000000402E002425040008D595000845850008E9
:100010003D930008D71F0008A1B4000800000000AD
:1000200000000000000000000000000033A00008F5
:100030006D2E0008000000000D9D000835A000088E
:100040003F0400083F0400083F0400083F04000884
:100050003F0400083F0400083F0400083F04000874
:100060003F0400083F0400083F0400087124000812
:100070007D2400088924000895240008A124000894
:10008000AD240008B92400083F040008752E0008BC
:10009000812E00083F0400083F0400083F040008C8
:1000A0003F0400083F0400083F0400083F04000824
:1000B0003F0400083F0400083F0400083F04000814
:1000C0003F0400083F0400083F0400083F04000804
:1000D0003F04000835B4000855B4000875B40008A2
:1000E0003F0400083F040008000000003F0400082F
:1000F0003F040008F5A200083F040008C5240008DA
:100100003F0400083F0400083F0400083F040008C3
:1001100095A80008B5A800083F0400083F0400089F
:10012000D1240008DD240008E9240008F524000893
:10013000012500083F0400083F0400083F040008B0
:1001400000000000000000000000000000000000AF
:100150000D250008192500082525000881B4000890
:100160003F0400083F0400083F0400083F04000863
:100170003F0400083F0400083F0400083F04000853
:100180003F0400083F040008D5A80008F5A80008AF
:100190003F0400083F0400083F0400083F04000833
:1001A0003F0400083F0400083F0400083F04000823
:1001B0003F0400083F0400083F0400083F04000813
:1001C0003F0400083F0400083F0400083F04000803
:1001D0003F0400083F0400083F0400083F040008F3
:1001E0003F0400083F0400083F0400083F040008E3
:1001F0003F0400083F0400083F0400083F040008D3
:100200003F0400083F0400083F0400083F040008C2
:100210003F0400083F0400083F0400083F040008B2
:100220003F0400083F0400083F04000800000000ED
:100230003F0400083F040008000000003F040008DD
:100240003F0400083F0400083F0400083F04000882
:100250003F0400083F0400083F0400083F04000872
:100260003F0400083F0400083F0400083F04000862
:100270003F0400083F0400083F040008000000009D
:100280003F0400083F0400083F040008000000008D
:10029000000000003F04000800F002F800F0B2F88F
:1002A0000AA090E8000C82448344AAF10107DA45D1
:1002B00001D100F0A7F8AFF2090EBAE80F0013F071
:1002C000010F18BFFB1A43F001031847F8DD0000C7
:1002D00018DE00000A444FF0000C10F8013B13F048
:1002E000070408BF10F8014B1D1108BF10F8015B8F
:1002F000641E05D010F8016B641E01F8016BF9D182
:1003000013F0080F1EBF10F8014BAD1C0C1B09D1D8
:100310006D1E58BF01F801CBFAD505E014F8016B4A
:1003200001F8016B6D1EF9D59142D6D370470000DC
:100330000023002400250026103A28BF78C1FBD8EE
:10034000520728BF30C148BF0B6070476E2900F0CC
:100350006582702900F0AF8366290DF066856529F6
:100360000DF0638567290DF0608561290DF05F85CB
:1003700003681B0A28BF41F08001692900F012823E
:10038000642900F00F82752900F00C826F2900F0BB
:100390003C83782900F07B83E92900F0D782E429A7
:1003A00000F0D482F52900F0D182EF2900F03983E2
:1003B000F82900F07A830368DB0928BF41F0800147
:1003C000632901F08180732901F08680E32901F01F
:1003D0009180F32901F09680002070471FB50DF041
:1003E0001FFD01F0E5F80400002000210DF002FDE2
:1003F000401C6060002000210DF0E6FCE0601FBDA5
:1004000010B510BD01F0A6F81146FFF7E7FF0DF09B
:10041000D3F801F083F903B4FFF7F2FF03BC01F056
:10042000BBF900000948804709480047FEE7FEE79E
:10043000FEE7FEE7FEE7FEE7FEE7FEE7FEE7FEE794
:1004400004480549054A064B7047000015A10008FD
:100450009902000840240024402E00244028002453
:100460004028002453EA020C00F069802DE9F04B8B
:100470004FF00006002B1FBFB3FA83F503FA05F413
:1004800024FA05F65E4012BF1643B2FA82F502FA6C
:1004900005F4C5F120051EBF22FA05FC44EA0C0450
:1004A000203556EA044C4FEA144418BF641C4FF040
:1004B00000084FF00009904271EB030C39D300297A
:1004C00019BFB1FA81F701FA07F6B0FA80F700FA1E
:1004D00007F6C7F120071EBF20FA07FC46EA0C0604
:1004E0002037B6FBF4FCA7EB0507103F07F01F0B06
:1004F000CBF120060CFA0BFB2CFA06F644BFB346F0
:100500000026202FA4BF5E464FF0000B5BEA060CCE
:1005100008BF4FF0010B19EB0B09ABFB027C48EB5A
:100520000608C01B06FB02CC0BFB03CC71EB0C01D5
:10053000C1E70B46024641464846BDE8F08B13B57D
:100540004FF000004FF00001AFF30080BDE81C4009
:10055000704700007CB51D4616460C00009001D087
:100560002044401E074B7B442A4669460190304692
:1005700000F06DF905461CB10020694600F07AF9DB
:1005800028467CBD15030000032A40F2308010F09D
:10059000030C00F0158011F8013BBCF1020F62441E
:1005A00098BF11F801CB00F8013B38BF11F8013BAF
:1005B000A2F1040298BF00F801CB38BF00F8013B5C
:1005C00011F0030300F02580083AC0F0088051F8CC
:1005D000043B083A51F804CBA0E80810F5E7121DD7
:1005E0005CBF51F8043B40F8043BAFF30080D207F6
:1005F00024BF11F8013B11F801CB48BF11F8012BC2
:1006000024BF00F8013B00F801CB48BF00F8012BE4
:10061000704710B5203AC0F00B80B1E81850203A6E
:10062000A0E81850B1E81850A0E81850BFF4F5AF92
:100630005FEA027C24BFB1E81850A0E8185044BF1C
:1006400018C918C0BDE810405FEA827C24BF51F889
:10065000043B40F8043B08BF7047D20728BF31F87D
:10066000023B48BF11F8012B28BF20F8023B48BFCE
:1006700000F8012B70474FF0000200B51346944676
:100680009646203922BFA0E80C50A0E80C50B1F1EA
:100690002001BFF4F7AF090728BFA0E80C5048BFFE
:1006A0000CC05DF804EB890028BF40F8042B08BF9C
:1006B000704748BF20F8022B11F0804F18BF00F898
:1006C000012B704770477047704710B500F0C2FAB1
:1006D000006810BD10B5044600F0BCFA046010BDFF
:1006E00070B5044685690068C10601D5302600E072
:1006F0002026C00707D070BDD4E9012130469047BD
:10070000206A401C20626D1EF6D570BD70B504468F
:1007100085690078C00707D170BDD4E90121202088
:100720009047206A401C20626D1EF6D570BD096896
:100730004A0501D540B27047C905FCD500B27047E3
:1007400009684A0501D5C0B27047C905FCD580B219
:10075000704770B50C460546012A05D028788006FA
:1007600000D5EA69002302E0012305E05B1C934207
:1007700002D2E05C0028F9D1A869E618C01AA86185
:10078000286A184428622846FFF7AAFF04E0D5E942
:10079000012114F8010B9047B442F8D32846FFF723
:1007A000B5FF70BD2DE9F04106460024106875299B
:1007B000314616A510D0FFF7BAFF002802DA4042F2
:1007C00013A507E031688A0701D512A502E04907A1
:1007D00004D511A5012401E0FFF7B2FF00210A2290
:1007E00006F1240709E0B0FBF2FCB0FBF2F302FBD8
:1007F0001C00303078541846491C0028F3D1234699
:100800002A463046BDE8F04100F06DBA0000000015
:100810002D0000002B00000020000000116802687D
:10082000006A530501D508700AE0D30501D5088098
:1008300006E0130603D5C217C1E9000200E0086014
:100840000120704701694A1C02610878704700B5B1
:100850008FB0CDE901310021059105497944CDE9F9
:1008600003101146684600F031F90FB000BD0000DA
:10087000E5FFFFFF0A6802F8010B0A607047D1E943
:1008800000239A4202D2531C0B6010707047000084
:100890002DE9FF5F15468A460446DFF8AC80F84430
:1008A0000027D8E900103E46CDE9001010E03AF8E4
:1008B00016106A4602A800F029FE411C07D02178D4
:1008C000890603D5E269391891420DD80744761C90
:1008D0002078800602D5E069B84205DDAE42E6DB4D
:1008E0003AF816000028E2D1A069C01BA06120469A
:1008F000FFF7F6FED8E90010CDE90010002017E060
:100900003AF818106A4602A800F000FEB0F1FF3F66
:1009100081460BD000250DF1080B05E0D4E901213B
:100920001BF8050090476D1C4D45F7D308F10100F9
:10093000B0428046E4DB206A384420622046FFF75C
:10094000E5FEBDE8FF9F00007ED600002DE9F041E6
:100950008046D21D22F007020025D2E90002F529C7
:1009600015A614D0011E72F1000106DA0023D0EBA7
:10097000030063EB020211A608E0D8F800108B0711
:1009800001D50FA602E0490701D50EA601251146A3
:10099000002408F1240704E000F060F930323A55F1
:1009A000641C50EA0102F7D12B46324621464046EC
:1009B000BDE8F04100F097B9000000002D000000F4
:1009C0002B0000002000000030B4002100F12404BE
:1009D00008E002F00705D208303542EA4372DB082E
:1009E0006554491C52EA0305F3D10468002310A2A0
:1009F000250707D5A40600D421B1C46901230DA29F
:100A0000641EC46130BC00F06EB910B504462146C6
:100A10001068FFF795FE02462046BDE8104000230F
:100A2000D2E7D21D22F00701D1E90023CCE7000074
:100A30000000000030000000F0B40D4601880905F8
:100A400002D5214C7C4402E01F4C7C440E34002132
:100A500000F1240608E002F00F071209E75D42EA00
:100A600003721B097754491C52EA0307F3D1027839
:100A70000023120704D5702D06D009B102231134CA
:100A80002246F0BC00F02FB901231034F8E770B50E
:100A900004460D4621461068FFF752FE02462946DD
:100AA0002046BDE870400023C6E7D21D22F00703B0
:100AB000D3E90023C0E70368126843F02003036012
:100AC0000823C3610023B7E7E0D400002DE9F05FFD
:100AD000894604464FF0000ADFF874B1FB44C0F8C1
:100AE00020A02046E1688847002874D0252806D039
:100AF000D4E901219047206A401C2062F1E70026DA
:100B00005F462046E16888472028054607DB312DEF
:100B100005D2781910F8200C08B10643F1E7B007A8
:100B200001D526F00406C4F81CA00027C4F818A0BC
:100B30002A2D09D028460BF03FF838B304EB87087C
:100B4000303DC8F8185019E059F8041B204604EB52
:100B500087029161E1688847012F054618D1E06955
:100B6000002820DA26F020061DE0D8F8180000EB57
:100B7000800005EB40003038C8F818002046E168D6
:100B8000884705460BF018F80028EED1012F0AD04F
:100B90002E2D08D12046E16888477F1C0546022F8C
:100BA00046F02006C4DBA069002803DA404246F084
:100BB0000106A061F00701D026F010066C2D0BD0C5
:100BC000682D09D04C2D39D06A2D35D0742D35D0F3
:100BD0007A2D33D016E038E0E1682F46204688476A
:100BE000B842054609D16C2F26D04FF48060E168E9
:100BF000064320468847054604E06C2F1AD04FF480
:100C0000807006430DB3A5F14100192802D82035A4
:100C100046F400664A462946204626604E46FFF7BF
:100C200095FB80B101280BD0F61D26F0070000F1DE
:100C3000080956E74020E4E78020D8E70020D6E7FF
:100C400006F104094DE7284652E7206ABDE8F09F07
:100C500070D4000000487047DC23002430B5B0F1A8
:100C60000A024FEA900E71F100034EEA817EB0EB6A
:100C70000E0061EB91014FEA101E4EEA017E10EB6F
:100C80000E0041EB11114FEA102E4EEA016E10EBEF
:100C90000E0041EB11214FEA104E4EEA014E10EBCF
:100CA0000E0041EB1141401841F100014FEAD00024
:100CB00040EA41704FEAD10110EB80054FEA810410
:100CC00044EA907444EB01046D1944EB0404521B94
:100CD000A3414FF0000348BF0A3200D530BD401C8D
:100CE00041F1000130BD2DE9F0470D46994692468D
:100CF000044600F124080168880604D5E06921F063
:100D00001001216000E00120A84201DD471B00E046
:100D10000027A1697A1902EB0900081AA06120785E
:100D2000C00602D42046FFF7DBFC002608E0D4E929
:100D300001211AF806009047206A401C761C2062A8
:100D40004E45F4DB2078C0060AD52046FFF7C8FCE4
:100D500006E0D4E9012130209047206A401C20623F
:100D6000381EA7F10107F4DC07E0D4E9012118F8E7
:100D700005009047206A401C2062281EA5F101054D
:100D8000F3DC2046FFF7C2FC2078000602D50220E3
:100D9000BDE8F0870120FBE770472DE9FF4F0C46C7
:100DA0001E464FF0FF378BB0D2E90001DDF86080BE
:100DB0000A908A46C1F30A5505B93D460021084606
:100DC0004FF00000BAF1000F00F4400005DA00EB2C
:100DD00080004FF4400101EA50004FEA9059B9F108
:100DE000010F00DDB9460A9850EA4A000ED044F6D9
:100DF0001050A5F2FF3545432F14B8F1000F1ED057
:100E00007542291E1EDDC9F100021CE0B8F1010F78
:100E10004FF0000001D0302103E0F24305E02154FF
:100E2000401CB042FBDB30460022002121540B99CC
:100E3000C1F80880C1E900200FB0BDE8F08FBD1BEC
:100E40006D1CDEE74A4600DA694206A800F0F4FBB2
:100E500006AB93E8070003AB83E8070050460A9906
:100E600000F0A1FC8DE80700A0F500501F380090AD
:100E70000398002D0ADD42F21F014A460844002370
:100E800003A90390684600F00AFF09E0A0F50050AE
:100E90004A461F38002303A90390684600F014FF58
:100EA0008DE807000004000C03D04FF0FF3041082C
:100EB00000E01046B8F1000F03D000220092154662
:100EC0001EE0751E05D4FFF7C9FE303262556D1E57
:100ED000F9D5B3460122084302D000227F1C04E06A
:100EE0002078302801D100227F1E002A099784D063
:100EF0001DE0112D07DAFFF7B1FE303262556D1C8F
:100F000050EA0102F5D1084302D00098C8B10EE0C2
:100F10000021681E05E0235C625C63542254401E7D
:100F2000491C8142F7DBAB46A81B401E09900020FC
:100F300004F80B000B98099AC0F80880C0E9002B50
:100F40007AE711264FF0000857E72DE9F04F884661
:100F50000446D21D22F0070191B0D1E90001CDE98C
:100F60000A010AF0D3FA02460B98C00F01D02D20D7
:100F700007E02068810701D52B2002E0202101EA4B
:100F8000C000032A099001D0072A05DB0346414629
:100F9000204600F011FB0BE12078800601D5E069C6
:100FA00000E00620B8F1650F814606D0B8F1660F63
:100FB00018D0B8F1670F70D131E00020B9F1110FEE
:100FC000009001DB112301E009F101030AAA01A944
:100FD0000CA8FFF7E2FEDDE90C70002609F101051F
:100FE000834647E001204B4600904FF000470AAA95
:100FF00001A90CA8FFF7D1FEDDE90DB00C995D4603
:10100000002610B909F101000D18B9EB050003D451
:10101000C0F1FF3609F10105A5EB09002BE0B9F19C
:10102000010F01DA4FF001090020B9F1110F009012
:10103000484601DD112300E003460AAA01A90CA8D5
:10104000FFF7ABFEDDE90C704D46002683462078A5
:1010500000070AD4AB4500DA5D4601A8012D04DD86
:10106000411911F8011C302907D04F4502DA17F158
:10107000040F04DA012082460FE06D1EEEE7002F18
:1010800002DCED1B3E4403E0781CA84200DD7D1C21
:10109000B81B00F1010A4FF000472078000703D485
:1010A000AA4501DB4FF0FF3A0021B7F1004F0DF1E7
:1010B00043088DF8431024D002202B23002F01DA9F
:1010C0007F422D230A21021EA0F1010000DC5FB146
:1010D00097FBF1FC97FBF1F201FB1C7C17460CF12E
:1010E000300C08F801CDEEE7A8F10100037021886B
:1010F000090501D5452100E06521A0F1010800F8AE
:10110000011C09980FA9A1EB0807FF1D00B10120E0
:10111000411901EBEA70A1693844081A401EA06128
:101120002078C00602D42046FFF7DAFA099828B1E1
:10113000D4E901219047206A401C20622078C00633
:1011400022D52046FFF7CCFA1EE0002E04DBB34583
:1011500002DD01A8805D00E03020D4E90121904744
:10116000206A401C2062761CAAF101005FEA000A96
:101170000AD100F01DFAC0680168405CD4E9012181
:101180009047206A401C2062281EA5F10105DCDC86
:1011900007E0D4E9012118F8010B9047206A401CB0
:1011A0002062381EA7F10107F3DC2046FFF7AEFAF4
:1011B000032011B041E600002DE9F04F04460D4632
:1011C000D21D22F0070089B0D0E900974846394681
:1011D0000AF09CF90246F80F01D02D2307E02068A1
:1011E000810701D52B2302E0202101EAC0038DF8FD
:1011F00020300BB1012000E00020032A824601D0FC
:10120000072A04DB2946204600F0D6F93FE1207882
:10121000800601D40D2500E0E569C7F30A560D2DBF
:1012200049DA00214FEA175B08464FF00000002F13
:1012300000F4400007DA00EB80004FF4400100EBBF
:10124000D07001EA60008115012901DD4FF0FF3106
:1012500000224FEA850CBCF1180F06D31346ACF1FF
:1012600018004FF08052C24003E04FF4801323FA7D
:101270000CF30CF10C0CBCF1200F04D3ACF1200CDE
:1012800009FA0CF001E007FA0CF000294FF00048D1
:1012900001DD18B90FE00ED140450CD319EB02095E
:1012A0005F4121B9404502D19F4329EA0209BBEBC6
:1012B000175F00D0761C2088000502D57B48784453
:1012C00002E07A487844193808AA302302F80A3034
:1012D000037C0AF10101002E0AF1020A53546A4606
:1012E00002DC4FF0300101E04FF031014FF0010816
:1012F0008DF8001002D0A6F2FF3603E059EA47014C
:1013000000D06B4E002D02DC2178090704D54FF088
:1013100002082E218DF80110C44600210BE0C7F30E
:1013200003433F01C35C491C6D1E02F808300529C8
:1013300008F1010801DA002DF1DC00210CE000EBDE
:101340001973491C1B786D1E082902F808304FEAF2
:10135000091908F1010801DA002DF0DC21688B067B
:1013600002D516E0A8F10108E04505DD02EB08030F
:1013700013F8013C302BF5D0B8F1000F09DD02EB7A
:10138000080313F8013C2E2B03D1090701D4A8F15F
:101390000108002D05DD3E2102F808106D1E08F140
:1013A0000108407C002E02F8080008F1010804DA68
:1013B0002D20764202F8080002E02B2002F80800F7
:1013C0000A214FF47A70864208F101080BDB96FB84
:1013D000F0F3303302F8083096FBF0F308F101081F
:1013E00000FB136601E0642E0CDB642096FBF0F337
:1013F000303302F8083096FBF0F308F1010800FBE7
:10140000136601E00A2E06DB96FBF1F0303002F89D
:10141000080008F1010896FBF1F001FB1060303084
:1014200002F80800A16908F1010808EB050202EBC7
:101430000A00081AA0612078C00602D42046FFF7EF
:101440004FF9216A08AE01EB0A00206204E0D4E9FA
:10145000012116F8010B9047BAF1010AF7D2207862
:10146000C00602D52046FFF73BF96E4609E016F8A4
:10147000010B3E280FD0D4E901219047206A401C7F
:101480002062B8F10108F2D22046FFF73FF909B017
:101490000320BDE8F08F206A2844206203E0D4E9ED
:1014A0000121302090476D1EEBD3F8E759CD0000A5
:1014B00002FCFFFF10B5436913B1AFF3008001E0F8
:1014C000FFF747F9012010BD127800F124010A70DE
:1014D00000224A700122EDE711684FF0FF32E9E780
:1014E00010B5436913B1AFF3008001E0FFF7D0F905
:1014F000012010BD128800F1240182840022C284E0
:101500000122EDE711684FF0FF32E9E770B51646AA
:101510000C46054600F044F8036893F801010128E1
:1015200006D0FF2C0FD8185D68B101202C7070BD5B
:10153000D3F807013246214603F207130344284635
:10154000BDE8704018474FF0FF3070BD004870474D
:10155000DC2300247546FFF7F9FFAE460500694617
:10156000534620F00700854618B020B5FEF768FF07
:10157000BDE820404FF000064FF000074FF0000894
:101580004FF0000B21F00701AC46ACE8C009ACE815
:10159000C009ACE8C009ACE8C0098D46704700003E
:1015A00010B500F005F8001D10BD00BF49C80000CF
:1015B00000487047FC2300242DE9F0411F460446F3
:1015C00003260168072A01F4006004DB08B116A5B0
:1015D00005E016A503E008B115A500E015A521F06A
:1015E00010002060A069C01EA0610FB1401EA06164
:1015F0002046FFF775F84FB1D4E9012138469047EE
:10160000206A401C2062C01C206206E0206AFAE7C3
:10161000D4E9012115F8010B9047761EF8D2204637
:10162000FFF774F8BDE8F0814E414E006E616E0028
:10163000494E4600696E66002DE9F0478146164620
:101640008AB0354878440DC88DE80D00324878449A
:10165000801C03AC0DC884E80D0041F69B300844A3
:10166000372190FBF1F290FBF1F5A5F1800501FB2C
:1016700012041B3C02D56442012000E00020DFF888
:1016800098A080460027FA44AAF1BE0A0EE0E007BF
:101690000AD03246684607EB470101230AEB810175
:1016A00000F012FB8DE8070064107F1C002CEED1C7
:1016B000194F7F44AE3F19E0E80715D007EB04103F
:1016C0000DF1180A90E80E008AE80E00C068F0429A
:1016D00001D1981908903246012306A903A800F009
:1016E000F3FA03AB83E807006D10641C002DE3D10F
:1016F0004FF0010332466946B8F1000F03A802D04B
:1017000000F0CDFA01E000F0DFFAC9E90001C9F804
:1017100008200AB0BDE8F08764CA000010B504468E
:10172000AFF300802046BDE81040FEF774BE000015
:101730004FF0013C50F8042B51F8043B9A4215D16C
:10174000A2EB0C03934313EACC130BD150F8042BF8
:1017500051F8043B9A4209D1A2EB0C03934313EADC
:10176000CC13E7D04FF00000704700BFD01A01BA89
:10177000B1FA81F101F0180122FA01F0CB40C1F178
:101780002001DBB2C0B2C01A2CFA01F3D11A914386
:1017900011EAC311E6D1704701491820ABBEFEE73C
:1017A0002600020070475FEA400C08BF91F0000F6E
:1017B0004FEA8C234FEAC12243EA51514FEA1C50B1
:1017C00018BF00F5F0404FEA300018BF41F000416B
:1017D0005FEA6C5C00F02980BCF1FF3F08BF40F07D
:1017E00080407047130C06BF12044FF0100C4FF0EE
:1017F000000C130E04BF12020CF1080C130F04BFEF
:1018000012010CF1040C930F04BF92000CF1020CB6
:10181000D30F04BF52000CF1010C11464FF000022F
:10182000A0F11F00A0EB0C00704711F0004F08BFA3
:10183000704731F000413FF4D5AF0B0C06BF0904EF
:101840004FF0100C4FF0000C0B0E04BF09020CF10E
:10185000080C0B0F04BF09010CF1040C8B0F04BF23
:1018600089000CF1020CCB0F04BF49000CF1010CF4
:10187000CCF12003A0EB0C0022FA03F302FA0CF2E5
:1018800041EA030100F10100704720F07F4C80EA3B
:10189000030023F07F47ACEB070303F57C5300F014
:1018A000004003F1FF032DE980494FEA154B09B4CD
:1018B0004FEA144325EA0B4E24EA03480FF20426AC
:1018C00006EB132749083E785FEA320203FB0667FE
:1018D000C7F5000707FB06F64FEA54374FEAD6462E
:1018E00006F1020607FB066CCCF1005C4FEA1C47D0
:1018F0002CEA074C07FB06F40CFB06F504EB154637
:101900004FEA961634BF00204FF000404FEAD1371F
:1019100006FB07FC4FEA1C4C0CFB0BF7D21B03FB2E
:101920000CF761EB07010CFB0EF7B0EB074072EB15
:1019300017420CFB08F734BFA2EB0742B2EB074299
:1019400061EB17414FEA0C444FEA910706FB07FC95
:101950004FEA1C4C0CFB0BF7B0EBC74072EB573255
:1019600003FB0CF734BFA2EBC742B2EBC74261EBFB
:1019700057310CFB0EF7B0EBC70072EB57720CFB44
:1019800008F734BFA2EBC702B2EBC70261EB577195
:10199000039F4FEA816141EA921104EBCC044FEAC4
:1019A000D1374FEA826206FB07FC42EA90124FEA07
:1019B00080604FEA1C4C0CFB0BF7D21B03FB0CF7AF
:1019C00061EB07010CFB0EF7B0EB074072EB17421F
:1019D0000CFB08F734BFA2EB0742B2EB074261EB06
:1019E00017414FEA8C554FEA910704EB9C2406FB04
:1019F00007FC4FEA1C4C0CFB0BF7B0EBC74072EB3B
:101A0000573203FB0CF734BFA2EBC742B2EBC7421D
:101A100061EB57310CFB0EF7B0EBC70072EB57725E
:101A20000CFB08F734BFA2EBC702B2EBC70261EBB5
:101A3000577115EB4C254FEA816141EA92114FEA4B
:101A400082624FEAD13742EA901206FB07FC44F16A
:101A500000044FEA80604FEA1C4C0CFB0BF7D21BD2
:101A600003FB0CF761EB07010CFB0EF7B0EB074033
:101A700072EB17420CFB08F734BFA2EB0742B2EB44
:101A8000074261EB174115EB1C154FEA813141EA22
:101A900092414FEA823242EA90424FEA80304FEA66
:101AA0000C7644F1000448EA03434EEA0B484FF039
:101AB000000EB2EB080C71EB030724BF62463946F7
:101AC0004EEB0E0E4FF0000B0018524149414BEB0C
:101AD0000B0BB2EB080C71EB03077BF1000B24BF7F
:101AE000624639464EEB0E0E4FF0000B0018524185
:101AF00049414BEB0B0BB2EB080C71EB03077BF18D
:101B0000000B24BF624639464EEB0E0E51EA020727
:101B100018BF46F0010616EB0E7655F1000254F19F
:101B2000000103D5BDE88901BDE80088BDE8890151
:101B3000BDE80048B619524141EB0101A3F1010390
:101B4000704780807F7E7D7C7B7A7978777676752A
:101B50007473727171706F6E6E6D6C6C6B6A6A69A2
:101B60006868676666656464636362616160605F3C
:101B70005F5E5E5D5D5C5C5B5B5A5A5959585857B5
:101B8000575656555555545453535252525151501D
:101B900050504F4F4F4E4E4D4D4D4C4C4C4B4B4B70
:101BA0004A4A4A49494948484847474747464646B6
:101BB00045454544444444434343434242424241F1
:101BC0004141002B9C4630D477002BD01CB54FEA06
:101BD000370703B44FF010004FF01001BAF1000FB7
:101BE00006D0BCF1000FDCBF40F0080040F0080157
:101BF0004FF000000FBCBDE810400BF1010BBBF132
:101C0000010F08BF5FEA170722BF12F1010211F1AD
:101C100001014FF0004143F1000300F0004043EAAE
:101C200000007047F9D35708D0E746EA064613F19B
:101C3000400F4FEA16461FDD13F1200FDFBF16439A
:101C40000A46002120335B42BED0C3F1200746EA9A
:101C5000064602FA07F74FEA164646EA0706C3F1B8
:101C6000200722FA03F201FA07F721FA03F14FF0F5
:101C7000000342EA0702A7E746EA020646EA0646EA
:101C80004FEA164646EA0106BCBF46EA0646360C4F
:101C90004FF000034FF000024FF0000194E72DE9F0
:101CA000804C9A46934670B491E8380007C831EAF0
:101CB000400C48BF34EA430C03D5FFF7E6FDFFF7BD
:101CC00080FFF0BCBDE8008C2DE9804C9A4693461D
:101CD00070B491E8380007C810F0804F08BF13F0C7
:101CE000804F03D100F005F8FFF76BFFF0BCBDE8B3
:101CF000008C20F07F4780EA030023F07F4C07EB45
:101D00000C03A3F57C5300F00040A3F1FE0392F016
:101D1000000F00F0B38095F0000F00F077802DE900
:101D200001494FEA11404FEA144621EA004800FBFE
:101D300006FC24EA064708FB06F607FB08F800FB4A
:101D400007F718EB06484CEB164C4FEA124B18EB12
:101D500007484FEA15464CEB174022EA0B4E0BFBA7
:101D600006FC25EA06470EFB06F607FB0EFE0BFBFC
:101D700007F71EEB064E4CEB164C4FF000061EEB21
:101D8000074E4CEB174B18EB0B0840F1000018EB1B
:101D90000E0B58EB000840F100008F1A4FF00001C5
:101DA0003CBFC943661B14BFB5EB040C00213CBF0C
:101DB000C943F61B4FEA17444EEA8E0E27EA044544
:101DC0004FEA1C4704FB07622CEA074C05FB07F7A8
:101DD0000CFB05F604FB0CFC16EB074642EB174226
:101DE00016EB0C4642EB1C421BEB060658EB0202BC
:101DF000414146EA9E0601D5BDE80189B619524126
:101E000041EB0101A3F10103BDE801894FEA14454B
:101E10004FEA114724EA054621EA074C05FB07F47F
:101E200006FB07F70CFB06F105FB0CFC11EB074169
:101E300044EB17444FEA124711EB0C4144EB1C44AE
:101E400022EA074C05FB07F206FB07F70CFB06F638
:101E500005FB0CFC16EB074642EB174216EB0C4653
:101E600042EB1C456A1854F1000148BF7047B6198F
:101E7000524141EB0101A3F10103704795F0000FBE
:101E800037D04FEA11424FEA144721EA024624EACA
:101E9000074C02FB07F106FB07F70CFB06F402FBFD
:101EA0000CFC14EB074441EB17414FEA154714EBC8
:101EB0000C4441EB1C4125EA074C02FB07F506FBED
:101EC00007F70CFB06F602FB0CFC16EB074645EB8E
:101ED000174516EB0C4645EB1C42121951F1000157
:101EE00048BF7047B619524141EB0101A3F101030C
:101EF00070474FEA14454FEA114724EA054621EAA4
:101F0000074C05FB07F106FB07F70CFB06F24FF049
:101F1000000605FB0CFC12EB074241EB174112EBEC
:101F20000C4251EB1C4148BF7047921841EB010134
:101F3000A3F101037047000010B50F99039A0B68D5
:101F40009A4202D04B689A4215D1BDF838208A8156
:101F50009DF837300D9ADFED080A63F31F6200EE3B
:101F6000102A3022B8EEC00A20EE200A81ED020AC3
:101F700003A9FEF74EFB10BD050962392DE9F041BA
:101F8000984614460E460746069D0BF099FA2346DE
:101F90004246314638460BF081FC214640460BF064
:101FA00081FB214640460BF02BFC2B462246314656
:101FB000384609F02DFF20460BF0CAFA2B46224680
:101FC0003146384600F000F9224631463846BDE831
:101FD000F0410BF027BBFEE730B59BB00546302241
:101FE00001466846FEF715FB134C94E80F0007F016
:101FF000E5F93022294601A8FEF70BFBE0680090C6
:102000000DA894E80E0007F09BF90C4830222946F1
:102010000D9001A8FEF7FDFAE06800900EA894E884
:102020000E00FFF789FF064830220EA9FEF7F1FAED
:102030001BB0002030BD0000600700241C010024FC
:10204000B00C002430B59BB00546302201466846EE
:10205000FEF7DFFA134C94E80F0007F0AFF93022D7
:10206000294601A8FEF7D5FAE06800900DA894E88B
:102070000E0007F065F90C48302229460D9001A8A2
:10208000FEF7C7FA0948C168009190E80E000EA853
:10209000FFF752FF064830220EA9FEF7BAFA1BB02E
:1020A000002030BD700700242C01002460070024AC
:1020B000E00C002410B588B0044601AB00200221DA
:1020C0000090012283E8070004906946059020688B
:1020D00002F02DFB20680022012102F09DFA206809
:1020E00002F0EFFF08B010BD10B58AB00C680023F5
:1020F00008220493CDE90043CDE902320A1D05937D
:102100000693694607930893006802F0D5FA10B168
:1021100000200AB010BD0120FBE70000074B026859
:102120009A4202D1064AD1601060064B02689A4278
:1021300003D1034A1032D1601060704700A0004004
:102140006007002400A40040F0B592F8204000236E
:10215000012674B1012C0BD1508CC8282BD0A0F5CE
:10216000D851583902D1137682F82030401C50845F
:10217000F0BD134C134D94F83770012F03D095F830
:102180003170012FF4D194F83670012F03D095F8F7
:102190003070012FECD194F83F40012C03D095F81A
:1021A0003940012CE4D182F82060538480F8C03299
:1021B00081F8C032F0BD167040F2DD515160D5E7B4
:1021C0000C0C0024C80800242DE9F0410E46117EB5
:1021D0001D46144607464FF00008012011B301299F
:1021E00037D1E16940F6B832914202D8207284F8C2
:1021F0003000A1F6B93140F6B730814209D83846EF
:102200000BF076FD30460BF073FD84F8088084F8FF
:10221000308042F21071E069884255D394F8200072
:10222000C8B151E03A493B4A91F83730012B03D00D
:1022300092F83130012B0CD191F83F10012903D0D5
:1022400092F83910012904D12076C4F81C80A4F832
:102250002280BDE8F08195F85900012807D195F852
:102260003F00012803D195F85A00012807D0A7F8AC
:10227000C28200BF95F85B0001281BD022E0B7F8AE
:10228000C202401C80B2A7F8C202C828F2D197F857
:10229000C002C00703D12946384600F08DF897F8F0
:1022A000C002401C87F8C002C107E3D138460BF0DA
:1022B0001FFDDFE795F85800012803D195F85C0071
:1022C00001280AD0A6F8C282224631463846FFF7D6
:1022D0003BFFE069401CE061BBE7B6F8C202401C6E
:1022E00080B2A6F8C202C828EED196F8C002C00794
:1022F00003D12946304600F00FF896F8C002401C82
:1023000086F8C002C107DFD130460BF0F1FCDBE7F5
:102310000C0C0024C80800240A6C204BC0F8B42020
:1023200040F8B02F0A6C5A604A6C1D4B426502653A
:102330004A6C5A608A6C1B4BC0F8A420C0F8A020DD
:102340008A6C5A60CA6C184BC0F8F420C0F8F020B0
:10235000CA6C5A600A6D154BC0F84421C0F8402180
:102360000A6D5A604A6D124BC0F89421C0F8902152
:102370004A6D5A6091F9582000EE102AB8EEC00A52
:1023800080ED790A80ED780A91F9580000EE100A84
:102390000848B8EEC00A80ED010A70470C08002416
:1023A0001C0800242C0800243C0800244C080024AD
:1023B0005C0800246C080024D1F82720254BC0F8C5
:1023C000B42040F8B02FD1F827205A60D1F82B2044
:1023D000214B42650265D1F82B205A60D1F82F209D
:1023E0001E4BC0F8A420C0F8A020D1F82F205A60BE
:1023F000D1F833201A4BC0F8F420C0F8F020D1F8FF
:1024000033205A60D1F83720164BC0F84421C0F869
:102410004021D1F837205A60D1F83B20124BC0F848
:102420009421C0F89021D1F83B205A6091F93F20C7
:1024300000EE102AB8EEC00A80ED790A80ED780A25
:1024400091F93F0000EE100A0848B8EEC00A80ED8E
:10245000010A70479C070024AC070024BC07002435
:10246000CC070024DC070024EC070024FC07002430
:10247000014801F0A7B90000D41F0024014801F071
:10248000A1B90000B4210024014801F09BB900006B
:102490002C220024014801F095B900003C210024C1
:1024A000014801F08FB90000C4200024014801F068
:1024B00089B90000E41E0024014801F083B900003E
:1024C0004C200024014801F07DB90000A422002422
:1024D000014801F077B90000141C0024014801F004
:1024E00071B900008C1C0024014801F06BB9000098
:1024F0006C1E0024014801F065B90000041D002491
:10250000014801F05FB900007C1D0024014801F082
:1025100059B900005C1F0024014801F053B90000C4
:10252000F41D0024014801F04DB900001C230024D3
:10253000264A016891422CD0254A914229D0254A49
:10254000914226D0244A914223D0244A914220D05D
:10255000234A91421DD0234A91421AD0224A9142E5
:1025600017D0224A914214D0214A914211D0214AD7
:1025700091420ED0204A91420BD0204A914208D07D
:102580001F4A914205D01F4A914202D01E4A9142F1
:1025900017D11E4BCAB2103AA3FB02321209DFF860
:1025A00070C002F007031CF80330C365032A04D986
:1025B0006FF30901091D816506E06FF3090181656B
:1025C00002E021F0FF018165806D7047100002403C
:1025D00028000240400002405800024070000240C3
:1025E00088000240A0000240B800024010040240EF
:1025F0002804024040040240580402407004024093
:1026000088040240A0040240B8040240ABAAAAAA6F
:1026100090DE000801680123DFF894C0CAB261456A
:102620001BD0DFF890C0614517D0DFF88CC0614542
:1026300013D0DFF888C061450FD0DFF884C0614552
:102640000BD0DFF880C0614507D0DFF87CC0614562
:1026500003D0DFF878C0614511D1A2F108011C4A0E
:10266000A2FB012109091B4A02EB810202661A4AF8
:10267000426601F01F0103FA01F181667047DFF83D
:102680005CC0103AACFB02C21209DFF854C06144CE
:10269000A82900D80832134901EB820101661249CA
:1026A000416602F01F0103FA01F1816670470000E4
:1026B000085402581C5402583054025844540258CA
:1026C000585402586C54025880540258945402587A
:1026D000CDCCCCCC0058025880580258ABAAAAAA3C
:1026E000F0FBFDBF000802408008024001794A1E4D
:1026F000072A28D8144B0168994214D0134B9942E9
:1027000011D0134B99420ED0124B99420BD0124B61
:10271000994208D0114B994205D0114B994202D0F1
:10272000104B994206D1104901EB8201C1660F4955
:10273000016705E00E4901EB8201C1660D490167A1
:102740000121914041677047085402581C540258B7
:102750003054025844540258585402586C54025889
:102760008054025894540258005902584059025853
:102770000009024040090240014600208B698A6A34
:10278000002B0FD0B3F5005F1DD08AB3012A30D0E3
:10279000022A2ED0032A04D1C96A11F0807F00D00A
:1027A000012070471AB1012A07D0022AF9D1C96A5B
:1027B00011F0807FF5D001207047C96AB1F1C07F68
:1027C000FAD1012070475AB1012A0BD0022A07D052
:1027D000032AF7D1C96AB1F1C07FF3D10120704754
:1027E00001207047C96A11F0807FFAD0012070473C
:1027F000FFE70120704700002DE9F04F846D794E0E
:10280000D0F800C0784FDFF8E481B445DFF8E091FC
:10281000DFF8E0A1DFF8E0B1784D4FD0BC454DD0F6
:10282000C4454BD0CC4549D0D44547D0DC4545D0F4
:10283000DFF8CCE1F44541D0AC453FD0DFF8C4E14E
:10284000F4453BD0DFF8C0E1F44537D0DFF8BCE118
:10285000F44533D0DFF8B8E1F4452FD0DFF8B4E128
:10286000F4452BD0DFF8B0E1F44527D0DFF8ACE138
:10287000F44523D0DFF8A8E1F4451FD0DFF8A4E148
:10288000F4451BD0DFF8A0E1F44517D0DFF89CE158
:10289000F44513D0DFF898E1F4450FD0DFF894E168
:1028A000F4450BD0DFF890E1F44507D0DFF88CE178
:1028B000F44503D0DFF888E1F44510D1D0F864E0A6
:1028C000D0F868C0CEF804C0D0F86CC0BCF1000FDE
:1028D00005D0D0F870E0D0F874C0CEF804C0D0F8BD
:1028E00000C0B44526D0BC4524D0C44522D0CC4538
:1028F00020D0D4451ED0DC451CD0414EB44519D063
:10290000AC4517D03F4DAC4514D03F4DAC4511D030
:102910003E4DAC450ED03E4DAC450BD03D4DAC458B
:1029200008D03D4DAC4505D03C4DAC4502D03C4DAA
:10293000AC4523D190F85CC03F250CF01F0C05FA84
:102940000CFCC4F808C0D0F800C0DCF8004024F447
:102950008024CCF80040D0F800C0CCF80430836864
:10296000402B05D0036899600068C260BDE8F08F15
:1029700003689A600068C160BDE8F08F294DAC45DE
:1029800014D0294DAC4511D0284DAC450ED0284D62
:10299000AC450BD0274DAC4508D0274DAC4505D0F4
:1029A000264DAC4502D0264DAC45E5D190F85CC033
:1029B00001250CF01F0C05FA0CFCC4F804C0D0F87B
:1029C00000C0CCF804308368402B05D003689960C0
:1029D0000068C260BDE8F08F03689A600068C1605B
:1029E000BDE8F08F10000240280002404000024085
:1029F000580002407000024088000240B8000240C7
:102A0000A00002401004024028040240400402409A
:102A1000580402407004024088040240A0040240AE
:102A2000B8040240085402581C540258305402584A
:102A300044540258585402586C5402588054025856
:102A4000945402582DE9F0410624064691FBF4F017
:102A50000D46174604FB105018B9314610460AF0CF
:102A6000E7FF95FBF4F004FB1050012804D106F1B8
:102A7000180138460AF0DCFF95FBF4F004FB105017
:102A8000022804D106F1300138460AF0D1FF95FB47
:102A9000F4F004FB1050032804D106F14801384635
:102AA0000AF0C6FF95FBF4F004FB1050042804D193
:102AB00006F1600138460AF0BBFF95FBF4F004FB19
:102AC0001050052804D106F1780138460AF0B0FF0D
:102AD0003046BDE8F04100F037B803460A4600B57D
:102AE0000878F2EE090A00F00F0058700878BAEE84
:102AF000090A00099870B1F80100102140BA0AF0E3
:102B0000E9FF83ED010AB2F803000C21F3EE0E0A8F
:102B1000BBEE0E0A40BA00090AF0DCFF83ED020AA0
:102B20001079517900F00F00F2EE040A41EA00201A
:102B30000C21BAEE040A0AF0CDFF83ED030A907966
:102B40001874D079587400BDD0ED010A90ED071AC1
:102B5000D0ED0D1A90ED132AD0ED192A90ED1F3A01
:102B6000C0ED380AC0ED390A80ED4C1A9FED1C0A01
:102B700080ED4D1AC0ED601AC0ED611A80ED742A27
:102B800080ED752AC0ED882A20EE804AC0ED892AA2
:102B900080ED9C3A61EE003A80ED9D3A80ED3B4A33
:102BA00061EE804A80ED3D4AC0ED4F3A22EE005A78
:102BB000C0ED513AC0ED634A62EE805AC0ED654AFD
:102BC00080ED775A23EE000A80ED795AC0ED8B5ADA
:102BD000C0ED8D5A80ED9F0A80EDA10A704700007C
:102BE000302F65424FF48062428082800323C2808E
:102BF000002102818372C37202800922C181018295
:102C00004182A0F8E81080F8321080F8331080F884
:102C1000381080F8351080F8361080F83A1080F8B7
:102C20003B1080F837109FED070A80F8341080F8C9
:102C3000391080ED3C0A80ED3D0A80F8FC2080F8D8
:102C4000FE10704700000000F0B40B88012600223F
:102C50004FF4A565C3F30A04A4F5B673AB4200D8DC
:102C600001224F788B78FF0847EA4317C7F30A071A
:102C7000A7F5B677AF4200D8521C91F803C00F7980
:102C80009B0943EA8C0343EA8723C3F30A03A3F5B2
:102C9000B673AB4200D8521C4B797F0847EAC31782
:102CA000C7F30A07A7F5B677AF4200D8521CB6EBB8
:102CB000931F07D00225B5EB931F03D00325B5EB77
:102CC000931F00D1521CC3F30115012D05D0022D15
:102CD00003D06FEA13139B0700D1521C062A7CD144
:102CE0004480A4F2FD344B78072C8D784FF4806239
:102CF0004FEAD30343EA4513C3F30A0585808B7873
:102D0000CC780E794FEA931343EA840343EA86238F
:102D1000C3F30A04C4800B794E794FEA530343EAA4
:102D2000C613C3F30A0303814E794FEA96168672DF
:102D30004E79C6F30116C6720E8AC6F30A060680DD
:102D400000D24280A5F2FD35072D00D28280A4F288
:102D5000FD34072C00D2C280A3F2FD33072B00D232
:102D6000028146F2A812B1F90630C381B1F90840D8
:102D7000934204824B8943820B7B03754B7B4375E3
:102D800000DDC281B0F90E502E4B9D4200DAC381A6
:102D9000944200DD0282B0F910209A4200DA0382E8
:102DA000CA8902838A7B02F0010282768A7BC2F39F
:102DB000400202778A7BC2F38002C2768A7BC2F32A
:102DC000C0024277CA7BD20980F82720CA7BC2F3AF
:102DD000801280F82220CA7B00E030E0C2F340126B
:102DE00080F82520CA7BC2F3001280F82920CA7B14
:102DF000C2F3C00280F82820CA7BC2F3800280F8A8
:102E00002420CA7BC2F3400280F82320CA7B02F050
:102E1000010280F826208A7BD20980F821208A7B53
:102E2000C2F3801280F820208A7BC2F34012C2775E
:102E3000897BC1F300118177F0BC06F0CDBBF0BCFB
:102E400070470000589EFFFF0A460146054800B53E
:102E5000FFF7FAFE034805F031FC03490020088023
:102E600000BD0000C8080024CC090024704772B6D9
:102E7000FEE70000014801F093BD0000D0140024DB
:102E8000014801F08DBD000070150024416B0268FF
:102E9000D2F884306FF38F0343EA8103C2F88430A1
:102EA0000268D2F88430B0F838C023F47F0343EAD4
:102EB0000C43C2F88430826B11440268D2F8883027
:102EC0006FF38F0343EA8103C2F888300268D2F8B7
:102ED0008830B0F83CC023F4FE0343EA0C43C2F848
:102EE0008830C26B01EB42010268D2F8A0306FF368
:102EF0008F0343EA8103C2F8A0300268D2F8A03001
:102F0000B0F840C023F4FE0343EA0C43C2F8A030FB
:102F1000436C026C02FB03110268D2F8B0306FF30D
:102F20008F0343EA8103C2F8B0300268D2F8B030B0
:102F3000B0F848C023F4FE0343EA0C43C2F8B030B3
:102F4000C36C826C02FB03110268D2F8AC306FF3E1
:102F50008F0343EA8103C2F8AC30436D026D02FB7C
:102F600003110268D2F8F0306FF38F0343EA810354
:102F7000C2F8F0300268D2F8F030B0F858C023F44C
:102F80007C1343EA0C43C2F8F030826D01EB42023D
:102F90000168D1F8C0306FF38F0343EA8202C1F8B1
:102FA000C0200168D1F8C020B0F85C3022F47C1257
:102FB00042EA0342C1F8C0200168D1F8C02090F86D
:102FC000603022F07C5242EA0362C1F8C020416BBB
:102FD000294A02EB8101C166826B01EB8202026722
:102FE000C36B02EBC3024267D0F844C0036C03FB1F
:102FF0000CF302EB83028267D0F84CC0836C03FBB6
:103000000CF302EB8302C267D0F854C0036D03FBDC
:103010000CF302EB8302C0F88020836D02EBC30344
:10302000C0F88430D0F85CC0826E0CFB02FC03EB6D
:103030008C03C0F88830D0F860C00CFB02F203EBC0
:103040008202C0F890200D4B9A420AD9D0F89C1009
:1030500041F02001C0F89C10032180F89810012055
:1030600070478A4206D900220A60091DD0F89030C4
:103070008B42F9D80020704700AC0040FCD30040E0
:1030800070B4D1F808C00C694D6844EA0C0C0C68A7
:10309000002D40D044F080444CEA040C8D69CC698A
:1030A00091F820602C434D6945EA06652C438D89D3
:1030B00044EA0544D0F88450806E00FB03F005EB31
:1030C0008000C0F800C0001D0460031D0020134CE8
:1030D000D1F80CC014F80CC0BCF1000F19D902EBE8
:1030E000000C155C9CF8036045EA06659CF80260DC
:1030F0009CF801C0360446EA0C2C45EA0C0CC3F8D7
:1031000000C01B1D001DD1F80CC014F80CC0844574
:10311000E5D870BC70474CEA844CBFE734DE000849
:10312000F0B41F4CFF211D4B0222254627462A26BC
:103130002170697009211A7003220578BD70254637
:10314000E97021460A7122464E71264681789171B6
:1031500041880A0AF271224600210D461172114679
:103160004D722546017991720C218088020AEA721B
:10317000002019700222A55C521C0C2A284480B23F
:10318000F9DBFF2800D9C0B2C04360544A1C1A7052
:10319000F0BC03490D22034805F084B9C4000024A3
:1031A000D609002408180024024910B508F00CFDC7
:1031B000002010BD100D00242DE9F84F044602F048
:1031C000B1F800905CB194F8350002280AD0802054
:1031D0006065002084F834000120BDE8F88F0120EC
:1031E000BDE8F88FB6492068B64EB74F8842DFF881
:1031F000DC82DFF8DC92DFF8DCA2DFF8DCB226D07C
:10320000B04224D0B84222D0404520D048451ED0FC
:1032100050451CD058451AD0B04A904217D0B04AF9
:10322000904214D0AF4A904211D0AF4A90420ED093
:10323000AE4A90420BD0AE4A904208D0AD4A90427E
:1032400005D0AD4A904202D0AC4A90420AD1026801
:1032500022F01E0202602068426922F08002426170
:10326000256804E0026822F00E02026025682068EA
:1032700088423ED0B0423CD0B8423AD0404538D0E7
:10328000484536D0504534D0584532D0934A9042C4
:103290002FD0934A90422CD0924A904229D0924A01
:1032A000904226D0914A904223D0914A904220D019
:1032B000904A90421DD0904A90421AD08F4A904234
:1032C00017D08F4A904214D08E4A904211D08E4A25
:1032D00090420ED08D4A90420BD08D4A904208D039
:1032E0008C4A904205D08C4A904202D08B4A904240
:1032F00004D1206E026822F4807202607049206856
:10330000884226D0B04224D0B84222D0404520D0B6
:1033100048451ED050451CD058451AD06F498842A8
:1033200017D06F49884214D06E49884211D06E4937
:1033300088420ED06D4988420BD06D49884208D032
:103340006C49884205D06C49884202D06B4988425A
:1033500004D1016821F00101016003E0016821F05E
:1033600001010160286810F0010F14D001F0DAFFAC
:103370000099401A05280AD920206065032084F8A6
:103380003500002084F834000120BDE8F88F28685B
:1033900010F0010FEAD14A4A01212068904226D05C
:1033A000B04224D0B84222D0404520D048451ED05B
:1033B00050451CD058451AD0484B984217D0484B1E
:1033C000984214D0474B984211D0474B98420ED0A8
:1033D000464B98420BD0464B984208D0454B9842FA
:1033E00005D0454B984202D0444B98420AD1A06D7B
:1033F0004FF03F0C94F85C3003F01F030CFA03F31A
:10340000836007E0A06D94F85C3003F01F0301FABD
:1034100003F34360206890423ED0B0423CD0B842B3
:103420003AD0404538D0484536D0504534D058453C
:1034300032D02A4A90422FD0294A90422CD0294A91
:10344000904229D0284A904226D0284A904223D040
:10345000274A904220D0274A90421DD0264A9042C7
:103460001AD0264A904217D0254A904214D0254AB5
:10347000904211D0244A90420ED0244A90420BD060
:10348000234A904208D0234A904205D0224A9042D3
:1034900002D0224A90420BD1626EA06E5060E06E64
:1034A00030B1026822F480720260226F606F506057
:1034B00084F83510002084F83400BDE8F88F00004F
:1034C0001000024028000240400002405800024024
:1034D0007000024088000240A0000240B800024094
:1034E00010040240280402404004024058040240F4
:1034F0007004024088040240A0040240B804024064
:10350000085402581C54025830540258445402586B
:10351000585402586C54025880540258945402581B
:103520002DE9F05F002808D090F83510022907D067
:10353000802141650120BDE8F09F0120BDE8F09F9A
:10354000DFF81CE20168874BDFF81CC27145874C2D
:10355000874D884E884FDFF82482DFF82492DFF809
:1035600024A2DFF824B2894A25D0994223D06145AC
:1035700021D0A1421FD0A9421DD0B1421BD0B942D7
:1035800019D0DFF80CE2714515D0DFF808E271457B
:1035900011D0DFF804E271450DD041450BD049450B
:1035A00009D0DFF8F8E1714505D0514503D0594500
:1035B00001D0914232D14FF0040E80F835E06848D6
:1035C000814221D099421FD061451DD0A1421BD01C
:1035D000A94219D0B14217D0B94215D06C488142E6
:1035E00012D06C4881420FD06B4881420CD04145CB
:1035F0000AD0494508D06948814205D0514503D0D9
:10360000594501D0914204D1086820F001000860BA
:10361000A3E0086820F0010008609EE0D1F800E017
:103620002EF00E0EC1F800E0DFF834E101687145BC
:1036300025D0994223D0614521D0A1421FD0A94273
:103640001DD0B1421BD0B94219D0DFF844E1714519
:1036500015D0DFF840E1714511D0DFF83CE171454C
:103660000DD041450BD0494509D0DFF830E1714517
:1036700005D0514503D0594501D0914206D1D1F82A
:1036800000E02EF0010EC1F800E005E0D1F800E006
:103690002EF0010EC1F800E0DFF8C4E001687145CA
:1036A00039D0994237D0614535D0A14233D0A942B3
:1036B00031D0B1422FD0B9422DD0354B99422AD0CA
:1036C000344B994227D0344B994224D0414522D0E3
:1036D000494520D0314B99421DD051451BD0594509
:1036E00019D0914217D02E4A914214D02D4A9142BE
:1036F00011D02D4A91420ED02C4A91420BD02C4A27
:10370000914208D02B4A914205D02B4A914202D0D7
:103710002A4A914218D1016E0A6822F480720A6026
:10372000816D90F85C2002F01F0301229A404A60EC
:10373000426E816E5160C16E31B10A6822F48072AE
:103740000A60026F416F5160012180F8351000213D
:1037500080F83410016D01B188470020BDE8F09F6A
:103760001000024028000240400002405800024081
:103770007000024088000240A00002404004024065
:103780005804024088040240A0040240B8040240E9
:10379000B8000240100402402804024070040240B5
:1037A000085402581C5402583054025844540258C9
:1037B000585402586C540258805402589454025879
:1037C000406D70472DE9F04F83B004460020029011
:1037D0004FF41651FD480068B0FBF1F00190A56D63
:1037E0002E682968FA4F2068DFF8E8A3DFF8E8B30D
:1037F000B842DFF8E883DFF8E8932DD052469042D4
:103800002AD05A46904227D0404525D0484523D05B
:10381000F44A904220D0F44A90421DD0F34A90429C
:103820001AD0F34A904217D0DFF8C8C3604513D0CE
:10383000F14A904210D0DFF8C4E370450CD0F04A52
:10384000904209D0EF4A904206D0EF4A904203D00E
:10385000EE4B984240F0408294F85C10082201F050
:103860001F0102FA01F1314241D0B84228D050453F
:1038700026D0584524D0404522D0484520D0D949AB
:1038800088421DD0D84988421AD0D849884217D0DA
:10389000D749884214D0D749884211D0D6498842A6
:1038A0000ED0D64988420BD0D549884208D0D54998
:1038B000884205D0D449884202D0D449884203D1F5
:1038C000016801F0040102E0016801F0080171B132
:1038D000016821F00401016094F85C0000F01F0011
:1038E00002FA00F0A860606D40F00100606594F895
:1038F0005C0000F01F01012000FA01F1314234D0D8
:103900002068B84228D0504526D0584524D040459C
:1039100022D0484520D0B34A90421DD0B24A9042AE
:103920001AD0B24A904217D0B14A904214D0B14A4C
:10393000904211D0B04A90420ED0B04A90420BD083
:10394000AF4A904208D0AF4A904205D0AE4A90426A
:1039500002D0AE4A90427DD1406910F0800F04D071
:10396000A960606D40F00200606594F85C0000F0B2
:103970001F01042000FA01F1314234D02068B8421E
:1039800028D0504526D0584524D0404522D048451F
:1039900020D0944A90421DD0934A90421AD0934A24
:1039A000904217D0924A904214D0924A904211D03D
:1039B000914A90420ED0914A90420BD0904A904248
:1039C00008D0904A904205D08F4A904202D08F4A48
:1039D000904245D1006810F0020F04D0A960606DDC
:1039E00040F00400606594F85C0000F01F011020B6
:1039F00000FA01F1314259D02068B84228D0504530
:103A000026D0584524D0404522D0484520D0754A7C
:103A100090421DD0744A90421AD0744A904217D0F6
:103A2000734A904214D0734A904211D0724A904225
:103A30000ED0724A90420BD0714A904208D0714A1F
:103A4000904205D0704A904202D0704A904209D10B
:103A5000006800E002E000F0080006E0006884E78B
:103A60000068C0E7006800F00400F8B1A9602068B1
:103A7000016811F4802F0DD0006810F4002F04D0DD
:103A8000A16C99B12046884710E0216C71B12046A5
:103A900088470BE0016811F4807F03D1016821F0B1
:103AA00008010160216C09B12046884794F85C0048
:103AB00000F01F01202000FA01F131426FD0206890
:103AC000B84228D0504526D0584524D0404522D071
:103AD000484520D0434A90421DD0434A90421AD0D4
:103AE000424A904217D0424A904214D0414A9042F2
:103AF00011D0414A90420ED0404A90420BD0404AE9
:103B0000904208D03F4A904205D03F4A904202D0AE
:103B10003E4A904203D1006800F0100002E00068C5
:103B200000F00200D8B3A96094F8350004280DD045
:103B30002068016811F4802F37D0006810F4002F3E
:103B40002ED0E16B59B32046884764E020680168B5
:103B500021F0160101602068416921F08001416176
:103B6000206C08B9A06C20B12068016821F0080120
:103B7000016094F85C003F2100F01F0001FA00F0A2
:103B8000A860012084F83500002084F83400216DFD
:103B900000297BD003B02046BDE8F04F084737E04E
:103BA000616CA9B32046884735E0016811F4807F35
:103BB00009D1016821F010010160012084F835006D
:103BC000002084F83400E16B11B322E09407002454
:103BD000100002402800024040000240580002400D
:103BE0007000024088000240A0000240B80002407D
:103BF00010040240280402404004024058040240DD
:103C00007004024088040240A0040240B80402404C
:103C100001E020468847606D002837D0606D10F0C5
:103C2000010F51D0042084F835002068B84228D014
:103C3000504526D0584524D0404522D0484520D074
:103C4000AB4988421DD0AB4988421AD0AA49884264
:103C500017D0AA49884214D0A949884211D0A9494D
:103C600088420ED0A84988420BD0A849884208D083
:103C7000A749884205D0A749884202D0A649884270
:103C800005D1016821F00101016004E096E00168BE
:103C900021F00101016021680298019A401C029004
:103CA000904203D8086810F0010FF5D1086810F0B1
:103CB000010F03D0032084F8350002E0012084F8CE
:103CC0003500002084F83400E16C002976D003B080
:103CD0002046BDE8F04F0847904B984214D0904BD7
:103CE000984211D08F4B98420ED08F4B98420BD0F8
:103CF0008E4B984208D08E4B984205D08D4B9842FF
:103D000002D08D4B984259D103684FF0040A94F8C1
:103D10005C6006F01F060AFA06FA1AEA010F5AD08A
:103D200013F0040F57D0C5F804A013F4004F12D0BD
:103D300013F4803F07D0216C00293FD003B0204608
:103D4000BDE8F04F0847A16C002937D003B02046EA
:103D5000BDE8F04F084713F0200F34D12068B84277
:103D600027D07649884224D07549884221D04045E1
:103D70001FD048451DD05E4988421AD05D4988420F
:103D800017D05D49884214D05C49884211D0604503
:103D90000FD05C4988420CD070450AD05B498842FC
:103DA00007D05B49884204D0904202D05A498842E9
:103DB00005D1016821F00801016004E083E0016899
:103DC00021F004010160216C00297CD003B0204661
:103DD000BDE8F04F08474FF0020A0AFA06FA1AEA5D
:103DE000010F5FD013F0020F5CD0C5F804A013F4EC
:103DF000004F12D013F4803F07D0E16B002974D03C
:103E000003B02046BDE8F04F0847616C00296CD034
:103E100003B02046BDE8F04F084713F0200F39D11A
:103E20002068B84227D04549884224D04449884276
:103E300021D040451FD048451DD02D4988421AD079
:103E40002C49884217D02C49884214D02B498842EB
:103E500011D060450FD02B4988420CD070450AD054
:103E60002A49884207D02A49884204D0904202D089
:103E70002949884204D1016821F01401016003E05E
:103E8000016821F00A010160012084F8350000205A
:103E900084F83400E16B002927D003B02046BDE848
:103EA000F04F08470822B2400A421ED013F0080F14
:103EB0001BD0016821F00E01016094F85C0000F055
:103EC0001F01012000E010E000FA01F16960606567
:103ED00084F83500002084F83400E16C002904D017
:103EE00003B02046BDE8F04F084703B0BDE8F08FAF
:103EF00088000240A0000240B800024010040240C6
:103F00002804024040040240580402407004024069
:103F100088040240A0040240B80402400854025839
:103F20001C540258305402584454025858540258F1
:103F30006C5402588054025894540258280002408D
:103F4000400002402DE9F05F044601F0EBF906461F
:103F5000002C6AD0DC4F022220680025DFF86C8339
:103F6000DFF86C93B842DFF86CA3DFF86CB328D0AD
:103F7000DA49884225D0404523D0484521D05045D4
:103F80001FD058451DD0D64988421AD0D5498842FD
:103F900017D0D549884214D0D449884211D0D44989
:103FA00088420ED0D34988420BD0D349884208D0EA
:103FB000D249884205D0D249884202D0D1498842AC
:103FC0007ED184F8352084F83450B84228D0C349D3
:103FD000884225D0404523D0484521D050451FD0A8
:103FE00058451DD0BE4988421AD0BE49884217D0D4
:103FF000BD49884214D0BD49884211D0BC4988428D
:104000000ED0BC4988420BD0BB49884208D0BB497E
:10401000884205D0BA49884202D0BA49884207D1BD
:10402000016821F00101016006E00120BDE8F09F78
:10403000016821F0010101602068006810F0010FA3
:1040400011D001F06FF9801B052807D92020606589
:10405000032084F835000120BDE8F09F2068006847
:1040600010F0010FEDD122681068A7490840E368FD
:10407000A168D4F814C01943236943EA0C03194317
:10408000A3691943E3691943236A19430843616A21
:10409000042903D1236BE16A194308439B4909684A
:1040A0006FF30F01B1F1005F11D36168A1F1290332
:1040B000052B0AD9163B032B07D9083B012B00E03F
:1040C0002CE002D94F39032901D840F48010106048
:1040D0002068406920F00701606A40EA0106042870
:1040E0000ED1A06A0643E06A50B12046FEF744FBB9
:1040F00030B140206065012084F83500BDE8F09FB4
:10410000206846612046FEF713FA94F85C103F22BF
:1041100001F01F0102FA01F181605BE07C498842F5
:1041200014D07C4B984211D07B4B98420ED07B4BE5
:1041300098420BD07A4B984208D07A4B984205D0DF
:10414000794B984202D0794B98427DD188420CD06D
:104150007049884209D07049884206D06F49884228
:1041600003D06F49884200D06E4984F8352084F826
:10417000345002686FF31012A168402979D0802969
:1041800079D00021E36841EAD301236941EAD301F0
:10419000636941EAD301A36941EAD301E36941EAD2
:1041A000D301236A41EA1311114301606049206879
:1041B00001446048A0FB011000098000E065204632
:1041C000FEF7B6F994F85C10012201F01F0102FA23
:1041D00001F141602068B84242D0404988423FD056
:1041E00040453DD048453BD0504539D0584537D063
:1041F0003B49884234D03B49884231D03A498842D1
:104200002ED03A4988422BD03949884228D03949A2
:10421000884225D03849884222D0384988421FD068
:10422000374988421CD03749884219D038498842DA
:1042300016D03849884213D03749884210D03749C0
:1042400088420DD0364900E018E0884208D0354950
:10425000884205D03449884202D0344988422CD162
:104260002046FEF7D7F9A06880280FD00FE000E0C5
:1042700001E0102186E74FF4804183E7402060652C
:10428000032084F835000120BDE8F09F6560216EB1
:1042900020790860616EA06E48606068401E072843
:1042A00008D82046FEF722FAE06E0560216F606FA5
:1042B000486002E0E566256765676565012084F86A
:1042C00035000020BDE8F09F100002404000024091
:1042D000580002407000024088000240280002405E
:1042E000A0000240B800024010040240280402402E
:1042F0004004024058040240700402408804024016
:10430000A0040240B80402403F8010FE0010005C90
:10431000085402581C54025830540258445402584D
:10432000585402586C5402588054025894540258FD
:10433000F8ABFDA7CDCCCCCC2DE9F84F044600203E
:104340000090002C16D094F83400012815D00120DC
:1043500084F8340094F835C00020BCF1010F0FD070
:104360004FF40061616584F83400012000900098EA
:10437000BDE8F88F0120BDE8F88F0220BDE8F88F76
:104380004FF0020C84F835C06065DFF82CC220685D
:104390008A4D8B4E60458B4FDFF82C82DFF82C92D4
:1043A000DFF82CA2DFF82CB22DD0A8422BD0B042DF
:1043B00029D0B84227D0404525D0484523D0504584
:1043C00021D058451FD0DFF810C260451BD0DFF860
:1043D0000CC2604517D0DFF808C2604513D0DFF883
:1043E00004C260450FD0DFF800C260450BD0DFF893
:1043F000FCC1604507D0DFF8F8C1604503D0DFF8A5
:10440000F4C1604506D1D0F800C02CF0010CC0F812
:1044100000C005E0D0F800C02CF0010CC0F800C0CE
:104420002046FEF7E9F964492068884225D0A84271
:1044300023D0B04221D0B8421FD040451DD04845BE
:104440001BD0504519D0584517D0634A904214D01C
:10445000624A904211D0624A90420ED0614A904224
:104460000BD0614A904208D0604A904205D0604A21
:10447000904202D05F4A90420DD1026822F01E02A3
:1044800042F016020260206C90B12068026842F08F
:10449000080202600CE0026822F00E0242F00A02FA
:1044A0000260206C20B12068026842F004020260C1
:1044B000206888423DD0A8423BD0B04239D0B842B3
:1044C00037D0404535D0484533D0504531D0584598
:1044D0002FD0414A90422CD0404A904229D0404AA5
:1044E000904226D03F4A904223D03F4A904220D06B
:1044F0003E4A90421DD03E4A90421AD03D4A9042D8
:1045000017D03D4A904214D03C4A904211D03C4AC8
:1045100090420ED03B4A90420BD03B4A904208D08A
:104520003A4A904205D03A4A904202D0394A9042E3
:104530000ED1206E026812F4803F03D0026842F46C
:1045400080720260E06E18B1026842F4807202600C
:104550002068884225D0A84223D0B04221D0B8425A
:104560001FD040451DD048451BD0504519D0584557
:1045700017D01949884214D01849884211D01849D7
:1045800088420ED0174988420BD01749884208D07C
:104590001649884205D01649884202D015498842FA
:1045A00004D1016841F001010160E0E6016841F0D9
:1045B00001010160DBE6000010000240280002401B
:1045C0004000024058000240700002408800024053
:1045D000A0000240B800024010040240280402403B
:1045E0004004024058040240700402408804024023
:1045F000A0040240B8040240085402581C54025857
:104600003054025844540258585402586C540258BA
:10461000805402589454025890F89830012B09D0D5
:10462000022B07D0D0F89C1041F00201C0F89C107A
:10463000012070470368D3F858C01CEA010F06D167
:10464000D3F85CC04CF0010CC3F85CC008E0D3F8B0
:1046500058C031EA0C0C26D04FF0030CC3F85CC0F4
:1046600011F4007F06D00368D3F8E0C04CEA020CD6
:10467000C3F8E0C011F4806F06D00368D3F8E4C03B
:104680004CEA0202C3F8E4200068426D21F44013B2
:1046900023F040431A4342650648026842EA91719A
:1046A000016000207047D3F85CC04CF0020CC3F8E6
:1046B0005CC0D5E714A8004070B5044694F8980093
:1046C000022807D0D4F89C0040F00800C4F89C00F1
:1046D000012070BD2068D0F8C03013F07C5F0CD092
:1046E000D0F8C43013F4001F0FD0D4F89C0040F46D
:1046F0000070C4F89C00012070BDD4F89C0040F00C
:104700002000C4F89C00012070BDD0F8C400C0F3A4
:10471000044520462B46FEF7B3FC21680120A84043
:10472000C1F8D000C4F89400002070BD704790F824
:104730009820012A09D0022A07D0D0F89C1041F015
:104740000201C0F89C1001207047CA680B6893B141
:10475000072A0B6943EA42732ED091F808C04A69D0
:1047600042EA8C724968006F00EBC100036042604E
:104770004FF000007047072A12D091F808C04FEAA6
:10478000C2624B6943EA8C73B1F810C042EA0C4232
:1047900043EA02024968C06E00EB81000260E7E76D
:1047A0000B8A4FF0605C8A6942EA0342CB694CEAAB
:1047B000032342EA0302EDE78A69D3E770477047B3
:1047C000F0B44FF0000C90F89840022C08D0D0F8CC
:1047D0009C1041F00801C0F89C10F0BC012070470B
:1047E00040290DD0412940D0046D8C4273D8D0F8B7
:1047F0009C1041F02001C0F89C10F0BC01207047D3
:104800000468D4F8A05015F4FE0F1CD0D4F8A450BE
:1048100015F07F0F20D0D4F8A45015F0807F06D07B
:10482000D4F8A05015F0004F01D54FF0010CD4F88A
:10483000A440C4F30524A444456C446F05FB0CF567
:1048400004EB85044DE0D0F89C1041F02001C0F845
:104850009C10F0BC01207047D0F89C1041F480718E
:10486000C0F89C10F0BC012070470468D4F8B05028
:1048700015F4FE0F1CD0D4F8B45015F07F0F20D0E3
:10488000D4F8B45015F0807F06D0D4F8B05015F0AD
:10489000004F01D54FF0010CD4F8B440C4F3052407
:1048A000A444C56C846F05FB0CF504EB850418E08B
:1048B000D0F89C1041F02001C0F89C10F0BC012001
:1048C0007047D0F89C1041F48071C0F89C10F0BC87
:1048D00001207047FFE7456DC46F05FB01F504EB50
:1048E0008504256805F080455560E5B3256825F009
:1048F00060451560256805F000559560256805F050
:1049000000451561241D2588ADB2D5612568C5F324
:104910000347D760256805F480155561256805F4BF
:10492000001595612568C5F3066515622568ED0FCC
:104930005562251D0024184EF75D002F06D92F5D06
:104940001F55641CD768F75DA742F8D8402910D0DE
:10495000412912D00122202913D2006802FA01F164
:10496000C0F8981014E0FFE72568C5F38A45156084
:10497000C0E70068C0F8A8C00AE00068C0F8B8C086
:1049800006E0006801F01F0102FA01F1C0F89C1076
:104990000020F0BC7047000034DE000870470000C3
:1049A0002DE9F04F83B00446BC4F38688007391DAD
:1049B000096800EA81792068016D01F47041426D57
:1049C00002EA010A016D01F00F01426D02EA010BDA
:1049D000016D01F0F001426D11400291016D01F095
:1049E0007151426D02EA0108016D01F06071426D82
:1049F00011400191456D066D15F4807F09D016F4C4
:104A0000807F06D0B9150165002038602046FFF789
:104A1000C5FF15F4806F10D016F4806F0DD020689C
:104A2000D0F8DC10D0F8E42011404FF48062026529
:104A300000203860204600F063FBB9F1000F0CD075
:104A4000216829F4401020F0404008654FEA997031
:104A5000386049462046FFF769FEBAF1000F0CD0D6
:104A600021682AF4401020F0404008654FEA9A700F
:104A700038605146204600F045FBBBF1000F0CD0DA
:104A800021682BF4401020F0404008654FEA9B70ED
:104A900038605946204600F0E5FA029868B121686E
:104AA000029820F4401020F0404008650298800FE2
:104AB00038600299204600F003FB15F4006F0BD01C
:104AC00016F4006F08D021684FF4006008650020DC
:104AD0003860204600F017FB15F4007F10D016F464
:104AE000007F0DD02068D0F8D810D0F8E020114019
:104AF0004FF40072026500203860204600F001FB90
:104B000015F4002F0BD016F4002F08D021684FF4B5
:104B10000020086500203860204600F0A1FA15F456
:104B2000803F0BD016F4803F08D021684FF48030CE
:104B3000086500203860204600F0E1FA15F4802F67
:104B40000BD016F4802F08D021684FF48020086520
:104B500000203860204600F0D1FA15F4003F0ED056
:104B600016F4003F0BD021684FF400300865002098
:104B70003860D4F89C0040F08000C4F89C00019894
:104B800068B12168019820F4401020F04040086589
:104B90000198800F386001992046FFF710FEB8F1A8
:104BA000000F0ED0216828F4401020F04040086526
:104BB0004FEA98703860D4F89C0040EA0800C4F8C6
:104BC0009C002068A0F18041B1F520415CD1606873
:104BD000816811F0030F57D0016A01F00F01426A9A
:104BE0001140026A02F03002436A03EA0207026AD5
:104BF00002F4C072436A03EA0208026A02F4FC4249
:104C0000436A03EA0205026A02F4F022436A03EAF5
:104C10000206D0F82490D0F820A019B101622046F5
:104C200000F069FA2FB1606807623946204600F04B
:104C300064FA19F0400F0DD01AF0400F0AD06068E6
:104C4000C16B090CC26B02F03F0240230362204695
:104C500000F052FAB8F1000F06D06068C0F820806A
:104C60004146204600F046FA35B160680562D4F846
:104C70009C002843C4F89C0036B160680662D4F8F2
:104C80009C003043C4F89C00D4F89C00002802D05B
:104C90002046FFF793FD03B0BDE8F08F10A8004059
:104CA0002DE9F04194B004464C22A14901A8FBF73C
:104CB000B0FC5CB19F4F2068B84202D100F5807013
:104CC000606094F89800002620B108E014B001203C
:104CD000BDE8F08184F89960204600F02DF9206845
:104CE000816921F01001816100F01CFB05462068FC
:104CF00080694FF0030810F0080F15D000F012FB88
:104D0000401B0A280BD9D4F89C0040F00100C4F8DD
:104D10009C0084F8988014B00120BDE8F0812068E0
:104D2000806910F0080FE9D12068816941F0010124
:104D3000816100F0F7FA05462068806910F0010FE4
:104D400015D100F0EFFA401B0A280BD9D4F89C00CB
:104D500040F00100C4F89C0084F8988014B0012051
:104D6000BDE8F0812068806910F0010FE9D020686B
:104D7000816941F002018161207C012839D02068DD
:104D8000816941F040018161607C012837D0206851
:104D9000816921F480418161A07C012835D020689F
:104DA000816941F48051816120688169A26821F4A0
:104DB0004071114381612068816921F0A401816102
:104DC0002068016921F010010161E068012822D00A
:104DD00030B302282BD02068816941F080018161C5
:104DE0002068016941F010010161E068032818D0D2
:104DF00022E02068816921F040018161C4E72068D8
:104E0000816941F480418161C6E72068816921F4AC
:104E100080518161C8E72068816941F004018161A6
:104E20000AE02068816941F02001816104E0206886
:104E3000816941F020018161207EE169401E491EA7
:104E4000400640EA0120216A491E0843A18A491E02
:104E500040EA01402168C861A068B0F5407F0FD1E9
:104E6000E16AA06A491E401E40EA0120216B491EEA
:104E700040EA0110A18C491E40EA01402168C86047
:104E8000206E30B12068D0F8C010626E1143C0F8B7
:104E9000C010216EE06DC84201A90AD02068D0F888
:104EA000C820A36E22F0070251F823301A43C0F83D
:104EB000C820206C50B12068D0F8BC20636C22F070
:104EC000070251F823301A43C0F8BC20A06C58B137
:104ED0002068D0F8BC20E36C22F0700251F8233037
:104EE00042EA0312C0F8BC20206D58B12068D0F807
:104EF000BC20636D22F4E06251F8231042EA0121E4
:104F0000C0F8BC102068B84204D16068816821F004
:104F100003018160C4F89460C4F89C60012084F8A7
:104F200098002046FDF7B2FF14B0BDE8F081000004
:104F300044DE000800A000402DE9F043B7B08046F1
:104F4000142130A8FBF797FBC0216846FBF793FBC1
:104F50003E4D0026D8F800004FF080513C4A0C3DF1
:104F6000394F4FF00208394C90424FF0090931D1C6
:104F700000201C914A13CDE90020684600F0AAFCED
:104F800008B1FDF774FF3868401C3860012807D16C
:104F9000206840F480702060206800F480703590B4
:104FA000286840F00100286028684FF4C052309211
:104FB00030A900F00100CDE931863396CDE9349077
:104FC000244800F0A1F800220221132000F028FA62
:104FD000132033E0204A904232D100201C914FF43C
:104FE0000042CDE90020684600F074FC08B1FDF7EE
:104FF0003EFF3868401C3860012807D1206840F423
:1050000080702060206800F480703590286840F03F
:105010000200286028686022309230A900F0020067
:10502000CDE931863396CDE934900C4800F06CF828
:1050300000220121142000F0F3F9142000F0E2F91D
:1050400037B0BDE8F083000084070024EC44025828
:1050500000A000400000025800A4004000040258D4
:105060007047000030B51349044600688DB00AADA2
:1050700088420BD140212B466A462046FFF7A0FB11
:10508000012803D00C48C168684688470B4920684E
:1050900088420CD140212B466A462046FFF790FB00
:1050A000012804D004481030C168684688470DB014
:1050B00030BD000000A000406007002400A40040B4
:1050C000704790F89810012907D0D0F89C1041F053
:1050D0000401C0F89C1001207047022180F898104C
:1050E00001688A6922F001028A610021C0F89C10DF
:1050F000002070477047704770477047704770478F
:1051000070477047704770472DE9F84F0022DFF86D
:10511000E4C10B68002B7DD0DFF8DCB14FF0B04A62
:105120004FF0010E4FF003084FF00F090B680EFA15
:1051300002F52B40002B6ED00C7904F00304012CF7
:1051400001D0022C11D18668540008FA04F7BE433E
:10515000CF6807FA04F4344384604468AC430D79A3
:10516000C5F3001595402C4344604C6838EA0404AC
:1051700009D0C568540008FA04F6B5438E6806FAEB
:1051800004F42C43C4600C7904F00304022C0DD108
:10519000D40800EB84052E6A5407E40E09FA04F7DC
:1051A000BE430F6907FA04F434432C6205685400C7
:1051B00008FA04F6B5430E7906F0030606FA04F47D
:1051C0002C4304604C6814F4403F78D0DBF8004076
:1051D00044F00204CBF80040DBF8004004F0020485
:1051E000009422F0030404F1B046D6F80844950771
:1051F0002D0F09FA05F724EA0707A0F1B044B4F52A
:10520000003463D0A0F1B044B4F5013460D0A0F113
:10521000B04401E058E052E0B4F502345AD0A0F1B5
:10522000B044B4F5033457D0A0F1B044B4F504341D
:1052300054D0A0F1B044B4F5053451D0A0F1B0443D
:10524000B4F506344ED0A0F1B044B4F507344BD0D9
:10525000A0F1B044B4F5083448D0A0F1B044B4F59E
:10526000093445D00A24AC403C43C6F80844DAF877
:1052700000409C434D6815F4801F00D01C43CAF8C1
:105280000040DAF804409C434D6815F4001F00D03C
:105290001C43CAF80440DCF804409C434D6815F4F4
:1052A000003F00D01C43CCF80440DCF800409C4395
:1052B0004D6815F4803F00D01C43CCF80040521CD0
:1052C0000B68D3407FF432AFBDE8F88F0024CAE703
:1052D0000124C8E70224C6E70324C4E70424C2E784
:1052E0000524C0E70624BEE70724BCE70824BAE784
:1052F0000924B8E780000058F444025800690842C5
:1053000001D00120704700207047002A01D0816140
:10531000704709048161704701480068000C7047BC
:105320000010005C01488068704700008807002476
:105330000248816802781144816070478807002420
:1053400010B5032000F0A2F801F0C2F90F4A11686D
:10535000C1F303230E49CB5C03F01F03D84012684E
:1053600002F00F02895C0B4A01F01F0120FA01F1E3
:10537000116009490860002000F010F808B1012010
:1053800010BD00F031F8002010BD00001844025894
:10539000C0DE0008980700249407002470B5044676
:1053A0000F4D2A78002A0CD04FF47A700D49B0FBCB
:1053B000F2F00968B1FBF0F001F016FE18B101201F
:1053C00070BD012070BD102C07D200222146501E56
:1053D00000F026F86C60002070BD012070BD000058
:1053E0008807002494070024054808B5016841F0A7
:1053F00002010160006800F00200009008BD00009A
:10540000F444025800280ADB012200F01F0102FACE
:1054100001F14009800000F1E020C0F80011704760
:105420004DF8044D184B1B68C3F30223C3F1070C5E
:10543000BCF1040F01D94FF0040C1C1D072C01D244
:10544000002300E0DB1E012404FA0CFCACF1010C8B
:105450000CEA0101994004FA03F35B1E1A40114360
:10546000002807DB00F1E020090180F800145DF856
:10547000044B704700F00F0000F1E020090180F8B4
:10548000141D5DF8044B70470CED00E000F00700C0
:10549000064A11684FF6FF03194041EA002040F028
:1054A000FD7040F080601060704700000CED00E07F
:1054B00070B515490A6812F0040F0DD00A6822F081
:1054C000070210430860FFF72DFF04460F4D2868C0
:1054D00010F4005F09D014E0096801F0070181426F
:1054E00001D0012070BD002070BDFFF71BFF001B25
:1054F000B0F57A7F01D9012070BD286810F4005FF3
:10550000F3D0002070BD00000C4802580448025837
:1055100010B501F091F805490968054AC1F3021177
:10552000515C01F01F01C84010BD0000204402582A
:10553000C0DE000869490A6802F003020968C1F385
:105540000531674B1B68C3F30013DFF898C1DCF823
:1055500000C0CCF3CC0C1CFB03F300EE103AB8EE09
:10556000400A002972D09FED601A604B002AF7EEC6
:10557000000A46D0DFED5E1A012A68D0022A67D001
:1055800002EE101A1968F8EE422A81EEA22AC1F33F
:10559000080101EE901AF8EE611A40EE011A31EEA0
:1055A000A00A22EE000A1968C1F3462101EE101A82
:1055B000B8EE411A31EE201AC0EE011ABCEEE11A23
:1055C00080ED001A1968C1F3064101EE101AB8EE19
:1055D000411A31EE201AC0EE011ABCEEE11A80ED3C
:1055E000011A1968C1F3066101EE101AB8EE411AEA
:1055F00071EE200A80EE201ABCEEC10A80ED020A8C
:1056000070473C4AD2F800C01CF0200F21D012682D
:10561000DFF8E4C0C2F3C1022CFA02F201EE902AD4
:10562000F8EE612A01EE901A1968F8EE611A82EE1E
:10563000A12AC1F3080101EE901AF8EE611A40EEBA
:10564000011A31EEA00A22EE000AACE741E016E0B2
:1056500029E001EE901ADFED292A1968F8EE611AA7
:1056600082EEA12AC1F3080101EE901AF8EE611A48
:1056700040EE011A31EEA00A22EE000A93E702EE94
:10568000101A1968F8EE422A81EEA22AC1F3080125
:1056900001EE901AF8EE611A40EE011A31EEA00AFE
:1056A00022EE000A7FE701EE901ADFED152A196855
:1056B000F8EE611A82EEA12AC1F3080101EE901AF8
:1056C000F8EE611A40EE011A31EEA00A22EE000A4D
:1056D00069E70021016041608160704728440258F9
:1056E0002C4402583C440258000000393844025807
:1056F0000024744A004402580090D0030024744CE3
:105700000024F44A69490A6802F003020968C1F3F7
:105710000551674B1B68C3F30023DFF898C1DCF821
:1057200000C0CCF3CC0C1CFB03F300EE103AB8EE37
:10573000400A002972D09FED601A604B002AF7EEF4
:10574000000A46D0DFED5E1A012A68D0022A67D02F
:1057500002EE101A1968F8EE422A81EEA22AC1F36D
:10576000080101EE901AF8EE611A40EE011A31EECE
:10577000A00A22EE000A1968C1F3462101EE101AB0
:10578000B8EE411A31EE201AC0EE011ABCEEE11A51
:1057900080ED001A1968C1F3064101EE101AB8EE47
:1057A000411A31EE201AC0EE011ABCEEE11A80ED6A
:1057B000011A1968C1F3066101EE101AB8EE411A18
:1057C00071EE200A80EE201ABCEEC10A80ED020ABA
:1057D00070473C4AD2F800C01CF0200F21D012685C
:1057E000DFF8E4C0C2F3C1022CFA02F201EE902A03
:1057F000F8EE612A01EE901A1968F8EE611A82EE4D
:10580000A12AC1F3080101EE901AF8EE611A40EEE8
:10581000011A31EEA00A22EE000AACE741E016E0E0
:1058200029E001EE901ADFED292A1968F8EE611AD5
:1058300082EEA12AC1F3080101EE901AF8EE611A76
:1058400040EE011A31EEA00A22EE000A93E702EEC2
:10585000101A1968F8EE422A81EEA22AC1F3080153
:1058600001EE901AF8EE611A40EE011A31EEA00A2C
:1058700022EE000A7FE701EE901ADFED152A196883
:10588000F8EE611A82EEA12AC1F3080101EE901A26
:10589000F8EE611A40EE011A31EEA00A22EE000A7B
:1058A00069E7002101604160816070472844025827
:1058B0002C44025844440258000000394044025825
:1058C0000024744A004402580090D0030024744C11
:1058D0000024F44A2DE9F84F0446002500262068EC
:1058E000C04310F0006FFE4FDFF8F8830DD1A06EBB
:1058F00088B1B0F5801F13D0B0F5001F17D0B0F5F8
:10590000401F00D00125CDB12E462088C04310F4A1
:10591000807F1CD039E0386840F400303860F2E70E
:10592000022104F1080004F0F3F90546EBE7022137
:1059300004F1280004F08CFA0546E4E7D8F80000EA
:10594000A16E20F440100843C8F80000DDE7A06D08
:10595000052817D2DFE800F003080F171700386892
:1059600040F4003038600EE0002104F1080004F03B
:10597000CFF9054607E0002104F1280004F068FA99
:10598000054600E0012535B12E462088C04310F4BD
:10599000007F09D018E0D8F80000A16D20F00700C2
:1059A0000843C8F80000F0E7E06D802820D003DC51
:1059B00090B1402805D114E0C02803D0B0F5807F15
:1059C00000D00125DDB12E462088DFF81C93C043AE
:1059D00010F4806F1CD02FE0386840F4003038603D
:1059E000F0E7002104F1080004F092F90546E9E728
:1059F000002104F1280004F02BFA0546E2E7D8F86C
:105A00000000E16D20F4E0700843C8F80000DBE717
:105A1000D4F8A800B0F5800F20D004DC90B1B0F528
:105A2000001F06D113E0B0F5C00F03D0B0F5000F92
:105A300000D00125CDB12E462088C04310F4006F60
:105A40001DD030E0386840F400303860F2E70021C3
:105A500004F1080004F05CF90546EBE7002104F1CD
:105A6000280004F0F5F90546E4E7D9F80000D4F879
:105A7000A81020F460000843C9F80000DCE7D4F85F
:105A8000AC00B0F1007F20D004DC90B1B0F1807F99
:105A900006D113E0B0F1407F03D0B0F1806F00D0A9
:105AA0000125CDB12E462068C04310F0007F1DD0E7
:105AB00027E0386840F400303860F2E7002104F154
:105AC000080004F025F90546EBE7002104F1280061
:105AD00004F0BEF90546E4E7D9F80000D4F8AC10AC
