:020000040800F2
:10000000102F0024790300081DA50008E5940008BE
:1000100081A20008ED2F0008B1C300080000000015
:1000200000000000000000000000000083AF000896
:100030000D3E0008000000005DAC000885AF000820
:100040009303000893030008930300089303000838
:100050009303000893030008930300089303000828
:100060009303000893030008930300080D3400086D
:100070001934000825340008313400083D340008E4
:10008000493400085534000893030008153E000861
:10009000213E00089303000893030008930300081F
:1000A00093030008930300089303000893030008D8
:1000B00093030008930300089303000893030008C8
:1000C00093030008930300089303000893030008B8
:1000D0009303000845C3000865C3000885C30008F2
:1000E0009303000893030008000000009303000836
:1000F0009303000805B20008930300086134000868
:100100009303000893030008930300089303000877
:10011000A5B70008C5B700089303000893030008BB
:100120006D340008793400088534000891340008E3
:100130009D3400089303000893030008930300080C
:1001400000000000000000000000000000000000AF
:10015000A9340008B5340008C134000891C3000870
:100160009303000893030008930300089303000817
:100170009303000893030008930300089303000807
:100180009303000893030008E5B7000805B80008CA
:1001900093030008930300089303000893030008E7
:1001A00093030008930300089303000893030008D7
:1001B00093030008930300089303000893030008C7
:1001C00093030008930300089303000893030008B7
:1001D00093030008930300089303000893030008A7
:1001E0009303000893030008930300089303000897
:1001F0009303000893030008930300089303000887
:100200009303000893030008930300089303000876
:100210009303000893030008930300089303000866
:1002200093030008930300089303000800000000F4
:1002300093030008930300080000000093030008E4
:100240009303000893030008930300089303000836
:100250009303000893030008930300089303000826
:100260009303000893030008930300089303000816
:1002700093030008930300089303000800000000A4
:100280009303000893030008930300080000000094
:10029000000000009303000800F002F800F05CF892
:1002A0000AA090E8000C82448344AAF10107DA45D1
:1002B00001D100F051F8AFF2090EBAE80F0013F0C7
:1002C000010F18BFFB1A43F001031847ECEC0000C4
:1002D0000CED00000A444FF0000C10F8013B13F045
:1002E000070408BF10F8014B1D1108BF10F8015B8F
:1002F000641E05D010F8016B641E01F8016BF9D182
:1003000013F0080F1EBF10F8014BAD1C0C1B09D1D8
:100310006D1E58BF01F801CBFAD505E014F8016B4A
:1003200001F8016B6D1EF9D59142D6D370470000DC
:100330000023002400250026103A28BF78C1FBD8EE
:10034000520728BF30C148BF0B6070471FB50EF081
:1003500067FD1FBD10B510BD00F05AF91146FFF73B
:10036000F5FF0EF07DF900F078F903B4FFF7F2FF26
:1003700003BC00F07BF900000948804709480047AA
:10038000FEE7FEE7FEE7FEE7FEE7FEE7FEE7FEE745
:10039000FEE7FEE704480549054A064B70470000A2
:1003A00065B000089902000810290024102F0024CD
:1003B000102B0024102B002453EA020C00F069805B
:1003C0002DE9F04B4FF00006002B1FBFB3FA83F569
:1003D00003FA05F424FA05F65E4012BF1643B2FA9A
:1003E00082F502FA05F4C5F120051EBF22FA05FCCC
:1003F00044EA0C04203556EA044C4FEA144418BF72
:10040000641C4FF000084FF00009904271EB030CA0
:1004100039D3002919BFB1FA81F701FA07F6B0FA0A
:1004200080F700FA07F6C7F120071EBF20FA07FC85
:1004300046EA0C062037B6FBF4FCA7EB0507103F95
:1004400007F01F0BCBF120060CFA0BFB2CFA06F67B
:1004500044BFB3460026202FA4BF5E464FF0000BDA
:100460005BEA060C08BF4FF0010B19EB0B09ABFB65
:10047000027C48EB0608C01B06FB02CC0BFB03CC3E
:1004800071EB0C01C1E70B46024641464846BDE808
:10049000F08B13B54FF000004FF00001AFF3008078
:1004A000BDE81C407047032A40F2308010F0030C76
:1004B00000F0158011F8013BBCF1020F624498BFB7
:1004C00011F801CB00F8013B38BF11F8013BA2F154
:1004D000040298BF00F801CB38BF00F8013B11F0CF
:1004E000030300F02580083AC0F0088051F8043B6F
:1004F000083A51F804CBA0E80810F5E7121D5CBFDC
:1005000051F8043B40F8043BAFF30080D20724BF0E
:1005100011F8013B11F801CB48BF11F8012B24BFA2
:1005200000F8013B00F801CB48BF00F8012B7047F1
:1005300010B5203AC0F00B80B1E81850203AA0E87E
:100540001850B1E81850A0E81850BFF4F5AF5FEAB2
:10055000027C24BFB1E81850A0E8185044BF18C965
:1005600018C0BDE810405FEA827C24BF51F8043B0C
:1005700040F8043B08BF7047D20728BF31F8023B60
:1005800048BF11F8012B28BF20F8023B48BF00F8F4
:10059000012B70474FF0000200B513469446964673
:1005A000203922BFA0E80C50A0E80C50B1F1200186
:1005B000BFF4F7AF090728BFA0E80C5048BF0CC034
:1005C0005DF804EB890028BF40F8042B08BF704792
:1005D00048BF20F8022B11F0804F18BF00F8012B04
:1005E000704770477047704710B500F009F8006811
:1005F00010BD10B5044600F003F8046010BD000003
:1006000000487047B028002400487047B0280024F4
:100610007546FFF7F9FFAE4605006946534620F0E0
:100620000700854618B020B5FFF7B4FEBDE82040AE
:100630004FF000064FF000074FF000084FF0000B9E
:1006400021F00701AC46ACE8C009ACE8C009ACE851
:10065000C009ACE8C0098D46704710B50446AFF339
:1006600000802046BDE81040FFF77FBE01491820FA
:10067000ABBEFEE7260002007047000010B50F99E0
:10068000039A0B689A4202D04B689A4215D1BDF882
:1006900038208A819DF837300D9ADFED080A63F320
:1006A0001F6200EE102A3022B8EEC00A20EE200AA7
:1006B00081ED020A03A9FFF73BFF10BD050962396E
:1006C0002DE9F041984614460E460746069D0DF06A
:1006D0004BFF23464246314638460EF005F9214687
:1006E00040460EF035F82B462246314638460CF08F
:1006F0003DFB20460DF09EFF2B46224631463846F4
:1007000002F02CFD224631463846BDE8F0410DF09E
:10071000DDBF00002DE9F0470B462DED0E8B92F862
:10072000421000297ED192F83E1000297AD192F829
:100730003A10012976D1918F4FF47A7903F58066CA
:100740004FF0010C9FEDF70B494502D882F808C025
:10075000A3E1A1F2E93540F2DB57BD4200F5806428
:100760007ED890ED290A9FEDF1DB9FEDF2CB9FED56
:10077000F3BB9FEDF41B9FEDF52B9FEDF63B9FED3B
:10078000F74B9FEDF85B9FEDF96B9FEDFA7B9FEDCB
:10079000FB8B9FEDFC9B9FEDFDABB7EEC00A3DEEE2
:1007A000400BB7EEC00B80ED2A0A90ED520AB7EE6F
:1007B000C00A3CEE400BB7EEC00B80ED530A90ED43
:1007C0007B0AB7EEC00A3BEE400BB7EEC00B80EDE4
:1007D0007C0A90EDA40AB7EEC00A31EE400BB7EEEA
:1007E000C00B80EDA50A90EDCD0AB7EEC00A32EE3F
:1007F000400BB7EEC00B80EDCE0A90EDF60AB7EED7
:10080000C00A33EE400BB7EEC00B80EDF70A94ED53
:100810001F0AB7EEC00A34EE400BB7EEC00B84EDF2
:10082000200A00E0FEE393ED290AB7EEC00A35EE98
:10083000400BB7EEC00B83ED2A0A93ED520AB7EED8
:10084000C00A36EE400BB7EEC00B83ED530A93EDB2
:100850007B0AB7EEC00A37EE400BB7EEC00B00E0E4
:1008600022E083ED7C0A93EDA40AB7EEC00A38EECD
:10087000400BB7EEC00B83EDA50A93EDCD0AB7EEA2
:10088000C00A39EE400BB7EEC00B83EDCE0A93EDF4
:10089000F60AB1EE400A83EDF70A96ED1F0AB7EEAD
:1008A000C00A3AEE400B58E30025A1F6C518B8453A
:1008B0001FD89FEDB8EB9FEDB9DB9FEDBA1B9FED05
:1008C000BB2B9FEDBC3B9FEDBD4B9FEDBE5B9FEDFA
:1008D000BF6B9FEDC07B9FEDC18B9FEDC29B9FEDDA
:1008E000C3AB9FEDC4BB9FEDC5CB157290ED290A3C
:1008F000ABE24FF4FA7AA1F6A178D04508D282F89B
:1009000029C080F824C582F82CC083F824C528E3C8
:10091000A1F58858A8F195089FEDBA1BC84552D299
:1009200090ED294A9FEDB95B9FEDBA0B9FEDBB6B34
:100930009FEDBC7B9FEDBD2B9FEDBE3BB7EEC44A48
:1009400031EE441BB7EEC11B80ED2A1A90ED521A0E
:10095000B7EEC11A35EE411BB7EEC11B80ED531A3D
:1009600090ED7B1AB7EEC11A30EE410BB7EEC00B1B
:1009700080ED7C0A90EDA40AB7EEC00A36EE400B7B
:10098000B7EEC00B80EDA50A90EDCD0AB7EEC00A18
:1009900037EE400BB7EEC00B80EDCE0A90EDF60AB5
:1009A000B7EEC00A32EE400BB7EEC00B80EDF70A8F
:1009B00094ED1F0AB7EEC00A33EE400BB7EEC00B42
:1009C00084ED200ACBE3A1F5A858A8F17D08B8452D
:1009D00002D802201072C2E3A1F5D858A8F1590834
:1009E000B84561D890ED292A9FED943B9FED954B3A
:1009F0009FED965B9FED976B9FED987B9FED998B9D
:100A00009FED9A9B9FED9BAB9FED9CBB9FED9DCB7C
:100A10009FED9EDB9FED9FEBB7EEC22A31EE421BAE
:100A2000B7EEC11B80ED2A1A90ED521AB7EEC11A2B
:100A300033EE411BB7EEC11B80ED531A90ED7B1ACC
:100A4000B7EEC11A34EE411BB7EEC11B80ED7C1A24
:100A500090EDA41AB7EEC11A35EE411BB7EEC11BDB
:100A600080EDA51A90EDCD1AB7EEC11A36EE411BF6
:100A7000B7EEC11B80EDCE1A90EDF61AB7EEC11A93
:100A800037EE411BB7EEC11B80EDF71A94ED1F1A2C
:100A9000B7EEC11A38EE411BF9E296ED1F1AB7EE18
:100AA000C11A30EE410B58E2A1F50458A8F13508FF
:100AB000B84505D80DF018FD18460DF015FD4EE3AC
:100AC000A1F51C58A8F11108B84502D882F808C051
:100AD00045E3A1F5305CACF1ED0C9FED701B9FED93
:100AE000713B9FED724B9FED735B9FED746B9FEDC0
:100AF000757B9FED762B9FED778B9FED789B9FED20
:100B000079AB9FED7ABB9FED7BCB9FED7CDB9FEDBF
:100B10007D0BBC4505D800BF90ED29EAB7EECEEAC3
:100B2000F4E06EE14E6210F8C68056C066666666F6
:100B30006666E6BFE6D0220B7FB560C006819503EE
:100B4000A1E24FC06F128380830A4AC0C74B3709A6
:100B5000D2B138C052B81E8579104840333333A320
:100B6000F418674054E3A59BC4187440250681150A
:100B7000626C3340E8FBA9E1E52C644016D9CE77DE
:100B8000BB3954C046B6F37D039751C091ED7C9FAD
:100B9000704D66C0F6285C8FC2751EC0FCA9F1F2CC
:100BA000B9EC63C00C022B0769CC44C0FCA9F1521C
:100BB00018B735C01E85EB51DDED4AC0378941605D
:100BC000D68D3940FA7E6A6C9DB96640DBF97E6A43
:100BD000BC187440E4A59B846282434021B072E853
:100BE0000DA7634079E926B1920C4DC0999999D926
:100BF000FD7850C0355EBA492CABD93FAE47E13ADB
:100C00001C7D66C03108AC1C5A641EC0180456FE18
:100C1000D76C61C03BDF4FCD6DBE45C03D0AD7A349
:100C2000D43509C04E621018E2DF4BC0273108AC42
:100C300085782A40560E2DB2CDD567408FC2F598E3
:100C4000DAF061C054E3A59B23F337C055E3A51B3D
:100C50009D1C3F406DE7FB49BEC854C05EBA490CBD
:100C600076602740E6D0228BF8DE67401904560EE6
:100C70002D587340CFF753E300134140D122DB7965
:100C8000241F584016D9CE77BB3934C04C3789A1C0
:100C9000D9325AC0B072689109CB024021B0726853
:100CA000917D4240A245B6B31F2D57C0F4FDD4F844
:100CB0006F2C36C0DCF97E6AF0B54EC01C5A643B1E
:100CC000330B0B405C8FC275525430C0EA2631881A
:100CD0001DBF36402B8716D9CE636F4021B0726896
:100CE00087D02AC0BA490CC218CD5540F6285C2FCF
:100CF000356E5BC08195438BC16D25C0DD240681B7
:100D0000A74510C0CBA145B69FA01FC031EE4E1B1A
:100D1000B7EEC11B80ED2A1A90ED521AB7EEC11A38
:100D200033EE411BB7EEC11B80ED531A90ED7B1AD9
:100D3000B7EEC11A34EE411BB7EEC11B80ED7C1A31
:100D400090EDA41AB7EEC11A35EE411BB7EEC11BE8
:100D500080EDA51A90EDCD1AB7EEC11A36EE411B03
:100D6000B7EEC11B80EDCE1A90EDF61AB7EEC11AA0
:100D700037EE411BB7EEC11B80EDF71A94ED1F1A39
:100D8000B7EEC11A32EE411BB7EEC11B84ED201A3B
:100D900093ED291AB7EEC11A38EE411BB7EEC11B0D
:100DA00083ED2A1A93ED521AB7EEC11A39EE411BA0
:100DB000B7EEC11B83ED531A93ED7B1AB7EEC11A40
:100DC0003AEE411BB7EEC11B83ED7C1A93EDA41ADA
:100DD000B7EEC11A3BEE411BB7EEC11B83EDA51A5E
:100DE00093EDCD1AB7EEC11A3CEE411BB7EEC11B15
:100DF00083EDCE1A93EDF61AB7EEC11A3DEE411B04
:100E000083E1A1F5485CACF1C90CBC457ED890EDFE
:100E1000290A9FEDD6EB9FEDD7DB9FEDD81B9FED09
:100E2000D92B9FEDDA3B9FEDDB4B9FEDDC5B9FED1C
:100E3000DD6B9FEDDE7B9FEDDF8B9FEDE09B9FEDFC
:100E4000E1AB9FEDE2BB9FEDE3CBB7EEC00A3EEE18
:100E5000400BB7EEC00B80ED2A0A90ED520AB7EEB8
:100E6000C00A3DEE400BB7EEC00B80ED530A90ED8B
:100E70007B0AB7EEC00A31EE400BB7EEC00B80ED37
:100E80007C0A90EDA40AB7EEC00A32EE400BB7EE32
:100E9000C00B80EDA50A90EDCD0AB7EEC00A33EE87
:100EA000400BB7EEC00B80EDCE0A90EDF60AB7EE20
:100EB000C00A34EE400BB7EEC00B80EDF70A94ED9C
:100EC0001F0AB7EEC00A35EE400BB7EEC00B84ED3B
:100ED000200A93ED290AB7EEC00A36EE400BB7EEB2
:100EE000C00B83ED2A0A93ED520AB7EEC00A37EE23
:100EF000400BB7EEC00B83ED530A93ED7B0AB7EEC0
:100F0000C00A38EE400BB7EEC00B00E02AE083EDDC
:100F10007C0A93EDA40AB7EEC00A39EE400BB7EE97
:100F2000C00B83EDA50A93EDCD0AB7EEC00A3AEEE9
:100F3000400BB7EEC00B83EDCE0A93EDF60AB7EE89
:100F4000C00A3BEE400BB7EEC00B83EDF70A96EDFF
:100F50001F0AB7EEC00A3CEE400BB7EEC00B86EDA1
:100F6000200AFCE0A1F5605CACF1A50CBC451ED8E4
:100F700090ED290A9FED99EB9FED9ADB9FED9B1B6E
:100F80009FED9C2B9FED9D3B9FED9E4B9FED9F5BAF
:100F90009FEDA06B9FEDA17B9FEDA28B9FEDA39B8F
:100FA0009FEDA4AB9FEDA5BB9FEDA6CB4DE76FF4E6
:100FB0007A5C8C44BCF52F7F08D282F8295080F8E7
:100FC000245582F82C5083F82455C8E0A1F5824CB2
:100FD000ACF13D0CBCF5487F7ED290ED293A9FEDF7
:100FE0009B4B9FED9C5B9FED9D6B9FED9E7B9FEDD3
:100FF0009F8B9FEDA09B9FEDA1AB9FEDA2BB9FEDB3
:10100000A3CB9FEDA4DB9FEDA5EBB7EEC33A31EE8A
:10101000431BB7EEC11B80ED2A1A90ED521AB7EEB2
:10102000C11A00E09EE034EE411BB7EEC11B80ED1B
:10103000531A90ED7B1AB7EEC11A35EE411BB7EE8D
:10104000C11B80ED7C1A90EDA41AB7EEC11A36EEE2
:10105000411BB7EEC11B80EDA51A90EDCD1AB7EE7E
:10106000C11A37EE411BB7EEC11B80EDCE1A90EDD1
:10107000F61AB7EEC11A38EE411BB7EEC11B80ED70
:10108000F71A94ED1F1AB7EEC11A32EE411BB7EEF4
:10109000C11B84ED201A93ED291AB7EEC11A39EE5F
:1010A000411BB7EEC11B83ED2A1A93ED521AB7EE1E
:1010B000C11A3AEE411BB7EEC11B83ED531A93EDF3
:1010C0007B1AB7EEC11A3BEE411BB7EEC11B83ED95
:1010D0007C1A93EDA41A00E01CE0B7EEC11A3CEEB6
:1010E000411BB7EEC11B83EDA51A93EDCD1AB7EEE8
:1010F000C11A3DEE411BB7EEC11B83EDCE1A93ED35
:10110000F61AB7EEC11A3EEE411BB7EEC11B83EDD6
:10111000F71AC2E4A1F5884CACF15D0CBC457FF632
:10112000FBACACF2DC54BC4205D80DF00FFE184607
:101130000DF00CFE13E0A1F5A041153951450ED27A
:10114000B7EE000A82F83A5034320DF015F9B7EED6
:10115000000A18460DF010F9957002F83459908F76
:10116000401C9087BDEC0E8BBDE8F087C3F5285C72
:101170008FE23940273108AC85785AC0759318043E
:10118000C51D56C0B0726851C65F56C0B29DEF27EC
:101190002DD7494021B0726887D01A40B81E85EB20
:1011A000B15512C0295C8FC2F5646F40D9CEF75398
:1011B0005380F03F1C5A64FBFC4C60401E85EB7171
:1011C00005FA61C0448B6CE7D2DD48C079E926316D
:1011D00019E32540D122DBF9AAF51040355EBA4962
:1011E0000CE2394023DBF97E31B35AC0EA2631A83C
:1011F000381E5CC04E6210D8AB2151C0CBA145B6A1
:10120000AC4D414004560E2D3A6BFCBF8FC2F52801
:1012100068A004C01B2FDD2406656F40E27A14AE7F
:10122000FB0A0040BC7493483500634061E5D0A2DE
:10123000996C5EC0D578E926FFBA40C014AE47E18C
:101240008A800BC05EBA490C7660174023DBF95EDA
:10125000165455C0355EBA492CAB59C0C520B07282
:10126000A1F84FC0295C8FC22F5B1A4055E3A51B24
:101270009D1C3FC0A4703D0AD7636F40560E2DB22F
:10128000CDD537C0DBF97E2ABAF76340323333530A
:101290009D275FC0CBA14536267738C04260E5D098
:1012A00028FB18C0F0B50B462DED0E8B92F84210BE
:1012B00001290FD192F83E100029FAD192F83A1084
:1012C0000029F6D1B2F8441001254FF47A7C61452B
:1012D00001D81572E4E2A1F2E93440F2DB57BC42D6
:1012E00003F5806600F580649FEDF20B9FEDF31B24
:1012F0009FEDF42B6CD890ED293A9FEDF46B9FEDA8
:10130000F54B9FEDF65B9FEDF77B9FEDF88B9FED27
:10131000F99B9FEDFAAB9FEDFBBB9FEDFCCB9FEDE7
:10132000FDDB9FEDFEEBB7EEC33A36EE433BB7EE87
:10133000C33B80ED2A3A90ED523AB7EEC33A34EE11
:10134000433BB7EEC33B80ED533A90ED7B3AB7EEAB
:10135000C33A35EE433BB7EEC33B80ED7C3A90EDAC
:10136000A43AB7EEC33A30EE430BB7EEC00B80EDB4
:10137000A50A90EDCD0AB7EEC00A31EE400BB7EEEC
:10138000C00B80EDCE0A90EDF60AB7EEC00A37EE3C
:10139000400BB7EEC00B80EDF70A94ED1F0AB7EED5
:1013A000C00A38EE400BB7EEC00B84ED200A93ED77
:1013B000290AB7EEC00A39EE400BB7EEC00B83ED39
:1013C0002A0A93ED520AB7EEC00A3AEE400BDBE26E
:1013D000A1F6C51EBE451ED890ED290A9FEDD1EBA2
:1013E0009FEDD2DB9FEDD31B9FEDD42B9FEDD53B23
:1013F0009FEDD64B9FEDD75B9FEDD86B9FEDD97BD3
:101400009FEDDA8B9FEDDB9B9FEDDCAB9FEDDDBBB2
:101410009FEDDECB25E0A1F6A17EE6457ED3AEF5BD
:101420007A75BD427BD890ED290A9FEDDAEB9FEDEE
:10143000DBDB9FEDDC1B9FEDDD2B9FEDDE3B9FEDAE
:10144000DF4B9FEDE05B9FEDE16B9FEDE27B9FED5E
:10145000E38B9FEDE49B9FEDE5AB9FEDE6BB9FED3E
:10146000E7CBB7EEC00A3EEE400BB7EEC00B80ED07
:101470002A0A90ED520AB7EEC00A3DEE400BB7EED5
:10148000C00B80ED530A90ED7B0AB7EEC00A31EE37
:10149000400BB7EEC00B80ED7C0A90EDA40AB7EECE
:1014A000C00A32EE400BB7EEC00B80EDA50A90EDFE
:1014B000CD0AB7EEC00A33EE400BB7EEC00B80ED9D
:1014C000CE0A90EDF60AB7EEC00A34EE400BB7EE46
:1014D000C00B80EDF70A94ED1F0AB7EEC00A35EE97
:1014E000400BB7EEC00B84ED200A93ED290AB7EE4E
:1014F000C00A36EE400BB7EEC00B83ED2A0A93ED1F
:10150000520AB7EEC00A37EE400BB7EEC00B83EDC0
:10151000530A93ED7B0AB7EEC00A01E094E22AE099
:1015200038EE400BB7EEC00B83ED7C0A93EDA40AB6
:10153000B7EEC00A39EE400BB7EEC00B83EDA50A3B
:1015400093EDCD0AB7EEC00A3AEE400BB7EEC00BF2
:1015500083EDCE0A93EDF60AB7EEC00A3BEE400BE0
:10156000B7EEC00B83EDF70A96ED1F0AB7EEC00A7F
:101570003CEE400B5EE3A1F5C855653DBD427CD80D
:1015800090ED290A9FED9FDB9FEDA0CB9FEDA1BBC6
:101590009FEDA21B9FEDA32B9FEDA43B9FEDA54BC1
:1015A0009FEDA65B9FEDA76B9FEDA87B9FEDA98BA1
:1015B0009FEDAA9B9FEDABABB7EEC00A6FF4E15174
:1015C0003DEE400BB7EEC00B80ED2A0A90ED520ABB
:1015D000B7EEC00A3CEE400BB7EEC00B80ED530AED
:1015E00090ED7B0AB7EEC00A3BEE400BB7EEC00BA6
:1015F00080ED7C0A90EDA40AB7EEC00A31EE400BF4
:10160000B7EEC00B80EDA50A90EDCD0AB7EEC00A8B
:1016100032EE400BB7EEC00B80EDCE0A90EDF60A2D
:10162000B7EEC00A33EE400BB7EEC00B80EDF70A01
:1016300094ED1F0AB7EEC00A34EE400BB7EEC00BB4
:1016400084ED200A93ED290AB7EEC00A35EE400B6F
:10165000B7EEC00B83ED2A0A93ED520AB7EEC00A2B
:1016600036EE400BB7EEC00B83ED530A93ED7B0AC9
:10167000B7EEC00A37EE400B00E012E1B7EEC00B48
:1016800083ED7C0A93EDCD0AB7EEC00A38EE400B2D
:10169000B7EEC00B83EDCE0A93EDF60AB7EEC00AA3
:1016A00039EE400BB7EEC00B83EDF70A96ED1F0A3B
:1016B000DCE00000976E12038A544BC0976E1283D1
:1016C000102B24408D976E22D2436040B0726891F7
:1016D000EDDC35C014AE47A147155FC0CECCCCCCF5
:1016E00049834FC0759318843E474D40C3F5283C4D
:1016F000DCB65A40D34D6210584D734095438B6C05
:1017000066483440E6D0221B868E5AC08716D9CE52
:10171000BF152540D9CEF753538050407D3F358EBD
:101720009C8D66C0F2D24D6210383EC02DB29D3FF6
:10173000DB1162C0C976BEDF38294CC0560E2DB20F
:10174000CDD537C0B072689109CB1240EC51B85E6C
:1017500084364A40CDCCCC4CD05958409EEFA7C6D9
:101760004B4D7340D44D6210482B3F401283C08ACA
:101770009D325F4016D9CE77BB3954C06F1283C0FB
:10178000C6753640D122DB79241F48404260E510FF
:101790006C6665C037894160E5303EC0FED478791B
:1017A000D61F61C0C976BE9F026B41C00AD7A3F0A5
:1017B000BEE934C05A643BDF219B17C008AC1CDA79
:1017C000140745408B6CE7BBD06F5840333333333D
:1017D00033D57240CDCCCCCC56303140D678E9C62A
:1017E00093435D4089416025AD6351C016D9CEF762
:1017F00034632B409DEFA74688FC3A40FCA9F122B8
:10180000E9D164C023DBF97E6AFC2A40CFF753B3E9
:10181000D12D60C0EC51B81E41CB0DC01A2FDD6434
:10182000CC9347C01C5A647B76764740E4A59BC4A2
:1018300098401EC07F6ABC74178B15C0C74B378990
:1018400041646F40D122DBF9AAF530407B14AE072A
:10185000805A49401C5A643B330B0BC04E621058EF
:10186000254B18C07F6ABC74178B0540B7EEC00AC1
:101870003AEE400BB7EEC00B86ED200AB2F84400FA
:101880000844B0F5487F0BD293EDA41A9FEDFA0BF4
:10189000B7EEC11A30EE410BB7EEC00B83EDA50ACF
:1018A000C0E26FF4FA550D44BD427CD890ED290A90
:1018B0009FEDF3AB9FEDF43B9FEDF54B9FEDF65B9A
:1018C0009FEDF76B9FEDF87B9FEDF98B9FEDFA9BFA
:1018D0009FEDFBBB9FEDFCCB9FEDFDDB9FEDFEEB9A
:1018E000B7EEC00A3AEE400BB7EEC00B80ED2A0A05
:1018F00090ED520AB7EEC00A33EE400BB7EEC00BC4
:1019000080ED530A90ED7B0AB7EEC00A34EE400B2F
:10191000B7EEC00B80ED7C0A90EDA40AB7EEC00ACA
:1019200035EE400BB7EEC00B80EDA50A90EDCD0A69
:10193000B7EEC00A36EE400BB7EEC00B80EDCE0A14
:1019400090EDF60AB7EEC00A37EE400BB7EEC00BCB
:1019500080EDF70A94ED1F0AB7EEC00A38EE400B8F
:10196000B7EEC00B84ED200A93ED290AB7EEC00A4A
:1019700039EE400BB7EEC00B83ED2A0A93ED520A05
:10198000B7EEC00A31EE400BB7EEC00B83ED530A41
:1019900093ED7B0AB7EEC00A32EE400BB7EEC00BF8
:1019A00083ED7C0A00E024E093EDA40AB7EEC00AC0
:1019B0003BEE400BB7EEC00B83EDA50A93EDCD0ACD
:1019C000B7EEC00A3CEE400BB7EEC00B83EDCE0A7B
:1019D00093EDF60AB7EEC00A3DEE400BB7EEC00B32
:1019E00083EDF70A96ED1F0AB7EEC00A3EEE400BF4
:1019F00020E1A1F514551D3DBD421ED890ED290AE8
:101A00009FEDB7EB9FEDB8DB9FEDB91B9FEDBA2BB8
:101A10009FEDBB3B9FEDBC4B9FEDBD5B9FEDBE6B58
:101A20009FEDBF7B9FEDC08B9FEDC19B9FEDC2AB38
:101A30009FEDC3BB9FEDC4CB13E5A1F5285C00254A
:101A4000ACF1F90CBC4508D882F8295080F824552F
:101A500082F82C5083F82455E4E1A1F5405CACF108
:101A6000D50C9FEDBB1B9FEDBC2BBC453AD890ED30
:101A7000293A9FEDBB4B9FEDBC5B9FEDBD6B9FED8E
:101A8000BE7B9FEDBF8B9FEDC09B9FEDC1AB9FEDDC
:101A9000C2BB9FEDC3CB9FEDC4DB9FEDC5EBB7EEA3
:101AA000C33A34EE433BB7EEC33B80ED2A3A90EDA8
:101AB000523AB7EEC33A35EE433BB7EEC33B80ED47
:101AC000533A90ED7B3AB7EEC33A36EE433BB7EE6E
:101AD000C33B80ED7C3A90EDA43AB7EEC33A30EECA
:101AE000430B41E0A1F5585CACF1B10CBC457CD88E
:101AF00090ED290A9FEDB03B9FEDB14B9FEDB25B9E
:101B00009FEDB36B9FEDB47B9FEDB58B9FEDB69BC7
:101B10009FEDB7AB9FEDB8BB9FEDB9CB9FEDBADBA7
:101B20009FEDBBEBB7EEC00A33EE400BB7EEC00B38
:101B300080ED2A0A90ED520AB7EEC00A34EE400B4F
:101B4000B7EEC00B80ED530A90ED7B0AB7EEC00AEA
:101B500035EE400BB7EEC00B80ED7C0A90EDA40A89
:101B6000B7EEC00A36EE400BB7EEC00B80EDA50A0B
:101B700090EDCD0AB7EEC00A37EE400BB7EEC00BC2
:101B800080EDCE0A90EDF60AB7EEC00A38EE400BB3
:101B9000B7EEC00B80EDF70A94ED1F0AB7EEC00A4E
:101BA00031EE400BB7EEC00B84ED200A93ED290A0D
:101BB000B7EEC00A39EE400BB7EEC00B83ED2A0A30
:101BC00093ED520AB7EEC00A3AEE400BB7EEC00BE7
:101BD00083ED530A93ED7B0AB7EEC00A3BEE400B50
:101BE000B7EEC00B83ED7C0A00E028E093EDA40A79
:101BF000B7EEC00A3CEE400BB7EEC00B83EDA50A72
:101C000093EDCD0AB7EEC00A3DEE400BB7EEC00B28
:101C100083EDCE0A93EDF60AB7EEC00A3EEE400B16
:101C2000B7EEC00B83EDF70A96ED1F0AB7EEC00AB8
:101C300032EE400BB7EEC00B86ED200AF2E0A1F5C4
:101C400070548D3CBC4205D80DF080F818460DF05C
:101C50007DF8E7E0A1F584416939B1F5FA7F09D251
:101C6000B7EE000A82F8425034320CF085FBB7EE32
:101C7000000AD1E0D6E00000FCA9F132F0AA5EC073
:101C80005C8FC2F5287C3040EE7C3FD58CE35BC096
:101C90001283C04A677454C01804562E075252C0AB
:101CA00089416065E3214C40E04F8D97447B1E40A5
:101CB00014AE47E18A800B409CC420B0727670401D
:101CC000E4A59BC498405EC01804564E22B147C09C
:101CD000CBA145B69FA02F403108AC1CD8E519C058
:101CE000CFF753E3A57B304079E926B1920C5DC074
:101CF00091ED7CBF8BAC5BC0894160A5268D48C04F
:101D0000D7A370BD22C747405A643B5FA87130C05B
:101D10006F1283C0C67516C014AE47E17A76704064
:101D2000508D976ECF2D28406F1283000AE16240DC
:101D3000FCA9F112D54B59C008AC1C1A587241C00D
:101D4000E8FBA9F1EC051EC014AE47E18A80FBBF99
:101D5000DD240681A74510C0BE9F1A2FB0FD21C00B
:101D60007B14AE47E17A3040AAF1D26D268258C08A
:101D7000BA490CE2332C5BC0894160A5268D4840EE
:101D8000DE2406819A982EC004560E2DB27770403C
:101D90001E85EB51DDED2AC0BC74937864E5634089
:101DA00016D9CEF734635BC07F6ABCF490B43CC0F4
:101DB000C1CAA1455AE021C096438B6CE77B3040F5
:101DC0007B14AE07805A59C09BC42030DE193BC03B
:101DD000B072681183F449C0976E1283102BE43FF0
:101DE0005EBA490C766017C0C1CAA145B67770408B
:101DF0000C022B87E2F50BC0BC7493D8C2AF5540E0
:101E00002B8716797B7358C0D122DBF9AAF50040E5
:101E1000CFF753E3001321C018460CF0ADFA9570CC
:101E200002F83459B2F84400401CA2F84400BDEC5A
:101E30000E8BF0BD2DE9F04704460B462DED0E8BC1
:101E400092F8420000287DD192F83E00012879D115
:101E500092F83A00002875D1B2F840004FF4487A61
:101E600050450AD8B7EE080A20460CF085FAB7EEBE
:101E7000080A18460CF080FA62E3A0F221314FF014
:101E80000209B1F5966FDFEDFE0A24D2B0EE600ACA
:101E9000204682F808900CF06FFAB0EE600A1846FF
:101EA0000CF06AFA94ED291A9FEDF62B9FEDF70BD3
:101EB000B7EEC11A32EE411BB7EEC11B84ED2A1AF0
:101EC00093ED291AB7EEC11A30EE410BB7EEC00BF5
:101ED00083ED2A0A60E300254FF0010CA0F2D171D6
:101EE000B1F57A7F03D2157282F835C054E3A0F6BB
:101EF000B93740F2DB56B74203F5806104F58067DD
:101F00009FEDE41B9FEDE52B7ED89FEDE60B9FED4B
:101F1000E73B9FEDE84B9FEDE95B9FEDEA6B9FEDA3
:101F2000EB7B9FEDEC8B9FEDED9B9FEDEEAB9FED83
:101F3000EFBB9FEDF0CB9FEDF1DB82F8355094EDD8
:101F400029EA00E02DE3B7EECEEA30EE4E0BB7EE15
:101F5000C00B84ED2A0A94ED520AB7EEC00A33EEA4
:101F6000400BB7EEC00B84ED530A94ED7B0AB7EE3D
:101F7000C00A34EE400BB7EEC00B84ED7C0A94ED42
:101F8000A40AB7EEC00A35EE400BB7EEC00B84EDE5
:101F9000A50A94EDCD0AB7EEC00A36EE400BB7EEB7
:101FA000C00B84EDCE0A94EDF60AB7EEC00A37EE08
:101FB000400BB7EEC00B84EDF70A97ED1F0AB7EEA2
:101FC000C00A38EE400BB7EEC00B87ED200A93ED48
:101FD000290AB7EEC00A39EE400BB7EEC00B83ED0D
:101FE0002A0A93ED520AB7EEC00A3AEE400BB7EE5A
:101FF000C00B83ED530A93ED7B0AB7EEC00A3BEEAC
:10200000400BB7EEC00B00E026E083ED7C0A93EDB9
:10201000A40AB7EEC00A3CEE400BB7EEC00B83ED4E
:10202000A50A93EDCD0AB7EEC00A3DEE400BB7EE20
:10203000C00B83EDCE0A93EDF60AB7EEC00A31EE7F
:10204000400BB7EEC00B83EDF70A91ED1F0AB7EE18
:10205000C00A32EE400B5DE2A0F58858A8F1950861
:102060009FEDA83BB0457CD894ED290A9FEDA74B86
:102070009FEDA85B9FEDA96B9FEDAA7B9FEDAB8BBE
:102080009FEDAC9B9FEDADAB9FEDAEBB9FEDAFCB9E
:102090009FEDB0DB9FEDB1EBB7EEC00A34EE400B25
:1020A000B7EEC00B84ED2A0A94ED520AB7EEC00ACF
:1020B00032EE400BB7EEC00B84ED530A94ED7B0A71
:1020C000B7EEC00A35EE400BB7EEC00B84ED7C0ACC
:1020D00094EDA40AB7EEC00A36EE400BB7EEC00B83
:1020E00084EDA50A94EDCD0AB7EEC00A37EE400B99
:1020F000B7EEC00B84EDCE0A94EDF60AB7EEC00A37
:1021000038EE400BB7EEC00B84EDF70A97ED1F0ACF
:10211000B7EEC00A31EE400BB7EEC00B87ED200AD8
:1021200093ED290AB7EEC00A33EE400BB7EEC00BB1
:1021300083ED2A0A93ED520AB7EEC00A39EE400B3E
:10214000B7EEC00B83ED530A93ED7B0AB7EEC00ADE
:102150003AEE400BB7EEC00B83ED7C0A93EDA40A78
:1021600000E022E0B7EEC00A3BEE400BB7EEC00B3A
:1021700083EDA50A93EDCD0AB7EEC00A3CEE400B05
:10218000B7EEC00B83EDCE0A93EDF60AB7EEC00AA8
:102190003DEE400BB7EEC00B83EDF70A91ED1F0A41
:1021A000B7EEC00A3EEE400BB4E1A0F5B858A8F176
:1021B0007108D04514D2DFED6B0A82F829C02046A1
:1021C00084F824C582F82CC0B0EE600A83F824C5D8
:1021D0000CF0D2F8B0EE600A18460CF0CDF8DBE156
:1021E000A0F5D058A8F19108B8F52F7F46D293ED0D
:1021F000294A9FED5D2B9FED5E6B9FED5F1B9FED71
:10220000605B9FED617B9FED620BB7EEC44A33EEDE
:10221000443BB7EEC33B83ED2A3A93ED523AB7EE17
:10222000C33A32EE432BB7EEC22B83ED532A93ED24
:102230007B2AB7EEC22A36EE422BB7EEC22B83EDD5
:102240007C2A93EDA42AB7EEC22A31EE421BB7EEE8
:10225000C11B83EDA51A93EDCD1AB7EEC11A35EE69
:10226000411BB7EEC11B83EDCE1A93EDF61AB7EE04
:10227000C11A37EE411BB7EEC11B8DE095E000009F
:102280003333333F77BE9F1A2FDD33C05C8FC2F5E7
:10229000287071401C5A643B330B2B406DE7FB19CF
:1022A0008FE363C0448B6CE7FB6945C08B6CE76BC5
:1022B000862B62C0F853E305A99250C02DB29D6FE2
:1022C0000AF732C0AE47E13A1C7D4640EC51B81ED9
:1022D00041CB4D40DE2406819A982E40560E2DB2F9
:1022E0009DED72405839B4C877B837403D0AD7637E
:1022F00091CA5C403108ACFCBC8654C021B0726805
:1023000087D04A40BE9F1A2FDD007440C520B072AE
:1023100068D148C09BC42050062652C023DBF97EFA
:1023200031B32A40BE9F1AAF292749400AD7A330AC
:10233000025541408B6CE7FB13DB4440068195A3BB
:1023400042185E4048E17AD4E3374CC0F6285CEF8F
:10235000FEAF504052B81E8579102840295C8F721C
:10236000E51664C0CDCC0C3F4D3789C1F4913F4098
:102370009BC42030DE195B4020B0722844654EC0FB
:102380004D3789C1F4914F408195438BC16D2540F4
:1023900079E926D1BA1864C083EDF71A91ED1F1AB6
:1023A000B7EEC11A30EE410BB4E0A0F5E858A8F141
:1023B0004D08B04502D882F808C0EDE0A0F50C5CED
:1023C000ACF1290CB4457CD894ED290A9FED77EB4C
:1023D0009FED78DB9FED791B9FED7A2B9FED7B3B8B
:1023E0009FED7C4B9FED7D5B9FED7E6B9FED7F7B3B
:1023F0009FED808B9FED819B9FED82AB9FED83BB1B
:102400009FED84CBB7EEC00A3EEE400BB7EEC00B9B
:1024100084ED2A0A94ED520AB7EEC00A3DEE400B55
:10242000B7EEC00B84ED530A94ED7B0AB7EEC00AF9
:1024300031EE400BB7EEC00B84ED7C0A94EDA40A9C
:10244000B7EEC00A32EE400BB7EEC00B84EDA50A22
:1024500094EDCD0AB7EEC00A33EE400BB7EEC00BD9
:1024600084EDCE0A94EDF60AB7EEC00A34EE400BC6
:10247000B7EEC00B84EDF70A97ED1F0AB7EEC00A5E
:1024800035EE400BB7EEC00B87ED200A93ED290A1D
:10249000B7EEC00A36EE400BB7EEC00B83ED2A0A4A
:1024A00093ED520AB7EEC00A37EE400BB7EEC00B01
:1024B00083ED530A93ED7B0AB7EEC00A38EE400B6A
:1024C00000E02CE0B7EEC00B83ED7C0A93EDA40A8C
:1024D000B7EEC00A39EE400BB7EEC00B83EDA50A8C
:1024E00093EDCD0AB7EEC00A3AEE400BB7EEC00B43
:1024F00083EDCE0A93EDF60AB7EEC00A3BEE400B31
:10250000B7EEC00B83EDF70A91ED1F0AB7EEC00AD4
:102510003CEE400BB7EEC00B81ED200A3CE0A0F58D
:1025200024510539B14212D8B0EE600A20460BF0B2
:1025300023FFB0EE600A18460BF01EFF82F83590BC
:1025400020460BF0D1FF18460BF0CEFF24E0A0F59B
:102550003851E139B14204D882F8355082F80890F8
:102560001AE0A0F55050BD38B0F5FA7F14D2B7EE9E
:10257000000A204682F83E500BF0FEFEB7EE000A3D
:1025800018460BF0F9FE82F8365082F83450157771
:1025900084F80C5583F80C55B2F84000401CA2F8A2
:1025A0004000BDEC0E8BBDE8F0870000EE7C3F35AF
:1025B0005EFA47C0FA7E6A9CCC9E57C0DE24068134
:1025C0009A984EC08D976E12BEBD24C085EB51B84F
:1025D00015334540560E2DB2CDD527408716D9CE9E
:1025E000BF15F53FC520B07268C1724052B81E8554
:1025F000791018C08D976EF295B15D4085EB51183A
:1026000074FD56C00E2DB21D13AF54C0FCA9F1527B
:1026100018B73540F4FDD478E955AD3F70B50D4697
:1026200092F93610144606460022012029B10129EC
:1026300022D1218F012937D058E096F80C15C9070F
:102640001AD195F80C15C90716D1324B194693F8D3
:10265000375091F83A3091F83610012D0DD0BDB1B8
:102660000AD1012908D1012B06D184F8360022872E
:1026700084F83E00A4F8402070BD0029F1D1012B60
:10268000FAD184F83600228784F83A00A28770BD18
:102690000129FCD1012BFAD184F83600228784F875
:1026A0004200A4F8442070BD84F834002934284640
:1026B0000AF022FB30460AF01FFB28460CF046FBCE
:1026C00030460CF043FBDFED140A3046B0EE600AF2
:1026D0000BF052FEB0EE600A28460BF04DFE227061
:1026E00086F82425E270293C85F8242522462946CF
:1026F0003046FEF70FF8224629463046FEF7D2FD57
:10270000224629463046FFF795FB208F401C208744
:1027100070BD0000B8100024CDCC4C3FF0B505468C
:1027200090F80C0516460C46C00774D194F80C05B9
:10273000C00770D195F810050023384A01279FED96
:10274000361A60BB95F8140548BB114692F837C09D
:10275000BCF1010F91F8390091F8361003D0BCF1AB
:10276000000F08D01BE0D1B9012818D185F81075E9
:10277000A5F8123507E0012911D101280FD185F8FC
:102780001475A5F816352846B0EE410A0BF0F4FD95
:1027900028460AF0B1FA86F8293085F8243594F8ED
:1027A000100560BB94F8140548BB92F83700012867
:1027B00001D060B123E092F8360000BB92F83800F7
:1027C00001281CD184F81075A4F812350BE092F89A
:1027D0003600012813D192F8380001280FD184F86F
:1027E0001475A4F816352046B0EE410A0BF0C4FD6E
:1027F00020460AF081FA86F82C3084F824353246D7
:102800002146284600F002FA324621462846BDE815
:10281000F04000F005B8F0BD3333333FB81000246A
:1028200030B591F810050B4601287DD193F81405B9
:10283000002879D1B3F8120503F5806140F2DC5429
:102840009FEDBC0BA04244D893ED291A9FEDBB7BB2
:102850009FEDBC6B9FEDBD3B9FEDBE4B9FEDBF5B06
:102860009FEDC02BB7EEC11A37EE411BB7EEC11B6F
:1028700083ED2A1A93ED521AB7EEC11A36EE411BB8
:10288000B7EEC11B83ED531A93ED7B1AB7EEC11A55
:1028900033EE411BB7EEC11B83ED7C1A93EDA41AF6
:1028A000B7EEC11A34EE411BB7EEC11B83EDA51A7A
:1028B00093EDCD1AB7EEC11A35EE411BB7EEC11B31
:1028C00083EDCE1A93EDF61AB7EEC11A32EE411B24
:1028D0004BE0A0F2DD5540F2DB54A54250D893ED19
:1028E000291A9FEDA27B9FEDA36B9FEDA44B9FED5B
:1028F000A53B9FEDA62B9FEDA75BB7EEC11A37EE68
:10290000411BB7EEC11B83ED2A1A93ED521AB7EEA5
:10291000C11A36EE411BB7EEC11B83ED531A93ED7E
:102920007B1AB7EEC11A00E002E134EE411BB7EEAC
:10293000C11B83ED7C1A93EDA41AB7EEC11A33EED6
:10294000411BB7EEC11B83EDA51A93EDCD1AB7EE6F
:10295000C11A32EE411BB7EEC11B83EDCE1A93EDC7
:10296000F61AB7EEC11A35EE411BB7EEC11B83ED67
:10297000F71A91ED1F1AB7EEC11A30EE410BB6E00F
:10298000A0F6B935A54250D893ED291A9FED837B67
:102990009FED844B9FED856B9FED860B9FED872B05
:1029A0009FED885B9FED893BB7EEC11A37EE411B67
:1029B000B7EEC11B83ED2A1A93ED521AB7EEC11A76
:1029C00034EE411BB7EEC11B83ED531A93ED7B1A16
:1029D000B7EEC11A36EE411BB7EEC11B83ED7C1A70
:1029E00093EDA41AB7EEC11A30EE410BB7EEC00B4F
:1029F00083EDA50A93EDCD0AB7EEC00A32EE400B87
:102A0000B7EEC00B83EDCE0A93EDF60AB7EEC00A1F
:102A100035EE400BB7EEC00B83EDF70A91ED1F0AC0
:102A2000B7EEC00A33EE400B61E0A0F58855953D46
:102A3000B5F52F7F05D2012082F82C0083F82405FC
:102A400071E0A0F5A052513AB2F5487F54D293ED0F
:102A5000290A9FED607B9FED616B9FED624B9FEDBF
:102A6000632B9FED641B9FED653B9FED665BB7EEAF
:102A7000C00A37EE400BB7EEC00B83ED2A0A93ED88
:102A8000520AB7EEC00A36EE400BB7EEC00B83ED2C
:102A9000530A93ED7B0AB7EEC00A34EE400BB7EE53
:102AA000C00B83ED7C0A93EDA40AB7EEC00A32EEA8
:102AB000400BB7EEC00B83EDA50A93EDCD0AB7EE40
:102AC000C00A31EE400BB7EEC00B83EDCE0A93ED9A
:102AD000F60AB7EEC00A33EE400BB7EEC00B83ED3B
:102AE000F70A91ED1F0AB7EEC00A35EE400BB7EEBC
:102AF000C00B81ED200A16E0A0F5B8517139A14252
:102B000003D818460CF022F90DE0A0F5E8504D3836
:102B1000B0F5FA7F07D2002083F81005B7EE000A5F
:102B200018460BF029FCB3F81205401CA3F8120557
:102B300030BD0000CBA145B69FA01FC02B8716D982
:102B4000CE636F4021B0726887D02AC0BA490CC2E8
:102B500018CD5540F6285C2F356E5BC08195438BB0
:102B6000C16D25C0DD240681A74510C0A4703D0AB3
:102B7000D7636F40560E2DB2CDD537C0DBF97E2A14
:102B8000BAF76340323333539D275FC0CBA145363C
:102B9000267738C04260E5D028FB18C01B2FDD2403
:102BA00006656F40E27A14AEFB0A0040BC7493489D
:102BB0003500634061E5D0A2996C5EC0D578E92606
:102BC000FFBA40C014AE47E18A800BC05EBA490C20
:102BD00076601740295C8FC2F5646F40D9CEF753F9
:102BE0005380F03F1C5A64FBFC4C60401E85EB7127
:102BF00005FA61C0448B6CE7D2DD48C079E9263123
:102C000019E32540D122DBF9AAF5104030B503467F
:102C100090F8100501287DD193F81405002879D18A
:102C2000B3F8120503F5806140F2DC549FEDBB0B55
:102C30009FEDBC1BA04242D893ED292A9FEDBB4BD0
:102C40009FEDBC3B9FEDBD5B9FEDBE7B9FEDBF6BE2
:102C5000B7EEC22A30EE420BB7EEC00B83ED2A0A64
:102C600093ED520AB7EEC00A34EE400BB7EEC00B3C
:102C700083ED530A93ED7B0AB7EEC00A33EE400BA7
:102C8000B7EEC00B83ED7C0A93EDA40AB7EEC00A41
:102C900035EE400BB7EEC00B83EDA50A93EDCD0AE0
:102CA000B7EEC00A37EE400BB7EEC00B83EDCE0A8D
:102CB00093EDF60AB7EEC00A36EE400B49E0A0F2FB
:102CC000DD5540F2DB54A5424ED893ED292A9FED05
:102CD000A16B9FEDA24B9FEDA37B9FEDA43B9FEDCE
:102CE000A55BB7EEC22A30EE420BB7EEC00B83ED08
:102CF0002A0A93ED520AB7EEC00A36EE400BB7EE41
:102D0000C00B83ED530A93ED7B0AB7EEC00A34EE95
:102D1000400B00E000E1B7EEC00B83ED7C0A93EDC1
:102D2000A40AB7EEC00A37EE400BB7EEC00B83ED36
:102D3000A50A93EDCD0AB7EEC00A33EE400BB7EE0D
:102D4000C00B83EDCE0A93EDF60AB7EEC00A35EE5E
:102D5000400BB7EEC00B83EDF70A91ED1F0AB7EEFB
:102D6000C00A31EE400BB6E0A0F6B935A54250D806
:102D700093ED293A9FED817B9FED825B9FED832B45
:102D80009FED846B9FED850B9FED861B9FED874B21
:102D9000B7EEC33A37EE433BB7EEC33B83ED2A3A77
:102DA00093ED523AB7EEC33A35EE433BB7EEC33B31
:102DB00083ED533A93ED7B3AB7EEC33A32EE432BB1
:102DC000B7EEC22B83ED7C2A93EDA42AB7EEC22A7C
:102DD00036EE422BB7EEC22B83EDA52A93EDCD2A1A
:102DE000B7EEC22A30EE420BB7EEC00B83EDCE0A2F
:102DF00093EDF60AB7EEC00A31EE400BB7EEC00B0A
:102E000083EDF70A91ED1F0AB7EEC00A34EE400BCE
:102E100061E0A0F58855953DB5F52F7F05D20120DD
:102E200082F8290083F8240571E0A0F5A052513AF8
:102E3000B2F5487F54D293ED290A9FED5E7B9FED5A
:102E40005F5B9FED603B9FED614B9FED621B9FEDD4
:102E5000636B9FED642BB7EEC00A37EE400BB7EE05
:102E6000C00B83ED2A0A93ED520AB7EEC00A35EE85
:102E7000400BB7EEC00B83ED530A93ED7B0AB7EE20
:102E8000C00A33EE400BB7EEC00B83ED7C0A93ED26
:102E9000A40AB7EEC00A34EE400BB7EEC00B83EDC8
:102EA000A50A93EDCD0AB7EEC00A31EE400BB7EE9E
:102EB000C00B83EDCE0A93EDF60AB7EEC00A36EEEC
:102EC000400BB7EEC00B83EDF70A91ED1F0AB7EE8A
:102ED000C00A32EE400BB7EEC00B81ED200A16E0BF
:102EE000A0F5B8517139A14203D818460BF02EFF56
:102EF0000DE0A0F5E8504D38B0F5FA7F07D200207C
:102F000083F81005B7EE000A18460BF035FAB3F84F
:102F10001205401CA3F8120530BD000021B07268F4
:102F2000917D4240EA2631881DBF3640A245B6B3A6
:102F30001F2D57C0F4FDD4F86F2C36C0DCF97E6A23
:102F4000F0B54EC01C5A643B330B0B405C8FC2750E
:102F5000525430C023DBF95E165455C0355EBA4971
:102F60002CAB59C0C520B072A1F84FC0295C8FC2EC
:102F70002F5B1A4055E3A51B9D1C3FC0355EBA4927
:102F80000CE2394023DBF97E31B35AC0EA2631A87E
:102F9000381E5CC04E6210D8AB2151C0CBA145B6E3
:102FA000AC4D414004560E2D3A6BFCBF8FC2F52844
:102FB00068A004C0C3F5285C8FE23940273108AC13
:102FC00085785AC075931804C51D56C0B0726851F3
:102FD000C65F56C0B29DEF272DD7494021B0726819
:102FE00087D01A40B81E85EBB15512C0FEE700002D
:102FF00030B59BB00546302201466846FDF798FA89
:10300000134C94E80F0007F07BF93022294601A801
:10301000FDF78EFAE06800900DA894E80E0007F026
:1030200031F90C48302229460D9001A8FDF780FAAD
:10303000E06800900EA894E80E00FDF71FFB06481C
:1030400030220EA9FDF774FA1BB0002030BD00003D
:10305000000C00241C0100247011002430B59BB02A
:103060000546302201466846FDF762FA134C94E8A3
:103070000F0007F045F93022294601A8FDF758FA5C
:10308000E06800900DA894E80E0007F0FBF80C48EB
:10309000302229460D9001A8FDF74AFAE068009019
:1030A0000EA894E80E00FDF7E9FA064830220EA9B2
:1030B000FDF73EFA1BB0002030BD0000100C0024CC
:1030C0002C010024A011002410B588B0044601ABE7
:1030D000002002210090012283E807000490694645
:1030E0000590206802F0F3FA20680022012102F026
:1030F00063FA206802F0B5FF08B010BD10B58AB0C1
:103100000C68002308220493CDE90043CDE9023284
:103110000A1D05930693694607930893006802F019
:103120009BFA10B100200AB010BD0120FBE700009F
:10313000074B02689A4202D1064AD1601060064BE2
:1031400002689A4203D1034A1032D160106070477E
:1031500000A00040000C002400A400402DE9F0472E
:10316000074652480D46117F99461446012290F8B1
:1031700037C0002690F8363051B101291DD1216A9F
:103180004FF4FA6841451AD8227284F834206DE071
:103190004749BCF1010F03D091F83150012D0CD1FA
:1031A000002B0AD190F83F00012803D091F8390094
:1031B000012802D122772662E684BDE8F087A1F2D9
:1031C000D172424509D238460BF0C0FD28460BF0BB
:1031D000BDFD267284F8346048E0B1F57A6F45D3BE
:1031E00094F82410F1BBBCF1010F804605D1012BEE
:1031F00003D198F83C00012807D0A7F80E6500BF5E
:1032000098F8371001291BD022E0B7F80E05401CB2
:1032100080B2A7F80E05142816D197F80C05C00740
:1032200003D14946384600F09BF897F80C05401C3E
:1032300087F80C05C107E3D138460BF087FDDFE7BF
:1032400098F83600012803D198F83B00012811D0E6
:10325000A5F80E65224629463846FFF7DFF92246D3
:10326000294600E002E03846FFF758FA206A401C81
:103270002062A2E7B5F80E05401C80B2A5F80E0545
:103280001428E7D195F80C05C00703D14946284614
:1032900000F010F895F80C05401C85F80C05C107E6
:1032A000D8D128460BF052FDD4E70000B810002416
:1032B000640D002410B551F8403F224C00F58062A7
:1032C000C0F8B43040F8B03F0B6863604B681E4CE8
:1032D000C0F8A830C0F8A4304B6863608B681B4C02
:1032E000C0F84C31C0F848318B686360CB68184C2B
:1032F000C0F8F031C0F8EC31CB6863600B69154C55
:10330000C0F89432C0F890320B6963604B69C0F822
:103310003833C0F83433104B4869586091F91800BD
:1033200000EE100AB8EEC00A82ED230A82ED220AEE
:1033300091F9180000EE100A0848B8EEC00A80EDB6
:10334000010A10BDAC0C0024BC0C0024CC0C0024E1
:10335000DC0C0024EC0C0024FC0C00240C0D0024DC
:1033600010B551F8273F224C00F58062C0F8B43008
:1033700040F8B03F0B6863604B681E4CC0F8A83043
:10338000C0F8A4304B6863608B681B4CC0F84C31AC
:10339000C0F848318B686360CB68184CC0F8F031D6
:1033A000C0F8EC31CB6863600B69154CC0F89432FF
:1033B000C0F890320B6963604B69C0F83833C0F8CD
:1033C0003433104B4869586091F9180000EE100A28
:1033D000B8EEC00A82ED230A82ED220A91F91800A4
:1033E00000EE100A0848B8EEC00A80ED010A10BDD0
:1033F0003C0C00244C0C00245C0C00246C0C0024BD
:103400007C0C00248C0C00249C0C0024014801F04E
:10341000A9B9000094240024014801F0A3B90000D8
:1034200074260024014801F09DB90000EC26002418
:10343000014801F097B90000FC250024014801F083
:1034400091B9000084250024014801F08BB90000E7
:10345000A4230024014801F085B900000C250024B4
:10346000014801F07FB9000064270024014801F001
:1034700079B90000D4200024014801F073B900009C
:103480004C210024014801F06DB900002C230024D8
:10349000014801F067B90000C4210024014801F08F
:1034A00061B900003C220024014801F05BB9000032
:1034B0001C240024014801F055B90000B422002466
:1034C000014801F04FB90000DC270024264A0168BA
:1034D00091422CD0254A914229D0254A914226D0AA
:1034E000244A914223D0244A914220D0234A914237
:1034F0001DD0234A91421AD0224A914217D0224A23
:10350000914214D0214A914211D0214A91420ED0C9
:10351000204A91420BD0204A914208D01F4A914242
:1035200005D01F4A914202D01E4A914217D11E4B2C
:10353000CAB2103AA3FB02321209DFF870C002F0DF
:1035400007031CF80330C365032A04D96FF309018C
:10355000091D816506E06FF30901816502E021F034
:10356000FF018165806D7047100002402800024015
:1035700040000240580002407000024088000240B3
:10358000A0000240B800024010040240280402409B
:103590004004024058040240700402408804024083
:1035A000A0040240B8040240ABAAAAAA88EE000810
:1035B00001680123DFF894C0CAB261451BD0DFF86F
:1035C00090C0614517D0DFF88CC0614513D0DFF89B
:1035D00088C061450FD0DFF884C061450BD0DFF8AB
:1035E00080C0614507D0DFF87CC0614503D0DFF8BB
:1035F00078C0614511D1A2F108011C4AA2FB01214A
:1036000009091B4A02EB810202661A4A426601F06E
:103610001F0103FA01F181667047DFF85CC0103AC0
:10362000ACFB02C21209DFF854C06144A82900D8DB
:103630000832134901EB820101661249416602F02A
:103640001F0103FA01F18166704700000854025817
:103650001C540258305402584454025858540258CA
:103660006C5402588054025894540258CDCCCCCC9F
:103670000058025880580258ABAAAAAAF0FBFDBF16
:10368000000802408008024001794A1E072A28D813
:10369000144B0168994214D0134B994211D0134B2B
:1036A00099420ED0124B99420BD0124B994208D03E
:1036B000114B994205D0114B994202D0104B9942BF
:1036C00006D1104901EB8201C1660F49016705E08F
:1036D0000E4901EB8201C1660D490167012191404C
:1036E00041677047085402581C540258305402581D
:1036F00044540258585402586C540258805402588A
:103700009454025800590258405902580009024086
:1037100040090240014600208B698A6A002B0FD0C5
:10372000B3F5005F1DD08AB3012A30D0022A2ED013
:10373000032A04D1C96A11F0807F00D001207047AC
:103740001AB1012A07D0022AF9D1C96A11F0807F83
:10375000F5D001207047C96AB1F1C07FFAD10120CC
:1037600070475AB1012A0BD0022A07D0032AF7D199
:10377000C96AB1F1C07FF3D10120704701207047C1
:10378000C96A11F0807FFAD001207047FFE701205D
:10379000704700002DE9F04F846D794ED0F800C0DD
:1037A000784FDFF8E481B445DFF8E091DFF8E0A17D
:1037B000DFF8E0B1784D4FD0BC454DD0C4454BD07B
:1037C000CC4549D0D44547D0DC4545D0DFF8CCE1E5
:1037D000F44541D0AC453FD0DFF8C4E1F4453BD0DF
:1037E000DFF8C0E1F44537D0DFF8BCE1F44533D071
:1037F000DFF8B8E1F4452FD0DFF8B4E1F4452BD081
:10380000DFF8B0E1F44527D0DFF8ACE1F44523D090
:10381000DFF8A8E1F4451FD0DFF8A4E1F4451BD0A0
:10382000DFF8A0E1F44517D0DFF89CE1F44513D0B0
:10383000DFF898E1F4450FD0DFF894E1F4450BD0C0
:10384000DFF890E1F44507D0DFF88CE1F44503D0D0
:10385000DFF888E1F44510D1D0F864E0D0F868C012
:10386000CEF804C0D0F86CC0BCF1000F05D0D0F881
:1038700070E0D0F874C0CEF804C0D0F800C0B445F1
:1038800026D0BC4524D0C44522D0CC4520D0D44538
:103890001ED0DC451CD0414EB44519D0AC4517D0E4
:1038A0003F4DAC4514D03F4DAC4511D03E4DAC45DD
:1038B0000ED03E4DAC450BD03D4DAC4508D03D4DF6
:1038C000AC4505D03C4DAC4502D03C4DAC4523D178
:1038D00090F85CC03F250CF01F0C05FA0CFCC4F8F6
:1038E00008C0D0F800C0DCF8004024F48024CCF8F4
:1038F0000040D0F800C0CCF804308368402B05D0DD
:10390000036899600068C260BDE8F08F03689A6040
:103910000068C160BDE8F08F294DAC4514D0294D39
:10392000AC4511D0284DAC450ED0284DAC450BD040
:10393000274DAC4508D0274DAC4505D0264DAC45AC
:1039400002D0264DAC45E5D190F85CC001250CF0C5
:103950001F0C05FA0CFCC4F804C0D0F800C0CCF869
:1039600004308368402B05D0036899600068C2600A
:10397000BDE8F08F03689A600068C160BDE8F08F11
:10398000100002402800024040000240580002405F
:103990007000024088000240B8000240A0000240CF
:1039A000100402402804024040040240580402402F
:1039B0007004024088040240A0040240B80402409F
:1039C000085402581C5402583054025844540258A7
:1039D000585402586C540258805402589454025857
:1039E0002DE9F0410624064691FBF4F00D461746FA
:1039F00004FB105018B9314610460BF043F895FB04
:103A0000F4F004FB1050012804D106F118013846E7
:103A10000BF038F895FBF4F004FB1050022804D1A9
:103A200006F1300138460BF02DF895FBF4F004FB5D
:103A30001050032804D106F1480138460BF022F853
:103A400095FBF4F004FB1050042804D106F160014A
:103A500038460BF017F895FBF4F004FB10500528DE
:103A600004D106F1780138460BF00CF83046BDE879
:103A7000F04100F037B803460A4600B50878F2EE88
:103A8000090A00F00F0058700878BAEE090A000918
:103A90009870B1F80100102140BA0BF047F883ED9F
:103AA000010AB2F803000C21F3EE0E0ABBEE0E0A77
:103AB00040BA00090BF03AF883ED020A1079517907
:103AC00000F00F00F2EE040A41EA00200C21BAEEE9
:103AD000040A0BF02BF883ED030A90791874D0795F
:103AE000587400BD9FED260AD0ED010A00F58061F3
:103AF000C0ED4D0A20EE801AC0ED4E0A80ED501A3E
:103B000080ED521AD0ED070AC0ED760A20EE801A39
:103B1000C0ED770A80ED791A80ED7B1AD0ED0D0AA1
:103B2000C0ED9F0A20EE801AC0EDA00A80EDA21A17
:103B300080EDA41AD0ED130AC0EDC80A20EE801A59
:103B4000C0EDC90A80EDCB1A80EDCD1AD0ED190A6F
:103B5000C0EDF10A20EE801AC0EDF20A80EDF41AF1
:103B600080EDF61AD0ED1F0AC1ED1A0A20EE800A88
:103B7000C1ED1B0A81ED1D0A81ED1F0A704700008F
:103B8000302F65424FF48062428082800323C280DE
:103B9000002102818372C37202800922C1810182E5
:103BA0004182A0F8E81080F8321080F8331080F8D5
:103BB000381080F8351080F8361080F83A1080F808
:103BC0003B1080F837109FED070A80F8341080F81A
:103BD000391080ED3C0A80ED3D0A80F8FC2080F829
:103BE000FE10704700000000F0B40B880126002290
:103BF0004FF4A565C3F30A04A4F5B673AB4200D82D
:103C000001224F788B78FF0847EA4317C7F30A076A
:103C1000A7F5B677AF4200D8521C91F803C00F79D0
:103C20009B0943EA8C0343EA8723C3F30A03A3F502
:103C3000B673AB4200D8521C4B797F0847EAC317D2
:103C4000C7F30A07A7F5B677AF4200D8521CB6EB08
:103C5000931F07D00225B5EB931F03D00325B5EBC7
:103C6000931F00D1521CC3F30115012D05D0022D65
:103C700003D06FEA13139B0700D1521C062A7CD194
:103C80004480A4F2FD344B78072C8D784FF4806289
:103C90004FEAD30343EA4513C3F30A0585808B78C3
:103CA000CC780E794FEA931343EA840343EA8623E0
:103CB000C3F30A04C4800B794E794FEA530343EAF5
:103CC000C613C3F30A0303814E794FEA9616867230
:103CD0004E79C6F30116C6720E8AC6F30A0606802E
:103CE00000D24280A5F2FD35072D00D28280A4F2D9
:103CF000FD34072C00D2C280A3F2FD33072B00D283
:103D0000028146F2A812B1F90630C381B1F9084028
:103D1000934204824B8943820B7B03754B7B437533
:103D200000DDC281B0F90E502E4B9D4200DAC381F6
:103D3000944200DD0282B0F910209A4200DA038238
:103D4000CA8902838A7B02F0010282768A7BC2F3EF
:103D5000400202778A7BC2F38002C2768A7BC2F37A
:103D6000C0024277CA7BD20980F82720CA7BC2F3FF
:103D7000801280F82220CA7B00E030E0C2F34012BB
:103D800080F82520CA7BC2F3001280F82920CA7B64
:103D9000C2F3C00280F82820CA7BC2F3800280F8F8
:103DA0002420CA7BC2F3400280F82320CA7B02F0A1
:103DB000010280F826208A7BD20980F821208A7BA4
:103DC000C2F3801280F820208A7BC2F34012C277AF
:103DD000897BC1F300118177F0BC06F0A1BBF0BC78
:103DE00070470000589EFFFF0A460146054800B58F
:103DF000FFF7FAFE034805F031FC03490020088074
:103E000000BD0000640D0024680E0024704772B6E7
:103E1000FEE70000014801F093BD00009019002466
:103E2000014801F08DBD0000301A0024416B02688A
:103E3000D2F884306FF38F0343EA8103C2F88430F1
:103E40000268D2F88430B0F838C023F47F0343EA24
:103E50000C43C2F88430826B11440268D2F8883077
:103E60006FF38F0343EA8103C2F888300268D2F807
:103E70008830B0F83CC023F4FE0343EA0C43C2F898
:103E80008830C26B01EB42010268D2F8A0306FF3B8
:103E90008F0343EA8103C2F8A0300268D2F8A03051
:103EA000B0F840C023F4FE0343EA0C43C2F8A0304C
:103EB000436C026C02FB03110268D2F8B0306FF35E
:103EC0008F0343EA8103C2F8B0300268D2F8B03001
:103ED000B0F848C023F4FE0343EA0C43C2F8B03004
:103EE000C36C826C02FB03110268D2F8AC306FF332
:103EF0008F0343EA8103C2F8AC30436D026D02FBCD
:103F000003110268D2F8F0306FF38F0343EA8103A4
:103F1000C2F8F0300268D2F8F030B0F858C023F49C
:103F20007C1343EA0C43C2F8F030826D01EB42028D
:103F30000168D1F8C0306FF38F0343EA8202C1F801
:103F4000C0200168D1F8C020B0F85C3022F47C12A7
:103F500042EA0342C1F8C0200168D1F8C02090F8BD
:103F6000603022F07C5242EA0362C1F8C020416B0B
:103F7000294A02EB8101C166826B01EB8202026772
:103F8000C36B02EBC3024267D0F844C0036C03FB6F
:103F90000CF302EB83028267D0F84CC0836C03FB06
:103FA0000CF302EB8302C267D0F854C0036D03FB2D
:103FB0000CF302EB8302C0F88020836D02EBC30395
:103FC000C0F88430D0F85CC0826E0CFB02FC03EBBE
:103FD0008C03C0F88830D0F860C00CFB02F203EB11
:103FE0008202C0F890200D4B9A420AD9D0F89C105A
:103FF00041F02001C0F89C10032180F898100120A6
:1040000070478A4206D900220A60091DD0F8903014
:104010008B42F9D80020704700AC0040FCD3004030
:1040200070B4D1F808C00C694D6844EA0C0C0C68F7
:10403000002D40D044F080444CEA040C8D69CC69DA
:1040400091F820602C434D6945EA06652C438D8923
:1040500044EA0544D0F88450806E00FB03F005EB81
:104060008000C0F800C0001D0460031D0020134C38
:10407000D1F80CC014F80CC0BCF1000F19D902EB38
:10408000000C155C9CF8036045EA06659CF802602C
:104090009CF801C0360446EA0C2C45EA0C0CC3F827
:1040A00000C01B1D001DD1F80CC014F80CC08445C5
:1040B000E5D870BC70474CEA844CBFE72CEE000892
:1040C000F0B41F4CFF211D4B0222254627462A260D
:1040D0002170697009211A7003220578BD70254688
:1040E000E97021460A7122464E7126468178917107
:1040F00041880A0AF271224600210D4611721146CA
:104100004D722546017991720C218088020AEA726B
:10411000002019700222A55C521C0C2A284480B28F
:10412000F9DBFF2800D9C0B2C04360544A1C1A70A2
:10413000F0BC03490D22034805F084B9C4000024F3
:10414000740E0024C81C0024024910B508F0B8FC05
:10415000002010BDD01100242DE9F84F044602F0D4
:10416000B1F800905CB194F8350002280AD08020A4
:104170006065002084F834000120BDE8F88F01203C
:10418000BDE8F88FB6492068B64EB74F8842DFF8D1
:10419000DC82DFF8DC92DFF8DCA2DFF8DCB226D0CC
:1041A000B04224D0B84222D0404520D048451ED04D
:1041B00050451CD058451AD0B04A904217D0B04A4A
:1041C000904214D0AF4A904211D0AF4A90420ED0E4
:1041D000AE4A90420BD0AE4A904208D0AD4A9042CF
:1041E00005D0AD4A904202D0AC4A90420AD1026852
:1041F00022F01E0202602068426922F080024261C1
:10420000256804E0026822F00E020260256820683A
:1042100088423ED0B0423CD0B8423AD0404538D037
:10422000484536D0504534D0584532D0934A904214
:104230002FD0934A90422CD0924A904229D0924A51
:10424000904226D0914A904223D0914A904220D069
:10425000904A90421DD0904A90421AD08F4A904284
:1042600017D08F4A904214D08E4A904211D08E4A75
:1042700090420ED08D4A90420BD08D4A904208D089
:104280008C4A904205D08C4A904202D08B4A904290
:1042900004D1206E026822F48072026070492068A6
:1042A000884226D0B04224D0B84222D0404520D007
:1042B00048451ED050451CD058451AD06F498842F9
:1042C00017D06F49884214D06E49884211D06E4988
:1042D00088420ED06D4988420BD06D49884208D083
:1042E0006C49884205D06C49884202D06B498842AB
:1042F00004D1016821F00101016003E0016821F0AF
:1043000001010160286810F0010F14D001F0DAFFFC
:104310000099401A05280AD920206065032084F8F6
:104320003500002084F834000120BDE8F88F2868AB
:1043300010F0010FEAD14A4A01212068904226D0AC
:10434000B04224D0B84222D0404520D048451ED0AB
:1043500050451CD058451AD0484B984217D0484B6E
:10436000984214D0474B984211D0474B98420ED0F8
:10437000464B98420BD0464B984208D0454B98424A
:1043800005D0454B984202D0444B98420AD1A06DCB
:104390004FF03F0C94F85C3003F01F030CFA03F36A
:1043A000836007E0A06D94F85C3003F01F0301FA0E
:1043B00003F34360206890423ED0B0423CD0B84204
:1043C0003AD0404538D0484536D0504534D058458D
:1043D00032D02A4A90422FD0294A90422CD0294AE2
:1043E000904229D0284A904226D0284A904223D091
:1043F000274A904220D0274A90421DD0264A904218
:104400001AD0264A904217D0254A904214D0254A05
:10441000904211D0244A90420ED0244A90420BD0B0
:10442000234A904208D0234A904205D0224A904223
:1044300002D0224A90420BD1626EA06E5060E06EB4
:1044400030B1026822F480720260226F606F5060A7
:1044500084F83510002084F83400BDE8F88F00009F
:104460001000024028000240400002405800024074
:104470007000024088000240A0000240B8000240E4
:104480001004024028040240400402405804024044
:104490007004024088040240A0040240B8040240B4
:1044A000085402581C5402583054025844540258BC
:1044B000585402586C54025880540258945402586C
:1044C0002DE9F05F002808D090F83510022907D0B8
:1044D000802141650120BDE8F09F0120BDE8F09FEB
:1044E000DFF81CE20168874BDFF81CC27145874C7E
:1044F000874D884E884FDFF82482DFF82492DFF85A
:1045000024A2DFF824B2894A25D0994223D06145FC
:1045100021D0A1421FD0A9421DD0B1421BD0B94227
:1045200019D0DFF80CE2714515D0DFF808E27145CB
:1045300011D0DFF804E271450DD041450BD049455B
:1045400009D0DFF8F8E1714505D0514503D0594550
:1045500001D0914232D14FF0040E80F835E0684826
:10456000814221D099421FD061451DD0A1421BD06C
:10457000A94219D0B14217D0B94215D06C48814236
:1045800012D06C4881420FD06B4881420CD041451B
:104590000AD0494508D06948814205D0514503D029
:1045A000594501D0914204D1086820F0010008600B
:1045B000A3E0086820F0010008609EE0D1F800E068
:1045C0002EF00E0EC1F800E0DFF834E1016871450D
:1045D00025D0994223D0614521D0A1421FD0A942C4
:1045E0001DD0B1421BD0B94219D0DFF844E171456A
:1045F00015D0DFF840E1714511D0DFF83CE171459D
:104600000DD041450BD0494509D0DFF830E1714567
:1046100005D0514503D0594501D0914206D1D1F87A
:1046200000E02EF0010EC1F800E005E0D1F800E056
:104630002EF0010EC1F800E0DFF8C4E0016871451A
:1046400039D0994237D0614535D0A14233D0A94203
:1046500031D0B1422FD0B9422DD0354B99422AD01A
:10466000344B994227D0344B994224D0414522D033
:10467000494520D0314B99421DD051451BD0594559
:1046800019D0914217D02E4A914214D02D4A91420E
:1046900011D02D4A91420ED02C4A91420BD02C4A77
:1046A000914208D02B4A914205D02B4A914202D028
:1046B0002A4A914218D1016E0A6822F480720A6077
:1046C000816D90F85C2002F01F0301229A404A603D
:1046D000426E816E5160C16E31B10A6822F48072FF
:1046E0000A60026F416F5160012180F8351000218E
:1046F00080F83410016D01B188470020BDE8F09FBB
:1047000010000240280002404000024058000240D1
:104710007000024088000240A000024040040240B5
:104720005804024088040240A0040240B804024039
:10473000B800024010040240280402407004024005
:10474000085402581C540258305402584454025819
:10475000585402586C5402588054025894540258C9
:10476000406D70472DE9F04F83B004460020029061
:104770004FF41651FD480068B0FBF1F00190A56DB3
:104780002E682968FA4F2068DFF8E8A3DFF8E8B35D
:10479000B842DFF8E883DFF8E8932DD05246904224
:1047A0002AD05A46904227D0404525D0484523D0AC
:1047B000F44A904220D0F44A90421DD0F34A9042ED
:1047C0001AD0F34A904217D0DFF8C8C3604513D01F
:1047D000F14A904210D0DFF8C4E370450CD0F04AA3
:1047E000904209D0EF4A904206D0EF4A904203D05F
:1047F000EE4B984240F0408294F85C10082201F0A1
:104800001F0102FA01F1314241D0B84228D050458F
:1048100026D0584524D0404522D0484520D0D949FB
:1048200088421DD0D84988421AD0D849884217D02A
:10483000D749884214D0D749884211D0D6498842F6
:104840000ED0D64988420BD0D549884208D0D549E8
:10485000884205D0D449884202D0D449884203D145
:10486000016801F0040102E0016801F0080171B182
:10487000016821F00401016094F85C0000F01F0061
:1048800002FA00F0A860606D40F00100606594F8E5
:104890005C0000F01F01012000FA01F1314234D028
:1048A0002068B84228D0504526D0584524D04045ED
:1048B00022D0484520D0B34A90421DD0B24A9042FF
:1048C0001AD0B24A904217D0B14A904214D0B14A9D
:1048D000904211D0B04A90420ED0B04A90420BD0D4
:1048E000AF4A904208D0AF4A904205D0AE4A9042BB
:1048F00002D0AE4A90427DD1406910F0800F04D0C2
:10490000A960606D40F00200606594F85C0000F002
:104910001F01042000FA01F1314234D02068B8426E
:1049200028D0504526D0584524D0404522D048456F
:1049300020D0944A90421DD0934A90421AD0934A74
:10494000904217D0924A904214D0924A904211D08D
:10495000914A90420ED0914A90420BD0904A904298
:1049600008D0904A904205D08F4A904202D08F4A98
:10497000904245D1006810F0020F04D0A960606D2C
:1049800040F00400606594F85C0000F01F01102006
:1049900000FA01F1314259D02068B84228D0504580
:1049A00026D0584524D0404522D0484520D0754ACD
:1049B00090421DD0744A90421AD0744A904217D047
:1049C000734A904214D0734A904211D0724A904276
:1049D0000ED0724A90420BD0714A904208D0714A70
:1049E000904205D0704A904202D0704A904209D15C
:1049F000006800E002E000F0080006E0006884E7DC
:104A00000068C0E7006800F00400F8B1A960206801
:104A1000016811F4802F0DD0006810F4002F04D02D
:104A2000A16C99B12046884710E0216C71B12046F5
:104A300088470BE0016811F4807F03D1016821F001
:104A400008010160216C09B12046884794F85C0098
:104A500000F01F01202000FA01F131426FD02068E0
:104A6000B84228D0504526D0584524D0404522D0C1
:104A7000484520D0434A90421DD0434A90421AD024
:104A8000424A904217D0424A904214D0414A904242
:104A900011D0414A90420ED0404A90420BD0404A39
:104AA000904208D03F4A904205D03F4A904202D0FF
:104AB0003E4A904203D1006800F0100002E0006816
:104AC00000F00200D8B3A96094F8350004280DD096
:104AD0002068016811F4802F37D0006810F4002F8F
:104AE0002ED0E16B59B32046884764E02068016806
:104AF00021F0160101602068416921F080014161C7
:104B0000206C08B9A06C20B12068016821F0080170
:104B1000016094F85C003F2100F01F0001FA00F0F2
:104B2000A860012084F83500002084F83400216D4D
:104B300000297BD003B02046BDE8F04F084737E09E
:104B4000616CA9B32046884735E0016811F4807F85
:104B500009D1016821F010010160012084F83500BD
:104B6000002084F83400E16B11B322E0340C0024FF
:104B7000100002402800024040000240580002405D
:104B80007000024088000240A0000240B8000240CD
:104B9000100402402804024040040240580402402D
:104BA0007004024088040240A0040240B80402409D
:104BB00001E020468847606D002837D0606D10F016
:104BC000010F51D0042084F835002068B84228D065
:104BD000504526D0584524D0404522D0484520D0C5
:104BE000AB4988421DD0AB4988421AD0AA498842B5
:104BF00017D0AA49884214D0A949884211D0A9499E
:104C000088420ED0A84988420BD0A849884208D0D3
:104C1000A749884205D0A749884202D0A6498842C0
:104C200005D1016821F00101016004E096E001680E
:104C300021F00101016021680298019A401C029054
:104C4000904203D8086810F0010FF5D1086810F001
:104C5000010F03D0032084F8350002E0012084F81E
:104C60003500002084F83400E16C002976D003B0D0
:104C70002046BDE8F04F0847904B984214D0904B27
:104C8000984211D08F4B98420ED08F4B98420BD048
:104C90008E4B984208D08E4B984205D08D4B98424F
:104CA00002D08D4B984259D103684FF0040A94F812
:104CB0005C6006F01F060AFA06FA1AEA010F5AD0DB
:104CC00013F0040F57D0C5F804A013F4004F12D00E
:104CD00013F4803F07D0216C00293FD003B0204659
:104CE000BDE8F04F0847A16C002937D003B020463B
:104CF000BDE8F04F084713F0200F34D12068B842C8
:104D000027D07649884224D07549884221D0404531
:104D10001FD048451DD05E4988421AD05D4988425F
:104D200017D05D49884214D05C49884211D0604553
:104D30000FD05C4988420CD070450AD05B4988424C
:104D400007D05B49884204D0904202D05A49884239
:104D500005D1016821F00801016004E083E00168E9
:104D600021F004010160216C00297CD003B02046B1
:104D7000BDE8F04F08474FF0020A0AFA06FA1AEAAD
:104D8000010F5FD013F0020F5CD0C5F804A013F43C
:104D9000004F12D013F4803F07D0E16B002974D08C
:104DA00003B02046BDE8F04F0847616C00296CD085
:104DB00003B02046BDE8F04F084713F0200F39D16B
:104DC0002068B84227D04549884224D044498842C7
:104DD00021D040451FD048451DD02D4988421AD0CA
:104DE0002C49884217D02C49884214D02B4988423C
:104DF00011D060450FD02B4988420CD070450AD0A5
:104E00002A49884207D02A49884204D0904202D0D9
:104E10002949884204D1016821F01401016003E0AE
:104E2000016821F00A010160012084F835000020AA
:104E300084F83400E16B002927D003B02046BDE898
:104E4000F04F08470822B2400A421ED013F0080F64
:104E50001BD0016821F00E01016094F85C0000F0A5
:104E60001F01012000E010E000FA01F169606065B7
:104E700084F83500002084F83400E16C002904D067
:104E800003B02046BDE8F04F084703B0BDE8F08FFF
:104E900088000240A0000240B80002401004024016
:104EA00028040240400402405804024070040240BA
:104EB00088040240A0040240B8040240085402588A
:104EC0001C54025830540258445402585854025842
:104ED0006C540258805402589454025828000240DE
:104EE000400002402DE9F05F044601F0EBF9064670
:104EF000002C6AD0DC4F022220680025DFF86C838A
:104F0000DFF86C93B842DFF86CA3DFF86CB328D0FD
:104F1000DA49884225D0404523D0484521D0504524
:104F20001FD058451DD0D64988421AD0D54988424D
:104F300017D0D549884214D0D449884211D0D449D9
:104F400088420ED0D34988420BD0D349884208D03A
:104F5000D249884205D0D249884202D0D1498842FC
:104F60007ED184F8352084F83450B84228D0C34923
:104F7000884225D0404523D0484521D050451FD0F8
:104F800058451DD0BE4988421AD0BE49884217D024
:104F9000BD49884214D0BD49884211D0BC498842DD
:104FA0000ED0BC4988420BD0BB49884208D0BB49CF
:104FB000884205D0BA49884202D0BA49884207D10E
:104FC000016821F00101016006E00120BDE8F09FC9
:104FD000016821F0010101602068006810F0010FF4
:104FE00011D001F06FF9801B052807D920206065DA
:104FF000032084F835000120BDE8F09F2068006898
:1050000010F0010FEDD122681068A7490840E3684D
:10501000A168D4F814C01943236943EA0C03194367
:10502000A3691943E3691943236A19430843616A71
:10503000042903D1236BE16A194308439B4909689A
:105040006FF30F01B1F1005F11D36168A1F1290382
:10505000052B0AD9163B032B07D9083B012B00E08F
:105060002CE002D94F39032901D840F48010106098
:105070002068406920F00701606A40EA01060428C0
:105080000ED1A06A0643E06A50B12046FEF742FB0B
:1050900030B140206065012084F83500BDE8F09F04
:1050A000206846612046FEF711FA94F85C103F2212
:1050B00001F01F0102FA01F181605BE07C49884246
:1050C00014D07C4B984211D07B4B98420ED07B4B36
:1050D00098420BD07A4B984208D07A4B984205D030
:1050E000794B984202D0794B98427DD188420CD0BE
:1050F0007049884209D07049884206D06F49884279
:1051000003D06F49884200D06E4984F8352084F876
:10511000345002686FF31012A168402979D08029B9
:1051200079D00021E36841EAD301236941EAD30140
:10513000636941EAD301A36941EAD301E36941EA22
:10514000D301236A41EA13111143016060492068C9
:1051500001446048A0FB011000098000E065204682
:10516000FEF7B4F994F85C10012201F01F0102FA75
:1051700001F141602068B84242D0404988423FD0A6
:1051800040453DD048453BD0504539D0584537D0B3
:105190003B49884234D03B49884231D03A49884221
:1051A0002ED03A4988422BD03949884228D03949F3
:1051B000884225D03849884222D0384988421FD0B9
:1051C000374988421CD03749884219D0384988422B
:1051D00016D03849884213D03749884210D0374911
:1051E00088420DD0364900E018E0884208D03549A1
:1051F000884205D03449884202D0344988422CD1B3
:105200002046FEF7D5F9A06880280FD00FE000E017
:1052100001E0102186E74FF4804183E7402060657C
:10522000032084F835000120BDE8F09F6560216E01
:1052300020790860616EA06E48606068401E072893
:1052400008D82046FEF720FAE06E0560216F606FF7
:10525000486002E0E566256765676565012084F8BA
:1052600035000020BDE8F09F1000024040000240E1
:1052700058000240700002408800024028000240AE
:10528000A0000240B800024010040240280402407E
:105290004004024058040240700402408804024066
:1052A000A0040240B80402403F8010FE0010005CE1
:1052B000085402581C54025830540258445402589E
:1052C000585402586C54025880540258945402584E
:1052D000F8ABFDA7CDCCCCCC2DE9F84F044600208F
:1052E0000090002C16D094F83400012815D001202D
:1052F00084F8340094F835C00020BCF1010F0FD0C1
:105300004FF40061616584F834000120009000983A
:10531000BDE8F88F0120BDE8F88F0220BDE8F88FC6
:105320004FF0020C84F835C06065DFF82CC22068AD
:105330008A4D8B4E60458B4FDFF82C82DFF82C9224
:10534000DFF82CA2DFF82CB22DD0A8422BD0B0422F
:1053500029D0B84227D0404525D0484523D05045D4
:1053600021D058451FD0DFF810C260451BD0DFF8B0
:105370000CC2604517D0DFF808C2604513D0DFF8D3
:1053800004C260450FD0DFF800C260450BD0DFF8E3
:10539000FCC1604507D0DFF8F8C1604503D0DFF8F5
:1053A000F4C1604506D1D0F800C02CF0010CC0F863
:1053B00000C005E0D0F800C02CF0010CC0F800C01F
:1053C0002046FEF7E7F964492068884225D0A842C4
:1053D00023D0B04221D0B8421FD040451DD048450F
:1053E0001BD0504519D0584517D0634A904214D06D
:1053F000624A904211D0624A90420ED0614A904275
:105400000BD0614A904208D0604A904205D0604A71
:10541000904202D05F4A90420DD1026822F01E02F3
:1054200042F016020260206C90B12068026842F0DF
:10543000080202600CE0026822F00E0242F00A024A
:105440000260206C20B12068026842F00402026011
:10545000206888423DD0A8423BD0B04239D0B84203
:1054600037D0404535D0484533D0504531D05845E8
:105470002FD0414A90422CD0404A904229D0404AF5
:10548000904226D03F4A904223D03F4A904220D0BB
:105490003E4A90421DD03E4A90421AD03D4A904228
:1054A00017D03D4A904214D03C4A904211D03C4A19
:1054B00090420ED03B4A90420BD03B4A904208D0DB
:1054C0003A4A904205D03A4A904202D0394A904234
:1054D0000ED1206E026812F4803F03D0026842F4BD
:1054E00080720260E06E18B1026842F4807202605D
:1054F0002068884225D0A84223D0B04221D0B842AB
:105500001FD040451DD048451BD0504519D05845A7
:1055100017D01949884214D01849884211D0184927
:1055200088420ED0174988420BD01749884208D0CC
:105530001649884205D01649884202D0154988424A
:1055400004D1016841F001010160E0E6016841F029
:1055500001010160DBE6000010000240280002406B
:1055600040000240580002407000024088000240A3
:10557000A0000240B800024010040240280402408B
:105580004004024058040240700402408804024073
:10559000A0040240B8040240085402581C540258A7
:1055A0003054025844540258585402586C5402580B
:1055B000805402589454025890F89830012B09D026
:1055C000022B07D0D0F89C1041F00201C0F89C10CB
:1055D000012070470368D3F858C01CEA010F06D1B8
:1055E000D3F85CC04CF0010CC3F85CC008E0D3F801
:1055F00058C031EA0C0C26D04FF0030CC3F85CC045
:1056000011F4007F06D00368D3F8E0C04CEA020C26
:10561000C3F8E0C011F4806F06D00368D3F8E4C08B
:105620004CEA0202C3F8E4200068426D21F4401302
:1056300023F040431A4342650648026842EA9171EA
:10564000016000207047D3F85CC04CF0020CC3F836
:105650005CC0D5E714A8004070B5044694F89800E3
:10566000022807D0D4F89C0040F00800C4F89C0041
:10567000012070BD2068D0F8C03013F07C5F0CD0E2
:10568000D0F8C43013F4001F0FD0D4F89C0040F4BD
:105690000070C4F89C00012070BDD4F89C0040F05C
:1056A0002000C4F89C00012070BDD0F8C400C0F3F5
:1056B000044520462B46FEF7B3FC21680120A84094
:1056C000C1F8D000C4F89400002070BD704790F875
:1056D0009820012A09D0022A07D0D0F89C1041F066
:1056E0000201C0F89C1001207047CA680B6893B192
:1056F000072A0B6943EA42732ED091F808C04A6921
:1057000042EA8C724968006F00EBC100036042609E
:105710004FF000007047072A12D091F808C04FEAF6
:10572000C2624B6943EA8C73B1F810C042EA0C4282
:1057300043EA02024968C06E00EB81000260E7E7BD
:105740000B8A4FF0605C8A6942EA0342CB694CEAFB
:10575000032342EA0302EDE78A69D3E77047704703
:10576000F0B44FF0000C90F89840022C08D0D0F81C
:105770009C1041F00801C0F89C10F0BC012070475B
:1057800040290DD0412940D0046D8C4273D8D0F807
:105790009C1041F02001C0F89C10F0BC0120704723
:1057A0000468D4F8A05015F4FE0F1CD0D4F8A4500F
:1057B00015F07F0F20D0D4F8A45015F0807F06D0CC
:1057C000D4F8A05015F0004F01D54FF0010CD4F8DB
:1057D000A440C4F30524A444456C446F05FB0CF5B8
:1057E00004EB85044DE0D0F89C1041F02001C0F896
:1057F0009C10F0BC01207047D0F89C1041F48071DF
:10580000C0F89C10F0BC012070470468D4F8B05078
:1058100015F4FE0F1CD0D4F8B45015F07F0F20D033
:10582000D4F8B45015F0807F06D0D4F8B05015F0FD
:10583000004F01D54FF0010CD4F8B440C4F3052457
:10584000A444C56C846F05FB0CF504EB850418E0DB
:10585000D0F89C1041F02001C0F89C10F0BC012051
:105860007047D0F89C1041F48071C0F89C10F0BCD7
:1058700001207047FFE7456DC46F05FB01F504EBA0
:105880008504256805F080455560E5B3256825F059
:1058900060451560256805F000559560256805F0A0
:1058A00000451561241D2588ADB2D5612568C5F375
:1058B0000347D760256805F480155561256805F410
:1058C000001595612568C5F3066515622568ED0F1D
:1058D0005562251D0024184EF75D002F06D92F5D57
:1058E0001F55641CD768F75DA742F8D8402910D02F
:1058F000412912D00122202913D2006802FA01F1B5
:10590000C0F8981014E0FFE72568C5F38A451560D4
:10591000C0E70068C0F8A8C00AE00068C0F8B8C0D6
:1059200006E0006801F01F0102FA01F1C0F89C10C6
:105930000020F0BC704700002CEE0008704700000B
:105940002DE9F04F83B00446BC4F38688007391DFD
:10595000096800EA81792068016D01F47041426DA7
:1059600002EA010A016D01F00F01426D02EA010B2A
:10597000016D01F0F001426D11400291016D01F0E5
:105980007151426D02EA0108016D01F06071426DD2
:1059900011400191456D066D15F4807F09D016F414
:1059A000807F06D0B9150165002038602046FFF7DA
:1059B000C5FF15F4806F10D016F4806F0DD02068ED
:1059C000D0F8DC10D0F8E42011404FF4806202657A
:1059D00000203860204600F063FBB9F1000F0CD0C6
:1059E000216829F4401020F0404008654FEA997082
:1059F000386049462046FFF769FEBAF1000F0CD027
:105A000021682AF4401020F0404008654FEA9A705F
:105A100038605146204600F045FBBBF1000F0CD02A
:105A200021682BF4401020F0404008654FEA9B703D
:105A300038605946204600F0E5FA029868B12168BE
:105A4000029820F4401020F0404008650298800F32
:105A500038600299204600F003FB15F4006F0BD06C
:105A600016F4006F08D021684FF40060086500202C
:105A70003860204600F017FB15F4007F10D016F4B4
:105A8000007F0DD02068D0F8D810D0F8E020114069
:105A90004FF40072026500203860204600F001FBE0
:105AA00015F4002F0BD016F4002F08D021684FF406
:105AB0000020086500203860204600F0A1FA15F4A7
:105AC000803F0BD016F4803F08D021684FF480301F
:105AD000086500203860204600F0E1FA15F4802FB8
