:020000040800F2
:10000000002F002479030008898400086574000823
:10001000ED810008450E000825A30008000000003F
:10002000000000000000000000000000EF8E00084B
:10003000651D000800000000C98B0008F18E000853
:100040009303000893030008930300089303000838
:100050009303000893030008930300089303000828
:10006000930300089303000893030008D1120008CB
:10007000DD120008E9120008F5120008011300085B
:100080000D1300081913000893030008951D0008BC
:10009000A11D0008930300089303000893030008C0
:1000A00093030008930300089303000893030008D8
:1000B00093030008930300089303000893030008C8
:1000C00093030008930300089303000893030008B8
:1000D00093030008B9A20008D9A20008F9A20008F9
:1000E0009303000893030008000000009303000836
:1000F0009303000879910008930300082513000872
:100100009303000893030008930300089303000877
:100110001997000839970008930300089303000813
:10012000311300083D130008491300085513000857
:100130006113000893030008930300089303000869
:1001400000000000000000000000000000000000AF
:100150006D130008791300088513000805A3000833
:100160009303000893030008930300089303000817
:100170009303000893030008930300089303000807
:100180009303000893030008599700087997000823
:1001900093030008930300089303000893030008E7
:1001A00093030008930300089303000893030008D7
:1001B00093030008930300089303000893030008C7
:1001C00093030008930300089303000893030008B7
:1001D00093030008930300089303000893030008A7
:1001E0009303000893030008930300089303000897
:1001F0009303000893030008930300089303000887
:100200009303000893030008930300089303000876
:100210009303000893030008930300089303000866
:1002200093030008930300089303000800000000F4
:1002300093030008930300080000000093030008E4
:100240009303000893030008930300089303000836
:100250009303000893030008930300089303000826
:100260009303000893030008930300089303000816
:1002700093030008930300089303000800000000A4
:100280009303000893030008930300080000000094
:10029000000000009303000800F002F800F05CF892
:1002A0000AA090E8000C82448344AAF10107DA45D1
:1002B00001D100F051F8AFF2090EBAE80F0013F0C7
:1002C000010F18BFFB1A43F00103184724CC0000AC
:1002D00044CC00000A444FF0000C10F8013B13F02E
:1002E000070408BF10F8014B1D1108BF10F8015B8F
:1002F000641E05D010F8016B641E01F8016BF9D182
:1003000013F0080F1EBF10F8014BAD1C0C1B09D1D8
:100310006D1E58BF01F801CBFAD505E014F8016B4A
:1003200001F8016B6D1EF9D59142D6D370470000DC
:100330000023002400250026103A28BF78C1FBD8EE
:10034000520728BF30C148BF0B6070471FB50CF083
:1003500003FD1FBD10B510BD00F05AF91146FFF79F
:10036000F5FF0CF00DF900F078F903B4FFF7F2FF98
:1003700003BC00F07BF900000948804709480047AA
:10038000FEE7FEE7FEE7FEE7FEE7FEE7FEE7FEE745
:10039000FEE7FEE704480549054A064B70470000A2
:1003A000D18F00089902000800290024002F0024A2
:1003B000002B0024002B002453EA020C00F069807B
:1003C0002DE9F04B4FF00006002B1FBFB3FA83F569
:1003D00003FA05F424FA05F65E4012BF1643B2FA9A
:1003E00082F502FA05F4C5F120051EBF22FA05FCCC
:1003F00044EA0C04203556EA044C4FEA144418BF72
:10040000641C4FF000084FF00009904271EB030CA0
:1004100039D3002919BFB1FA81F701FA07F6B0FA0A
:1004200080F700FA07F6C7F120071EBF20FA07FC85
:1004300046EA0C062037B6FBF4FCA7EB0507103F95
:1004400007F01F0BCBF120060CFA0BFB2CFA06F67B
:1004500044BFB3460026202FA4BF5E464FF0000BDA
:100460005BEA060C08BF4FF0010B19EB0B09ABFB65
:10047000027C48EB0608C01B06FB02CC0BFB03CC3E
:1004800071EB0C01C1E70B46024641464846BDE808
:10049000F08B13B54FF000004FF00001AFF3008078
:1004A000BDE81C407047032A40F2308010F0030C76
:1004B00000F0158011F8013BBCF1020F624498BFB7
:1004C00011F801CB00F8013B38BF11F8013BA2F154
:1004D000040298BF00F801CB38BF00F8013B11F0CF
:1004E000030300F02580083AC0F0088051F8043B6F
:1004F000083A51F804CBA0E80810F5E7121D5CBFDC
:1005000051F8043B40F8043BAFF30080D20724BF0E
:1005100011F8013B11F801CB48BF11F8012B24BFA2
:1005200000F8013B00F801CB48BF00F8012B7047F1
:1005300010B5203AC0F00B80B1E81850203AA0E87E
:100540001850B1E81850A0E81850BFF4F5AF5FEAB2
:10055000027C24BFB1E81850A0E8185044BF18C965
:1005600018C0BDE810405FEA827C24BF51F8043B0C
:1005700040F8043B08BF7047D20728BF31F8023B60
:1005800048BF11F8012B28BF20F8023B48BF00F8F4
:10059000012B70474FF0000200B513469446964673
:1005A000203922BFA0E80C50A0E80C50B1F1200186
:1005B000BFF4F7AF090728BFA0E80C5048BF0CC034
:1005C0005DF804EB890028BF40F8042B08BF704792
:1005D00048BF20F8022B11F0804F18BF00F8012B04
:1005E000704770477047704710B500F009F8006811
:1005F00010BD10B5044600F003F8046010BD000003
:1006000000487047A028002400487047A028002414
:100610007546FFF7F9FFAE4605006946534620F0E0
:100620000700854618B020B5FFF7B4FEBDE82040AE
:100630004FF000064FF000074FF000084FF0000B9E
:1006400021F00701AC46ACE8C009ACE8C009ACE851
:10065000C009ACE8C0098D46704710B50446AFF339
:1006600000802046BDE81040FFF77FBE01491820FA
:10067000ABBEFEE7260002007047000010B50F99E0
:10068000039A0B689A4202D04B689A4215D1BDF882
:1006900038208A819DF837300D9ADFED080A63F320
:1006A0001F6200EE102A3022B8EEC00A20EE200AA7
:1006B00081ED020A03A9FFF73BFF10BD050962396E
:1006C0002DE9F041984614460E460746069D0BF06C
:1006D000D5FE23464246314638460CF0A1F8214665
:1006E00040460BF0D3FF2B462246314638460AF0EF
:1006F000F5FA20460BF030FF2B46224631463846AD
:1007000000F092FC224631463846BDE8F0410BF03D
:100710006DBF0000F0B50E462DED048B92F8381039
:1007200001290AD192F840100029FAD1538F0125EE
:100730004FF47A77BB4201D8157214E3A3F2E93C77
:100740004FF4E1618C4500F5806424D290ED292AB4
:100750009FEDF77B9FEDF86B9FEDF95B9FEDFA3B0B
:100760009FEDFB4B9FEDFC0B9FEDFD1BB7EEC22AEF
:1007700037EE422BB7EEC22B80ED2A2A90ED522A9B
:10078000B7EEC22A36EE422BB7EEC22B80ED532ACB
:1007900090ED7B2A41E1A3F6F12C8C4526D290ED19
:1007A000292A9FEDF14B9FEDF21B9FEDF33B9FED4F
:1007B000F40BB7EEC22A34EE422BB7EEC22B80ED1B
:1007C0002A2A90ED522AB7EEC22A31EE421BB7EE2A
:1007D000C11B80ED531A90EDA41AB7EEC11A33EE87
:1007E000411BB7EEC11B80EDA51AA6E0A3F5885CFE
:1007F000ACF1F90CBC457DD36FF4AF551D448D426F
:1008000046D290ED293A9FEDE07B9FEDE16B9FEDA5
:10081000E24B9FEDE31B9FEDE40B9FEDE52B9FED7E
:10082000E65BB7EEC33A37EE433BB7EEC33B80ED32
:100830002A3A90ED523AB7EEC33A36EE433BB7EE62
:10084000C33B80ED533A90ED7B3AB7EEC33A34EEBA
:10085000433BB7EEC33B80ED7C3A90EDA43AB7EE54
:10086000C33A31EE431BB7EEC11B80EDA51A90EDE4
:10087000CD1AB7EEC11A30EE410BB7EEC00B80EDCA
:10088000CE0A90EDF60AB7EEC00A32EE400BA8E0B1
:10089000A3F5E055E93D8D427ED3A5F5E1658D4296
:1008A00052D290ED291A9FEDC67B9FEDC72B9FED8D
:1008B000C83B9FEDC94B9FEDCA6B9FEDCB5B9FED96
:1008C000CC0BB7EEC11A37EE411BB7EEC11B80ED62
:1008D0002A1A90ED521AB7EEC11A32EE411BB7EE4A
:1008E000C11B80ED531A90ED7B1AB7EEC11A33EE9F
:1008F000411B00E0C5E0B7EEC11B80ED7C1A90ED16
:10090000A41AB7EEC11A34EE411BB7EEC11B80ED3D
:10091000A51A90EDCD1AB7EEC11A36EE411BB7EE0F
:10092000C11B80EDCE1A90EDF61AB7EEC11A35EE66
:10093000411BB7EEC11B80EDF71A94ED1F1AB7EEFD
:10094000C11A30EE410BA9E1A3F52855F93D8D42BE
:1009500052D290ED292A9FEDA87B9FEDA93B9FEDF8
:10096000AA6B9FEDAB0B9FEDAC4B9FEDAD1B9FEDCD
:10097000AE5BB7EEC22A37EE422BB7EEC22B80ED4C
:100980002A2A90ED522AB7EEC22A33EE422BB7EE56
:10099000C22B80ED532A00E0E5E190ED7B2AB7EE13
:1009A000C22A36EE422BB7EEC22B80ED7C2A90EDA8
:1009B000A42AB7EEC22A30EE420BB7EEC00B80ED90
:1009C000A50A90EDCD0AB7EEC00A34EE400BB7EEA3
:1009D000C00B80EDCE0A90EDF60AB7EEC00A31EEFC
:1009E000400BB7EEC00B80EDF70A94ED1F0AB7EE8F
:1009F000C00A35EE400B51E16FF448551D448D425D
:100A000038D290ED7B2A9FED8A5B9FED8B3B9FED6B
:100A10008C4B9FED8D0B9FED8E1BB7EEC22A35EEF2
:100A2000422BB7EEC22B80ED7C2A90EDA42AB7EEC4
:100A3000C22A33EE422BB7EEC22B80EDA52A90EDF1
:100A4000CD2AB7EEC22A34EE422BB7EEC22B80ED90
:100A5000CE2A90EDF62AB7EEC22A30EE420BB7EE60
:100A6000C00B80EDF70A94ED1F0AB7EEC00A31EE15
:100A7000400B13E1A3F5645C0025ACF1090C8C4537
:100A800004D282F82C5080F81C556CE1A3F5804C00
:100A9000ACF1110C8C454AD290ED291A9FED6E7B7A
:100AA0009FED6F2B9FED703B9FED714B9FED720B98
:100AB0009FED735B9FED746BB7EEC11A37EE411B70
:100AC000B7EEC11B80ED2A1A90ED521AB7EEC11A8B
:100AD00032EE411BB7EEC11B80ED531A90ED7B1A2D
:100AE000B7EEC11A33EE411BB7EEC11B80ED7C1A85
:100AF00090EDA41AB7EEC11A34EE411BB7EEC11B3C
:100B000080EDA51A90EDCD1AB7EEC11A30EE410B6B
:100B1000B7EEC00B80EDCE0A90EDF60AB7EEC00A34
:100B200035EE400BB7EEC00B80EDF70AB0E0BAE04F
:100B3000C3F5285C8F4222C021B072B8DEC162C00A
:100B4000295C8F0273C646C01A2FDD2489284BC04A
:100B5000B81E85EBB155F2BFEE7C3F752E194A40A9
:100B6000976E12E36EF55540AE47E17A14EE3EC043
:100B7000333333B3089F62C08FC2F52868A034C0F6
:100B8000333333B3089F5240D7A3703D0A3741C077
:100B900048E17A94A0CC5FC0355EBA492CAB49C01D
:100BA0003BDF4F8D2A5339C00AD7A37038132C402E
:100BB00054E3A59B23F3474048E17A546A0E55401D
:100BC00023DBF97E6AFC2A40CFF753B3D12D60C0F6
:100BD000EC51B81E41CB0DC01A2FDD64CC9347C039
:100BE0001C5A647B76764740E4A59BC498401EC09F
:100BF000BC749318061B52401F85EB51B87E4240CF
:100C000091ED7CBF8BAC5BC08D976EB25FF352C031
:100C1000B29DEF67704256C0F853E3A53D1B4D40AF
:100C2000894160E569F824407F6ABC74178B15C060
:100C3000C3F528DC7DEC58C00E2DB25D561A51C0AC
:100C4000C1CAA1455AE001407F6ABC74178B0540B8
:100C5000B29DEF272DD7394021B07268917D424077
:100C600023DBF95E165455C0355EBA492CAB59C02A
:100C7000C520B072A1F84FC0295C8FC22F5B1A400B
:100C800055E3A51B9D1C3FC0EA2631881DBF364099
:100C900094ED1F0AB7EEC00A36EE400BB7EEC00B5C
:100CA00084ED200A5FE0A3F58E44193C8C423CD2CF
:100CB000D0ED520A90ED7B0A90EDA42AB7EEE08ABF
:100CC000D0EDCD1A9FED2D4B9FED2E5BB7EEC00AF8
:100CD00090EDF61A9FED2D6B9FED263BB7EEC22AE5
:100CE0009FED2C7BB7EEE19A34EE404B35EE420B94
:100CF000B7EEC11A36EE492B33EE483B37EE415B77
:100D0000B7EEC00BF7EEC20BB7EEC31BF7EEC41B7A
:100D100080ED531AB7EEC52BC0ED7C1A80EDA50A05
:100D2000C0EDCE0A80EDF72A1DE0A3F59C4140F20C
:100D3000DB542139A14202D80BF0A4FF13E0A3F544
:100D4000A643FD3BBB420ED2B7EE000A0BF09CFA65
:100D5000B7EE000A30460BF097FA82F8385082F866
:100D6000355082F83450508F401C5087BDEC048BB6
:100D7000F0BD0000A245B6B31F2D57C0F4FDD4F856
:100D80006F2C36C0DCF97E6AF0B54EC01C5A643B4D
:100D9000330B0B405C8FC275525430C0F0B5054622
:100DA00092F9350014460B460022012620B1012895
:100DB00042D1E08E28B337E095F80C05C0073BD14F
:100DC00093F80C05C00737D11C481D4990F83770BF
:100DD000012F03D091F83170012F2DD190F83A00F6
:100DE000012803D091F83400012825D184F835601A
:100DF0001846E28609F038FF2846BDE8F04009F0C1
:100E000033BF08460BF03EFF28460BF03BFFB6EE23
:100E1000000A28460BF038FAB6EE000A18460BF026
:100E200033FA84F838606287224619462846FFF76D
:100E300071FCE08E401CE086F0BD0000AC10002488
:100E4000580D0024FEE7000030B59BB00546302267
:100E500001466846FFF76CFB134C94E80F0007F05F
:100E600005FA3022294601A8FFF762FBE0680090EE
:100E70000DA894E80E0007F0BBF90C483022294673
:100E80000D9001A8FFF754FBE06800900EA894E8CD
:100E90000E00FFF7F3FB064830220EA9FFF748FBD0
:100EA0001BB0002030BD0000F00B00241C0100240A
:100EB0006011002430B59BB00546302201466846DB
:100EC000FFF736FB134C94E80F0007F0CFF9302200
:100ED000294601A8FFF72CFBE06800900DA894E8D4
:100EE0000E0007F085F90C48302229460D9001A824
:100EF000FFF71EFBE06800900EA894E80E00FFF7D5
:100F0000BDFB064830220EA9FFF712FB1BB00020E4
:100F100030BD0000000C00242C010024901100249E
:100F200010B588B0044601AB0020022100900122D8
:100F300083E80700049069460590206802F087FB6B
:100F400020680022012102F0F7FA206803F049F836
:100F500008B010BD10B58AB00C68002308220493B5
:100F6000CDE90043CDE902320A1D05930693694697
:100F700007930893006802F02FFB10B100200AB01D
:100F800010BD0120FBE70000074B02689A4202D126
:100F9000064AD1601060064B02689A4203D1034AA8
:100FA0001032D1601060704700A00040F00B0024A8
:100FB00000A4004010B5174C9FED172ADFED170A6B
:100FC00094ED010ADFED161A9FED161A30EE022A93
:100FD00070EEC00ABCEEC20AFCEEE00A10EE102A67
:100FE00010EE903AA0F81225A0F8183594ED020AF8
:100FF00071EEC00A30EE011ABCEEE00AFCEEC10A46
:1010000010EE100A10EE902AA1F81205A1F818258A
:1010100010BD00003C0100240000CD440000AA44A3
:101020000020B24400A0D7442DE9F047504D0E46B1
:10103000117F99461446074601204FF00008F9B188
:10104000012937D1216A4FF4FA62914202D8207205
:1010500084F83400A1F2D171914209D238460BF0E4
:1010600011FE30460BF00EFE84F8088084F83480C0
:10107000206AB0F57A6F5BD394F82400E0B157E0B2
:1010800095F837203B49012A03D091F83120012AF5
:1010900010D195F83620002A0CD195F83F20012A6E
:1010A00003D091F83910012904D12077C4F82080A9
:1010B000A4F82680BDE8F08795F8370038B995F890
:1010C0003600012803D195F83900012806D0A7F889
:1010D0000E8500BF95F83700D8B122E0B7F80E05AD
:1010E000401C80B2A7F80E05142816D197F80C05FD
:1010F000C00703D14946384600F094F897F80C052C
:10110000401C87F80C05C107E4D138460BF0BAFD46
:10111000E0E795F83600012803D195F8380001285A
:101120000AD0A6F80E85224631463846FFF736FE2D
:10113000206A401C2062BDE7B6F80E05401C80B254
:10114000A6F80E051428EED196F80C05C00703D1B9
:101150004946304600F010F896F80C05401C86F819
:101160000C05C107DFD130460BF08CFDDBE700003A
:10117000AC100024580D002410B551F8403F224C0B
:1011800000F58062C0F8B43040F8B03F0B6863608F
:101190004B681E4CC0F8A830C0F8A4304B686360A0
:1011A0008B681B4CC0F84C31C0F848318B686360C9
:1011B000CB68184CC0F8F031C0F8EC31CB686360F4
:1011C0000B69154CC0F89432C0F890320B6963601B
:1011D0004B69C0F83833C0F83433104B4869586055
:1011E00091F9180000EE100AB8EEC00A82ED230A49
:1011F00082ED220A91F9180000EE100A0848B8EEB4
:10120000C00A80ED010A10BD9C0C0024AC0C002427
:10121000BC0C0024CC0C0024DC0C0024EC0C0024BE
:10122000FC0C002410B551F8273F224C00F58062D9
:10123000C0F8B43040F8B03F0B6863604B681E4C98
:10124000C0F8A830C0F8A4304B6863608B681B4CB2
:10125000C0F84C31C0F848318B686360CB68184CDB
:10126000C0F8F031C0F8EC31CB6863600B69154C05
:10127000C0F89432C0F890320B6963604B69C0F8D3
:101280003833C0F83433104B4869586091F918006E
:1012900000EE100AB8EEC00A82ED230A82ED220A9F
:1012A00091F9180000EE100A0848B8EEC00A80ED67
:1012B000010A10BD2C0C00243C0C00244C0C002412
:1012C0005C0C00246C0C00247C0C00248C0C00248E
:1012D000014801F007BA000084240024014801F00D
:1012E00001BA000064260024014801F0FBB90000A7
:1012F000DC260024014801F0F5B90000EC250024AB
:10130000014801F0EFB9000074250024014801F004
:10131000E9B9000094230024014801F0E3B900007A
:10132000FC240024014801F0DDB90000542700240A
:10133000014801F0D7B90000C4200024014801F0A1
:10134000D1B900003C210024014801F0CBB90000D4
:101350001C230024014801F0C5B90000B421002479
:10136000014801F0BFB900002C220024014801F01F
:10137000B9B900000C240024014801F0B3B9000001
:10138000A4220024014801F0ADB90000CC270024BC
:10139000264A016891422CD0254A914229D0254AFB
:1013A000914226D0244A914223D0244A914220D00F
:1013B000234A91421DD0234A91421AD0224A914297
:1013C00017D0224A914214D0214A914211D0214A89
:1013D00091420ED0204A91420BD0204A914208D02F
:1013E0001F4A914205D01F4A914202D01E4A9142A3
:1013F00017D11E4BCAB2103AA3FB02321209DFF812
:1014000070C002F007031CF80330C365032A04D937
:101410006FF30901091D816506E06FF3090181651C
:1014200002E021F0FF018165806D704710000240ED
:101430002800024040000240580002407000024074
:1014400088000240A0000240B800024010040240A0
:101450002804024040040240580402407004024044
:1014600088040240A0040240B8040240ABAAAAAA21
:10147000C0CD000801680123DFF894C0CAB26145FD
:101480001BD0DFF890C0614517D0DFF88CC06145F4
:1014900013D0DFF888C061450FD0DFF884C0614504
:1014A0000BD0DFF880C0614507D0DFF87CC0614514
:1014B00003D0DFF878C0614511D1A2F108011C4AC0
:1014C000A2FB012109091B4A02EB810202661A4AAA
:1014D000426601F01F0103FA01F181667047DFF8EF
:1014E0005CC0103AACFB02C21209DFF854C0614480
:1014F000A82900D80832134901EB8201016612497C
:10150000416602F01F0103FA01F181667047000095
:10151000085402581C54025830540258445402587B
:10152000585402586C54025880540258945402582B
:10153000CDCCCCCC0058025880580258ABAAAAAAED
:10154000F0FBFDBF000802408008024001794A1EFE
:10155000072A28D8144B0168994214D0134B99429A
:1015600011D0134B99420ED0124B99420BD0124B13
:10157000994208D0114B994205D0114B994202D0A3
:10158000104B994206D1104901EB8201C1660F4907
:10159000016705E00E4901EB8201C1660D49016753
:1015A0000121914041677047085402581C54025869
:1015B0003054025844540258585402586C5402583B
:1015C0008054025894540258005902584059025805
:1015D0000009024040090240014600208B698A6AE6
:1015E000002B0FD0B3F5005F1DD08AB3012A30D095
:1015F000022A2ED0032A04D1C96A11F0807F00D0BC
:10160000012070471AB1012A07D0022AF9D1C96A0C
:1016100011F0807FF5D001207047C96AB1F1C07F19
:10162000FAD1012070475AB1012A0BD0022A07D003
:10163000032AF7D1C96AB1F1C07FF3D10120704705
:1016400001207047C96A11F0807FFAD001207047ED
:10165000FFE70120704700002DE9F04F846D794EBF
:10166000D0F800C0784FDFF8E481B445DFF8E091AE
:10167000DFF8E0A1DFF8E0B1784D4FD0BC454DD0A8
:10168000C4454BD0CC4549D0D44547D0DC4545D0A6
:10169000DFF8CCE1F44541D0AC453FD0DFF8C4E100
:1016A000F4453BD0DFF8C0E1F44537D0DFF8BCE1CA
:1016B000F44533D0DFF8B8E1F4452FD0DFF8B4E1DA
:1016C000F4452BD0DFF8B0E1F44527D0DFF8ACE1EA
:1016D000F44523D0DFF8A8E1F4451FD0DFF8A4E1FA
:1016E000F4451BD0DFF8A0E1F44517D0DFF89CE10A
:1016F000F44513D0DFF898E1F4450FD0DFF894E11A
:10170000F4450BD0DFF890E1F44507D0DFF88CE129
:10171000F44503D0DFF888E1F44510D1D0F864E057
:10172000D0F868C0CEF804C0D0F86CC0BCF1000F8F
:1017300005D0D0F870E0D0F874C0CEF804C0D0F86E
:1017400000C0B44526D0BC4524D0C44522D0CC45E9
:1017500020D0D4451ED0DC451CD0414EB44519D014
:10176000AC4517D03F4DAC4514D03F4DAC4511D0E2
:101770003E4DAC450ED03E4DAC450BD03D4DAC453D
:1017800008D03D4DAC4505D03C4DAC4502D03C4D5C
:10179000AC4523D190F85CC03F250CF01F0C05FA36
:1017A0000CFCC4F808C0D0F800C0DCF8004024F4F9
:1017B0008024CCF80040D0F800C0CCF80430836816
:1017C000402B05D0036899600068C260BDE8F08FC7
:1017D00003689A600068C160BDE8F08F294DAC4590
:1017E00014D0294DAC4511D0284DAC450ED0284D14
:1017F000AC450BD0274DAC4508D0274DAC4505D0A6
:10180000264DAC4502D0264DAC45E5D190F85CC0E4
:1018100001250CF01F0C05FA0CFCC4F804C0D0F82C
:1018200000C0CCF804308368402B05D00368996071
:101830000068C260BDE8F08F03689A600068C1600C
:10184000BDE8F08F10000240280002404000024036
:10185000580002407000024088000240B800024078
:10186000A00002401004024028040240400402404C
:10187000580402407004024088040240A004024060
:10188000B8040240085402581C54025830540258FC
:1018900044540258585402586C5402588054025808
:1018A000945402582DE9F0410624064691FBF4F0C9
:1018B0000D46174604FB105018B93146104600F08B
:1018C00055FA95FBF4F004FB1050012804D106F101
:1018D0001801384600F04AFA95FBF4F004FB10506A
:1018E000022804D106F13001384600F03FFA95FB9A
:1018F000F4F004FB1050032804D106F148013846E7
:1019000000F034FA95FBF4F004FB1050042804D1E5
:1019100006F16001384600F029FA95FBF4F004FB6B
:101920001050052806D106F178013846BDE8F0418F
:1019300000F01CBABDE8F0812DE9F041062406460E
:1019400091FBF4F00D46174604FB105018B93146D0
:1019500010460BF033F895FBF4F004FB105001280F
:1019600004D106F1180138460BF028F895FBF4F085
:1019700004FB1050022804D106F1300138460BF068
:101980001DF895FBF4F004FB1050032804D106F178
:10199000480138460BF012F895FBF4F004FB1050A8
:1019A000042804D106F1600138460BF007F895FBD6
:1019B000F4F004FB1050052804D106F178013846F4
:1019C0000AF0FCFF3046BDE8F04100F037B80346AE
:1019D0000A4600B50878F2EE090A00F00F005870C8
:1019E0000878BAEE090A00099870B1F801001021D0
:1019F00040BA0BF037F883ED010AB2F803000C216E
:101A0000F3EE0E0ABBEE0E0A40BA00090BF02AF8FC
:101A100083ED020A1079517900F00F00F2EE040A0A
:101A200041EA00200C21BAEE040A0BF01BF883ED0A
:101A3000030A90791874D079587400BD9FED260A76
:101A4000D0ED010A00F58061C0ED4D0A20EE801A4C
:101A5000C0ED4E0A80ED501A80ED521AD0ED070A03
:101A6000C0ED760A20EE801AC0ED770A80ED791A73
:101A700080ED7B1AD0ED0D0AC0ED9F0A20EE801A92
:101A8000C0EDA00A80EDA21A80EDA41AD0ED130AD1
:101A9000C0EDC80A20EE801AC0EDC90A80EDCB1A4D
:101AA00080EDCD1AD0ED190AC0EDF10A20EE801AB2
:101AB000C0EDF20A80EDF41A80EDF61AD0ED1F0A9F
:101AC000C1ED1A0A20EE800AC1ED1B0A81ED1D0A44
:101AD00081ED1F0A70470000302F65424FF480628D
:101AE000428082800323C280002102818372C372FC
:101AF00002800922C18101824182A0F8E81080F8A9
:101B0000321080F8331080F8381080F8351080F8E3
:101B1000361080F83A1080F83B1080F837109FEDAF
:101B2000070A80F8341080F8391080ED3C0A80ED07
:101B30003D0A80F8FC2080F8FE107047000000008D
:101B4000F0B40B88012600224FF4A565C3F30A0404
:101B5000A4F5B673AB4200D801224F788B78FF080A
:101B600047EA4317C7F30A07A7F5B677AF4200D88D
:101B7000521C91F803C00F799B0943EA8C0343EA96
:101B80008723C3F30A03A3F5B673AB4200D8521CF4
:101B90004B797F0847EAC317C7F30A07A7F5B6775B
:101BA000AF4200D8521CB6EB931F07D00225B5EB0D
:101BB000931F03D00325B5EB931F00D1521CC3F331
:101BC0000115012D05D0022D03D06FEA13139B07D9
:101BD00000D1521C062A7CD14480A4F2FD344B78FB
:101BE000072C8D784FF480624FEAD30343EA451304
:101BF000C3F30A0585808B78CC780E794FEA93136E
:101C000043EA840343EA8623C3F30A04C4800B79BE
:101C10004E794FEA530343EAC613C3F30A03038121
:101C20004E794FEA961686724E79C6F30116C67241
:101C30000E8AC6F30A06068000D24280A5F2FD3560
:101C4000072D00D28280A4F2FD34072C00D2C2807E
:101C5000A3F2FD33072B00D2028146F2A812B1F99C
:101C60000630C381B1F90840934204824B89438214
:101C70000B7B03754B7B437500DDC281B0F90E50C1
:101C80002E4B9D4200DAC381944200DD0282B0F9FE
:101C900010209A4200DA0382CA8902838A7B02F00A
:101CA000010282768A7BC2F3400202778A7BC2F30A
:101CB0008002C2768A7BC2F3C0024277CA7BD20915
:101CC00080F82720CA7BC2F3801280F82220CA7BCA
:101CD00000E030E0C2F3401280F82520CA7BC2F356
:101CE000001280F82920CA7BC2F3C00280F82820A5
:101CF000CA7BC2F3800280F82420CA7BC2F3400270
:101D000080F82320CA7B02F0010280F826208A7B1B
:101D1000D20980F821208A7BC2F3801280F820202B
:101D20008A7BC2F34012C277897BC1F300118177AD
:101D3000F0BC06F0ABBBF0BC70470000589EFFFF44
:101D40000A460146054800B5FFF7FAFE034805F0CC
:101D500045FC03490020088000BD0000580D002408
:101D60005C0E0024704772B6FEE7000030B40C78B9
:101D7000FF220749FB230C600A714A718A71CA71FC
:101D80000A724A728A72CB7230BCFFF7E3B8000065
:101D9000A0100024014801F093BD00008019002428
:101DA000014801F08DBD0000201A0024416B02683B
:101DB000D2F884306FF38F0343EA8103C2F8843092
:101DC0000268D2F88430B0F838C023F47F0343EAC5
:101DD0000C43C2F88430826B11440268D2F8883018
:101DE0006FF38F0343EA8103C2F888300268D2F8A8
:101DF0008830B0F83CC023F4FE0343EA0C43C2F839
:101E00008830C26B01EB42010268D2F8A0306FF358
:101E10008F0343EA8103C2F8A0300268D2F8A030F1
:101E2000B0F840C023F4FE0343EA0C43C2F8A030EC
:101E3000436C026C02FB03110268D2F8B0306FF3FE
:101E40008F0343EA8103C2F8B0300268D2F8B030A1
:101E5000B0F848C023F4FE0343EA0C43C2F8B030A4
:101E6000C36C826C02FB03110268D2F8AC306FF3D2
:101E70008F0343EA8103C2F8AC30436D026D02FB6D
:101E800003110268D2F8F0306FF38F0343EA810345
:101E9000C2F8F0300268D2F8F030B0F858C023F43D
:101EA0007C1343EA0C43C2F8F030826D01EB42022E
:101EB0000168D1F8C0306FF38F0343EA8202C1F8A2
:101EC000C0200168D1F8C020B0F85C3022F47C1248
:101ED00042EA0342C1F8C0200168D1F8C02090F85E
:101EE000603022F07C5242EA0362C1F8C020416BAC
:101EF000294A02EB8101C166826B01EB8202026713
:101F0000C36B02EBC3024267D0F844C0036C03FB0F
:101F10000CF302EB83028267D0F84CC0836C03FBA6
:101F20000CF302EB8302C267D0F854C0036D03FBCD
:101F30000CF302EB8302C0F88020836D02EBC30335
:101F4000C0F88430D0F85CC0826E0CFB02FC03EB5E
:101F50008C03C0F88830D0F860C00CFB02F203EBB1
:101F60008202C0F890200D4B9A420AD9D0F89C10FA
:101F700041F02001C0F89C10032180F89810012046
:101F800070478A4206D900220A60091DD0F89030B5
:101F90008B42F9D80020704700AC0040FCD30040D1
:101FA00070B4D1F808C00C694D6844EA0C0C0C6898
:101FB000002D40D044F080444CEA040C8D69CC697B
:101FC00091F820602C434D6945EA06652C438D89C4
:101FD00044EA0544D0F88450806E00FB03F005EB22
:101FE0008000C0F800C0001D0460031D0020134CD9
:101FF000D1F80CC014F80CC0BCF1000F19D902EBD9
:10200000000C155C9CF8036045EA06659CF80260CC
:102010009CF801C0360446EA0C2C45EA0C0CC3F8C7
:1020200000C01B1D001DD1F80CC014F80CC0844565
:10203000E5D870BC70474CEA844CBFE764CD00081B
:10204000F0B41F4CFF211D4B0222254627462A26AD
:102050002170697009211A7003220578BD70254628
:10206000E97021460A7122464E71264681789171A7
:1020700041880A0AF271224600210D46117211466A
:102080004D722546017991720C218088020AEA720C
:10209000002019700222A55C521C0C2A284480B230
:1020A000F9DBFF2800D9C0B2C04360544A1C1A7043
:1020B000F0BC03490D22034805F084B9C400002494
:1020C000680E0024B81C0024024910B508F0B0FCCA
:1020D000002010BDC01100242DE9F84F044602F085
:1020E000B1F800905CB194F8350002280AD0802045
:1020F0006065002084F834000120BDE8F88F0120DD
:10210000BDE8F88FB6492068B64EB74F8842DFF871
:10211000DC82DFF8DC92DFF8DCA2DFF8DCB226D06C
:10212000B04224D0B84222D0404520D048451ED0ED
:1021300050451CD058451AD0B04A904217D0B04AEA
:10214000904214D0AF4A904211D0AF4A90420ED084
:10215000AE4A90420BD0AE4A904208D0AD4A90426F
:1021600005D0AD4A904202D0AC4A90420AD10268F2
:1021700022F01E0202602068426922F08002426161
:10218000256804E0026822F00E02026025682068DB
:1021900088423ED0B0423CD0B8423AD0404538D0D8
:1021A000484536D0504534D0584532D0934A9042B5
:1021B0002FD0934A90422CD0924A904229D0924AF2
:1021C000904226D0914A904223D0914A904220D00A
:1021D000904A90421DD0904A90421AD08F4A904225
:1021E00017D08F4A904214D08E4A904211D08E4A16
:1021F00090420ED08D4A90420BD08D4A904208D02A
:102200008C4A904205D08C4A904202D08B4A904230
:1022100004D1206E026822F4807202607049206846
:10222000884226D0B04224D0B84222D0404520D0A7
:1022300048451ED050451CD058451AD06F49884299
:1022400017D06F49884214D06E49884211D06E4928
:1022500088420ED06D4988420BD06D49884208D023
:102260006C49884205D06C49884202D06B4988424B
:1022700004D1016821F00101016003E0016821F04F
:1022800001010160286810F0010F14D001F0DAFF9D
:102290000099401A05280AD920206065032084F897
:1022A0003500002084F834000120BDE8F88F28684C
:1022B00010F0010FEAD14A4A01212068904226D04D
:1022C000B04224D0B84222D0404520D048451ED04C
:1022D00050451CD058451AD0484B984217D0484B0F
:1022E000984214D0474B984211D0474B98420ED099
:1022F000464B98420BD0464B984208D0454B9842EB
:1023000005D0454B984202D0444B98420AD1A06D6B
:102310004FF03F0C94F85C3003F01F030CFA03F30A
:10232000836007E0A06D94F85C3003F01F0301FAAE
:1023300003F34360206890423ED0B0423CD0B842A4
:102340003AD0404538D0484536D0504534D058452D
:1023500032D02A4A90422FD0294A90422CD0294A82
:10236000904229D0284A904226D0284A904223D031
:10237000274A904220D0274A90421DD0264A9042B8
:102380001AD0264A904217D0254A904214D0254AA6
:10239000904211D0244A90420ED0244A90420BD051
:1023A000234A904208D0234A904205D0224A9042C4
:1023B00002D0224A90420BD1626EA06E5060E06E55
:1023C00030B1026822F480720260226F606F506048
:1023D00084F83510002084F83400BDE8F88F000040
:1023E0001000024028000240400002405800024015
:1023F0007000024088000240A0000240B800024085
:1024000010040240280402404004024058040240E4
:102410007004024088040240A0040240B804024054
:10242000085402581C54025830540258445402585C
:10243000585402586C54025880540258945402580C
:102440002DE9F05F002808D090F83510022907D058
:10245000802141650120BDE8F09F0120BDE8F09F8B
:10246000DFF81CE20168874BDFF81CC27145874C1E
:10247000874D884E884FDFF82482DFF82492DFF8FA
:1024800024A2DFF824B2894A25D0994223D061459D
:1024900021D0A1421FD0A9421DD0B1421BD0B942C8
:1024A00019D0DFF80CE2714515D0DFF808E271456C
:1024B00011D0DFF804E271450DD041450BD04945FC
:1024C00009D0DFF8F8E1714505D0514503D05945F1
:1024D00001D0914232D14FF0040E80F835E06848C7
:1024E000814221D099421FD061451DD0A1421BD00D
:1024F000A94219D0B14217D0B94215D06C488142D7
:1025000012D06C4881420FD06B4881420CD04145BB
:102510000AD0494508D06948814205D0514503D0C9
:10252000594501D0914204D1086820F001000860AB
:10253000A3E0086820F0010008609EE0D1F800E008
:102540002EF00E0EC1F800E0DFF834E101687145AD
:1025500025D0994223D0614521D0A1421FD0A94264
:102560001DD0B1421BD0B94219D0DFF844E171450A
:1025700015D0DFF840E1714511D0DFF83CE171453D
:102580000DD041450BD0494509D0DFF830E1714508
:1025900005D0514503D0594501D0914206D1D1F81B
:1025A00000E02EF0010EC1F800E005E0D1F800E0F7
:1025B0002EF0010EC1F800E0DFF8C4E001687145BB
:1025C00039D0994237D0614535D0A14233D0A942A4
:1025D00031D0B1422FD0B9422DD0354B99422AD0BB
:1025E000344B994227D0344B994224D0414522D0D4
:1025F000494520D0314B99421DD051451BD05945FA
:1026000019D0914217D02E4A914214D02D4A9142AE
:1026100011D02D4A91420ED02C4A91420BD02C4A17
:10262000914208D02B4A914205D02B4A914202D0C8
:102630002A4A914218D1016E0A6822F480720A6017
:10264000816D90F85C2002F01F0301229A404A60DD
:10265000426E816E5160C16E31B10A6822F480729F
:102660000A60026F416F5160012180F8351000212E
:1026700080F83410016D01B188470020BDE8F09F5B
:102680001000024028000240400002405800024072
:102690007000024088000240A00002404004024056
:1026A0005804024088040240A0040240B8040240DA
:1026B000B8000240100402402804024070040240A6
:1026C000085402581C5402583054025844540258BA
:1026D000585402586C54025880540258945402586A
:1026E000406D70472DE9F04F83B004460020029002
:1026F0004FF41651FD480068B0FBF1F00190A56D54
:102700002E682968FA4F2068DFF8E8A3DFF8E8B3FD
:10271000B842DFF8E883DFF8E8932DD052469042C4
:102720002AD05A46904227D0404525D0484523D04C
:10273000F44A904220D0F44A90421DD0F34A90428D
:102740001AD0F34A904217D0DFF8C8C3604513D0BF
:10275000F14A904210D0DFF8C4E370450CD0F04A43
:10276000904209D0EF4A904206D0EF4A904203D0FF
:10277000EE4B984240F0408294F85C10082201F041
:102780001F0102FA01F1314241D0B84228D0504530
:1027900026D0584524D0404522D0484520D0D9499C
:1027A00088421DD0D84988421AD0D849884217D0CB
:1027B000D749884214D0D749884211D0D649884297
:1027C0000ED0D64988420BD0D549884208D0D54989
:1027D000884205D0D449884202D0D449884203D1E6
:1027E000016801F0040102E0016801F0080171B123
:1027F000016821F00401016094F85C0000F01F0002
:1028000002FA00F0A860606D40F00100606594F885
:102810005C0000F01F01012000FA01F1314234D0C8
:102820002068B84228D0504526D0584524D040458D
:1028300022D0484520D0B34A90421DD0B24A90429F
:102840001AD0B24A904217D0B14A904214D0B14A3D
:10285000904211D0B04A90420ED0B04A90420BD074
:10286000AF4A904208D0AF4A904205D0AE4A90425B
:1028700002D0AE4A90427DD1406910F0800F04D062
:10288000A960606D40F00200606594F85C0000F0A3
:102890001F01042000FA01F1314234D02068B8420F
:1028A00028D0504526D0584524D0404522D0484510
:1028B00020D0944A90421DD0934A90421AD0934A15
:1028C000904217D0924A904214D0924A904211D02E
:1028D000914A90420ED0914A90420BD0904A904239
:1028E00008D0904A904205D08F4A904202D08F4A39
:1028F000904245D1006810F0020F04D0A960606DCD
:1029000040F00400606594F85C0000F01F011020A6
:1029100000FA01F1314259D02068B84228D0504520
:1029200026D0584524D0404522D0484520D0754A6D
:1029300090421DD0744A90421AD0744A904217D0E7
:10294000734A904214D0734A904211D0724A904216
:102950000ED0724A90420BD0714A904208D0714A10
:10296000904205D0704A904202D0704A904209D1FC
:10297000006800E002E000F0080006E0006884E77C
:102980000068C0E7006800F00400F8B1A9602068A2
:10299000016811F4802F0DD0006810F4002F04D0CE
:1029A000A16C99B12046884710E0216C71B1204696
:1029B00088470BE0016811F4807F03D1016821F0A2
:1029C00008010160216C09B12046884794F85C0039
:1029D00000F01F01202000FA01F131426FD0206881
:1029E000B84228D0504526D0584524D0404522D062
:1029F000484520D0434A90421DD0434A90421AD0C5
:102A0000424A904217D0424A904214D0414A9042E2
:102A100011D0414A90420ED0404A90420BD0404AD9
:102A2000904208D03F4A904205D03F4A904202D09F
:102A30003E4A904203D1006800F0100002E00068B6
:102A400000F00200D8B3A96094F8350004280DD036
:102A50002068016811F4802F37D0006810F4002F2F
:102A60002ED0E16B59B32046884764E020680168A6
:102A700021F0160101602068416921F08001416167
:102A8000206C08B9A06C20B12068016821F0080111
:102A9000016094F85C003F2100F01F0001FA00F093
:102AA000A860012084F83500002084F83400216DEE
:102AB00000297BD003B02046BDE8F04F084737E03F
:102AC000616CA9B32046884735E0016811F4807F26
:102AD00009D1016821F010010160012084F835005E
:102AE000002084F83400E16B11B322E0240C0024B0
:102AF00010000240280002404000024058000240FE
:102B00007000024088000240A0000240B80002406D
:102B100010040240280402404004024058040240CD
:102B20007004024088040240A0040240B80402403D
:102B300001E020468847606D002837D0606D10F0B6
:102B4000010F51D0042084F835002068B84228D005
:102B5000504526D0584524D0404522D0484520D065
:102B6000AB4988421DD0AB4988421AD0AA49884255
:102B700017D0AA49884214D0A949884211D0A9493E
:102B800088420ED0A84988420BD0A849884208D074
:102B9000A749884205D0A749884202D0A649884261
:102BA00005D1016821F00101016004E096E00168AF
:102BB00021F00101016021680298019A401C0290F5
:102BC000904203D8086810F0010FF5D1086810F0A2
:102BD000010F03D0032084F8350002E0012084F8BF
:102BE0003500002084F83400E16C002976D003B071
:102BF0002046BDE8F04F0847904B984214D0904BC8
:102C0000984211D08F4B98420ED08F4B98420BD0E8
:102C10008E4B984208D08E4B984205D08D4B9842EF
:102C200002D08D4B984259D103684FF0040A94F8B2
:102C30005C6006F01F060AFA06FA1AEA010F5AD07B
:102C400013F0040F57D0C5F804A013F4004F12D0AE
:102C500013F4803F07D0216C00293FD003B02046F9
:102C6000BDE8F04F0847A16C002937D003B02046DB
:102C7000BDE8F04F084713F0200F34D12068B84268
:102C800027D07649884224D07549884221D04045D2
:102C90001FD048451DD05E4988421AD05D49884200
:102CA00017D05D49884214D05C49884211D06045F4
:102CB0000FD05C4988420CD070450AD05B498842ED
:102CC00007D05B49884204D0904202D05A498842DA
:102CD00005D1016821F00801016004E083E001688A
:102CE00021F004010160216C00297CD003B0204652
:102CF000BDE8F04F08474FF0020A0AFA06FA1AEA4E
:102D0000010F5FD013F0020F5CD0C5F804A013F4DC
:102D1000004F12D013F4803F07D0E16B002974D02C
:102D200003B02046BDE8F04F0847616C00296CD025
:102D300003B02046BDE8F04F084713F0200F39D10B
:102D40002068B84227D04549884224D04449884267
:102D500021D040451FD048451DD02D4988421AD06A
:102D60002C49884217D02C49884214D02B498842DC
:102D700011D060450FD02B4988420CD070450AD045
:102D80002A49884207D02A49884204D0904202D07A
:102D90002949884204D1016821F01401016003E04F
:102DA000016821F00A010160012084F8350000204B
:102DB00084F83400E16B002927D003B02046BDE839
:102DC000F04F08470822B2400A421ED013F0080F05
:102DD0001BD0016821F00E01016094F85C0000F046
:102DE0001F01012000E010E000FA01F16960606558
:102DF00084F83500002084F83400E16C002904D008
:102E000003B02046BDE8F04F084703B0BDE8F08F9F
:102E100088000240A0000240B800024010040240B6
:102E2000280402404004024058040240700402405A
:102E300088040240A0040240B8040240085402582A
:102E40001C540258305402584454025858540258E2
:102E50006C5402588054025894540258280002407E
:102E6000400002402DE9F05F044601F0EBF9064610
:102E7000002C6AD0DC4F022220680025DFF86C832A
:102E8000DFF86C93B842DFF86CA3DFF86CB328D09E
:102E9000DA49884225D0404523D0484521D05045C5
:102EA0001FD058451DD0D64988421AD0D5498842EE
:102EB00017D0D549884214D0D449884211D0D4497A
:102EC00088420ED0D34988420BD0D349884208D0DB
:102ED000D249884205D0D249884202D0D14988429D
:102EE0007ED184F8352084F83450B84228D0C349C4
:102EF000884225D0404523D0484521D050451FD099
:102F000058451DD0BE4988421AD0BE49884217D0C4
:102F1000BD49884214D0BD49884211D0BC4988427D
:102F20000ED0BC4988420BD0BB49884208D0BB496F
:102F3000884205D0BA49884202D0BA49884207D1AE
:102F4000016821F00101016006E00120BDE8F09F69
:102F5000016821F0010101602068006810F0010F94
:102F600011D001F06FF9801B052807D9202060657A
:102F7000032084F835000120BDE8F09F2068006838
:102F800010F0010FEDD122681068A7490840E368EE
:102F9000A168D4F814C01943236943EA0C03194308
:102FA000A3691943E3691943236A19430843616A12
:102FB000042903D1236BE16A194308439B4909683B
:102FC0006FF30F01B1F1005F11D36168A1F1290323
:102FD000052B0AD9163B032B07D9083B012B00E030
:102FE0002CE002D94F39032901D840F48010106039
:102FF0002068406920F00701606A40EA0106042861
:103000000ED1A06A0643E06A50B12046FEF7E4FA0A
:1030100030B140206065012084F83500BDE8F09FA4
:10302000206846612046FEF7B3F994F85C103F2211
:1030300001F01F0102FA01F181605BE07C498842E6
:1030400014D07C4B984211D07B4B98420ED07B4BD6
:1030500098420BD07A4B984208D07A4B984205D0D0
:10306000794B984202D0794B98427DD188420CD05E
:103070007049884209D07049884206D06F49884219
:1030800003D06F49884200D06E4984F8352084F817
:10309000345002686FF31012A168402979D080295A
:1030A00079D00021E36841EAD301236941EAD301E1
:1030B000636941EAD301A36941EAD301E36941EAC3
:1030C000D301236A41EA131111430160604920686A
:1030D00001446048A0FB011000098000E065204623
:1030E000FEF756F994F85C10012201F01F0102FA74
:1030F00001F141602068B84242D0404988423FD047
:1031000040453DD048453BD0504539D0584537D053
:103110003B49884234D03B49884231D03A498842C1
:103120002ED03A4988422BD03949884228D0394993
:10313000884225D03849884222D0384988421FD059
:10314000374988421CD03749884219D038498842CB
:1031500016D03849884213D03749884210D03749B1
:1031600088420DD0364900E018E0884208D0354941
:10317000884205D03449884202D0344988422CD153
:103180002046FEF777F9A06880280FD00FE000E016
:1031900001E0102186E74FF4804183E7402060651D
:1031A000032084F835000120BDE8F09F6560216EA2
:1031B00020790860616EA06E48606068401E072834
:1031C00008D82046FEF7C2F9E06E0560216F606FF7
:1031D000486002E0E566256765676565012084F85B
:1031E00035000020BDE8F09F100002404000024082
:1031F000580002407000024088000240280002404F
:10320000A0000240B800024010040240280402401E
:103210004004024058040240700402408804024006
:10322000A0040240B80402403F8010FE0010005C81
:10323000085402581C54025830540258445402583E
:10324000585402586C5402588054025894540258EE
:10325000F8ABFDA7CDCCCCCC2DE9F84F044600202F
:103260000090002C16D094F83400012815D00120CD
:1032700084F8340094F835C00020BCF1010F0FD061
:103280004FF40061616584F83400012000900098DB
:10329000BDE8F88F0120BDE8F88F0220BDE8F88F67
:1032A0004FF0020C84F835C06065DFF82CC220684E
:1032B0008A4D8B4E60458B4FDFF82C82DFF82C92C5
:1032C000DFF82CA2DFF82CB22DD0A8422BD0B042D0
:1032D00029D0B84227D0404525D0484523D0504575
:1032E00021D058451FD0DFF810C260451BD0DFF851
:1032F0000CC2604517D0DFF808C2604513D0DFF874
:1033000004C260450FD0DFF800C260450BD0DFF883
:10331000FCC1604507D0DFF8F8C1604503D0DFF895
:10332000F4C1604506D1D0F800C02CF0010CC0F803
:1033300000C005E0D0F800C02CF0010CC0F800C0BF
:103340002046FEF789F964492068884225D0A842C2
:1033500023D0B04221D0B8421FD040451DD04845AF
:103360001BD0504519D0584517D0634A904214D00D
:10337000624A904211D0624A90420ED0614A904215
:103380000BD0614A904208D0604A904205D0604A12
:10339000904202D05F4A90420DD1026822F01E0294
:1033A00042F016020260206C90B12068026842F080
:1033B000080202600CE0026822F00E0242F00A02EB
:1033C0000260206C20B12068026842F004020260B2
:1033D000206888423DD0A8423BD0B04239D0B842A4
:1033E00037D0404535D0484533D0504531D0584589
:1033F0002FD0414A90422CD0404A904229D0404A96
:10340000904226D03F4A904223D03F4A904220D05B
:103410003E4A90421DD03E4A90421AD03D4A9042C8
:1034200017D03D4A904214D03C4A904211D03C4AB9
:1034300090420ED03B4A90420BD03B4A904208D07B
:103440003A4A904205D03A4A904202D0394A9042D4
:103450000ED1206E026812F4803F03D0026842F45D
:1034600080720260E06E18B1026842F480720260FD
:103470002068884225D0A84223D0B04221D0B8424B
:103480001FD040451DD048451BD0504519D0584548
:1034900017D01949884214D01849884211D01849C8
:1034A00088420ED0174988420BD01749884208D06D
:1034B0001649884205D01649884202D015498842EB
:1034C00004D1016841F001010160E0E6016841F0CA
:1034D00001010160DBE6000010000240280002400C
:1034E0004000024058000240700002408800024044
:1034F000A0000240B800024010040240280402402C
:103500004004024058040240700402408804024013
:10351000A0040240B8040240085402581C54025847
:103520003054025844540258585402586C540258AB
:10353000805402589454025890F89830012B09D0C6
:10354000022B07D0D0F89C1041F00201C0F89C106B
:10355000012070470368D3F858C01CEA010F06D158
:10356000D3F85CC04CF0010CC3F85CC008E0D3F8A1
:1035700058C031EA0C0C26D04FF0030CC3F85CC0E5
:1035800011F4007F06D00368D3F8E0C04CEA020CC7
:10359000C3F8E0C011F4806F06D00368D3F8E4C02C
:1035A0004CEA0202C3F8E4200068426D21F44013A3
:1035B00023F040431A4342650648026842EA91718B
:1035C000016000207047D3F85CC04CF0020CC3F8D7
:1035D0005CC0D5E714A8004070B5044694F8980084
:1035E000022807D0D4F89C0040F00800C4F89C00E2
:1035F000012070BD2068D0F8C03013F07C5F0CD083
:10360000D0F8C43013F4001F0FD0D4F89C0040F45D
:103610000070C4F89C00012070BDD4F89C0040F0FC
:103620002000C4F89C00012070BDD0F8C400C0F395
:10363000044520462B46FEF7B3FC21680120A84034
:10364000C1F8D000C4F89400002070BD704790F815
:103650009820012A09D0022A07D0D0F89C1041F006
:103660000201C0F89C1001207047CA680B6893B132
:10367000072A0B6943EA42732ED091F808C04A69C1
:1036800042EA8C724968006F00EBC100036042603F
:103690004FF000007047072A12D091F808C04FEA97
:1036A000C2624B6943EA8C73B1F810C042EA0C4223
:1036B00043EA02024968C06E00EB81000260E7E75E
:1036C0000B8A4FF0605C8A6942EA0342CB694CEA9C
:1036D000032342EA0302EDE78A69D3E770477047A4
:1036E000F0B44FF0000C90F89840022C08D0D0F8BD
:1036F0009C1041F00801C0F89C10F0BC01207047FC
:1037000040290DD0412940D0046D8C4273D8D0F8A7
:103710009C1041F02001C0F89C10F0BC01207047C3
:103720000468D4F8A05015F4FE0F1CD0D4F8A450AF
:1037300015F07F0F20D0D4F8A45015F0807F06D06C
:10374000D4F8A05015F0004F01D54FF0010CD4F87B
:10375000A440C4F30524A444456C446F05FB0CF558
:1037600004EB85044DE0D0F89C1041F02001C0F836
:103770009C10F0BC01207047D0F89C1041F480717F
:10378000C0F89C10F0BC012070470468D4F8B05019
:1037900015F4FE0F1CD0D4F8B45015F07F0F20D0D4
:1037A000D4F8B45015F0807F06D0D4F8B05015F09E
:1037B000004F01D54FF0010CD4F8B440C4F30524F8
:1037C000A444C56C846F05FB0CF504EB850418E07C
:1037D000D0F89C1041F02001C0F89C10F0BC0120F2
:1037E0007047D0F89C1041F48071C0F89C10F0BC78
:1037F00001207047FFE7456DC46F05FB01F504EB41
:103800008504256805F080455560E5B3256825F0F9
:1038100060451560256805F000559560256805F040
:1038200000451561241D2588ADB2D5612568C5F315
:103830000347D760256805F480155561256805F4B0
:10384000001595612568C5F3066515622568ED0FBD
:103850005562251D0024184EF75D002F06D92F5DF7
:103860001F55641CD768F75DA742F8D8402910D0CF
:10387000412912D00122202913D2006802FA01F155
:10388000C0F8981014E0FFE72568C5F38A45156075
:10389000C0E70068C0F8A8C00AE00068C0F8B8C077
:1038A00006E0006801F01F0102FA01F1C0F89C1067
:1038B0000020F0BC7047000064CD00087047000095
:1038C0002DE9F04F83B00446BC4F38688007391D9E
:1038D000096800EA81792068016D01F47041426D48
:1038E00002EA010A016D01F00F01426D02EA010BCB
:1038F000016D01F0F001426D11400291016D01F086
:103900007151426D02EA0108016D01F06071426D72
:1039100011400191456D066D15F4807F09D016F4B4
:10392000807F06D0B9150165002038602046FFF77A
:10393000C5FF15F4806F10D016F4806F0DD020688D
:10394000D0F8DC10D0F8E42011404FF4806202651A
:1039500000203860204600F063FBB9F1000F0CD066
:10396000216829F4401020F0404008654FEA997022
:10397000386049462046FFF769FEBAF1000F0CD0C7
:1039800021682AF4401020F0404008654FEA9A7000
:1039900038605146204600F045FBBBF1000F0CD0CB
:1039A00021682BF4401020F0404008654FEA9B70DE
:1039B00038605946204600F0E5FA029868B121685F
:1039C000029820F4401020F0404008650298800FD3
:1039D00038600299204600F003FB15F4006F0BD00D
:1039E00016F4006F08D021684FF4006008650020CD
:1039F0003860204600F017FB15F4007F10D016F455
:103A0000007F0DD02068D0F8D810D0F8E020114009
:103A10004FF40072026500203860204600F001FB80
:103A200015F4002F0BD016F4002F08D021684FF4A6
:103A30000020086500203860204600F0A1FA15F447
:103A4000803F0BD016F4803F08D021684FF48030BF
:103A5000086500203860204600F0E1FA15F4802F58
:103A60000BD016F4802F08D021684FF48020086511
:103A700000203860204600F0D1FA15F4003F0ED047
:103A800016F4003F0BD021684FF400300865002089
:103A90003860D4F89C0040F08000C4F89C00019885
:103AA00068B12168019820F4401020F0404008657A
:103AB0000198800F386001992046FFF710FEB8F199
:103AC000000F0ED0216828F4401020F04040086517
:103AD0004FEA98703860D4F89C0040EA0800C4F8B7
:103AE0009C002068A0F18041B1F520415CD1606864
:103AF000816811F0030F57D0016A01F00F01426A8B
:103B00001140026A02F03002436A03EA0207026AC5
:103B100002F4C072436A03EA0208026A02F4FC4239
:103B2000436A03EA0205026A02F4F022436A03EAE6
:103B30000206D0F82490D0F820A019B101622046E6
:103B400000F069FA2FB1606807623946204600F03C
:103B500064FA19F0400F0DD01AF0400F0AD06068D7
:103B6000C16B090CC26B02F03F0240230362204686
:103B700000F052FAB8F1000F06D06068C0F820805B
:103B80004146204600F046FA35B160680562D4F837
:103B90009C002843C4F89C0036B160680662D4F8E3
:103BA0009C003043C4F89C00D4F89C00002802D04C
:103BB0002046FFF793FD03B0BDE8F08F10A800404A
:103BC0002DE9F04194B004464C22A14901A8FCF72C
:103BD000AFFC5CB19F4F2068B84202D100F5807005
:103BE000606094F89800002620B108E014B001202D
:103BF000BDE8F08184F89960204600F02DF9206836
:103C0000816921F01001816100F01CFB05462068EC
:103C100080694FF0030810F0080F15D000F012FB78
:103C2000401B0A280BD9D4F89C0040F00100C4F8CE
:103C30009C0084F8988014B00120BDE8F0812068D1
:103C4000806910F0080FE9D12068816941F0010115
:103C5000816100F0F7FA05462068806910F0010FD5
:103C600015D100F0EFFA401B0A280BD9D4F89C00BC
:103C700040F00100C4F89C0084F8988014B0012042
:103C8000BDE8F0812068806910F0010FE9D020685C
:103C9000816941F002018161207C012839D02068CE
:103CA000816941F040018161607C012837D0206842
:103CB000816921F480418161A07C012835D0206890
:103CC000816941F48051816120688169A26821F491
:103CD0004071114381612068816921F0A4018161F3
:103CE0002068016921F010010161E068012822D0FB
:103CF00030B302282BD02068816941F080018161B6
:103D00002068016941F010010161E068032818D0C2
:103D100022E02068816921F040018161C4E72068C8
:103D2000816941F480418161C6E72068816921F49D
:103D300080518161C8E72068816941F00401816197
:103D40000AE02068816941F02001816104E0206877
:103D5000816941F020018161207EE169401E491E98
:103D6000400640EA0120216A491E0843A18A491EF3
:103D700040EA01402168C861A068B0F5407F0FD1DA
:103D8000E16AA06A491E401E40EA0120216B491EDB
:103D900040EA0110A18C491E40EA01402168C86038
:103DA000206E30B12068D0F8C010626E1143C0F8A8
:103DB000C010216EE06DC84201A90AD02068D0F879
:103DC000C820A36E22F0070251F823301A43C0F82E
:103DD000C820206C50B12068D0F8BC20636C22F061
:103DE000070251F823301A43C0F8BC20A06C58B128
:103DF0002068D0F8BC20E36C22F0700251F8233028
:103E000042EA0312C0F8BC20206D58B12068D0F8F7
:103E1000BC20636D22F4E06251F8231042EA0121D4
:103E2000C0F8BC102068B84204D16068816821F0F5
:103E300003018160C4F89460C4F89C60012084F898
:103E400098002046FDF7B2FF14B0BDE8F0810000F5
:103E500074CD000800A000402DE9F043B7B08046C3
:103E6000142130A8FCF796FBC0216846FCF792FBB2
:103E70003E4D0026D8F800004FF080513C4A0C3DE2
:103E8000394F4FF00208394C90424FF0090931D1B7
:103E900000201C914A13CDE90020684600F0AAFCDE
:103EA00008B1FDF760FF3868401C3860012807D171
:103EB000206840F480702060206800F480703590A5
:103EC000286840F00100286028684FF4C052309202
:103ED00030A900F00100CDE931863396CDE9349068
:103EE000244800F0A1F800221320114600F028FA1F
:103EF000132033E0204A904232D100201C914FF42D
:103F00000042CDE90020684600F074FC08B1FDF7DE
:103F10002AFF3868401C3860012807D1206840F427
:103F200080702060206800F480703590286840F030
:103F30000200286028686022309230A900F0020058
:103F4000CDE931863396CDE934900C4800F06CF819
:103F500000221420114600F0F3F9142000F0E2F9D9
:103F600037B0BDE8F0830000140C0024EC44025884
:103F700000A000400000025800A4004000040258C5
:103F80007047000030B51349044600688DB00AAD93
:103F900088420BD140212B466A462046FFF7A0FB02
:103FA000012803D00C48C168684688470B4920683F
:103FB00088420CD140212B466A462046FFF790FBF1
:103FC000012804D004481030C168684688470DB005
:103FD00030BD000000A00040F00B002400A4004011
:103FE000704790F89810012907D0D0F89C1041F044
:103FF0000401C0F89C1001207047022180F898103D
:1040000001688A6922F001028A610021C0F89C10CF
:10401000002070477047704770477047704770477F
:1040200070477047704770472DE9F84F0022DFF85E
:10403000E4C10B68002B7DD0DFF8DCB14FF0B04A53
:104040004FF0010E4FF003084FF00F090B680EFA06
:1040500002F52B40002B6ED00C7904F00304012CE8
:1040600001D0022C11D18668540008FA04F7BE432F
:10407000CF6807FA04F4344384604468AC430D7994
:10408000C5F3001595402C4344604C6838EA04049D
:1040900009D0C568540008FA04F6B5438E6806FADC
:1040A00004F42C43C4600C7904F00304022C0DD1F9
:1040B000D40800EB84052E6A5407E40E09FA04F7CD
:1040C000BE430F6907FA04F434432C6205685400B8
:1040D00008FA04F6B5430E7906F0030606FA04F46E
:1040E0002C4304604C6814F4403F78D0DBF8004067
:1040F00044F00204CBF80040DBF8004004F0020476
:10410000009422F0030404F1B046D6F80844950761
:104110002D0F09FA05F724EA0707A0F1B044B4F51A
:10412000003463D0A0F1B044B4F5013460D0A0F104
:10413000B04401E058E052E0B4F502345AD0A0F1A6
:10414000B044B4F5033457D0A0F1B044B4F504340E
:1041500054D0A0F1B044B4F5053451D0A0F1B0442E
:10416000B4F506344ED0A0F1B044B4F507344BD0CA
:10417000A0F1B044B4F5083448D0A0F1B044B4F58F
:10418000093445D00A24AC403C43C6F80844DAF868
:1041900000409C434D6815F4801F00D01C43CAF8B2
:1041A0000040DAF804409C434D6815F4001F00D02D
:1041B0001C43CAF80440DCF804409C434D6815F4E5
:1041C000003F00D01C43CCF80440DCF800409C4386
:1041D0004D6815F4803F00D01C43CCF80040521CC1
:1041E0000B68D3407FF432AFBDE8F88F0024CAE7F4
:1041F0000124C8E70224C6E70324C4E70424C2E775
:104200000524C0E70624BEE70724BCE70824BAE774
:104210000924B8E780000058F444025800690842B5
:1042200001D00120704700207047002A01D0816131
:10423000704709048161704701480068000C7047AD
:104240000010005C0148806870470000180C0024D2
:10425000024881680278114481607047180C00247C
:1042600010B5032000F0A2F801F0C2F90F4A11685E
:10427000C1F303230E49CB5C03F01F03D84012683F
:1042800002F00F02895C0B4A01F01F0120FA01F1D4
:10429000116009490860002000F010F808B1012001
:1042A00010BD00F031F8002010BD00001844025885
:1042B000F0CD0008280C0024240C002470B504461E
:1042C0000F4D2A78002A0CD04FF47A700D49B0FBBC
:1042D000F2F00968B1FBF0F001F016FE18B1012010
:1042E00070BD012070BD102C07D200222146501E47
:1042F00000F026F86C60002070BD012070BD000049
:10430000180C0024240C0024054808B5016841F06D
:1043100002010160006800F00200009008BD00008A
:10432000F444025800280ADB012200F01F0102FABF
:1043300001F14009800000F1E020C0F80011704751
:104340004DF8044D184B1B68C3F30223C3F1070C4F
:10435000BCF1040F01D94FF0040C1C1D072C01D235
:10436000002300E0DB1E012404FA0CFCACF1010C7C
:104370000CEA0101994004FA03F35B1E1A40114351
:10438000002807DB00F1E020090180F800145DF847
:10439000044B704700F00F0000F1E020090180F8A5
:1043A000141D5DF8044B70470CED00E000F00700B1
:1043B000064A11684FF6FF03194041EA002040F019
:1043C000FD7040F080601060704700000CED00E070
:1043D00070B515490A6812F0040F0DD00A6822F072
:1043E000070210430860FFF72DFF04460F4D2868B1
:1043F00010F4005F09D014E0096801F00701814260
:1044000001D0012070BD002070BDFFF71BFF001B15
:10441000B0F57A7F01D9012070BD286810F4005FE3
:10442000F3D0002070BD00000C4802580448025828
:1044300010B501F091F805490968054AC1F3021168
:10444000515C01F01F01C84010BD0000204402581B
:10445000F0CD000869490A6802F003020968C1F357
:104460000531674B1B68C3F30013DFF898C1DCF814
:1044700000C0CCF3CC0C1CFB03F300EE103AB8EEFA
:10448000400A002972D09FED601A604B002AF7EEB7
:10449000000A46D0DFED5E1A012A68D0022A67D0F2
:1044A00002EE101A1968F8EE422A81EEA22AC1F330
:1044B000080101EE901AF8EE611A40EE011A31EE91
:1044C000A00A22EE000A1968C1F3462101EE101A73
:1044D000B8EE411A31EE201AC0EE011ABCEEE11A14
:1044E00080ED001A1968C1F3064101EE101AB8EE0A
:1044F000411A31EE201AC0EE011ABCEEE11A80ED2D
:10450000011A1968C1F3066101EE101AB8EE411ADA
:1045100071EE200A80EE201ABCEEC10A80ED020A7C
:1045200070473C4AD2F800C01CF0200F21D012681E
:10453000DFF8E4C0C2F3C1022CFA02F201EE902AC5
:10454000F8EE612A01EE901A1968F8EE611A82EE0F
:10455000A12AC1F3080101EE901AF8EE611A40EEAB
:10456000011A31EEA00A22EE000AACE741E016E0A3
:1045700029E001EE901ADFED292A1968F8EE611A98
:1045800082EEA12AC1F3080101EE901AF8EE611A39
:1045900040EE011A31EEA00A22EE000A93E702EE85
:1045A000101A1968F8EE422A81EEA22AC1F3080116
:1045B00001EE901AF8EE611A40EE011A31EEA00AEF
:1045C00022EE000A7FE701EE901ADFED152A196846
:1045D000F8EE611A82EEA12AC1F3080101EE901AE9
:1045E000F8EE611A40EE011A31EEA00A22EE000A3E
:1045F00069E70021016041608160704728440258EA
:104600002C4402583C4402580000003938440258F7
:104610000024744A004402580090D0030024744CD3
:104620000024F44A69490A6802F003020968C1F3E8
:104630000551674B1B68C3F30023DFF898C1DCF812
:1046400000C0CCF3CC0C1CFB03F300EE103AB8EE28
:10465000400A002972D09FED601A604B002AF7EEE5
:10466000000A46D0DFED5E1A012A68D0022A67D020
:1046700002EE101A1968F8EE422A81EEA22AC1F35E
:10468000080101EE901AF8EE611A40EE011A31EEBF
:10469000A00A22EE000A1968C1F3462101EE101AA1
:1046A000B8EE411A31EE201AC0EE011ABCEEE11A42
:1046B00080ED001A1968C1F3064101EE101AB8EE38
:1046C000411A31EE201AC0EE011ABCEEE11A80ED5B
:1046D000011A1968C1F3066101EE101AB8EE411A09
:1046E00071EE200A80EE201ABCEEC10A80ED020AAB
:1046F00070473C4AD2F800C01CF0200F21D012684D
:10470000DFF8E4C0C2F3C1022CFA02F201EE902AF3
:10471000F8EE612A01EE901A1968F8EE611A82EE3D
:10472000A12AC1F3080101EE901AF8EE611A40EED9
:10473000011A31EEA00A22EE000AACE741E016E0D1
:1047400029E001EE901ADFED292A1968F8EE611AC6
:1047500082EEA12AC1F3080101EE901AF8EE611A67
:1047600040EE011A31EEA00A22EE000A93E702EEB3
:10477000101A1968F8EE422A81EEA22AC1F3080144
:1047800001EE901AF8EE611A40EE011A31EEA00A1D
:1047900022EE000A7FE701EE901ADFED152A196874
:1047A000F8EE611A82EEA12AC1F3080101EE901A17
:1047B000F8EE611A40EE011A31EEA00A22EE000A6C
:1047C00069E7002101604160816070472844025818
:1047D0002C44025844440258000000394044025816
:1047E0000024744A004402580090D0030024744C02
:1047F0000024F44A2DE9F84F0446002500262068DD
:10480000C04310F0006FFE4FDFF8F8830DD1A06EAB
:1048100088B1B0F5801F13D0B0F5001F17D0B0F5E8
:10482000401F00D00125CDB12E462088C04310F492
:10483000807F1CD039E0386840F400303860F2E7FF
:10484000022104F1080004F0C1F90546EBE702215A
:1048500004F1280004F05AFA0546E4E7D8F800000D
:10486000A16E20F440100843C8F80000DDE7A06DF9
:10487000052817D2DFE800F003080F171700386883
:1048800040F4003038600EE0002104F1080004F02C
:104890009DF9054607E0002104F1280004F036FAEE
:1048A000054600E0012535B12E462088C04310F4AE
:1048B000007F09D018E0D8F80000A16D20F00700B3
:1048C0000843C8F80000F0E7E06D802820D003DC42
:1048D00090B1402805D114E0C02803D0B0F5807F06
:1048E00000D00125DDB12E462088DFF81C93C0439F
:1048F00010F4806F1CD02FE0386840F4003038602E
:10490000F0E7002104F1080004F060F90546E9E74A
:10491000002104F1280004F0F9F90546E2E7D8F88F
:104920000000E16D20F4E0700843C8F80000DBE708
:10493000D4F8A800B0F5800F20D004DC90B1B0F519
:10494000001F06D113E0B0F5C00F03D0B0F5000F83
:1049500000D00125CDB12E462088C04310F4006F51
:104960001DD030E0386840F400303860F2E70021B4
:1049700004F1080004F02AF90546EBE7002104F1F0
:10498000280004F0C3F90546E4E7D9F80000D4F89C
:10499000A81020F460000843C9F80000DCE7D4F850
:1049A000AC00B0F1007F20D004DC90B1B0F1807F8A
:1049B00006D113E0B0F1407F03D0B0F1806F00D09A
:1049C0000125CDB12E462068C04310F0007F1DD0D8
:1049D00027E0386840F400303860F2E7002104F145
:1049E000080004F0F3F80546EBE7002104F1280085
:1049F00004F08CF90546E4E7D9F80000D4F8AC10CF
:104A000020F0E0600843C9F80000DCE7E06C30B15A
:104A100010280CD020280FD0302800D0012595B1C7
:104A20002E462088C04310F4805F14D026E03868FA
:104A300040F400303860F2E7022104F1080004F08D
:104A4000C5F80546EBE771480168E26C21F03001DA
:104A500011430160E5E7206EB0F5005F20D004DC73
:104A600090B1B0F5805F06D113E0B0F5405F03D0A0
:104A7000B0F5804F00D00125CDB12E462088C0432F
:104A800010F4005F1CD031E0386840F4003038602A
:104A9000F2E7002104F1080004F098F80546EBE77E
:104AA000002104F1280004F031F90546E4E7D8F8C4
:104AB0000000216E20F4E0400843C8F80000DDE764
:104AC000606EB0F5403F0FD007DC68B1B0F5803FB5
:104AD00012D0B0F5003F06D115E0B0F5802F03D01D
:104AE000B0F5A02F00D00125A5B12E462088C043E7
:104AF00010F4804F17D02DE0012104F1080004F0DC
:104B000065F80546F0E7012104F1280004F0FEF8FD
:104B10000546E9E7D8F80000616E20F4E02008437C
:104B2000C8F80000E2E7D4F8B000B0F1405F0FD061
:104B300007DC68B1B0F1805F12D0B0F1005F06D140
:104B400015E0B0F1804F03D0B0F1A04F00D00125A7
:104B5000A5B12E462088C04310F4004F18D022E0A3
:104B6000012104F1080004F031F80546F0E70121C5
:104B700004F1280004F0CAF80546E9E7D9F8000076
:104B8000D4F8B01020F0E0400843C9F80000E1E795
:104B9000206F30B1B0F1805F0BD0B0F1005F0DD06D
:104BA000012595B12E462068C04310F0807F15D0B6
:104BB0001FE0386840F400303860F2E7012104F16A
:104BC000080004F003F80546EBE7D8F80000216F71
:104BD00020F040500843C8F80000E4E7A06C30B172
:104BE000012819D002281CD0032800D00125FDB1CE
:104BF0002E462068DFF818B0C04310F4800F09E09B
:104C00002C44025850440258584402584C4402580C
:104C10001044025814D030E0386840F40030386056
:104C2000E5E7022104F1080003F0D0FF0546DEE7C6
:104C3000F8480168A26C21F0030111430160D8E734
:104C4000F548006840F48071F3480160FFF7FAFA14
:104C50008246F148006810F4807F0CD1FFF7F2FA29
:104C6000A0EB0A00642801D9032504E0EA480068A3
:104C700010F4807FF2D045B12E462078DFF89CA357
:104C8000C04310F0010F60D070E0DFF894A3DAF8B1
:104C90000000B4F8B41000F4407001F44071884290
:104CA00011D0DAF8000020F44070DAF8001041F476
:104CB0008031CAF80010DAF8001021F48031CAF807
:104CC0000010CAF80000D4F8B400B0F5807F16D107
:104CD000FFF7B8FA0090DAF8000010F0020F0ED1DA
:104CE000FFF7B0FA0099411A41F28830814201D9A8
:104CF000032504E0DAF8000010F0020FF0D00DB147
:104D00002E46BAE7D4F8B4004FF4407181430FD077
:104D1000DBF8000020F47C50CBF80000DAF800004B
:104D2000B4F8B410C1F30B010843CAF80000A4E7BB
:104D3000DBF8001020F4407020F0704021F47C512A
:104D400041EA1010CBF80000E8E7E06F18280BD01C
:104D500005DC48B108280FD0102804D113E0202822
:104D600002D0282800D00125A5B12E462078C043C6
:104D700010F0020F17D02FE0012104F1080003F01A
:104D800025FF0546F0E7012104F1280003F0BEFFEE
:104D90000546E9E7DAF80000E16F20F03800084343
:104DA000CAF80000E2E7A06F062812D2DFE800F0A0
:104DB00012030A121212012104F1080003F006FF87
:104DC000054607E0012104F1280003F09FFF054696
:104DD00000E0012535B12E462078C04310F0040FC5
:104DE00009D022E0DAF80000A16F20F007000843A4
:104DF000CAF80000F0E7D4F89400062812D2DFE8E1
:104E000000F012030A121212012104F1080003F04B
:104E1000DDFE054607E0012104F1280003F076FFDE
:104E2000054600E0012535B12E462078C04310F03C
:104E3000200F0AD020E0D9F80000D4F8941020F018
:104E400007000843C9F80000EFE7D4F89000B0F17C
:104E5000405F0FD007DC68B1B0F1805F12D0B0F1D5
:104E6000005F06D115E0B0F1804F03D0B0F1A04F44
:104E700000D00125A5B12E462078C04310F0400F88
:104E800018D02EE0002104F1080003F09FFE054633
:104E9000F0E7022104F1280003F038FF0546E9E7B6
:104EA000DAF80000D4F8901020F0E0400843CAF887
:104EB0000000E1E7D4F89C00B0F5406F0FD007DCAC
:104EC00068B1B0F5806F12D0B0F5006F06D115E073
:104ED000B0F5805F03D0B0F5A05F00D00125A5B18B
:104EE0002E462078C04310F0800F18D02EE000210D
:104EF00004F1080003F06AFE0546F0E7022104F120
:104F0000280003F003FF0546E9E7D9F80000D4F8CC
:104F10009C1020F4E0500843C9F80000E1E7D4F801
:104F2000A000B0F5C04F0FD007DC68B1B0F5005F4E
:104F300012D0B0F5804F06D115E0B0F5004F03D088
:104F4000B0F5204F00D00125A5B12E462078C043F2
:104F500010F0080F18D02CE0002104F1080003F035
:104F600035FE0546F0E7022104F1280003F0CEFEED
:104F70000546E9E7D9F80000D4F8A01020F4604015
:104F80000843C9F80000E1E7D4F88400B0F5805F79
:104F900006D1022104F1280003F0B8FE00B1012679
:104FA000DAF80000D4F8841020F440500843CAF81E
:104FB00000002078C04310F0100F14D1D4F89800EE
:104FC000B0F5807F06D1022104F1280003F09EFE97
:104FD00000B10126D9F80000D4F8981020F44070F0
:104FE0000843C9F800002068C04310F4002F0BD11B
:104FF000D4F8A400B0B1B0F5803F1AD0B0F5003FAE
:1050000000D00125E5B12E462068C04310F4802F62
:1050100020D02DE04C440258004802585444025815
:1050200070440258002104F1080003F0CFFD05464A
:10503000E8E7022104F1280003F068FE0546E1E7F5
:10504000D9F80000D4F8A41020F440300843C9F87F
:105050000000D9E7D4F88800B0F5801F0ED0B0F575
:10506000001F10D0B0F5401F00D0012595B12E468D
:105070002068C04310F4803F16D01DE0386840F42B
:1050800000303860F2E7012104F1280003F03EFE11
:105090000546EBE7DAF80000D4F8881020F4401059
:1050A0000843CAF80000E3E7206D58B1B0F5803F2F
:1050B0000DD0012595B12E462068C04310F0005F49
:1050C00014D01AE0386840F400303860F2E702216A
:1050D00004F1080003F07AFD0546EBE76E4801682D
:1050E000226D21F4803111430160E5E7022104F1D2
:1050F000280003F00BFE00B101262068C04310F425
:10510000003F0ED1D4F8800048B1B0F5807F0ED0BA
:10511000B0F5007F03D0B0F5407F00D001255DB130
:105120002E462068C04310F4801F0FD016E0386868
:1051300040F400303860F2E7DAF80000D4F880106C
:1051400020F440700843CAF80000EAE7D8F80000ED
:10515000616F20F000400843C8F800002068C04399
:1051600010F0805F08D1DBF80000D4F8B81020F40C
:1051700080400843CBF800002068C04310F4001FB3
:1051800007D1D8F80000E16E20F080700843C8F81D
:1051900000002068C04310F0804F0CD1DBF8000005
:1051A00020F40040CBF80000DBF80000D4F8BC107D
:1051B0000843CBF800002068C04310F0004F06D130
:1051C00035480168626D21F040511143016020684B
:1051D000C04310F4000F08D1DAF80000D4F88C10A6
:1051E00020F440000843CAF8000020790025C0439D
:1051F00000F00100284306D1002104F1080003F06B
:10520000E5FC00B106462079C04300F002002843C7
:1052100006D1012104F1080003F0D8FC00B10646D4
:105220002079C04300F00400284306D1022104F194
:10523000080003F0CBFC00B106462079C04300F023
:105240000800284306D1002104F1280003F05EFD88
:1052500000B106462079C04300F01000284306D173
:10526000012104F1280003F051FD00B10646207928
:10527000C04300F02000284306D1022104F1280099
:1052800003F044FD00B1064616B10120BDE8F88FD9
:105290000020BDE8F88F00004C4402582DE9F05F73
:1052A00004460D46002C17D0DFF88492D9F8000090
:1052B00000F00F00A84212D2D9F8000020F00F0031
:1052C0002843C9F80000D9F8000000F00F00A842F8
:1052D00005D00120BDE8F09F0120BDE8F09F2078B7
:1052E000944E10F0040F0AD02069316801F070016B
:1052F000884204D9316821F0700108433060207879
:105300008D4F10F0080F0AD06069396801F0700104
:10531000884204D9396821F0700108433860207848
:1053200010F0100F0AD0A069396801F4E0618842DA
:1053300004D9396821F4E061084338602078DFF847
:10534000FCB110F0200F0DD0E069DBF8001001F087
:105350007001884206D9DBF8001021F07001084383
:10536000CBF80000207810F0020F0AD0E068316816
:1053700001F00F01884204D9316821F00F01084380
:105380003060207810F0010F51D03068A16820F40F
:1053900070600843306060686949022808D00328BB
:1053A0000DD0012812D0096811F0040F34D011E09B
:1053B000096811F4003F0DD10120BDE8F09F096894
:1053C00011F0007F06D10120BDE8F09F096811F4BB
:1053D000807F1ED0DFF86CA1DAF8001021F0070101
:1053E0000843CAF80000FEF72DFF8046DAF80000F7
:1053F000616800F03800B0EBC10F18D0FEF722FF53
:10540000A0EB080141F28830814208D90320BDE8B1
:10541000F09F0120BDE8F09F0120BDE8F09FDAF881
:105420000000616800F03800B0EBC10FE6D12078D1
:1054300010F0020F0AD0E068316801F00F018842D5
:1054400004D2316821F00F0108433060D9F8000020
:1054500000F00F00A8420FD9D9F8000020F00F008B
:105460002843C9F80000D9F8000000F00F00A84256
:1054700002D00120BDE8F09F207810F0040F0AD080
:105480002069316801F07001884204D2316821F04E
:10549000700108433060207810F0080F0AD060696E
:1054A000396801F07001884204D2396821F0700136
:1054B00008433860207810F0100F0AD0A0693968CE
:1054C00001F4E061884204D2396821F4E0610843C4
:1054D0003860207810F0200F0DD0E069DBF8001064
:1054E00001F07001884206D2DBF8001021F0700153
:1054F0000843CBF8000000F07BF83168C1F30322C9
:1055000011498A5C02F01F02D040326802F00F029B
:10551000895C0E4A01F01F0120FA01F111600C496B
:1055200008600C480068BDE8F05FFEF7C7BE0000E9
:1055300000200052184402581C44025820440258CB
:105540000044025810440258F0CD0008280C0024F2
:10555000240C00241C0C00244DF804ED00F048F845
:105560000B4A11680B4BC1F30321595C01F01F0179
:1055700020FA01F11068084A00F00F00185C00F0F2
:105580001F0021FA00F01060044A11605DF804FB6E
:1055900018440258F0CD0008280C0024240C0024E4
:1055A0004DF804EDFFF7D8FF05490968054AC1F336
:1055B0000211515C01F01F01C8405DF804FB0000BE
:1055C0001C440258F0CD00084DF804EDFFF7C4FF6D
:1055D00005490968054AC1F30221515C01F01F0128
:1055E000C8405DF804FB00001C440258F0CD0008E0
:1055F0004DF8044D69480068DFF8A4C1694B10F00C
:1056000038014ED008294FEA2C1047D0102959D024
:10561000182943D16448016801F003010068C0F310
:105620000510624A126802F00102614C2468C4F35A
:10563000CC0414FB02F200EE102AB8EE400A002857
:105640007BD0DFED5C0A5C4AB7EE001AA9B39FED90
:105650005B2A012974D0022971D001EE900A1068EA
:10566000F8EE611AC2EE212AC0F3080001EE900A9A
:10567000F8EE611A40EE201A31EE810A22EE800A1D
:105680001068C0F34620401C00EE900AF8EE600A55
:1056900080EE201ABCEEC10A10EE100A5DF8044B31
:1056A0007047186810F0200F08D018685DF8044B98
:1056B000C0F3C1002CFA00F0704707E05DF8044B1E
:1056C000604670473E485DF8044B7047196811F01A
:1056D000200F1CD01968C1F3C1012CFA01F101EEB1
:1056E000901AF8EE612A01EE900A1068F8EE611A3D
:1056F00082EEA12AC0F3080001EE900AF8EE611ACA
:1057000040EE201A31EE810A22EE000AB8E701EEDF
:10571000900ADFED2C2A1068F8EE611A82EEA12AB9
:10572000C0F3080001EE900AF8EE611A40EE201A6C
:1057300031EE810A22EE000AA2E72BE000E013E03E
:1057400001EE900A1068F8EE611AC2EE212AC0F349
:10575000080001EE900AF8EE611A40EE201A31EED0
:10576000810A22EE800A8BE701EE900ADFED162A0D
:105770001068F8EE611A82EEA12AC0F3080001EE6B
:10578000900AF8EE611A40EE201A31EE810A22EEFC
:10579000000A75E75DF8044B00207047104402587A
:1057A0000090D00300440258284402582C44025868
:1057B0003444025800000039304402580024744A2E
:1057C00000127A000024744C0024F44A2DE9F05FA2
:1057D0000446002C11D02078DFF8F883FE4F10F03B
:1057E000010FFE4D6BD0D8F8000000F0380039688A
:1057F000102823D0182803D006E00120BDE8F09F30
:1058000001F00300022819D06068B0F5803F1ED077
:1058100010B3B0F5A02F28D0286820F4803028607D
:10582000286820F480202860606878B3FEF70AFDBD
:105830000646286810F4003F20D040E0286810F4A5
:10584000003F3CD0606830BB0120BDE8F09F286875
:1058500040F480302860E7E7286820F48030286032
:10586000286820F480202860DEE7286840F4802043
:105870002860286840F480302860D5E7FEF7E2FC15
:10588000801B642803D90320BDE8F09F04E028684A
:1058900010F4003FF2D012E0FEF7D4FC0646286870
:1058A00010F4003F0BD0FEF7CDFC801B642802D91A
:1058B0000320BDE8F09F286810F4003FF3D1207862
:1058C00041F2030AC64E10F0020F4BD0D8F8000088
:1058D00000F038003968A0B1182802D111F0030F88
:1058E0000FD0E068002878D0296821F0190108431A
:1058F0002860FEF7A7FC8146286810F0040F41D00D
:105900004DE0286810F0040F01D0E06868B1286805
:10591000E16820F0190008432860FEF793FC8146F7
:10592000286810F0040F03D00FE00120BDE8F09FBD
:10593000FEF788FCA0EB0900022802D90320BDE88D
:10594000F09F286810F0040FF2D0FEF775FC504568
:1059500010D82069402806D0316821F47C3141EA12
:105960000030306051E0306820F47C3040F400308A
:1059700030604AE03068217C20F0FE4040EA01605F
:10598000306042E0FEF75EFCA0EB0900022802D97D
:105990000320BDE8F09F286810F0040FF2D0FEF756
:1059A0004BFC504511D82069402806D0316821F4BD
:1059B0007C3141EA0030306027E0306820F47C30F0
:1059C00040F40030306020E007E03068217C20F0B7
:1059D000FE4040EA0160306017E0286820F00100D6
:1059E0002860FEF72FFC8146286810F0040F0CD0C9
:1059F000FEF728FCA0EB0900022802D90320BDE82D
:105A0000F09F286810F0040FF2D1207810F0100FEA
:105A100045D0D8F8000000F038003968DFF8C4B18C
:105A2000082813D0182803D101F0030001280DD055
:105A3000E069A8B3286840F080002860FEF702FC07
:105A40008146286810F4807F2BD037E0286810F456
:105A5000807F05D0E069802802D00120BDE8F09F5A
:105A6000FEF7EAFB504510D8206A202806D031689E
:105A700021F0F84141EA8060306056E0306820F063
:105A8000F84040F0804030604FE0DBF8000094F8D0
:105A9000201020F07C5040EA0160CBF8000044E088
:105AA0002CE0FEF7CFFBA0EB0900022802D903206F
:105AB000BDE8F09F286810F4807FF2D0FEF7BCFBB1
:105AC000504510D8206A202806D0316821F0F841CE
:105AD00041EA8060306028E0306820F0F84040F013
